:020000040000FA
:060000000219FD020301DC
:03000B0002008D63
:0300130002051CC7
:03001B0002009050
:03002B000202B618
:03005B0002052B70
:030073000202EE98
:100080000406080C10182030406080A0C0054032E3
:10009000C2AFC2A853E6EFC28E85698BC0D0D2D35F
:1000A000C0E0C0F0C2CAA8CCA9CDD2CAD2AF758A6E
:1000B00000C3E8956AF8E9956BF9C3E913F9E81309
:1000C000F8E5646007C3E913F9E813F8E97025E877
:1000D000956C4020956C501CE582B410177C007B19
:1000E000007A007908900000A868E5647004C3E80D
:1000F00013F801FD900000D2A8D2AA61CCE0FDC3A4
:100100009CC39840EF98EB33FB0582E0FCC39DC392
:100110009840E198EB33FB0582E0FDC39CC3984017
:10012000D398EB33FB0582E0FCC39DC39840C59890
:10013000EB33FB0582E0FDC39CC39840B798EB33DB
:10014000FB0582E0FCC39DC39840A998EB33FB05F7
:1001500082E0FDC39CC398409B98EB33FB0582E093
:10016000FCC39DC398408D98EB33FB0582217890AA
:100170000000D2A8D2AA61CCE0FDC39CC39840EF96
:1001800098EA33FA0582E0FCC39DC39840E198EAFF
:1001900033FA0582E0FDC39CC39840D398EA33FA52
:1001A0000582E0FCC39DC39840C598EA33FA0582F6
:1001B000E0FDC39CC39840B798EA33FA0582E0FC9F
:1001C000C39DC39840A998EA33FA0582E0FDC39C19
:1001D000C398409B98EA33FA0582E0FCC39DC3981C
:1001E000408D98EA33FA0582EBC46B6A54F0F9EA61
:1001F000C454F0C3996009900000D2A8D2AA61CC7F
:10020000EBF4C454F0F9EAF4C4540E49FAEBF4C424
:10021000540FFBC3EA9460FAEB9400FB50067B009A
:100220007A007900303A27C3EA94D0F8EB9407F9C2
:10023000400BE8FAE9FB203509D23541423035025E
:10024000C235203902B235C3EA33FAEB33FBEB2B6C
:100250003B3BF9C3EB13FBEA13FAEA29FAEB340050
:10026000FB30E3047AFF7BFFE5255403601B202A63
:1002700018E55B33F9EB7007C3E99A4002E9FAE548
:100280003CC4332AFAEB3400FBC3EA33C4540FF8FE
:10029000EB33C454F048F87005EA6002780190002E
:1002A00000D2A8D2AAE5226002152281B9900000EE
:1002B000D2A8D2AA61CCC0D0C0E0C2CF0541E564CB
:1002C0006009E563600575630041E9756301E52335
:1002D00060021523C3E552600575530041E9E553FB
:1002E0002401F55350037553FFD0E0D0D032C2AF94
:1002F00053E67F7592FA7593FFC22053917FD2AF78
:1003000032C0E0E58A30340885698BF0A3D0E03252
:10031000D0E0C2AF53E6EFC0D0C0E0C0F0D2D3D23D
:10032000AF5388EFA88AA98CAA40308D010A758A3C
:1003300000758C00754000438810E564700AC3E8BE
:1003400033F8E933F9EA33FA30331FE8C4540FFACB
:10035000E9C454F04AFAC3132AFAC3E833F8E9337C
:10036000F9E82AFAE93406FB61BD30320FC3E833FD
:10037000E933FAE82AFAE93400FB61BD303115E8C7
:1003800075F056A4AAF0E975F056A42AFAC5F0341F
:1003900000FB61BDC3EA13FAE913F9E813F8E87545
:1003A000F056A4AAF0E975F056A42AFAC5F0340074
:1003B000C313FBEA13FAC3EB13FBEA13FAC3EB9480
:1003C000125009C3EA9434EB940750160522E52233
:1003D00070021522C3E52294325002A10F7552001B
:1003E000A112E522600215223036067C007D0861EC
:1003F000FCAC31AD32303A04AC33AD34C3EA9CFAD4
:10040000EB9DFB9208AE5EAF5F303A42500720355D
:1004100009D235811A303502C235303504AE60AFAD
:1004200061203902B235C3EA33FAEB33FBA208503C
:100430000AEAF42401FAEBF43400FBC3EA9450FA1C
:10044000EB9400FB501478007A007B00815AA208DC
:10045000500878007A007B0081B9E5255403601BC1
:10046000202A18E55B33F9EB7007C3E99A4002E9EB
:10047000FAE53CC4332AFAEB3400FBEA8EF0A4F927
:10048000AAF0EB8EF0A42AFAC5F03400FBC3EB13FC
:10049000FDEA13F8C3ED13FDE813F80FEF14600441
:1004A000C3E833F8C3E933EA33FAEB33FBDFEDEBB0
:1004B00030E30678FF7AFF7B078852D230E860038A
:1004C000755300C3E559FC955A4002AC5AC3EC95EC
:1004D000525008EC75F008A4FAABF0EAF4F8EBF42B
:1004E0005407F98854895575230AE55830E210D02D
:1004F000F0D0E0D0D053F7DF43F74043E61032D0DE
:10050000F0D0E0D0D053D8FE43DA0143E610327584
:10051000230AD0F0D0E0D0D043E61032C2AAD28E67
:10052000C2CA85CC6A85CD6BD2CA32C2AFC0D0C038
:10053000E0D2D38554FB8555FC85555853F7BF53FE
:10054000DAFED2A8303402D2AA53E6EF53F7DF53D3
:10055000D8FED0E0D0D0D2AF3279018014790380B8
:1005600010790A800C791E80087964800479C8802B
:10057000007817E4D5E0FDD8FAD9F62278FF2028D4
:100580002879A1E76023E548601F74FF8548F0845F
:10059000853FF030290375F005A4F8C5F0600278B6
:1005A000FFC3E8955B5002A85B885A22C3E54794D5
:1005B000A0E5489400E55A500314A1BD046002F57B
:1005C0005A2275E89022055CC3E55C9408405330DC
:1005D000EDF4A8BDA9BE755C00E9FA79A0E7604119
:1005E000EA7006E55D6018800CC3E8955D600EE575
:1005F0005D5005600A1480070460FA8002E55DF52D
:100600005DC39567401B7559C0C394044013755969
:1006100080C39404400B755940C39404400375593A
:100620000022E5592410500274FFF55922743279E2
:10063000A687F0A4C5F0A2F733F8C3E895594002A5
:10064000A859885B227547007548F022C2AFC2CA1C
:10065000A8CCA9CDAA4130CF010AD2CAD2AFC3EAF1
:1006600013FAE913F9E813F8AB42AC438842894323
:10067000C3E89BF8E99C20280A547FF9302C02E15A
:100680006AC1C3AD448A44F9EA9D547FFA60067892
:10069000FF79FFC1A8AE45AF468B458C46A842A95D
:1006A00043C3E89EF8E99FF9C3E54813FBE5471308
:1006B000FAE82AF547E93BF54850067547FF7548C3
:1006C000FFE110AA47AB48AC47AD487E047F02C3A8
:1006D000EB9404400D1E1FC3EB9408400520290233
:1006E0001E1FC3ED13FDEC13FCDEF7C3EA9CFAEB0F
:1006F0009DFBEF6009C3E913F9E813F8DFF7EA2877
:10070000FAEB39FB8A478B4850067BFF8B478B48B7
:10071000C3EB94025002D22C3028047F03E13B78D3
:1007200092E6FFC3E53D948240110FC3E53D94A0DE
:1007300040010FC3EF940640027F057E02E548C4E6
:10074000540FF9E548C454F0F8E547C4540F28F8AD
:10075000C3E89EFAE99400FB4009C3EA9401EB94D4
:100760000050047A01E4FB0207B6AA47AB48EBC489
:10077000FEEAC4540F4EFCC3EA9CFAEB9400FBC3A0
:10078000E813C313F8EA28FAEB3400FB8A478B48D6
:10079000C3EB94024002C22C7802EBC4FE7B00EA59
:1007A000C4540F4EFAC3EA98FA4005C394015002AC
:1007B0007A017892E6FF302002E1B6854E92854FAD
:1007C00093D22043E680C3E49AF8E49BF9C3E8336C
:1007D000F8E933F9302C0302084BE8FAE9FBD3E9D6
:1007E00013FDE813FC884E894FC3EF94036038EF84
:1007F00020E00CE82CF8E93DF9ECFAEDFB8013E879
:1008000028F8E939F9C3E82401F8E93400F97AFF56
:100810007BFFC3EF9403400F8A508B51884A894B6A
:100820008C4C8D4D020880885089518A4A8B4B8CA4
:100830004C8D4D3028127550F07551FF754CF07588
:100840004DFF754EF0754FFF020880E8FAD3E813AC
:10085000FC884EC3EF94036021EF20E007E82CF8FA
:10086000ECFA016BE8282401F87AFFC3EF94034007
:10087000098A50884A8C4C02088088508A4A8C4CDD
:100880003020020180753A02D22043E680E52554EB
:1008900003602DA847A948C3E913F9E813F83028E5
:1008A00004E92440F9C2AF53E67F759100C3E49890
:1008B000F594E499F595759104D22043E680D2AF82
:1008C00022D221754900752000302B03752040018C
:1008D000DFD221754900752040302B037520007848
:1008E000017901202C20E52554036002C2217914EE
:1008F000E548C313700104F8C3941440027814301F
:100900002804781B791BC3E833F8C3E933F92020A6
:1009100010E549600C302803D53A04D22321921106
:10092000880549E59B5440B52002217C3028090800
:10093000C3E899400118210E20210A08C3E8994014
:100940000201DF210EC22153E67F759100302C1188
:100950007594007595F0759104D22043E6800208E5
:10096000DFE5487EFFC3334009C3334005C333404E
:1009700001FEC3E49E759400F5952156C3E53994B4
:1009800001500201DF30210201DFD8022190210E47
:10099000C223C2AF53E67F7591008550948551956F
:1009A000759104854A92854B93D22043E680D2AF5D
:1009B000E525540360072029020539801030230DF6
:1009C000202B0A202107158115810217BE227800ED
:1009D0003021027801E53D75F007A4F9E5F028F52E
:1009E000F0E9A2F013A2F113A2F213F53DC394783B
:1009F0005003753D78C3E53D953E400BD222C2932E
:100A0000C294C29575D57F3020024107854C9285EE
:100A10004D93D22043E68022203814C2AFC294C244
:100A200090D293D29575D53BD2AF759F236118C2F2
:100A3000AFC294C292D295D29375D53ED2AF759F74
:100A4000236118203814C2AFC295D29475D53DC227
:100A500090D293D2AF759F136118C2AFC293D29454
:100A600075D53DC292D295D2AF759F0361182038DB
:100A700014C2AFC293C292D295D29475D53DD2AF73
:100A8000759F036118C2AFC295C290D293D294757C
:100A9000D53DD2AF759F136118203814C2AFC294F0
:100AA000D29375D53EC292D295D2AF759F238068FE
:100AB000C2AFC294D29575D53BC290D293D2AF75D6
:100AC0009F238054203814C2AFC295C291D294D2D1
:100AD0009375D53ED2AF759F13803DC2AFC293C20E
:100AE00091D294D29575D53BD2AF759F03802920C2
:100AF0003814C2AFC293D29575D53BC291D294D26D
:100B0000AF759F038012C2AFC295D29375D53EC216
:100B100091D294D2AF759F13C22222203E707A14D4
:100B20007BC88019203E717A107B8C8010203E7229
:100B30007A0D7BB48007203E737A0B7BC8303F016F
:100B4000227902E4C294D5E0FDD291D294D5E0FDA1
:100B5000C294D5E0FDC291D294D5E0FDE920E00435
:100B6000D290D29330E004D292D295E562D5E0FDE6
:100B7000E920E002C29330E002C2957496D5E0FD10
:100B8000D9C1EAF8D5E0FDD8FBDBB6C294227A5091
:100B90007C507B057D1480407A327C287B147D2834
:100BA00080367A3C7CB47B047D0A802C7A967C3239
:100BB0007B027D1E80227A647C287B057D0F801855
:100BC0007888E614D23C7AC87C327B037D3C80086E
:100BD0007AC87C507B057D46303F0122EBF8303CE3
:100BE00015203D091CECB40112B23D800E0CECB492
:100BF0003209B23D80051CEC70010CECC0E0E8C08D
:100C0000E0EDC0E0303B13C291D294D290D293E594
:100C100062D5E0FDC293C2948011C291D294D29267
:100C2000D295E562D5E0FDC295C294B23BD0E0FD1D
:100C3000FED0E0F8D0E0FCF97464D5E0FDDEF97494
:100C40004BD5E0FDD9F9203BB2D8B0DA0122DA8CDD
:100C500022C293C294C295C293C294C29575D57FA5
:100C600022788076FF0876FF0876FF0876FF087600
:100C7000FF0876FF0876050876FF087601788C76FF
:100C8000010876FF0876FF0876FF0876FF0876FFF2
:100C90000876030876FF0876FF0876FF08760A08CC
:100CA00076F008765B0876500876030876FF0876BB
:100CB000030876FF08767D0876FF08760608760139
:100CC0000876FF0876FF08760108760122FA75F0AB
:100CD0000CA4ABF0EAC333F8740133F9E8C333F87A
:100CE000E933F9E8C32BF8E93400F9E8C333F8E94C
:100CF00033F9227888E6C39403D23A5002C23AC24A
:100D000038E630E102D238A23892397886E614907B
:100D100000809378A6F67886E6F53FC394025003E8
:100D2000753F02789CE6753EFFB40203753EA0B4A1
:100D30000303753E8278A0E6F8600674282409D87B
:100D4000FCF5677896E691CD88318932789EE691F8
:100D5000CD883389347897E691CD8835893691519D
:100D6000223036117A007B007CFF7D007E00B1C707
:100D70008B5F8A5E22303A227896E6FA7B00789E74
:100D8000E6FC7D00C3EA33FAEB33FBC3EC33FCED46
:100D900033FD7E0AB1C78B618A607896303A02785B
:100DA0009EE6FA7B007897E6FC7D007E00303A10E4
:100DB000C3EA33FAEB33FBC3EC33FCED33FD7E0ABD
:100DC000B1C78B5F8A5E22C3EC9EFCED9400FDC32D
:100DD000EC9AFCED9BFDC3EC9423ED940050047C55
:100DE000237D00C3EC94FFED940140047CFF7D0162
:100DF0007BFF0B7A000AEA7009C3EC33FCED33FD8C
:100E0000A1F2EC8AF0A4AEF0ED8AF0A42E947C401E
:100E1000E4EAF460DD22D236B1611205651205659F
:100E20007A007B007C1012055DE5522AFA74003BC3
:100E3000FBDCF37C04C3EB13FBEA13FADCF7FFEBF8
:100E400060027FFFC236B1612278A5E6F95403C281
:100E5000857002D285E9540CC2867002D286E954AC
:100E600030C2877002D287E954C07000227ADC7BDE
:100E7000367C02E1037A647B367C02E1037A3A7BBA
:100E80001D7C02E1037A5F7B1D7C02E1037A3E7BDD
:100E9000047C02806E7AA47B067C0380667ADE7B0B
:100EA0006E7C02805E7A847B2B7C0380567A847B06
:100EB0001D7C02804E7A587BAC7C0280467A627B35
:100EC0006E7C02803E7A417BB67C0180367A497B1B
:100ED0008C7C01802E7A927B8C7C0180267A4E7BE2
:100EE000797C01801E7A527B677C0180167AA47B14
:100EF000677C01800E7A577B567C0180067AC47B22
:100F0000377C01ECC0E0C291D294D290D293E562DA
:100F1000D5E0FDC293C294D0E0FCF9EBFD7817E474
:100F2000D5E0FDD8FAD9F6741ED5E0FDDDF9DAD3A7
:100F300022D285120565C286740220310E04203249
:100F40000A04203306042034027401C0E0711B122D
:100F50000569D0E0D5E0F42230341EE56CC3941E60
:100F6000400C941E40028011712D712D800B712454
:100F70007124120569712D712D1205697136713652
:100F8000227565007566007597DE7597AD7581C031
:100F900043FF8075EF0675A90091517580FF75F1CB
:100FA000F075A4E07580FF75D4FF75900075F23F71
:100FB00075A53F75900075D53F75A60175E3407521
:100FC000E2029151E4F8F6D8FD916112180978987F
:100FD0008662753001C2AF12056DD14912056D12DE
:100FE000056DE562147005D23F0213ABC285C23FA6
:100FF0009459146028146018146051146009146026
:101000000914600902139C02112902120F0212E056
:10101000D23E120BC0120BC0120BC061AB12056D99
:10102000120E9D120569120E9D120569120E9D1277
:101030000569120EA5120EAD120E9D120569120E53
:10104000A5120EAD120E9D120E9D61AB12056D1212
:101050000EFD120561120EC5120EC5120561120EAB
:10106000DD120561120EF5120561120EFD12056109
:10107000120EC5120EC5120561120EDD12056112A7
:101080000EF5120561120EFD120561120EC5120E4B
:10109000C5120561120EDD120561120EF512056111
:1010A000120EFD120561120EC5120EC51205611257
:1010B0000EDD120561120EF5120561120ED5120534
:1010C00061120EBD120561120E7D120561120EC570
:1010D000120561120ED5120561120EBD12056112C4
:1010E0000E7D120561120EC5120561120ED5120594
:1010F00061120EBD120561120E7D120561120EC540
:10110000120561120ED5120561120EBD1205611293
:101110000E7D120561120EC5120561120EF5120E3A
:10112000F5120561120EB561AB120EE5120EE51255
:101130000561120ECD120ECD120561120EC5120EF2
:10114000C5120561120ECD120ECD120561120EE50B
:10115000120EE5120561120EE5120EE5120561127E
:101160000EE5120EE512056D120ECD120ECD120512
:1011700061120ECD120ECD120561120ECD120ECDE2
:1011800012056D120EE5120EE5120561120EFD122A
:101190000565120EFD12056D120EE5120EE5120523
:1011A00061120ECD120ECD120561120EC5120EC5C2
:1011B000120561120ECD120ECD120561120EE5124E
:1011C0000EE5120561120EE5120EE5120561120E12
:1011D000E5120EE5120561120EE5120EE51205612B
:1011E000120ECD120ECD120561120ECD120ECD12C1
:1011F0000561120EE5120EE5120561120ECD120EFA
:10120000CD120561120EC5120EC512056161AB1239
:101210000E85120561120E85120561120E851205EA
:1012200061120E85120561120E85120561120E6D96
:10123000120E6D120E6D120E85120561120E8512C0
:101240000561120E85120561120E85120561120EDE
:1012500085120561120E75120561120EBD1205612F
:10126000120EB5120561120EBD120561120E751235
:101270000561120EBD120EBD120E85120561120E11
:1012800085120561120E85120561120E8512056127
:10129000120E85120561120EC5120EC5120EC51270
:1012A0000EC5120EC5120EC5120565120EC5120E20
:1012B000C5120561120EC5120EC5120561120E6D22
:1012C000120561120EBD120561120EBD12056112EA
:1012D0000EB5120561120EB5120EB512056161ABA5
:1012E000120EC5120EC5120EC5120561120EFD12A8
:1012F0000EFD120561120EFD120EFD120561120E99
:10130000F5120561120EE5120EE5120561120EF5D9
:10131000120561120EE5120EE5120561120ECD12D4
:101320000ECD120ECD120561120ECD120ECD120E83
:10133000CD120561120EC5120561120ECD120ECD31
:10134000120561120EE5120EE5120EE5120561128C
:101350000ECD120561120EE5120EE5120561120E98
:10136000F5120EF5120EF5120561120EE512056169
:10137000120EC5120EC5120EC5120561120EE5122F
:101380000EE5120EE5120561120ECD120ECD120EF3
:10139000CD120ECD120ECD120561800F120B1B1255
:1013A0000565120B24120565120B2D120565C2AFDF
:1013B00075650075660078FA79FA308407D9FBD82C
:1013C000F7021C00120CF3120D6178988662120C61
:1013D0005175A91375A71075C10075A70075640034
:1013E00075E404758811758E0475890975C80475CE
:1013F000910475D84075D90875F783759E00759668
:101400000275DA4A75DB0075A82375E69075B80198
:10141000759B80759D0075D10C75BCB975BB107539
:10142000E88075B201120559D2AF753C00C2301286
:10143000056DC231C232C233C23475220012056951
:10144000C3E522940A500281FFD2317522001205B1
:1014500069C3E522940A500281FFC231D23275225B
:1014600000120569C3E522940A500281FF75E4C4A5
:10147000758851758E017589AA758C00758D00C2AD
:10148000A9D2ABD2AA756980756814756C50C23246
:10149000D23475220A120569756810C3E522940AD0
:1014A000405D758E0C756900756828756C2875220D
:1014B0000A120569756820C3E522940A4041758EB9
:1014C0000C756980756814756C1475220A120569AB
:1014D000756810C3E522940A402575E404758811E7
:1014E000758E04758909D2A9C2ABC2AAC234D2339F
:1014F000752200120569C3E522940A400261AE120A
:10150000055D2030030213AEC2AF120F31D2AF120D
:10151000056D203403303A030215C412055D788C42
:10152000E6C394015002A1C4E530C394015002A166
:10153000C47565A57566F17F02D236120D6112057C
:1015400069C2AFC236120D61C3E552947FD2AF407B
:1015500073120559C2AF120B36D2AFDFDC120E1672
:10156000C3EF7897F612056D1218F67F0AD236127D
:101570000D61120569C2AFC236120D61C3E5529406
:101580007FD2AF50E6120559C2AF120B1B12056194
:10159000120B1BD2AFDFD6120E16EF24037896F68D
:1015A000F87997E7C394234003985006E8242378FA
:1015B00097F612056D121850121925120569120DB1
:1015C000610213AE756500756600120569C3E552C8
:1015D00094014002A112C2AFD286120569120F58BF
:1015E000C287D2AF12056D753000E4F537F53805C6
:1015F00037E537F4703F0538789AE67819146012A9
:10160000783214600D787D14600878FA14600375E0
:101610003800C3E53898401D120C51120559153891
:1016200075370078998662C2AF120BB6D2AF789840
:101630008662120569120561E523700261AEC3E599
:1016400052940140AA120569E52370030213AEC249
:10165000AF120C51E4D2AFE4F55CF524F525F53D6D
:10166000755C081205591205C230EDFDA8BDA9BE72
:10167000E97001F8885D1205C6755C08C2AF75593E
:10168000FF12062D855B59855B5AD2AF75A7107581
:10169000C13075A70075A903756401303A07C238D7
:1016A000303502D238D228753900120AC4120AEF36
:1016B00012064512064C12064512064C1206451239
:1016C00008D11209CE120A1812064C1208C1202C99
:1016D0000312057C302C031205AC1209CE120A430A
:1016E00012064C1208D11209CE120A6E12064C12C2
:1016F00008C11209CE120A9912064C1208D1120919
:10170000CE120AC412064C1205C21208C11209CE2A
:10171000120AEF1205C612064C302827855B59794C
:10172000187A0CC3E53999400EC228D2298A3B8524
:101730005B59855B5A800CC3E55294014003021645
:10174000BFE1C630291F202B1CE53B147006C229BF
:10175000D22AC1BFF53BC3E552940140030216BF34
:10176000203A028061753C0078FA79A4E76002783B
:1017700003C3E55398504FE523604B303A172038A8
:1017800005203507800F303502800A202B07D22B29
:10179000855B59C1EF78F0302B05855B597820C304
:1017A000E5489850030216BF302B1BC22BC23830BD
:1017B0003502D238D229753B12855B59C1BF053C31
:1017C000E5526002E1C9753C00C2AF120C517524AC
:1017D0000075250075A91375A71075C10075A700C0
:1017E000756400D2AF120569120C5178A4E6600C42
:1017F000C290D293C291D294C292D295C3E53C9446
:101800000440030213AE0215EA901A0D78201189E4
:10181000E520B4550AA31189E520B4AA0280137506
:1018200065A57566F1120C6111507565007566004D
:10183000801D901A0378807B0A1189A308DBFA9037
:101840001A0F788C7B1A1189A308DBFA901A2922C7
:10185000C2AF11CC11A9901A007410118EA374415B
:10186000118EA37421118E901A0378807B0A118D3A
:10187000A308DBFA901A0F788C7B1A118DA308DB72
:10188000FA11DF11BD901A2922E493F622E6438F64
:1018900001538FFDFFC3E583941C400122EF856552
:1018A000B78566B7F0538FFE22438F02438F0185C1
:1018B00065B78566B7901A0DF0538FFC22901A0D0C
:1018C0007455118E901A0E74AA118E227A3079D026
:1018D0007820901A401189E520F709A3DAF7227AD7
:1018E0003079D0901A40E7118E09A3DAF9227C05ED
:1018F00012056DDCFB22C2AF120B1B120B24120B64
:101900002D120B36120561120B1B120B24120B2D1C
:10191000120B36120561120B1B120B24120B2D1227
:101920000B36D2AF22C2AF120B36120B2D120B2484
:10193000120B1B120561120B36120B2D120B241207
:101940000B1B120561120B36120B2D120B24120BFE
:041950001BD2AF22D5
:1019FD00020F81104121FFFFFFFFFFFF05FF01FFD8
:101A0D0055AA01FFFFFFFFFF03FFFFFF0AF05B5029
:0D1A1D0003FF03FF7DFF0601FFFF0101FF36
:101A4000234A5F485F3030232020202020202020A0
:101A500023424C48454C492445464D3842323123B7
:101A600031362E36355F546F6E657320202020206E
:101C0000C2AFC2D37597DE7597AD7581C075A90057
:101C100043FF80752438752503B1DB7529A5752A26
:101C2000F143F11053A4EFD28475D4FF75E3407DE6
:101C3000FA780379E67C10752200752300901DE880
:101C40007B0675249875250130840281482084081C
:101C5000D8FBD9F9DCF781BA308408D8FBD9F9DC94
:101C6000F781BAB19BE493A3C39A6004DDC381BA40
:101C7000DBDBB18D600281317B08E493FAA3B16EA6
:101C8000DBF87A30B16E752200752300B18DEAFC65
:101C9000EBFDC3ED94FE400EB18D8A278B28ED300D
:101CA000E0048A828B83B18D7AC270D8C3ED94FE32
:101CB000601950CEBD0029EC600F7520007521FF22
:101CC000752900752A000200008100A827A92808AC
:101CD00009D804D90281DDB191EAF281D10D81A642
:101CE000C3ED94035051EDA2E092007AC5C3E582A2
:101CF0009400E583941C508C200010438F02438F86
:101D0000018529B7852AB7F0300027A827A9280818
:101D100009438F01538FFDD804D902A132C3E58353
:101D2000941C4003A3A117E28529B7852AB7F0A325
:101D3000A117538FFC81827AC1BD030CE493A3FAEF
:101D4000B152DCF8B14A81828184AA22AB23B16E00
:101D5000EBFAEA6222752608C3E52313F523E52290
:101D600013F52250066323A0632201D526EAB1DBD6
:101D7000B1DB75260AEAF4200102D284300102C2E6
:101D800084B1DBC3134002C201D526EB22B191EA34
:101D9000FB208402A191308402A196752608AE240E
:101DA000AF25C3EF13FFEE13FEB1DFB1DBC3EA13C0
:101DB0003084024480FA30E703632201C3E5231331
:101DC000F523E52213F52250066323A0632201D5F3
:101DD00026D9E52265236523F52222AE24AF250E00
:101DE0000FDEFEDFFCD20122424C48656C693437BD
:061DF0003164E8B20601B7
:00000001FF
