:030000000219FDE5
:03000B000200A848
:03002B000201547B
:03005B000202D4CA
:030073000202C1C5
:1000800002030406080C10182030406080040608A3
:100090000C10182030406080A0C00003070F1F051F
:1000A000050D050205030302C2AFC0D0C0E0206207
:1000B00014E5256009E473E525F4F58AD262D0E001
:1000C000D0D0D2AF3285268AC262E526F46029D02C
:1000D000E0D0D0C297C295C293D2AF32C297C29538
:1000E000C293206F0C206509740ED5E0FDE57B42BC
:1000F00090D0E0D0D0D2AF32758A00C28DD26201EA
:10010000F101B7306805206502D29701B730680564
:10011000206502D29501B7306805206502D29301AF
:10012000B7C29630680A206507740CD5E0FDD297F7
:1001300001B7C29430680A206507740CD5E0FDD27F
:100140009501B7C29230680A206507740CD5E0FDAE
:10015000D29301B7C2AFC2AD53E6EFC0D0C0E0D278
:10016000D3D2AFC2CEE52A6007207449152A21B543
:100170007800790020742EE580307E01F430E302AF
:1001800078FF53DACF207E0343DA20307E0343DA50
:1001900010C2D8C271E580307E01F430E30279FFED
:1001A000C3E89970CB306103752A18207403752A4F
:1001B00018885CD27020740DE52B6004152B21C5C6
:1001C00043DA01C2D82070024138A85C206102C223
:1001D00070207431C3E894F0400374F0F8E8C4541C
:1001E0000F28F87984B703024105C313C31387218D
:1001F000200802C313200A06C3C898F8410528F84E
:10020000500374FFF8C3E895655003E565F888224C
:10021000E52D54066022206B1FE536C333C333F847
:10022000E564C313C313F9C3952240028922E8256C
:1002300022F52250037522FF852224A824C3E52439
:1002400095614002A8618825E5667002417CC3E89B
:10025000AA669A5003E8FAE4F9EAC333FBE568F4C6
:100260005B29400D2567F8E56760021567400B4183
:100270007C0AC3E5679A5002056778FF882620CF7D
:100280000AD0E0D0D043E610D2AD32C2CF053A78E2
:1002900001E52A6005307402152AC3E55C9401402B
:1002A00005755F0041B7756000756900E55F240161
:1002B000F55F5003755FFFD0E0D0D043E610D2ADBC
:1002C00032C2AF53E67F7592FA7593FFC2607591A3
:1002D00004D2AF32C2AF53E6EFC2ADC0D0C0E0C06F
:1002E000F0D2D3D2AFA8FBA9FCC2D8307102613BD7
:1002F00053DACF207E0343DA10307E0343DA20D274
:1003000071E580307E01F420E3026112882789289C
:10031000A16053DACF207E0343DA20307E0343DA34
:1003200010C2D8C271307402A14C7800E580307ED2
:1003300001F430E302A14C885CA13453DACF207E73
:100340000343DA20307E0343DA10C2712061028158
:100350001453DACF207E0343DA10307E0343DA20D1
:10036000C2D8D27188578958C3E89555F8E995568F
:10037000F97B007E087A00C3E8948CE9940050056C
:10038000755B008106882178A2E6A8216055C3E844
:1003900094C8E994005008E4D2E4FB7A0A61E1C30E
:1003A000E89468E994015008E4D2E3FB7A0F61E134
:1003B000C3E894D0E994025008E4D2E2FB7A1E61CB
:1003C000E1C3E894A0E994055008E4D2E1FB7A3C4B
:1003D00061E1C3E89498E994085008E4D2E0FB7A1C
:1003E000787E00C3E89559FCE9955AFD30E70AECA0
:1003F000F42401FCEDF43400FD755B00C3EC9AEDD0
:100400009E5003755B018859895A85575585585602
:100410007802A134C3E89527F8E99528F9C3E913D0
:10042000F9E813F8C3E824B4FCE93400FD814EE98F
:10043000C313F9E813F8307902A111E9C313F9E8FD
:1004400013F8307802A111E9C313FDE813FC206111
:100450002CC3EC9482ED940240028165ED701EC3C2
:10046000EC94C850180529E52970021529C3E5291F
:0F047000940A5002A14C755C00D270A14CE52992
:10047F00600215297888E6F97400207F087896B90C
:10048F000302789EE624FAFEE43400FFC3EC9EFCE0
:10049F00ED9FFD9208B90310A2085007207609D2EC
:1004AF007681B7307602C276A2085016B9030DECEA
:1004BF00F42401FCEDF43400FD0204D1780079003E
:1004CF00A118B90315EC33FCED33FDC3EC940AFC12
:1004DF00ED9400FD50047C007D00C3EC94FFED947F
:1004EF0000400678FF7900A118EC8572F0A4C5F0E2
:1004FF00A2F733F87900400302053478FF79000240
:10050F000534E9C313F9E813F8307C0EE96002787B
:10051F00FFC3E81338F8E43400F9C3E894FFE99413
:10052F0000400278FF885CD270206102A14C741FDA
:10053F00F4552F4BF52FC274EB7002D274752A1835
:10054F00307403752A0A306102A16020740353DAF4
:10055F00FE207403752B06D0F0D0E0D0D0D2AD437F
:10056F00E6103279010205907903020590790A02AB
:10057F000590791E020590796402059079C80205ED
:10058F00907817E4D5E0FDD8FAD9F6227A147B7863
:10059F000205B77A107B8C0205B77A0D7BB4020582
:1005AF00B77A0B7BC80205B7E573D5E00122790254
:1005BF00E4C294D5E0FDD295D5E0FDC295D5E0FD1E
:1005CF00D294D5E0FDE920E002D29730E002D29339
:1005DF00E573D5E0FDE920E002C29730E002C29357
:1005EF007496D5E0FDD9C9EAF8D5E0FDD8FBDBB8A4
:1005FF00C29422C37C007D0075F00005F0EA33FA47
:10060F00EB33FB50F6EB13FBEA13FAC3E9FFE8FEFB
:10061F00E89AF8E99BF95004EFF9EEF8B3EC33FCE4
:10062F00ED33FDD5F0DFEDF9ECF822E889F08A2003
:10063F00D2D4F8A9F07B0030F70B7BFFF42401F83C
:10064F00E9F43400F9E88520F0A4ADF0F8E985204D
:10065F00F0A4AFF0FEED2EF974003FFA7C04C3EA6C
:10066F0013FAE913F9E813F8DCF48BF030F70AE822
:10067F00F42401F8E9F43400F9E889F0C2D4F8A9B8
:10068F00F02222C3E54113F9E54013F8C3E544987E
:10069F00F8E54599F9500CC3E89480E994FF4016AA
:1006AF000206C9C3E8947FE9940050030206C97893
:1006BF007F79000206C9788079FF8849894A22E547
:1006CF00492546F8E54A3547F9854A20E4300701C0
:1006DF00F43548FA30E709C3EA94F04015020707EA
:1006EF00C3EA940F500302070778FF79FF7A0F02CE
:1006FF000707780079007AF0C3E5249561500AC3A3
:10070F0074019524500B020725E54A20E70E0207D6
:10071F0025E54A30E706884689478A482278A5E6C4
:10072F00FAC3E54933F8E54A33F9D13AE930E70B33
:10073F00C3E89480E994FF4013E15FC3E8947FE935
:10074F0094005002E15F787F7900E15F788079FF54
:10075F00E820E715C3E52398F84009C3E894014062
:10076F00030207867801020786E8F424012523F89F
:10077F00400302078678FF884B2278A6E6FAA8473F
:10078F00A948D13AE930E70CC3E89401E994FF4056
:10079F00160207BAC3E894FFE9940050030207BAA0
:1007AF0078FF79000207BA780179FFE920E715C3CE
:1007BF00E54B98F84009C3E8940140030207E1783C
:1007CF00010207E1E8F42401254BF840030207E199
:1007DF0078FF88242278FF20692879A1E76023E534
:1007EF0041601F74FF8541F0848539F0306A0375CD
:1007FF00F005A4F8C5F0600278FFC3E895645002D5
:10080F00A864886322C3E5409440E5419401E56301
:10081F005003140125046002F5632202082D22758E
:10082F00E890227883E6FF30EDF9A8BDA9BE0570E8
:10083F00C3E57094084052757000E9FA79A0E7603B
:10084F0044EA7007E571601B020866C3E8957160A2
:10085F0010E5715006600C140208720460F902086A
:0E086F0072E571F571C394A8401B7561C0C39A
:10087D0094054013756180C39405400B756140C3A9
:10088D009405400375610075BB0122E561F46002BA
:10089D000561E570B4070375BB1E22743279A78715
:1008AD00F0A4C5F0A2F733F8C3E895614002A86142
:1008BD008822882488258826886422754000754101
:1008CD00F022C2AF75C820A8CCA9CDAA3A30CF016D
:1008DD000A75C824D2AFAB3BAC3C883B893CC3E81E
:1008ED009BF8E99C206908F930660221DE2138ADBC
:1008FD003D8A3DF9EA9DFA600478FF79FFAE3EAF7F
:10090D003F8B3E8C3FA83BA93CC3E89EF8E99FF97D
:10091D00C3E54113FBE54013FAE82AF540E93BF541
:10092D004150067540FF7541FF2185AA40AB41AC92
:10093D0040AD417E047F02C3EB9404400D1E1FC3E6
:10094D00EB94084005206A021E1FC3ED13FDEC1346
:10095D00FCDEF7C3EA9CFAEB9DFBEF6009C3E913DC
:10096D00F9E813F8DFF7EA28FAEB39FB8A408B41F7
:10097D0050067BFF8B408B41C3EB94025002D26635
:10098D003069047F0321B07892E6FFC3E537948286
:10099D0040110FC3E53794A040010FC3EF940640FB
:1009AD00027F057E02E541C4540FF9E541C454F0C0
:1009BD00F8E540C4540F28F8C3E89EFAE99400FB0B
:1009CD004009C3EA9402EB940050047A02E4FB411F
:1009DD002AAA40AB41EBC4FEEAC4540F4EFCC3EA55
:1009ED009CFAEB9400FBC3E813C313F8EA28FAEB67
:1009FD003400FB8A408B41C3EB94024002C26678FF
:100A0D0002EBC4FE7B00EAC4540F4EFAC3EA98FA17
:100A1D004005C3940250027A027892E6FF306002DC
:100A2D00412A855192855293D26043E680C3E49A60
:100A3D00F8E49BF930660241B6E8FAE9FBD3E91315
:100A4D00FDE813FC88518952C3EF94036038EF2001
:100A5D00E00DE82CF8E93DF9ECFAEDFB020A7FE830
:100A6D0028F8E939F9C3E82402F8E93400F97AFEE7
:100A7D007BFFC3EF9403400E8A538B54884D894EF0
:100A8D008C4F8D5041EA885389548A4D8B4E8C4F33
:100A9D008D503069127553F07554FF754FF07550C8
:100AAD00FF7551F07552FF41EAE8FAD3E813FC885F
:100ABD0051C3EF94036020EF20E007E82CF8ECFA27
:100ACD0041D6E8282402F87AFEC3EF940340088A41
:100ADD0053884D8C4F41EA88538A4D8C4FE568C33E
:100AED00335002646BF56830600241F4753402D204
:100AFD006043E680E52D54066034A840A941C3E962
:100B0D0013F9E813F8C3E913F9E813F8306904E9A8
:100B1D002440F9C2AF53E67F759100C3E498F59474
:100B2D00E499F595759104D26043E680D2AF22D257
:100B3D0064754300752000306C03752040020B5B1B
:100B4D00D264754300752040306C03752000780128
:100B5D007901206620E52D54066002C2647914E502
:100B6D0041C313700104F8C3941440027814306922
:100B7D0004781B791B206010E543600C306903D5A8
:100B8D003404D26D810E51FC0543E59E7005E59B45
:100B9D00020BA2E59A5440B5200261F830690908AC
:100BAD00C3E899400118618220640A08C3E899409E
:100BBD0002615B6182C264C2AF53E67F7591003002
:100BCD0066127594007595F8759104D26043E680B0
:100BDD00D2AF615BE5417EFFC3334005C3334001B6
:100BED00FEC3E49E759400F59561D5C3E53394017C
:100BFD005002615B306402615BD802810C6182C27C
:100C0D006DC2AF53E67F75910085539485549575EC
:100C1D009104854D92854E93D26043E680D2AFE527
:100C2D002D54066008206A020533020C4A306D0D02
:100C3D00206C0A206407158115810215B7227800F2
:100C4D003064027801E53775F007A4F9E5F028F571
:100C5D00F0E9A2F013A2F113A2F213F537C39478C1
:0E0C6D005003753778C3E53795384008D265D7
:100C7B00C297C295C2933060028181854F92855095
:100C8B0093D26043E68022207D19C2AF754202C227
:100C9B0094D296306202D293D2AF759F33759E0079
:100CAB00020E93C2AF754202C294D292306202D24C
:100CBB0097D2AF759F33759E00020E93307243200F
:100CCB007D20C2AF754203900132757B10C293C277
:100CDB0092306204D29581E5D294D2AF759E2202F6
:100CEB000E93C2AF754203900132757B10C297C24F
:100CFB0096306204D295A105D294D2AF759E230291
:100D0B000E93207D17C2AF75420390010DC2933035
:100D1B006202D295D2AF759E22020E93C2AF75427C
:100D2B000390010DC297306202D295D2AF759E230C
:100D3B00020E93207D16C2AF754204C296D292303A
:100D4B006202D295D2AF759E23020E93C2AF75424B
:100D5B0004C292D296306202D295D2AF759E220215
:100D6B000E93307249207D23C2AF7542059001214D
:100D7B00757B40C295C294306204D297A18BD296F8
:100D8B00D2AF759F33759E00020E93C2AF754205AD
:100D9B00900143757B04C295C294306204D293A137
:100DAB00AED292D2AF759F33759E00020E93207D0B
:100DBB001AC2AF754205900103C295306202D297F9
:100DCB00D2AF759F33759E00020E93C2AF7542056D
:100DDB00900117C2953062E8D293D2AF759F3375ED
:100DEB009E00020E93207D16C2AF754206C292D2B0
:100DFB0094306202D297D2AF759E22020E93C2AF8D
:100E0B00754206C296D294306202D293D2AF759ECF
:100E1B0023020E93307243207D20C2AF75420190A6
:100E2B000143757B04C297C296306204D293C13DD5
:100E3B00D292D2AF759E23020E93C2AF7542019030
:100E4B000121757B40C293C292306204D297C15D7F
:100E5B00D296D2AF759E22020E93207D17C2AF752C
:100E6B004201900117C297306202D293D2AF759EA6
:100E7B0023020E93C2AF754201900103C2933062FD
:100E8B0002D297D2AF759E22C26522900101757B6B
:100E9B0000C297C295C293C296C294C292C26222FA
:100EAB00788076FF0876FF0876FF0876FF087603D2
:100EBB00087604087608087601087601087601782A
:100ECB008C76010876FF0876FF0876FF0876FF0818
:100EDB0076FF0876030876FF0876FF0876FF08761C
:100EEB000A0876F00876FA0876FA0876040876FF90
:100EFB0008760108760008767D0876FF08760108EB
:100F0B007601087600087603087601227887E6FFDB
:100F1B00C2727888E6C394036008C27DE630E102B2
:100F2B00D27DC27E7889E630E102D27EC3EF940295
:100F3B006008758E01D273020F4A758E00C2732240
:100F4B007880E6149000809378A5F67881E614906B
:100F5B0000809378A6F67886E61490008D9378A798
:100F6B00F67886E6F539C394025003753902789CFE
:100F7B00E67538FFB402037538A0B40303753882E5
:100F8B0078A3E61490009A93F566D1962222789670
:100F9B00E6FA7897E6FB7888E6B40305C3EB940E84
:100FAB00FB307F047A007BFFC3EB9AFCC394825027
:100FBB00027C827572000572EC8572F0A4C3E5F0B9
:100FCB00947D40F222D27FF1991205811205817A2C
:100FDB00007B007C10120577E55C2AFA74003BFB62
:100FEB00DCF37C04C3EB13FBEA13FADCF7FEC27FE2
:100FFB00F199227ADED296D293744BD5E0FDC2934F
:10100B00C29679027817E4D5E0FDD8FAD9F6796E55
:10101B00741ED5E0FDD9F9DADC227A84D296D2930C
:10102B00744BD5E0FDC293C29679037817E4D5E0F3
:10103B00FDD8FAD9F6792B741ED5E0FDD9F9DADC97
:10104B00227A84D296D293744BD5E0FDC293C2968A
:10105B0079027817E4D5E0FDD8FAD9F6791D741E1C
:0E106B00D5E0FDD9F9DADC22757C00757D0038
:10107900E5EF20E6037520000520903DFFE52014EB
:101089006006901FFF1460009304600375EF165308
:10109900D9BF75D9087581C043FF8012057275EFF4
:1010A9000643B203E5B3240220E70DF521E5B1209B
:1010B900E0068521B343B101120E9675800875A427
:1010C9000075F1FF75D4F775900275A5FC75F2FDF1
:1010D90075D50075A0FF75A60075F30075D6007566
:1010E900B0FF75A70175F4FF75E241120E96E4F899
:1010F900F6D8FD756801120EAB121608789886733A
:10110900753001C2AF12058B120FFE120586120F40
:10111900FE120586120FFE1205861125114C120FBB
:10112900FE1205861125114C120FFE120FFE121721
:101139002512058B12058B120586C2AF757C0075C9
:101149007D0078FA79FA308307D9FBD8F7021C00B9
:10115900120F17120F4B120F98120F997898867366
:10116900120E9675881075890275C82475910475D3
:10117900D84075A82275B80275E690759B80759D53
:1011890000759A80759C0075D10E75BC5875BB01A8
:1011990075BA1F75E880120572D2AF12082A753622
:1011A9000053DACF207E0343DA20307E0343DA107E
:1011B90043DA01C2D8C27112058BD2617B037A0C62
:1011C900E55B70077A0CDB0302114312058120707D
:1011D90003021143C270E55CC3940240E1E52F5458
:1011E9001F855E5DF55EB55DD5DAD5C26153DACF8F
:1011F900207E0343DA20307E0343DA10C2D8C2715D
:1012090078A2E67008D274E52F54E0F52FC27575FF
:101219002900120586307409C3E529940A4002D2CF
:101229007512057778023074027800C3E55C98403E
:10123900F0C2AF12059B12059BD2AF12058B754CFC
:10124900007888E6B403026146120577788CE6C314
:1012590094015003021346E530C39401500302136D
:1012690046757CA5757DF1207435C3E55C94FF5006
:1012790003021346C2AF1205B0D2AF120586C3E509
:101289005C940150EFC2AF12059B12057C12059BBD
:10129900D2AF120586C3E55C94FF40E90217AA7F25
:1012A90005D27F120F99120586C2AFC27F120F991C
:1012B900AE5CC3E55C947FD2AF50026156120572F1
:1012C900C2AF1205B0D2AFDFD8120FD0C3EE94056A
:1012D9007897F612058B12172D7F0AD27F120F9974
:1012E900120586C2AFC27F120F99AE5CC3E55C944A
:1012F9007FD2AF50E4120572C2AF12059B12057C72
:1013090012059BD2AFDFD4120FD0EE24037896F6E4
:10131900F87997E7C394824003985006E8248278C5
:1013290097F612058B12164A12175C120586120FD0
:1013390099C3E55C94FF5002416A0217AA757C00C3
:10134900757D00C3E55C954C4003855C4C120586B0
:1013590078017988E7B403027805C3E55C9840020F
:10136900414AC2AF1205B01205B0D2AF12058B7552
:101379003000E4F531F5320531E531F4703F0532DD
:10138900789AE67819146012783214600D787D1411
:10139900600878FA146003753200C3E53298401D7D
:1013A900120E96120572153275310078998673C23C
:1013B900AF1205B0D2AF7898867312058612057CF4
:1013C900E52A7005307402214378012074027806F9
:1013D900C3E55C9840A17888E6C3940360031205CD
:1013E90086E52A7003021143C2AF120E96E4F52274
:1013F900F523F524F525F526F567D2AF7885E6C3FB
:1014090033F565E4F544F545F546F547F548F570D6
:10141900F52CF52DF53775700875BB1E120572127E
:10142900082E30EDFDA8BDA9BEE97001F88871123A
:10143900083275700875BB1E120F17C2AF7561FFB0
:101449001208A8852261852262852263D2AF75229E
:1014590001752401752501752601856069756A0183
:0F1469007888E6B40307C27D307602D27DD26860
:10147800D269753300120DF0120E1F1208C8120837
:10148800CF1208C81208CF1208C8120B4D120691C5
:10149800120C4B120C921208CF120B3C306E031236
:1014A80006922066031207E4306603120814120C31
:1014B8004B120CC71208CF120B4D306E031206CE1A
:1014C800120C4B120D3E1208CF120B3C306E031259
:1014D800072C120C4B120D6D1208CF120B4D306EEB
:1014E80003120789120C4B120DF01208CF12082EA6
:1014F800120B3C120C4B120E1F1208321208CF307E
:10150800692F856461856462856069756A017918E7
:101518007A0CC3E53399400CC269D26A8A35756181
:10152800FF021539C3E55C940140030214920215C9
:10153800BF306A1D206C1AE535147006C26AD26B7A
:101548008192F535C3E55C940140030214920215BB
:10155800BF753600788279A4E760027803C3E55F37
:10156800985054307404E52A604D7888E6B403171F
:10157800207D05207607A18F307602A18F206C0789
:10158800D26C85646181D178F0306C0585646178AE
:1015980020C3E5419850028192306C1BC26CC27D19
:1015A800307602D27DD26A753512856461819205E2
:1015B80036E55C6002A1C2753600C2AF120E96789D
:1015C80087E6FE7602120F177887EEF6E4F522F525
:1015D80023F524F525F526F565752C00752D00D223
:1015E800AF120586120E9678A4E66006D297D295B9
:1015F800D293307409C3E536940440022143617BD9
:10160800901A0D782012168CE520B45A0CA31216E5
:101618008CE520B4A50302162A120EAB12164A0254
:101628001649901A0378807B0A12168CA308DBF9F6
:10163800901A0F788C7B1912168CA308DBF9901A74
:101648002822C2AF1216CF1216AC901A00740E12CE
:101658001691A3744B121691A37415121691901A31
:101668000378807B0A121690A308DBF9901A0F788A
:101678008C7B19121690A308DBF91216E21216C019
:10168800901A2822E493F622E6438F01538FFDFF38
:10169800C3E583941C400122EF857CB7857DB7F0B4
:1016A800538FFE22438F02438F01857CB7857DB718
:1016B800901A0DF0538FFC22901A0D745AD1919004
:1016C8001A0E74A5D191227A3079D07820901A40D8
:1016D800D18CE520F709A3DAF7227A3079D0901A6D
:1016E80040E7D19109A3DAF922AB74A875BB0102CE
:1016F8007984BB02027985BB03027986BB0402792F
:1017080092BB05027987BB060279A3BB0702799CC5
:10171800BB08027988BB09027989E8F7227C05129F
:10172800058BDCFB22C2AF12059B1205A21205A98C
:101738001205B012057C12059B1205A21205A9120A
:1017480005B012057C12059B1205A21205A9120507
:10175800B0D2AF22C2AF1205B01205A91205A2126B
:10176800059B12057C1205B01205A91205A21205E7
:101778009B12057C1205B01205A91205A212059B41
:10178800D2AF22AE74AF75C2AF12059B12059B1281
:10179800059B12057CDEF21205B012057CDFF8D23B
:1017A800AF22F12DF125F125757401757501757656
:1017B80000F18B7C05AD5C12058BC3ED955C70F573
:1017C800C3E55C9401400AC3E55C94FF403202170C
:1017D800E6D1F1D14AF12DC2AF75EF16F125DCD56E
:1017E8000576C3E5769403500280C6F1250575E5B4
:1017F800741490009F93F808C3E57598500280AE62
:101808001217251217250574C3E574940A5002802F
:0F1818009A120EAB12164AC2AF75EF16121725B1
:0319FD0002107362
:101A00000E4B15FFFFFFFF0304080101015AA5015A
:101A1000FFFFFFFFFF03FFFFFF0AF0FAFA04FF01D9
:091A2000007DFF0101000301FF3C
:101A4000235467794B4637304148562320202020C5
:101A500023424C48454C4923463331302320202033
:101A60002020202020202020202020202020202076
:101C0000C2AFC2D353D9BF7581C043B20343FF8073
:101C1000752438752503B1DC7529A5752AF175E29F
:101C20004043F10853A4F775D4FFD2837DFA7803BB
:101C300079E67C10752200752300901DE97B0675FE
:101C400024987525013083028145208308D8FBD96B
:101C5000F9DCF781B7308308D8FBD9F9DCF781B715
:101C6000B19CE493A3C39A6004DDC381B7DBDBB10D
:101C70008E6002812E7B08E493FAA3B16FDBF87AC1
:101C800030B16F752200752300B18EEAFCEBFDC305
:101C9000ED94FE400EB18E8A278B28ED30E0048A49
:101CA000828B83B18E7AC270D8C3ED94FE601950D6
:101CB000CEBD002BEC600F7520007521FF7529004B
:101CC000752A000200008100A827A9280809D80465
:101CD000D90281DCB192EA89AAF281CE0D81A3C337
:101CE000ED94035053EDA2E092007AC5C3E58294CF
:101CF00000E583941C508A200010438F02438F011B
:101D00008529B7852AB7F0300029A827A92808090E
:101D1000438F01538FFDD804D902A133C3E58394C7
:101D20001C4003A3A11689AAE28529B7852AB7F02A
:101D3000A3A116538FFC817F7AC1BD030CE493A34A
:101D4000FAB153DCF8B14B817F8181AA22AB23B178
:101D50006FEBFAEA6222752608C3E52313F523E543
:101D60002213F52250066323A0632201D526EAB18F
:101D7000DCB1DC75260AEAF4200102D283300102CC
:101D8000C283B1DCC3134002C201D526EB22B1925B
:101D9000EAFB208302A192308302A197752608AE48
:101DA00024AF25C3EF13FFEE13FEB1E0B1DCC3EAAD
:101DB000133083024480FA30E703632201C3E52332
:101DC00013F523E52213F52250066323A0632201B5
:101DD000D526D9E52265236523F52222AE24AF2539
:101DE0000E0FDEFEDFFCD20122424C48656C6934E6
:071DF000373164F310060116
:00000001FF
