:030000000219FDE5
:03000B000200A848
:03002B000201547B
:03005B000202D4CA
:030073000202C1C5
:1000800002030406080C10182030406080040608A3
:100090000C10182030406080A0C00003070F1F051F
:1000A000050D050205030302C2AFC0D0C0E0206207
:1000B00014E5256009E473E525F4F58AD262D0E001
:1000C000D0D0D2AF3285268AC262E526F46029D02C
:1000D000E0D0D0D297D295D293D2AF32D297D295E8
:1000E000D293206F0C2065097405D5E0FDE57B42B5
:1000F00090D0E0D0D0D2AF32758A00C28DD26201EA
:10010000F101B7306805206502C29701B730680574
:10011000206502C29301B7306805206502C29501CF
:10012000B7C29630680A2065077419D5E0FDC297FA
:1001300001B7C29230680A2065077419D5E0FDC284
:100140009301B7C29430680A2065077419D5E0FDA1
:10015000C29501B7C2AFC2AD53E6EFC0D0C0E0D286
:10016000D3D2AFC2CEE52A6007207449152A21B543
:100170007800790020742EE580307E01F430E502AD
:1001800078FF53DACF207E0343DA20307E0343DA50
:1001900010C2D8C271E580307E01F430E50279FFEB
:1001A000C3E89970CB306103752A18207403752A4F
:1001B00018885CD27020740DE52B6004152B21C5C6
:1001C00043DA01C2D82070024138A85C206102C223
:1001D00070207431C3E894F0400374F0F8E8C4541C
:1001E0000F28F87984B703024105C313C31387218D
:1001F000200802C313200A06C3C898F8410528F84E
:10020000500374FFF8C3E895655003E565F888224C
:10021000E52D54066022206B1FE536C333C333F847
:10022000E564C313C313F9C3952240028922E8256C
:1002300022F52250037522FF852224A824C3E52439
:1002400095614002A8618825E5667002417CC3E89B
:10025000AA669A5003E8FAE4F9EAC333FBE568F4C6
:100260005B29400D2567F8E56760021567400B4183
:100270007C0AC3E5679A5002056778FF882620CF7D
:100280000AD0E0D0D043E610D2AD32C2CF053A78E2
:1002900001E52A6005307402152AC3E55C9401402B
:1002A00005755F0041B7756000756900E55F240161
:1002B000F55F5003755FFFD0E0D0D043E610D2ADBC
:1002C00032C2AF53E67F7592FA7593FFC2607591A3
:1002D00004D2AF32C2AF53E6EFC2ADC0D0C0E0C06F
:1002E000F0D2D3D2AFA8FBA9FCC2D8307102613BD7
:1002F00053DACF207E0343DA10307E0343DA20D274
:1003000071E580307E01F420E5026112882789289A
:10031000A16053DACF207E0343DA20307E0343DA34
:1003200010C2D8C271307402A14C7800E580307ED2
:1003300001F430E502A14C885CA13453DACF207E71
:100340000343DA20307E0343DA10C2712061028158
:100350001453DACF207E0343DA10307E0343DA20D1
:10036000C2D8D27188578958C3E89555F8E995568F
:10037000F97B007E087A00C3E8948CE9940050056C
:10038000755B008106882178A2E6A8216055C3E844
:1003900094C8E994005008E4D2E4FB7A0A61E1C30E
:1003A000E89468E994015008E4D2E3FB7A0F61E134
:1003B000C3E894D0E994025008E4D2E2FB7A1E61CB
:1003C000E1C3E894A0E994055008E4D2E1FB7A3C4B
:1003D00061E1C3E89498E994085008E4D2E0FB7A1C
:1003E000787E00C3E89559FCE9955AFD30E70AECA0
:1003F000F42401FCEDF43400FD755B00C3EC9AEDD0
:100400009E5003755B018859895A85575585585602
:100410007802A134C3E89527F8E99528F9C3E913D0
:10042000F9E813F8C3E824B4FCE93400FD814EE98F
:10043000C313F9E813F8307902A111E9C313F9E8FD
:1004400013F8307802A111E9C313FDE813FC206111
:100450002CC3EC9482ED940240028165ED701EC3C2
:10046000EC94C850180529E52970021529C3E5291F
:0F047000940A5002A14C755C00D270A14CE52992
:10047F00600215297888E6F97400207F087896B90C
:10048F000302789EE624FAFEE43400FFC3EC9EFCE0
:10049F00ED9FFD9208B90310A2085007207609D2EC
:1004AF007681B7307602C276A2085016B9030DECEA
:1004BF00F42401FCEDF43400FD0204D1780079003E
:1004CF00A118B90315EC33FCED33FDC3EC940AFC12
:1004DF00ED9400FD50047C007D00C3EC94FFED947F
:1004EF0000400678FF7900A118EC8572F0A4C5F0E2
:1004FF00A2F733F87900400302053478FF79000240
:10050F000534E9C313F9E813F8307C0EE96002787B
:10051F00FFC3E81338F8E43400F9C3E894FFE99413
:10052F0000400278FF885CD270206102A14C741FDA
:10053F00F4552F4BF52FC274EB7002D274752A1835
:10054F00307403752A0A306102A16020740353DAF4
:10055F00FE207403752B06D0F0D0E0D0D0D2AD437F
:10056F00E6103279010205907903020590790A02AB
:10057F000590791E020590796402059079C80205ED
:10058F00907817E4D5E0FDD8FAD9F6227A147B7863
:10059F000205B77A107B8C0205B77A0D7BB4020582
:1005AF00B77A0B7BC80205B7E573D5E00122790254
:1005BF00E4C292D5E0FDC293D5E0FDD293D5E0FD24
:1005CF00D292D5E0FDE920E002C29730E002C29559
:1005DF00E573D5E0FDE920E002D29730E002D29535
:1005EF007496D5E0FDD9C9EAF8D5E0FDD8FBDBB8A4
:1005FF00C29222C37C007D0075F00005F0EA33FA49
:10060F00EB33FB50F6EB13FBEA13FAC3E9FFE8FEFB
:10061F00E89AF8E99BF95004EFF9EEF8B3EC33FCE4
:10062F00ED33FDD5F0DFEDF9ECF822E889F08A2003
:10063F00D2D4F8A9F07B0030F70B7BFFF42401F83C
:10064F00E9F43400F9E88520F0A4ADF0F8E985204D
:10065F00F0A4AFF0FEED2EF974003FFA7C04C3EA6C
:10066F0013FAE913F9E813F8DCF48BF030F70AE822
:10067F00F42401F8E9F43400F9E889F0C2D4F8A9B8
:10068F00F02222C3E54113F9E54013F8C3E544987E
:10069F00F8E54599F9500CC3E89480E994FF4016AA
:1006AF000206C9C3E8947FE9940050030206C97893
:1006BF007F79000206C9788079FF8849894A22E547
:1006CF00492546F8E54A3547F9854A20E4300701C0
:1006DF00F43548FA30E709C3EA94F04015020707EA
:1006EF00C3EA940F500302070778FF79FF7A0F02CE
:1006FF000707780079007AF0C3E5249561500AC3A3
:10070F0074019524500B020725E54A20E70E0207D6
:10071F0025E54A30E706884689478A482278A5E6C4
:10072F00FAC3E54933F8E54A33F9D13AE930E70B33
:10073F00C3E89480E994FF4013E15FC3E8947FE935
:10074F0094005002E15F787F7900E15F788079FF54
:10075F00E820E715C3E52398F84009C3E894014062
:10076F00030207867801020786E8F424012523F89F
:10077F00400302078678FF884B2278A6E6FAA8473F
:10078F00A948D13AE930E70CC3E89401E994FF4056
:10079F00160207BAC3E894FFE9940050030207BAA0
:1007AF0078FF79000207BA780179FFE920E715C3CE
:1007BF00E54B98F84009C3E8940140030207E1783C
:1007CF00010207E1E8F42401254BF840030207E199
:1007DF0078FF88242278FF20692879A1E76023E534
:1007EF0041601F74FF8541F0848539F0306A0375CD
:1007FF00F005A4F8C5F0600278FFC3E895645002D5
:10080F00A864886322C3E5409440E5419401E56301
:10081F005003140125046002F5632202082D22758E
:10082F00E890227883E6FF30EDF9A8BDA9BE0570E8
:10083F00C3E57094084052757000E9FA79A0E7603B
:10084F0044EA7007E571601B020866C3E8957160A2
:10085F0010E5715006600C140208720460F902086A
:0E086F0072E571F571C3946D401B7561C0C3D5
:10087D0094044013756180C39404400B756140C3AB
:10088D009404400375610075BB0822E561F46002B4
:10089D000561E570B4070375BB1022743279A78723
:1008AD00F0A4C5F0A2F733F8C3E895614002A86142
:1008BD008822882488258826886422754000754101
:1008CD00F022C2AF75C820A8CCA9CDAA3A30CF016D
:1008DD000A75C824D2AFAB3BAC3C883B893CC3E81E
:1008ED009BF8E99C206908F930660221DE2138ADBC
:1008FD003D8A3DF9EA9DFA600478FF79FFAE3EAF7F
:10090D003F8B3E8C3FA83BA93CC3E89EF8E99FF97D
:10091D00C3E54113FBE54013FAE82AF540E93BF541
:10092D004150067540FF7541FF2185AA40AB41AC92
:10093D0040AD417E047F02C3EB9404400D1E1FC3E6
:10094D00EB94084005206A021E1FC3ED13FDEC1346
:10095D00FCDEF7C3EA9CFAEB9DFBEF6009C3E913DC
:10096D00F9E813F8DFF7EA28FAEB39FB8A408B41F7
:10097D0050067BFF8B408B41C3EB94025002D26635
:10098D003069047F0321B07892E6FFC3E537948286
:10099D0040110FC3E53794A040010FC3EF940640FB
:1009AD00027F057E02E541C4540FF9E541C454F0C0
:1009BD00F8E540C4540F28F8C3E89EFAE99400FB0B
:1009CD004009C3EA9402EB940050047A02E4FB411F
:1009DD002AAA40AB41EBC4FEEAC4540F4EFCC3EA55
:1009ED009CFAEB9400FBC3E813C313F8EA28FAEB67
:1009FD003400FB8A408B41C3EB94024002C26678FF
:100A0D0002EBC4FE7B00EAC4540F4EFAC3EA98FA17
:100A1D004005C3940250027A027892E6FF306002DC
:100A2D00412A855192855293D26043E680C3E49A60
:100A3D00F8E49BF930660241B6E8FAE9FBD3E91315
:100A4D00FDE813FC88518952C3EF94036038EF2001
:100A5D00E00DE82CF8E93DF9ECFAEDFB020A7FE830
:100A6D0028F8E939F9C3E82402F8E93400F97AFEE7
:100A7D007BFFC3EF9403400E8A538B54884D894EF0
:100A8D008C4F8D5041EA885389548A4D8B4E8C4F33
:100A9D008D503069127553F07554FF754FF07550C8
:100AAD00FF7551F07552FF41EAE8FAD3E813FC885F
:100ABD0051C3EF94036020EF20E007E82CF8ECFA27
:100ACD0041D6E8282402F87AFEC3EF940340088A41
:100ADD0053884D8C4F41EA88538A4D8C4FE568C33E
:100AED00335002646BF56830600241F4753402D204
:100AFD006043E680E52D54066034A840A941C3E962
:100B0D0013F9E813F8C3E913F9E813F8306904E9A8
:100B1D002440F9C2AF53E67F759100C3E498F59474
:100B2D00E499F595759104D26043E680D2AF22D257
:100B3D0064754300752000306C03752040020B5B1B
:100B4D00D264754300752040306C03752000780128
:100B5D007901206620E52D54066002C2647914E502
:100B6D0041C313700104F8C3941440027814306922
:100B7D0004781B791B206010E543600C306903D5A8
:100B8D003404D26D810551FC0543E59B5440B520DD
:100B9D000261EF30690908C3E899400118618220AC
:100BAD00640A08C3E8994002615B6182C264C2AF06
:100BBD0053E67F7591003066127594007595F87542
:100BCD009104D26043E680D2AF615BE5417EFFC305
:100BDD00334005C3334001FEC3E49E759400F59583
:100BED0061CCC3E53394015002615B306402615BFB
:100BFD00D80281036182C26DC2AF53E67F75910049
:100C0D00855394855495759104854D92854E93D257
:100C1D006043E680D2AFE52D54066008206A0205D8
:100C2D0033020C41306D0D206C0A206407158115BF
:100C3D00810214E92278003064027801E53775F0FD
:100C4D0007A4F9E5F028F5F0E9A2F013A2F113A23B
:100C5D00F213F537C394785003753778C3E537959C
:0E0C6D00384008D265D297D295D293306002FB
:100C7B008178854F92855093D26043E68022207D08
:100C8B0016C2AF754202C292D296306202C295D2A0
:100C9B00AF759F13020E78C2AF754202C292D29407
:100CAB00306202C297D2AF759F13020E7830724337
:100CBB00207D20C2AF754203900132757B04D29523
:100CCB00C294306204C29381D6D292D2AF759F1078
:100CDB00020E78C2AF754203900132757B04D29736
:100CEB00C296306204C29381F6D292D2AF759F1135
:100CFB00020E78207D17C2AF75420390010DD2957D
:100D0B00306202C293D2AF759F10020E78C2AF75DC
:100D1B00420390010DD297306202C293D2AF759FFE
:100D2B0011020E78207D16C2AF754204C296D29482
:100D3B00306202C293D2AF759F11020E78C2AF75AB
:100D4B004204C294D296306202C293D2AF759F1006
:100D5B00020E78307243207D20C2AF7542059001A0
:100D6B0021757B40D293C292306204C297A17CD290
:100D7B0096D2AF759F13020E78C2AF7542059001E4
:100D8B0043757B10D293C292306204C295A19CD260
:100D9B0094D2AF759F13020E78207D17C2AF7542A8
:100DAB0005900103D293306202C297D2AF759F13A5
:100DBB00020E78C2AF754205900117D2933062EBE9
:100DCB00C295D2AF759F13020E78207D16C2AF75F8
:100DDB004206C294D292306202C297D2AF759F1074
:100DEB00020E78C2AF754206C296D292306202C230
:100DFB0095D2AF759F11020E78307243207D20C2C1
:100E0B00AF754201900143757B10D297C296306249
:100E1B0004C295C122D294D2AF759F11020E78C233
:100E2B00AF754201900121757B40D295C29430621F
:100E3B0004C297C142D296D2AF759F10020E782092
:100E4B007D17C2AF754201900117D297306202C273
:100E5B0095D2AF759F11020E78C2AF75420190010A
:100E6B0003D295306202C297D2AF759F10C2652232
:100E7B00900101757B00D297D295D293C296C29402
:100E8B00C292C26222788076FF0876FF0876FF084E
:100E9B0076FF08760308760408760A08760108764A
:100EAB0001087601788C76010876FF0876FF0876C4
:100EBB00FF0876FF0876FF0876030876FF0876FFB3
:100ECB000876FF0876250876D00876FA0876FA08B1
:100EDB0076040876FF08760108760008767A08769D
:100EEB00FF0876010876010876000876030876007D
:100EFB00227887E6FFC2727888E6C394036008C243
:100F0B007DE630E102D27DC27E7889E630E102D205
:100F1B007EC3EF94026008758E01D273020F2F759A
:100F2B008E00C273227880E6149000809378A5F629
:100F3B007881E6149000809378A6F67886E6149074
:100F4B00008D9378A7F67886E6F539C394025003A3
:100F5B00753902789CE67538FFB402037538A0B476
:100F6B00030375388278A3E61490009A93F566D143
:100F7B007B22227896E6FA7897E6FB7888E6B4032C
:100F8B0005C3EB940EFB307F047A007BFFC3EB9A17
:100F9B00FCC3948250027C827572000572EC8572E0
:100FAB00F0A4C3E5F0947D40F222D27FF17E1205CE
:100FBB00811205817A007B007C10120577E55C2A93
:100FCB00FA74003BFBDCF37C04C3EB13FBEA13FA70
:100FDB00DCF7FEC27FF17E22757C00757D00E5EFAC
:100FEB0020E6037520000520903FFFE520146006E6
:100FFB00901DFF1460009304600375EF1653D9BF67
:10100B0075D9087581C043FF8012057275EF0643D1
:10101B00B203E5B3240220E70DF521E5E320E0065A
:10102B008521B343E301120E7B7580FF75A4007518
:10103B00F1B275D4DF7590A975A5FC75F2FE75D567
:10104B000175A60175E241120E7BE4F8F6D8FD7529
:10105B006801120E9012153A78988673753001C29A
:0D106B00AF1205811205A912165712058B50
:1010780012058B120586C2AF757C00757D0078FA63
:1010880079FA308507D9FBD8F7021C00120EFC123A
:101098000F30120F7D120F7E78988673120E7B75B3
:1010A800881075890275C82475910475D84075A88B
:1010B8002275B80275E690759B80759D0075D10EF6
:1010C80075BC5875BB0875BA1175E880120572D2DF
:1010D800AF12082A75360053DACF207E0343DA2090
:1010E800307E0343DA1043DA01C2D8C27112058B8D
:1010F800D2617B037A0CE55B70077A0CDB03021084
:101108007E12058120700302107EC270E55CC394D4
:101118000240E1E52F541F855E5DF55EB55DD5DAC9
:10112800D5C26153DACF207E0343DA20307E0343F1
:10113800DA10C2D8C27178A2E67008D274E52F54CA
:10114800E0F52FC275752900120586307409C3E5CC
:1011580029940A4002D27512057778023074027811
:1011680000C3E55C9840F0C2AF12059B12059BD204
:10117800AF12058B754C007888E6B40302417B12E8
:101188000577788CE6C39401500302127BE530C3DF
:101198009401500302127B757CA5757DF12074358E
:1011A800C3E55C94FF500302127BC2AF1205B0D2B4
:1011B800AF120586C3E55C940150EFC2AF12059BE0
:1011C80012057C12059BD2AF120586C3E55C94FF1D
:1011D80040E90216DC7F05D27F120F7E120586C217
:1011E800AFC27F120F7EAE5CC3E55C947FD2AF5076
:1011F80002418B120572C2AF1205B0D2AFDFD8120E
:101208000FB5C3EE94057897F612058B12165F7F1B
:101218000AD27F120F7E120586C2AFC27F120F7EDE
:10122800AE5CC3E55C947FD2AF50E4120572C2AFE6
:1012380012059B12057C12059BD2AFDFD4120FB5A5
:10124800EE24037896F6F87997E7C39482400398DA
:101258005006E824827897F612058B12157C121630
:101268008E120586120F7EC3E55C94FF5002219F03
:101278000216DC757C00757D00C3E55C954C400367
:10128800855C4C12058678017988E7B403027805F5
:10129800C3E55C984002217FC2AF1205B0D2AF12FD
:1012A800058B753000E4F531F5320531E531F47020
:1012B8003F0532789AE67819146012783214600D76
:1012C800787D14600878FA146003753200C3E5323B
:1012D80098401D120E7B12057215327531007899EF
:1012E8008673C2AF1205B0D2AF789886731205869E
:1012F80012057CE52A7005307402017E780120749D
:10130800027806C3E55C9840A17888E6C394036038
:1013180003120586E52A700302107EC2AF120E7B07
:10132800E4F522F523F524F525F526F567D2AF78FF
:1013380085E6C333F565E4F544F545F546F547F527
:1013480048F570F52CF52DF53775700875BB10123A
:10135800057212082E30EDFDA8BDA9BEE97001F88E
:10136800887112083275700875BB10120EFCC2AF76
:101378007561FF1208A8852261852262852263D2E1
:10138800AF752201752401752501752601856069EF
:10139800756A017888E6B40307C27D307602D27D8B
:1013A800D268D269753300120DD5120E041208C81E
:1013B8001208CF1208C81208CF1208C8120B4D1213
:1013C8000691120C42120C891208CF120B3C306E97
:1013D800031206922066031207E43066031208140B
:1013E800120C42120CB81208CF120B4D306E0312B9
:1013F80006CE120C42120D2F1208CF120B3C306E83
:101408000312072C120C42120D5E1208CF120B4D5C
:10141800306E03120789120C42120DD51208CF1232
:10142800082E120B3C120C42120E0412083212083B
:10143800CF30692F856461856462856069756A014A
:1014480079187A0CC3E53399400CC269D26A8A3597
:101458007561FF02146BC3E55C940140030213C479
:0E1468000214F1306A1D206C1AE5351470066E
:10147600C26AD26B61C4F535C3E55C9401400302D0
:1014860013C40214F1753600788279A4E7600278F5
:1014960003C3E55F985054307404E52A604D78889C
:1014A600E6B40317207D0520760781C130760281D8
:1014B600C1206C07D26C856461810378F0306C05BD
:1014C6008564617820C3E54198500261C4306C1B85
:1014D600C26CC27D307602D27DD26A7535128564C1
:1014E6006161C40536E55C600281F4753600C2AF01
:1014F600120E7B7887E6FE7602120EFC7887EEF6F1
:10150600E4F522F523F524F525F526F565752C0079
:10151600752D00D2AF120586120E7B78A4E6600602
:10152600C297C293C295307409C3E536940440024B
:10153600017E41AD901A0D78201215BEE520B45AF1
:101546000CA31215BEE520B4A50302155C120E907D
:1015560012157C02157B901A0378807B0A1215BE41
:10156600A308DBF9901A0F788C7B191215BEA30815
:10157600DBF9901A2822C2AF1216011215DE901A54
:1015860000740E1215C3A3744B1215C3A37415125F
:1015960015C3901A0378807B0A1215C2A308DBF9DB
:1015A600901A0F788C7B191215C2A308DBF9121654
:1015B600141215F2901A2822E493F622E6438F01BC
:1015C600538FFDFFC3E583941C400122EF857CB752
:1015D600857DB7F0538FFE22438F02438F01857CB2
:1015E600B7857DB7901A0DF0538FFC22901A0D74B3
:1015F6005AB1C3901A0E74A5B1C3227A3079D07845
:1016060020901A40B1BEE520F709A3DAF7227A3016
:1016160079D0901A40E7B1C309A3DAF922AB74A8CE
:1016260075BB01027984BB02027985BB0302798608
:10163600BB04027992BB05027987BB060279A3BB7C
:101646000702799CBB08027988BB09027989E8F709
:10165600227C0512058BDCFB22C2AF12059B12050C
:10166600A21205A91205B012057C12059B1205A24D
:101676001205A91205B012057C12059B1205A212CD
:1016860005A91205B0D2AF22C2AF1205B01205A944
:101696001205A212059B12057C1205B01205A912AD
:1016A60005A212059B12057C1205B01205A91205AA
:1016B600A212059BD2AF22AE74AF75C2AF12059BC4
:1016C60012059B12059B12057CDEF21205B012056F
:1016D6007CDFF8D2AF22D15FD157D157757401752F
:1016E6007501757600D1BD7C05AD5C12058BC3ED29
:1016F600955C70F5C3E55C9401400AC3E55C94FF14
:101706004032021718D123B17CD15FC2AF75EF16F4
:10171600D157DCD50576C3E5769403500280C6D151
:10172600570575E5741490009F93F808C3E57598FE
:10173600500280AED157D1570574C3E574940A5050
:0F17460002809C120E90B17CC2AF75EF16D15786
:0319FD00020FE3F3
:101A00000E4B15FFFFFFFF03040A0101015AA50158
:101A1000FFFFFFFFFF03FFFFFF25D0FAFA04FF01DE
:091A2000007AFF0101000300FF40
:101A4000235475726E696779313841232020202034
:101A500023424C48454C4923463333302320202031
:101A60002020202020202020202020202020202076
:101C0000C2AFC2D353D9BF7581C043B20343FF8073
:101C1000752438752503B1DC7529A5752AF175E29F
:101C20004043F12053A4DF75D4FFD2857DFA7803B9
:101C300079E67C10752200752300901DE97B0675FE
:101C400024987525013085028145208508D8FBD967
:101C5000F9DCF781B7308508D8FBD9F9DCF781B713
:101C6000B19CE493A3C39A6004DDC381B7DBDBB10D
:101C70008E6002812E7B08E493FAA3B16FDBF87AC1
:101C800030B16F752200752300B18EEAFCEBFDC305
:101C9000ED94FE400EB18E8A278B28ED30E0048A49
:101CA000828B83B18E7AC270D8C3ED94FE601950D6
:101CB000CEBD002BEC600F7520007521FF7529004B
:101CC000752A000200008100A827A9280809D80465
:101CD000D90281DCB192EA89AAF281CE0D81A3C337
:101CE000ED94035053EDA2E092007AC5C3E58294CF
:101CF00000E583941C508A200010438F02438F011B
:101D00008529B7852AB7F0300029A827A92808090E
:101D1000438F01538FFDD804D902A133C3E58394C7
:101D20001C4003A3A11689AAE28529B7852AB7F02A
:101D3000A3A116538FFC817F7AC1BD030CE493A34A
:101D4000FAB153DCF8B14B817F8181AA22AB23B178
:101D50006FEBFAEA6222752608C3E52313F523E543
:101D60002213F52250066323A0632201D526EAB18F
:101D7000DCB1DC75260AEAF4200102D285300102CA
:101D8000C285B1DCC3134002C201D526EB22B19259
:101D9000EAFB208502A192308502A197752608AE44
:101DA00024AF25C3EF13FFEE13FEB1E0B1DCC3EAAD
:101DB000133085024480FA30E703632201C3E52330
:101DC00013F523E52213F52250066323A0632201B5
:101DD000D526D9E52265236523F52222AE24AF2539
:101DE0000E0FDEFEDFFCD20122424C48656C6934E6
:071DF000373164F3300601F6
:00000001FF
