:030000000219FDE5
:03000B000200AA46
:03002B0002015C73
:03005B000202F0AE
:030073000202DDA9
:1000800002030406080C10182030406080040608A3
:100090000C10182030406080A0C00003070F1F0D17
:1000A0000D04050D050305030302C2AFC0D0C0E077
:1000B000206214E5256009E473E525F4F58AD2622F
:1000C000D0E0D0D0D2AF3285268AC262E526F46075
:1000D0002F30682520720DD0E0D0D0C293C295C2D7
:1000E00097D2AF32C293C295C297206F0C20650998
:1000F000740AD5E0FDE57B4290D0E0D0D0D2AF329B
:10010000758A00C28DD26201F901B9306805206597
:1001100002D29301B9306805206502D29501B93049
:100120006805206502D29701B9C29230680A20653D
:10013000077408D5E0FDD29301B9C29430680A2053
:1001400065077408D5E0FDD29501B9C29630680AFA
:100150002065077408D5E0FDD29701B9C2AFC2ADE2
:1001600053E6EFC0D0C0E0D2D3D2AFC2CEE52A6012
:1001700007207449152A21BD7800790020742EE5E6
:1001800080307E01F430E30278FF53DACF207E0323
:1001900043DA20307E0343DA10C2D8C271E58030E2
:1001A0007E01F430E30279FFC3E89970CB3061033C
:1001B000752A18207403752A18885CD27020740D73
:1001C000E52B6004152B21CD43DA01C2D820700243
:1001D000413CA85C206102C2702074367982B70469
:1001E00031C3E894F0400374F0F8E8C4540F28F8E1
:1001F0007984B703024112C313C313872120080275
:10020000C313200A06C3C898F8411228F850037493
:10021000FFF88822E52D54066022206B1FE536C3C7
:1002200033C333F8E564C313C313F9C39522400203
:100230008922E82522F52250037522FF7882B60430
:1002400059852224A824C3E52495614002A861C3EE
:10025000E895634002A8638825E5667002418DC376
:10026000E8AA669A5003E8FAE4F9EAC333FBE568C2
:10027000F45B29400D2567F8E56760021567400BC0
:10028000418D0AC3E5679A5002056778FF8826C248
:100290006FC3E52694F84002D26F20CF0AD0E0D099
:1002A000D043E610D2AD32C2CF053A7801E52A60DC
:1002B00005307402152AC3E55C94014005755F00A2
:1002C00041D3756000756900E55F2401F55F500357
:1002D000755FFFD0E0D0D043E610D2AD32C2AF534D
:1002E000E67F7592FA7593FFC260759104D2AF32C2
:1002F000C2AF53E6EFC2ADC0D0C0E0C0F0D2D3D29F
:10030000AFA8FBA9FCC2D8307102615753DACF20E5
:100310007E0343DA10307E0343DA20D271E5803069
:100320007E01F420E302612E88278928A17C53DA1C
:10033000CF207E0343DA20307E0343DA10C2D8C2D6
:1003400071307402A1687800E580307E01F430E3FA
:1003500002A168885CA15053DACF207E0343DA20E3
:10036000307E0343DA10C271206102813053DACF4C
:10037000207E0343DA10307E0343DA20C2D8D271E4
:1003800088578958C3E89555F8E99556F97B007E5A
:10039000087A00C3E8948CE994005005755B0081ED
:1003A00022882178A2E6A8216055C3E894C8E99480
:1003B000005008E4D2E4FB7A0A61FDC3E89468E9DE
:1003C00094015008E4D2E3FB7A0F61FDC3E894D0B6
:1003D000E994025008E4D2E2FB7A1E61FDC3E8947E
:1003E000A0E994055008E4D2E1FB7A3C61FDC3E842
:1003F0009498E994085008E4D2E0FB7A787E00C330
:10040000E89559FCE9955AFD30E70AECF42401FC23
:10041000EDF43400FD755B00C3EC9AED9E5003755E
:100420005B018859895A8557558558567802A150DD
:10043000C3E89527F8E99528F9C3E913F9E813F813
:10044000C3E824B4FCE93400FD816AE9C313F9E888
:1004500013F8307902A12DE9C313F9E813F83078C5
:1004600002A12DE9C313FDE813FC20612CC3EC9419
:0F04700082ED940240028181ED701EC3EC94C8AE
:10047F0050180529E52970021529C3E529940A505A
:10048F0002A168755C00D270A168E5296002152988
:10049F007888E6F97400207F087896B90302789E71
:1004AF00E624FAFEE43400FFC3EC9EFCED9FFD92C0
:1004BF0008B90310A2085007207609D27681D330ED
:1004CF007602C276A2085016B9030DECF42401FC93
:1004DF00EDF43400FD0204ED78007900A134B90386
:1004EF0015EC33FCED33FDC3EC940AFCED9400FDE9
:1004FF0050047C007D00C3EC94FFED94004006781F
:10050F00FF7900A134EC8572F0A4C5F0A2F733F89F
:10051F007900400302055078FF7900020550E9C3C6
:10052F0013F9E813F8307C0EE9600278FFC3E81383
:10053F0038F8E43400F9C3E894FFE99400400278F6
:10054F00FF885CD270206102A168741FF4552F4B95
:10055F00F52FC274EB7002D274752A1830740375BC
:10056F002A0A306102A17C20740353DAFE2074033F
:10057F00752B06D0F0D0E0D0D0D2AD43E610327953
:10058F00010205AC79030205AC790A0205AC791EAC
:10059F000205AC79640205AC79C80205AC7817E4A2
:1005AF00D5E0FDD8FAD9F6227A147B780205D37AF2
:1005BF00107B8C0205D37A0D7BB40205D37A0B7BAB
:1005CF00C80205D3E573D5E001227902E4C294D5C0
:1005DF00E0FDD295D5E0FDC295D5E0FDD294D5E0F2
:1005EF00FDE920E002D29330E002D297E573D5E027
:1005FF00FDE920E002C29330E002C2977496D5E085
:10060F00FDD9C9EAF8D5E0FDD8FBDBB8C29422C307
:10061F007C007D0075F00005F0EA33FAEB33FB50F8
:10062F00F6EB13FBEA13FAC3E9FFE8FEE89AF8E9E1
:10063F009BF95004EFF9EEF8B3EC33FCED33FDD535
:10064F00F0DFEDF9ECF822E889F08A20D2D4F8A98E
:10065F00F07B0030F70B7BFFF42401F8E9F4340052
:10066F00F9E88520F0A4ADF0F8E98520F0A4AFF00B
:10067F00FEED2EF974003FFA7C04C3EA13FAE91376
:10068F00F9E813F8DCF48BF030F70AE8F42401F8FA
:10069F00E9F43400F9E889F0C2D4F8A9F02278829D
:1006AF00B60403020708C3E55C940140030206D2B7
:1006BF00852224E4F544F545F546F547F548C26E25
:1006CF000207087882E6FCD26EE522F523783879A6
:1006DF00C7AA40AB41C3EB13FBEA13FAEC14601348
:1006EF00C3EB13FBEA13FAEC14146007C3EB13FB11
:1006FF00EA13FAD11E8844894522C3E5449523F8AD
:10070F00E5459400F9500CC3E89480E994FF401636
:10071F00020739C3E8947FE9940050030207397840
:10072F007F7900020739788079FF8849894A22E565
:10073F00492546F8E54A3547F9854A20E43007014F
:10074F00F43548FA30E709C3EA94F0401502077709
:10075F00C3EA940F500302077778FF79FF7A0F02ED
:10076F000777780079007AF0C3E5249561500AC3C2
:10077F0074019524500B020795E54A20E70E0207F6
:10078F0095E54A30E706884689478A482278A5E6E4
:10079F00FAC3E54933F8E54A33F9D156E930E70BA7
:1007AF00C3E89480E994FF4013E1CFC3E8947FE955
:1007BF0094005002E1CF787F7900E1CF788079FF04
:1007CF00E820E715C3E52398F84009C3E8940140F2
:1007DF00030207F678010207F6E8F424012523F84F
:1007EF0040030207F678FF884B2278A6E6FAA8475F
:1007FF00A948120656E930E70CC3E89401E994FFC3
:10080F00401602082BC3E894FFE994005003020836
:10081F002B78FF790002082B780179FFE920E71583
:10082F00C3E54B98F84009C3E8940140030208520E
:10083F007801020852E8F42401254BF8400302081E
:10084F005278FF88242278FF20692879A1E7602356
:10085F00E541601F74FF8541F0848539F0306A03EC
:0F086F0075F005A4F8C5F0600278FFC3E8956442
:10087E005002A864886322C3E5409440E541940188
:10088E00E5635003140196046002F5632202089E8C
:10089E002275E890227883E6FF30EDF9A8BDA9BE57
:1008AE000570C3E57094084052757000E9FA79A09E
:1008BE00E76044EA7007E571601B0208D7C3E8954C
:1008CE00716010E5715006600C140208E30460F9C3
:1008DE000208E3E571F571C394A8401B7561C0C3AE
:1008EE0094054013756180C39405400B756140C338
:1008FE009405400375610075BB0122E5612410501B
:10090E000274FFF5617982B704022130C3A861E554
:10091E0024985002A824C3E895634002A863882552
:10092E008826E570B4070375BB1E22743279A7873B
:10093E00F0A4C5F0A2F733F8C3E895614002A861B0
:10094E00882288248825882688642275400075416F
:10095E00F022C2AF75C820A8CCA9CDAA3A30CF01DB
:10096E000A75C824D2AFAB3BAC3C883B893CC3E88C
:10097E009BF8E99C206908F9306602416F21C9ADE8
:10098E003D8A3DF9EA9DFA600478FF79FFAE3EAFED
:10099E003F8B3E8C3FA83BA93CC3E89EF8E99FF9EC
:1009AE00C3E54113FBE54013FAE82AF540E93BF5B0
:1009BE004150067540FF7541FF4116AA40AB41AC50
:1009CE0040AD417E047F02C3EB9404400D1E1FC355
:1009DE00EB94084005206A021E1FC3ED13FDEC13B5
:1009EE00FCDEF7C3EA9CFAEB9DFBEF6009C3E9134B
:1009FE00F9E813F8DFF7EA28FAEB39FB8A408B4166
:100A0E0050067BFF8B408B41C3EB94025002D266A3
:100A1E003069047F0341417892E6FFC3E537948243
:100A2E0040110FC3E53794A040010FC3EF94064069
:100A3E00027F057E02E541C4540FF9E541C454F02E
:100A4E00F8E540C4540F28F8C3E89EFAE99400FB79
:100A5E004009C3EA9402EB940050047A02E4FB418D
:100A6E00BBAA40AB41EBC4FEEAC4540F4EFCC3EA32
:100A7E009CFAEB9400FBC3E813C313F8EA28FAEBD5
:100A8E003400FB8A408B41C3EB94024002C266786D
:100A9E0002EBC4FE7B00EAC4540F4EFAC3EA98FA86
:100AAE004005C3940250027A027892E6FF3060024B
:100ABE0041BB855192855293D26043E680C3E49A3E
:100ACE00F8E49BF93066026147E8FAE9FBD3E913D3
:100ADE00FDE813FC88518952C3EF94036038EF2070
:100AEE00E00DE82CF8E93DF9ECFAEDFB020B10E80D
:100AFE0028F8E939F9C3E82402F8E93400F97AFE56
:100B0E007BFFC3EF9403400E8A538B54884D894E5E
:100B1E008C4F8D50617B885389548A4D8B4E8C4FF0
:100B2E008D503069127553F07554FF754FF0755036
:100B3E00FF7551F07552FF617BE8FAD3E813FC881C
:100B4E0051C3EF94036020EF20E007E82CF8ECFA95
:100B5E006167E8282402F87AFEC3EF940340088AFE
:100B6E0053884D8C4F617B88538A4D8C4FE568C3FB
:100B7E00335002646BF5683060026185753402D2C1
:100B8E006043E680E52D54066034A840A941C3E9D0
:100B9E0013F9E813F8C3E913F9E813F8306904E917
:100BAE002440F9C2AF53E67F759100C3E498F594E3
:100BBE00E499F595759104D26043E680D2AF22D2C6
:100BCE0064754300752000306C03752040020BECF9
:100BDE00D264754300752040306C03752000780197
:100BEE007901206620E52D54066002C2647914E571
:100BFE0041C313700104F8C3941440027814306991
:100C0E0004781B791B206010E543600C306903D516
:100C1E003404D26D819F718D0543E59E7005E59B71
:100C2E00020C33E59A5440B52002818930690908D7
:100C3E00C3E899400118811320640A08C3E899405B
:100C4E000261EC8113C264C2AF53E67F759100302E
:100C5E0066127594007595F8759104D26043E6801E
:0E0C6E00D2AF61ECE5417EFFC3334005C333D6
:100C7C004001FEC3E49E759400F5958166C3E5338F
:100C8C009401500261EC30640261ECD802819D81C8
:100C9C0013C26DC2AF53E67F759100855394855492
:100CAC0095759104854D92854E93D26043E680D222
:100CBC00AFE52D54066008206A020533020CDB30C8
:100CCC006D0D206C0A2064071581158102159F2279
:100CDC0078003064027801E53775F007A4F9E5F087
:100CEC0028F5F0E9A2F013A2F113A2F213F537C321
:100CFC0094785003753778C3E53795384008D2653A
:100D0C00C293C295C297306002A112854F92855052
:100D1C0093D26043E68022207D19C2AF754202C295
:100D2C0094D292306202D297D2AF759F33759E00E7
:100D3C00020F24C2AF754202C294D296306202D224
:100D4C0093D2AF759F33759E00020F2430724320EF
:100D5C007D20C2AF75420390013A757B10C297C2D9
:100D6C0096306204D295A176D294D2AF759E2302AE
:100D7C000F24C2AF75420390013A757B10C293C227
:100D8C0092306204D295A196D294D2AF759E220273
:100D9C000F24207D17C2AF754203900115C2973006
:100DAC006202D295D2AF759E23020F24C2AF754258
:100DBC0003900115C293306202D295D2AF759E2278
:100DCC00020F24207D16C2AF754204C292D2963017
:100DDC006202D295D2AF759E22020F24C2AF754229
:100DEC0004C296D292306202D295D2AF759E230283
:100DFC000F24307249207D23C2AF75420590012922
:100E0C00757B04C295C294306204D293C11CD292F9
:100E1C00D2AF759F33759E00020F24C2AF75420589
:100E2C0090014B757B40C295C294306204D297C13D
:100E3C003FD296D2AF759F33759E00020F24207D52
:100E4C001AC2AF75420590010BC295306202D29363
:100E5C00D2AF759F33759E00020F24C2AF75420549
:100E6C0090011FC2953062E8D297D2AF759F33754F
:100E7C009E00020F24207D16C2AF754206C296D288
:100E8C0094306202D293D2AF759E23020F24C2AF6C
:100E9C00754206C292D294306202D297D2AF759E3E
:100EAC0022020F24307243207D20C2AF7542019084
:100EBC00014B757B40C293C292306204D297C1CE73
:100ECC00D296D2AF759E22020F24C2AF754201900A
:100EDC000129757B04C297C296306204D293C1EE8D
:100EEC00D292D2AF759E23020F24207D17C2AF750C
:100EFC00420190011FC293306202D297D2AF759E0D
:100F0C0022020F24C2AF75420190010BC2973062CE
:100F1C0002D293D2AF759E23C26522900109757BD4
:100F2C0000C293C295C297C292C294C296C2622268
:100F3C00788076090876090876040876FF08760327
:100F4C000876FF087607087603087601087601789C
:100F5C008C76010876FF0876FF0876FF0876FF0886
:100F6C0076FF0876030876FF0876FF0876FF08768A
:100F7C00250876D00876280876500876040876FF7F
:100F8C0008760208760008767A0876FF087601085B
:100F9C007601087600087603087600227887E6FF4B
:100FAC00C272BF0302D2727888E6C394036008C28F
:100FBC007DE630E102D27DC27E7889E630E102D254
:100FCC007EC3EF94026008758E01D273020FE07538
:100FDC008E00C273227880E6149000809378A5F678
:100FEC007881E6149000809378A6F67886E61490C3
:100FFC00008D9378A7F67886E6F539C394025003F2
:10100C00753902789CE67538FFB402037538A0B4C4
:10101C00030375388278A3E61490009A93F5661250
:10102C000F2722227896E6FA7897E6FB7888E6B4C2
:10103C000305C3EB940EFB307F047A007BFFC3EBFC
:10104C009AFCC3948250027C827572000572EC8506
:10105C0072F0A4C3E5F0947D40F222D27F113012DD
:0E106C00059D12059D7A007B007C10120593F5
:10107A00E55C2AFA74003BFBDCF37C04C3EB13FB4C
:10108A00EA13FADCF7FEC27F113022757C00757D07
:10109A0000E5EF20E6037520000520903DFFE520DE
:1010AA00146006901FFF1460009304600375EF1626
:1010BA0053D9BF75D9087581C043FF8012058E7553
:1010CA00EF0643B203E5B3240220E70DF521E5B1AB
:1010DA0020E0068521B343B101120F2775800875F8
:1010EA00A40075F1FF75D4F775900275A5FC75F229
:1010FA00FC75D50075A0FD75A60275F30275D600BC
:10110A0075B0FF75A70175F4FF75E241120F27E468
:10111A00F8F6D8FD756801120F3C1215F07898861A
:10112A0073753001C2AF12059D1205C5C2AF757C39
:10113A0000757D0078FA79FA308307D9FBD8F7026F
:10114A001C00120FA8120FE1112F11307898867324
:10115A00120F2775881075890275C8247591047550
:10116A00D84075A82275B80275E690759B80759D62
:10117A0000759A80759C0075D10E75BC5875BB01B7
:10118A0075BA1F75E88012058ED2AF12089B7536A4
:10119A000053DACF207E0343DA20307E0343DA108D
:1011AA0043DA01C2D8C2711205A7D2617B037A0C55
:1011BA00E55B70077A0CDB0302113612059D20707D
:1011CA0003021136C270E55CC3940240E1E52F5474
:1011DA001F855E5DF55EB55DD5DAD5C26153DACF9E
:1011EA00207E0343DA20307E0343DA10C2D8C2716C
:1011FA0078A2E67008D274E52F54E0F52FC275750F
:10120A0029001205A2307409C3E529940A4002D2C2
:10121A007512059378023074027800C3E55C984031
:10122A00F0C2AF1205B71205B7D2AF1205A7754CB7
:10123A00007888E6B40302612E120593788CE6C31F
:10124A009401500302132EE530C394015003021394
:10125A002E757CA5757DF1207435C3E55C94FF502D
:10126A000302132EC2AF1205CCD2AF1205A2C3E5F8
:10127A005C940150EFC2AF1205B71205981205B778
:10128A00D2AF1205A2C3E55C94FF40E902179C7F26
:10129A0002D27F11301205A2C2AFC27F1130AE5CFA
:1012AA00C3E55C947FD2AF5002613E12058EC2AF95
:1012BA001205CCD2AFDFDA1167C3EE7897F61205C2
:1012CA00A712171F7F0AD27F11301205A2C2AFC21E
:1012DA007F1130AE5CC3E55C947FD2AF50E6120555
:1012EA008EC2AF1205B71205981205B7D2AFDFD674
:1012FA001167EE24037896F6F87997E7C39482404B
:10130A0003985006E824827897F61205A712163237
:10131A0012174E1205A21130C3E55C94FF50024128
:10132A005B02179C757C00757D00C3E55C954C409B
:10133A0003855C4C1205A278017988E7B403027828
:10134A0005C3E55C984002413BC2AF1205CCD2AF5F
:10135A001205A7753000E4F531F5320531E531F4AF
:10136A00703F0532789AE678191460127832146060
:10137A000D787D14600878FA146003753200C3E5AD
:10138A003298401D120F2712058E153275310078DA
:10139A00998673C2AF1205CCD2AF789886731205BC
:1013AA00A2120598E52A70053074022136780120C8
:1013BA0074027806C3E55C9840A17888E6C3940372
:1013CA0060031205A2E52A7003021136C2AF120F9A
:1013DA0027E4F522F523F524F525F526F567D2AF9E
:1013EA007885E6C333F565E4F544F545F546F547F2
:1013FA00F548F570F52CF52DF53775700875BB1E97
:10140A0012058E12089F30EDFDA8BDA9BEE9700134
:10141A00F888711208A375700875BB1E120FA8C24E
:10142A00AF7561FF120939852261852262852263BF
:10143A00D2AF7522017524017525017526018560D3
:10144A0069756A017888E6B40307C27D307602D2EC
:10145A007DD268D269753300120E81120EB012095C
:0D146A00591209601209591209601209593E
:10147700120BDE1206AD120CDC120D2312096012DC
:101487000BCD306E0312070920660312085530662C
:1014970003120885120CDC120D58120960120BDEBC
:1014A700306E0312073E120CDC120DCF12096012C8
:1014B7000BCD306E0312079C120CDC120DFE1209C5
:1014C70060120BDE306E031207F9120CDC120E816C
:1014D70012096012089F120BCD120CDC120EB0120B
:1014E70008A312096030693285646185646285608A
:1014F70069756A0179187A0CC3E53399400FC26997
:10150700D26A8A35856461856463021521C3E55C07
:10151700940140030214770215A7306A1D206C1A44
:10152700E535147006C26AD26B8177F535C3E55C81
:10153700940140030214770215A775360078FA79EB
:10154700A4E760027803C3E55F985054307404E55C
:101557002A604D7888E6B40317207D05207607A119
:1015670077307602A177206C07D26C85646181B6EB
:1015770078F0306C058564617820C3E541985002A6
:101587008177306C1BC26CC27D307602D27DD26A05
:1015970075351285646181770536E55C6002A1AA1D
:1015A700753600C2AF120F277887E6FE7602120F54
:1015B700A87887EEF6E4F522F523F524F525F52638
:1015C700F565752C00752D00D2AF1205A2120F27F5
:1015D70078A4E66006D293D295D297307409C3E512
:1015E700369404400221366160901A0D7820121655
:1015F70074E520B4550CA3121674E520B4AA0302AF
:101607001612120F3C121632021631901A03788006
:101617007B0A121674A308DBF9901A0F788C7B19D2
:10162700121674A308DBF9901A2822C2AF1216B754
:10163700121694901A00740E121679A3744B121690
:1016470079A37415121679901A0378807B0A1216FB
:1016570078A308DBF9901A0F788C7B19121678A3F8
:1016670008DBF91216CA1216A8901A2822E493F674
:1016770022E6438F01538FFDFFC3E583941C40018E
:1016870022EF857CB7857DB7F0538FFE22438F020B
:10169700438F01857CB7857DB7901A0DF0538FFC7A
:1016A70022901A0D7455D179901A0E74AAD1792205
:1016B7007A3079D07820901A40D174E520F709A3C1
:1016C700DAF7227A3079D0901A40E7D17909A3DA8C
:1016D700F922AB74A875BB01027980BB020279813C
:1016E700BB03027982BB04027984BB05027986BBFE
:1016F70006027992BB07027987BB080279A3BB0967
:1017070002799CBB0A027988BB0B027989E8F72228
:101717007C051205A7DCFB22C2AF1205B71205BE76
:101727001205C51205CC1205981205B71205BE128F
:1017370005C51205CC1205981205B71205BE12058C
:10174700C51205CCD2AF22C2AF1205CC1205C51205
:1017570005BE1205B71205981205CC1205C512056C
:10176700BE1205B71205981205CC1205C51205BEA3
:101777001205B7D2AF22AE74AF75C2AF1205B7125A
:1017870005B71205B7120598DEF21205CC120598B7
:10179700DFF8D2AF22F11FF117F1177574017575D4
:1017A70001757600F17D7C05AD5C1205A7C3ED954B
:1017B7005C70F5C3E55C9401400AC3E55C94FF40A7
:1017C700320217D8D1D9D132F11FC2AF75EF16F156
:1017D70017DCD50576C3E5769403500280C6F1176A
:1017E7000575E5741490009F93F808C3E575985044
:1017F7000280AEF117F1170574C3E574940C50021B
:10180700809C120F3C121632C2AF75EF16121717D3
:0319FD0002109540
:101A00000E4B15090904FF03FF0703010155AA0145
:101A1000FFFFFFFFFF03FFFFFF25D0285004FF0259
:091A2000007AFF0101000300FF40
:101A400023506C6174696E756D31353041232020EF
:101A500023424C48454C4923463331302320202033
:101A60002020202020202020202020202020202076
:101C0000C2AFC2D353D9BF7581C043B20343FF8073
:101C1000752438752503B1DC7529A5752AF175E29F
:101C20004043F10853A4F775D4FFD2837DFA7803BB
:101C300079E67C10752200752300901DE97B0675FE
:101C400024987525013083028145208308D8FBD96B
:101C5000F9DCF781B7308308D8FBD9F9DCF781B715
:101C6000B19CE493A3C39A6004DDC381B7DBDBB10D
:101C70008E6002812E7B08E493FAA3B16FDBF87AC1
:101C800030B16F752200752300B18EEAFCEBFDC305
:101C9000ED94FE400EB18E8A278B28ED30E0048A49
:101CA000828B83B18E7AC270D8C3ED94FE601950D6
:101CB000CEBD002BEC600F7520007521FF7529004B
:101CC000752A000200008100A827A9280809D80465
:101CD000D90281DCB192EA89AAF281CE0D81A3C337
:101CE000ED94035053EDA2E092007AC5C3E58294CF
:101CF00000E583941C508A200010438F02438F011B
:101D00008529B7852AB7F0300029A827A92808090E
:101D1000438F01538FFDD804D902A133C3E58394C7
:101D20001C4003A3A11689AAE28529B7852AB7F02A
:101D3000A3A116538FFC817F7AC1BD030CE493A34A
:101D4000FAB153DCF8B14B817F8181AA22AB23B178
:101D50006FEBFAEA6222752608C3E52313F523E543
:101D60002213F52250066323A0632201D526EAB18F
:101D7000DCB1DC75260AEAF4200102D283300102CC
:101D8000C283B1DCC3134002C201D526EB22B1925B
:101D9000EAFB208302A192308302A197752608AE48
:101DA00024AF25C3EF13FFEE13FEB1E0B1DCC3EAAD
:101DB000133083024480FA30E703632201C3E52332
:101DC00013F523E52213F52250066323A0632201B5
:101DD000D526D9E52265236523F52222AE24AF2539
:101DE0000E0FDEFEDFFCD20122424C48656C6934E6
:071DF000373164F310060116
:00000001FF
