:030000000219FDE5
:03000B000200AA46
:03002B0002015C73
:03005B000202E8B6
:030073000202D5B1
:1000800002030406080C10182030406080040608A3
:100090000C10182030406080A0C00003070F1F0D17
:1000A0000D0403060D0503030202C2AFC0D0C0E079
:1000B000206214E5256009E473E525F4F58AD2622F
:1000C000D0E0D0D0D2AF3285268AC262E526F46075
:1000D0002F30682520720DD0E0D0D0C2B1C287C2C7
:1000E00081D2AF32C2B1C287C281206F0C206509B4
:1000F000740AD5E0FDE57B4280D0E0D0D0D2AF32AB
:10010000758A00C28DD26201F901B9306805206597
:1001100002D2B101B9306805206502D28701B93039
:100120006805206502D28101B9C28230680A206563
:10013000077408D5E0FDD2B101B9C28630680A2043
:1001400065077408D5E0FDD28701B9C28030680A1E
:100150002065077408D5E0FDD28101B9C2AFC2ADF8
:1001600053E6EFC0D0C0E0D2D3D2AFC2CEE52A6012
:1001700007207449152A21BD7800790020742EE5E6
:1001800080307E01F430E50278FF53DACF207E0321
:1001900043DA20307E0343DA10C2D8C271E58030E2
:1001A0007E01F430E50279FFC3E89970CB3061033A
:1001B000752A40207403752A40885CD27020740D23
:1001C000E52B6004152B21CD43DA01C2D820700243
:1001D00021E0A85C206102C27020740221DE882226
:1001E0007882B6040385222420CF0AD0E0D0D04301
:1001F000E610D2AD32C2CF053A7802E52A6005306A
:100200007402152AC3E55C94014005755F00412125
:10021000756000756900E55F2401F55F5003755F47
:10022000FF7982B7020D306E1DC3E522943240166D
:10023000854C227982B7030E306E0BC3E5229432CF
:100240004004798E8722C3E5239522600840041577
:100250002341550523D8CA0569E56970021569D59A
:100260006A69756A017808E56B60497805C3E569D4
:10027000956B4057C3E569956C50087801756A0322
:1002800002028FC3E569956D50057801756A01C357
:10029000E5629524401E7982B7040241C0206E14A5
:1002A000852462E569046003856B69756A017523BD
:1002B0003C0202CBE5622850057562FF41C0F56241
:1002C000E5620470067560FF7569FFD0E0D0D04329
:1002D000E610D2AD32C2AF53E67F7592FA7593FF46
:1002E000C260759104D2AF32C2AF53E6EFC2ADC067
:1002F000D0C0E0C0F0D2D3D2AFA8FBA9FCC2D830A6
:100300007102614F53DACF207E0343DA10307E034F
:1003100043DA20D271E580307E01F420E5026126C7
:1003200088278928A12C53DACF207E0343DA203096
:100330007E0343DA10C2D8C271307402A11878006B
:10034000E580307E01F430E502A118885CA10053FD
:10035000DACF207E0343DA20307E0343DA10C27105
:10036000206102812853DACF207E0343DA10307EE9
:100370000343DA20C2D8D27188578958C3E895550B
:10038000F8E99556F97B007E087A00C3E8948CE979
:1003900094005005755B00811A882178A2E6A82197
:1003A0006055C3E894C8E994005008E4D2E4FB7AAD
:1003B0000A61F5C3E89468E994015008E4D2E3FBCC
:1003C0007A0F61F5C3E894D0E994025008E4D2E2D0
:1003D000FB7A1E61F5C3E894A0E994055008E4D2C5
:1003E000E1FB7A3C61F5C3E89498E994085008E48D
:1003F000D2E0FB7A787E00C3E89559FCE9955AFD76
:1004000030E70AECF42401FCEDF43400FD755B00E8
:10041000C3EC9AED9E5003755B018859895A855744
:10042000558558567802A100C3E89527F8E9952824
:10043000F9C3E913F9E813F8C3E824B4FCE934007C
:10044000FD8162E9C313F9E813F830790281DDE92F
:10045000C313F9E813F830780281DDE9C313FDE82E
:1004600013FC20612CC3EC9482ED9402400281794C
:0F047000ED701EC3EC94C850180529E5297002E1
:10047F001529C3E529940A5002A118755C00D270A2
:10048F00A118E529600215297400207F037896E6EC
:10049F0024FAFEE43400FFC3EC9EFCED9FFD5006F2
:1004AF007800790081E4C3EC94FFED940040067866
:1004BF00FF790081E4EC8572F0A4C5F0A2F733F860
:1004CF007900400302050078FF7900020500E9C3B7
:1004DF0013F9E813F8307C0EE9600278FFC3E813D4
:1004EF0038F8E43400F9C3E894FFE9940040027847
:1004FF00FF885CD270206102A118741FF4552F4B36
:10050F00F52FC274EB7002D274752A4030740375E4
:10051F002A0A306102A12C20740353DAFE207403DF
:10052F00752B20D0F0D0E0D0D0D2AD43E610327989
:10053F000102055C790302055C790A02055C791EEC
:10054F0002055C796402055C79C802055C7817E4E2
:10055F00D5E0FDD8FAD9F6227A147B780205837A92
:10056F00107B8C0205837A0D7BB40205837A0B7B9B
:10057F00C8020583E573D5E001227902E4C286D56E
:10058F00E0FDD287D5E0FDC287D5E0FDD286D5E06C
:10059F00FDE920E002D2B130E002D281E573D5E06F
:1005AF00FDE920E002C2B130E002C2817496D5E0CD
:1005BF00FDD9C9EAF8D5E0FDD8FBDBB8C28622C366
:1005CF007C007D0075F00005F0EA33FAEB33FB5049
:1005DF00F6EB13FBEA13FAC3E9FFE8FEE89AF8E932
:1005EF009BF95004EFF9EEF8B3EC33FCED33FDD586
:1005FF00F0DFEDF9ECF822E889F08A20D2D4F8A9DF
:10060F00F07B0030F70B7BFFF42401F8E9F43400A2
:10061F00F9E88520F0A4ADF0F8E98520F0A4AFF05B
:10062F00FEED2EF974003FFA7C04C3EA13FAE913C6
:10063F00F9E813F8DCF48BF030F70AE8F42401F84A
:10064F00E9F43400F9E889F0C2D4F8A9F0227882ED
:10065F00B604030206FCC3E55C9419401EE52D5455
:10066F00067018206E3678057994E7146007780ABB
:10067F001460027812C3E54198401F306E098564FB
:10068F00627569FF756A01852224E4F544F545F525
:10069F0046F547F548C26E0206FCD26E7994E71410
:1006AF007013E523F43333F913F8E9540104F9E82F
:1006BF0054FE0206F0E714147014E523F4333333B9
:1006CF00F913F8E9540304F9E854FC0206F8E5239A
:1006DF00F433333333F913F8E954070404F9E854C6
:1006EF00F8C39440F8E99400F98844894522C3E59A
:1006FF004113F9E54013F8C3E54498F8E54599F936
:10070F00500CC3E89480E994FF4016020734C3E805
:10071F00947FE994005003020734787F7900020731
:10072F0034788079FF8849894A22E5492546F8E5DA
:10073F004A3547F9854A20E4300701F43548FA3045
:10074F00E709C3EA94F04015020772C3EA940F5009
:10075F000302077278FF79FF7A0F02077278007928
:10076F00007AF0C3E5249561500AC37401952450B3
:10077F000B020790E54A20E70E020790E54A30E7A3
:10078F0006884689478A482278A5E6FAC3E54933A1
:10079F00F8E54A33F9D106E930E70BC3E89480E96D
:1007AF0094FF4013E1CAC3E8947FE994005002E13B
:1007BF00CA787F7900E1CA788079FFE820E715C30E
:1007CF00E52398F84009C3E8940140030207F17844
:1007DF00010207F1E8F424012523F840030207F191
:1007EF0078FF884B2278A6E6FAA847A948D106E9F0
:1007FF0030E70CC3E89401E994FF4016020825C3C3
:10080F00E894FFE99400500302082578FF7900026D
:10081F000825780179FFE920E715C3E54B98F840E3
:10082F0009C3E89401400302084C780102084CE820
:10083F00F42401254BF8400302084C78FF8824224A
:10084F0078FF20692879A1E76023E541601F74FFD5
:10085F008541F0848539F0306A0375F005A4F8C539
:0F086F00F0600278FFC3E895645002A8648863C4
:10087E0022C3E5409440E5419401E5635003140121
:10088E0090046002F563227883E6F520120F10754E
:10089E00E89012053E75E89030EDFDA8BDA9BE1298
:1008AE000FB6756E55756F00C3740013FD745560E9
:1008BE006613FC74552CFC74003DFDECFAEDFBC385
:1008CE00E89AE99B4014E56E2455F56EE56F340009
:1008DE00F56FEA2CFAEB3DFB80E5AE6EAF6FC3E52C
:1008EE006F13F9E56E13F8C3E913F9E813F87A03F9
:1008FE00C3E913F9E813F8DAF7AA201A7009756E2E
:10090E0000756F000209251AEA6008EE28FEEF391D
:10091E00FFDAF88E6E8F6F2275E890227883E6FFED
:10092E0030EDF9A8BDA9BE0570C3E570940840521C
:10093E00757000E9FA79A0E76044EA7007E5716026
:10094E001B02095EC3E895716010E5715006600CDC
:10095E001402096A0460F902096AE571F571C3941B
:10096E00A8401B7561C0C394054013756180C39484
:10097E0005400B756140C39405400375610075BB5E
:10098E000622EFC39401601F7455601BC3E894FFE9
:10099E00E994035012C3E8956EE9956F5009E5612D
:1009AE00600C15610209BCE561F460020561A86185
:1009BE00C3E524985002A824C3E89562400AA862B1
:1009CE00E562F4600385626188258826E570B407C8
:1009DE000375BB1E22743279A787F0A4C5F0A2F767
:1009EE0033F8C3E895614002A861882288248825DF
:1009FE0088268864227540007541F022C2AF75C802
:100A0E0020A8CCA9CDAA3A30CF010A75C824D2AFFE
:100A1E00AB3BAC3C883B893CC3E89BF8E99C206926
:100A2E0008F930660261194173AD3D8A3DF9EA9DC0
:100A3E00FA600478FF79FFAE3EAF3F8B3E8C3FA845
:100A4E003BA93CC3E89EF8E99FF9C3E54113FBE5DA
:100A5E004013FAE82AF540E93BF54150067540FF90
:100A6E007541FF41C0AA40AB41AC40AD417E047F11
:100A7E0002C3EB9404400D1E1FC3EB9408400520E7
:100A8E006A021E1FC3ED13FDEC13FCDEF7C3EA9CD6
:100A9E00FAEB9DFBEF6009C3E913F9E813F8DFF7F2
:100AAE00EA28FAEB39FB8A408B4150067BFF8B40DC
:100ABE008B41C3EB94025002D2663069047F03412E
:100ACE00EB7892E6FFC3E537948240110FC3E5370A
:100ADE0094A040010FC3EF940640027F057E02E50D
:100AEE0041C4540FF9E541C454F0F8E540C4540F25
:100AFE0028F8C3E89EFAE99400FB4009C3EA940281
:100B0E00EB940050047A02E4FB6165AA40AB41EB22
:100B1E00C4FEEAC4540F4EFCC3EA9CFAEB9400FBED
:100B2E00C3E813C313F8EA28FAEB3400FB8A408BB0
:100B3E0041C3EB94024002C2667802EBC4FE7B0016
:100B4E00EAC4540F4EFAC3EA98FA4005C394025011
:100B5E00027A027892E6FF306002616585519285D5
:100B6E005293D26043E680C3E49AF8E49BF9306670
:100B7E000261F1E8FAE9FBD3E913FDE813FC8851B1
:100B8E008952C3EF94036038EF20E00DE82CF8E9AA
:100B9E003DF9ECFAEDFB020BBAE828F8E939F9C396
:100BAE00E82402F8E93400F97AFE7BFFC3EF9403E0
:100BBE00400E8A538B54884D894E8C4F8D50812513
:100BCE00885389548A4D8B4E8C4F8D5030691275D7
:100BDE0053F07554FF754FF07550FF7551F0755207
:100BEE00FF8125E8FAD3E813FC8851C3EF94036024
:100BFE0020EF20E007E82CF8ECFA8111E828240217
:100C0E00F87AFEC3EF940340088A53884D8C4F81C7
:100C1E002588538A4D8C4FE568C3335002646BF5BB
:100C2E0068306002812F753402D26043E680E52D74
:100C3E0054066034A840A941C3E913F9E813F8C378
:100C4E00E913F9E813F8306904E92440F9C2AF5307
:100C5E00E67F759100C3E498F594E499F595759146
:0E0C6E0004D26043E680D2AF22D26475430008
:100C7C00752000306C03752040020C96D2647543CD
:100C8C0000752040306C03752000780179012066D6
:100C9C0020E52D54066002C2647914E541C313703B
:100CAC000104F8C3941440027814306904781B7959
:100CBC001B206010E543600C306903D53404D26D01
:100CCC00A14091370543E59B5440B52002A12A3041
:100CDC00690908C3E89940011881BD20640A08C35A
:100CEC00E8994002819681BDC264C2AF53E67F751C
:100CFC0091003066127594007595F8759104D26068
:100D0C0043E680D2AF8196E5417EFFC3334005C3F5
:100D1C00334001FEC3E49E759400F595A107C3E52D
:100D2C00339401500281963064028196D802A13E20
:100D3C0081BDC26DC2AF53E67F759100855394851A
:100D4C005495759104854D92854E93D26043E680FF
:100D5C00D2AFE52D54066008206A020533020D7CE3
:100D6C00306D0D206C0A206407158115810216194F
:100D7C002278003064027801E53775F007A4F9E5B4
:100D8C00F028F5F0E9A2F013A2F113A2F213F53753
:100D9C00C394785003753778C3E53795384008D23B
:100DAC0065C2B1C287C281306002A1B3854F928502
:100DBC005093D26043E68022207D16C2AF7542026A
:100DCC00C286D282306202D281D2AF759F02020FEC
:100DDC00B3C2AF754202C286D280306202D2B1D2A7
:100DEC00AF759F02020FB3307243207D20C2AF75E6
:100DFC00420390013A757B40C281C280306204D2BA
:100E0C0087C111D286D2AF759F03020FB3C2AF75E3
:100E1C00420390013A757B40C2B1C282306204D267
:100E2C0087C131D286D2AF759F01020FB3207D17D7
:100E3C00C2AF754203900115C281306202D287D2D3
:100E4C00AF759F03020FB3C2AF754203900115C279
:100E5C00B1306202D287D2AF759F01020FB3207DF1
:100E6C0016C2AF754204C282D280306202D287D2DF
:100E7C00AF759F01020FB3C2AF754204C280D2821C
:100E8C00306202D287D2AF759F03020FB330724328
:100E9C00207D20C2AF754205900129757B04C28765
:100EAC00C286306204D2B1C1B7D282D2AF759F0272
:100EBC00020FB3C2AF75420590014B757B01C2871F
:100ECC00C286306204D281C1D7D280D2AF759F0264
:100EDC00020FB3207D17C2AF75420590010BC2877C
:100EEC00306202D2B1D2AF759F02020FB3C2AF759E
:100EFC00420590011FC2873062EBD281D2AF759F41
:100F0C0002020FB3207D16C2AF754206C280D28694
:100F1C00306202D2B1D2AF759F03020FB3C2AF756C
:100F2C004206C282D286306202D281D2AF759F0154
:100F3C00020FB3307243207D20C2AF754201900185
:100F4C004B757B01C2B1C282306204D281E15DD2A9
:100F5C0080D2AF759F01020FB3C2AF7542019001F1
:100F6C0029757B04C281C280306204D2B1E17DD28A
:100F7C0082D2AF759F03020FB3207D17C2AF7542AB
:100F8C000190011FC2B1306202D281D2AF759F01B4
:100F9C00020FB3C2AF75420190010BC281306202E5
:100FAC00D2B1D2AF759F03C26522900109757B0047
:100FBC00C2B1C287C281C282C286C280C26222789A
:100FCC008076070876070876010876040876FF080D
:100FDC0076FF087609087602087601087601788C87
:100FEC0076010876000876B40876FF0876FF087656
:100FFC00FF0876030876FF0876010876FF08762549
:10100C000876D00876780876C80876040876FF0843
:10101C00760108760008767A08760A087601087652
:10102C00010876000876FF087600227887E6FFC272
:10103C0072BF0302D2727888C27DE630E102D27DA3
:10104C00C27E7889E630E102D27EC3EF940260085A
:10105C00758E01D273021069758E00C2732278806E
:0D106C00E6149000809378A5F67881E614D4
:101079009000809378A6F67886E61490008D937890
:10108900A7F6789FE6F87005756B0001B0C3E89480
:101099001140027811E82828F56B256B256B28F596
:1010A9006C256B2828F56D7886E6F539C3940250CE
:1010B90003753902789CE67538FFB402037538A0C8
:1010C900B4030375388278A3E61490009A93F56601
:1010D900120FB622227896E6FA7897E6FB7888E628
:1010E900B40305C3EB940EFB307F047A007BFFC386
:1010F900EB9AFCC3948250027C827572000572ECF3
:101109008572F0A4C3E5F0947D40F222D27F11DE0E
:1011190012054D12054D7A007B007C10120543E53E
:101129005C2AFA74003BFBDCF37C04C3EB13FBEA97
:1011390013FADCF7FEC27F11DE22757C00757D0093
:10114900E5EF20E6037520000520903DFFE520141A
:101159006006901FFF1460009304600375EF165337
:10116900D9BF75D9087581C043FF8012053E75EF57
:101179000643B203E5B3240220E70DF521E5B120CA
:10118900E0068521B343B101120FB675803875A405
:10119900C775F1FF75D4DF7590FF75A50075F2006D
:1011A90075D50075A0FF75A60075F30075D6007595
:1011B900B0E475A71B75F4FF75E241120FB6E4F8A8
:1011C900F6D8FD756801120FCB12167078988673E0
:1011D900753001C2AF12054D120575121797120528
:1011E90057120557120552C2AF757C00757D0078FC
:1011F900FA79FA308507D9FBD8F7021C00113711A3
:101209006A11DD11DE78988673120FB6758810752C
:10121900890275C82475910475D84075A82275B8D6
:101229000275E690759B80759D0075D10E75BC5849
:1012390075BB0675BA1F75E88012053ED2AF120854
:101249009575360053DACF207E0343DA20307E03CA
:1012590043DA1043DA01C2D8C271120557D2617B51
:10126900037A0CE55B70077A0CDB030211F01205B7
:101279004D2070030211F0C270E55CC3940240E195
:10128900E52F541F855E5DF55EB55DD5DAD5C26182
:1012990053DACF207E0343DA20307E0343DA10C2CB
:1012A900D8C27178A2E67008D274E52F54E0F52F00
:1012B900C275752900120552307409C3E529940ACB
:1012C9004002D27512054378023074027800C3E5F2
:1012D9005C9840F0C2AF120567120567D2AF1205DC
:1012E90057754C00120543788CE6C39401500302EC
:1012F90013DAE530C3940150030213DA757CA5753E
:101309007DF1207435C3E55C94FF50030213DAC202
:10131900AF12057CD2AF120552C3E55C940150EFC0
:10132900C2AF120567120548120567D2AF120552FE
:10133900C3E55C94FF40E902181C7F05D27F11DEEA
:10134900120552C2AFC27F11DEAE5CC3E55C947F69
:10135900D2AF500261EA12053EC2AF12057CD2AF8C
:10136900DFDA3115C3EE94057897F612055712178F
:101379009F7F0AD27F11DE120552C2AFC27F11DEF2
:10138900AE5CC3E55C947FD2AF50E612053EC2AFB6
:10139900120567120548120567D2AFDFD63115EE7F
:1013A90024037896F6F87997E7C394824003985016
:1013B90006E824827897F61205571216B21217CE4C
:1013C90012055211DEC3E55C94FF50026105021853
:1013D9001C757C00757D00C3E55C954C4003855CFC
:1013E9004C12055278017988E7B403027805C3E500
:1013F9005C98400241EDC2AF12057CD2AF1205578D
:10140900753000E4F531F5320531E531F4703F0509
:1014190032789AE67819146012783214600D787D62
:1014290014600878FA146003753200C3E5329840F5
:101439001D120FB612053E15327531007899867363
:10144900C2AF12057CD2AF78988673120552120585
:1014590048E52A700530740221F078012074027879
:0E14690006C3E55C9840A1120552E52A700307
:101477000211F0C2AF120FB6E4F522F523F524F5F9
:1014870025F526F567D2AF7885E6C333F565E4F52C
:1014970044F545F546F547F548F570F52CF52DF576
:1014A7003775700875BB1E12053E12092630EDFD13
:1014B700A8BDA9BEE97001F8887112092A757008DC
:1014C70075BB1E1137C2AF7561FF1209E385226133
:1014D700852262852263D2AF7522017524017525A5
:1014E70001752601856069756A017888E6B4030786
:1014F700C27D307602D27DD268D269753300120F71
:1015070010120F3F120A03120A0A120A03120A0ADA
:10151700120A03120C8812065D120D7D120DC412F9
:101527000A0A120C77306E031206FD2066031208B2
:101537004F30660312087F120D7D120DF3120A0A4F
:10154700120C88306E03120739120D7D120E6A12C3
:101557000A0A120C77306E03120797120D7D120ECE
:1015670099120A0A120C88306E031207F4120D7DC5
:10157700120F10120A0A120926120C77120D7D1289
:101587000F3F12092A120A0A30692C8564618564A3
:1015970062856069756A0179187A0CC3E5339940E9
:1015A70009C269D26A8A350215BEC3E55C94014057
:1015B7000302151A021621306A1D206C1AE535142C
:1015C7007006C26AD26BA11AF535C3E55C94014077
:1015D7000302151A021621753600C3E55F94014010
:1015E70009856462856069756A0178FA79A4E7609C
:1015F700027803C3E55F985021307404E52A601A26
:1016070078F0306C058564617820C3E54198500215
:10161700A11A0536E55C6002C124753600C2AF1217
:101627000FB67887E6FE760211377887EEF6E4F58F
:1016370022F523F524F525F526F565752C00752D7E
:1016470000D2AF120552120FB678A4E66006D2B1E7
:10165700D287D281307406E52A700221F0788DE6B0
:10166700C39401400241CD810C901A0D78201216C7
:10167700F4E520B4A50CA31216F4E520B45A03022E
:101687001692120FCB1216B20216B1901A03788077
:101697007B0A1216F4A308DBF9901A0F788C7B19D2
:1016A7001216F4A308DBF9901A2822C2AF121737D3
:1016B700121714901A00740E1216F9A3744B12160F
:1016C700F9A374151216F9901A0378807B0A12167B
:1016D700F8A308DBF9901A0F788C7B191216F8A378
:1016E70008DBF912174A121728901A2822E493F6F2
:1016F70022E6438F01538FFDFFC3E583941C40010E
:1017070022EF857CB7857DB7F0538FFE22438F028A
:10171700438F01857CB7857DB7901A0DF0538FFCF9
:1017270022901A0D74A5D1F9901A0E745AD1F92284
:101737007A3079D07820901A40D1F4E520F709A3C0
:10174700DAF7227A3079D0901A40E7D1F909A3DA8B
:10175700F922AB74A875BB01027980BB02027981BB
:10176700BB03027982BB04027994BB05027983BB70
:1017770006027986BB07027992BB08027987BB0903
:1017870002799CBB0A027988BB0B027989E8F722A8
:101797007C05120557DCFB22C2AF12056712056EE6
:1017A70012057512057C12054812056712056E129F
:1017B700057512057C12054812056712056E12059C
:1017C7007512057CD2AF22C2AF12057C12057512C5
:1017D700056E12056712054812057C12057512057C
:1017E7006E12056712054812057C12057512056E03
:1017F700120567D2AF22AE74AF75C2AF120567127A
:101807000567120567120548DEF212057C120548C6
:10181700DFF8D2AF2212179F121797121797757416
:10182700017575017576001217FD7C05AD5C120513
:1018370057C3ED955C70F5C3E55C9401400AC3E5B9
:101847005C94FF40370218601217591216B212172C
:101857009FC2AF75EF16121797DCD10576C3E576F1
:0E1867009403500280C11217970575E57414A2
:1018750090009F93F808C3E57598500280A8121749
:10188500971217970574C3E574940C50028094124F
:0D1895000FCB1216B2C2AF75EF16121797E7
:0319FD0002114391
:101A00000E4B1507070104FFFF09020101A55A014A
:101A100000B4FFFFFF03FF01FF25D078C804FF01DA
:091A200000FF0A010100FF00FFB4
:101A4000235475726E696779343041232020202039
:101A500023424C48454C4923463331302320202033
:101A60002020202020202020202020202020202076
:101C0000C2AFC2D353D9BF7581C043B20343FF8073
:101C1000752438752503B1DC7529A5752AF175E29F
:101C20004043F12053A4DF75D4FFD2857DFA7803B9
:101C300079E67C10752200752300901DE97B0675FE
:101C400024987525013085028145208508D8FBD967
:101C5000F9DCF781B7308508D8FBD9F9DCF781B713
:101C6000B19CE493A3C39A6004DDC381B7DBDBB10D
:101C70008E6002812E7B08E493FAA3B16FDBF87AC1
:101C800030B16F752200752300B18EEAFCEBFDC305
:101C9000ED94FE400EB18E8A278B28ED30E0048A49
:101CA000828B83B18E7AC270D8C3ED94FE601950D6
:101CB000CEBD002BEC600F7520007521FF7529004B
:101CC000752A000200008100A827A9280809D80465
:101CD000D90281DCB192EA89AAF281CE0D81A3C337
:101CE000ED94035053EDA2E092007AC5C3E58294CF
:101CF00000E583941C508A200010438F02438F011B
:101D00008529B7852AB7F0300029A827A92808090E
:101D1000438F01538FFDD804D902A133C3E58394C7
:101D20001C4003A3A11689AAE28529B7852AB7F02A
:101D3000A3A116538FFC817F7AC1BD030CE493A34A
:101D4000FAB153DCF8B14B817F8181AA22AB23B178
:101D50006FEBFAEA6222752608C3E52313F523E543
:101D60002213F52250066323A0632201D526EAB18F
:101D7000DCB1DC75260AEAF4200102D285300102CA
:101D8000C285B1DCC3134002C201D526EB22B19259
:101D9000EAFB208502A192308502A197752608AE44
:101DA00024AF25C3EF13FFEE13FEB1E0B1DCC3EAAD
:101DB000133085024480FA30E703632201C3E52330
:101DC00013F523E52213F52250066323A0632201B5
:101DD000D526D9E52265236523F52222AE24AF2539
:101DE0000E0FDEFEDFFCD20122424C48656C6934E6
:071DF000373164F310060116
:00000001FF
