:030000000219FDE5
:03000B000200AA46
:03002B000201557A
:03005B000202E9B5
:030073000202D6B0
:1000800002030406080C10182030406080040608A3
:100090000C10182030406080A0C00003070F1F0D17
:1000A0000D04050D050305030302C2AFC0D0C0E077
:1000B000206214E5256009E473E525F4F58AD2622F
:1000C000D0E0D0D0D2AF3285268AC262E526F46075
:1000D0003130682720720CE57BF45290D0E0D0D00C
:1000E000D2AF32E57BF45290206F1020650DE57B96
:1000F000F4D33333335290E57B4290D0E0D0D0D26A
:10010000AF32758A00C28DD26201FB01B930680737
:10011000206504D295D29201B9306807206504D2D7
:1001200094D29101B9306807206504D293D290012E
:10013000B9306807206504D295D29201B9306807BA
:10014000206504D294D29101B9306807206504D2A9
:1001500093D29001B9C2AFC2AD53E6EFC0D0C0E0B8
:10016000D2D3D2AFC2CEE52A6007207449152A2126
:10017000B67800790020742EE580307E01F430E7F7
:100180000278FF53DACF207E0343DA20307E034328
:10019000DA10C2D8C271E580307E01F430E702790E
:1001A000FFC3E89970CB306103752A18207403757A
:1001B0002A18885CD27020740DE52B6004152B2161
:1001C000C643DA01C2D82070024135A85C20610222
:1001D000C2702074367982B70431C3E894F04003CA
:1001E00074F0F8E8C4540F28F87984B70302410B7F
:1001F000C313C3138721200802C313200A06C3C8F0
:1002000098F8410B28F8500374FFF88822E52D5424
:10021000066022206B1FE536C333C333F8E564C3A1
:1002200013C313F9C3952240028922E82522F5223F
:1002300050037522FF7882B60459852224A824C36E
:10024000E52495614002A861C3E895634002A86374
:100250008825E56670024186C3E8AA669A5003E8DD
:10026000FAE4F9EAC333FBE568F45B29400D25673E
:10027000F8E56760021567400B41860AC3E5679A97
:100280005002056778FF8826C26FC3E52694F840C0
:1002900002D26F20CF0AD0E0D0D043E610D2AD32E8
:1002A000C2CF053A7801E52A6005307402152AC3E9
:1002B000E55C94014005755F0041CC75600075698F
:1002C00000E55F2401F55F5003755FFFD0E0D0D0FB
:1002D00043E610D2AD32C2AF53E67F7592FA759302
:1002E000FFC260759104D2AF32C2AF53E6EFC2AD28
:1002F000C0D0C0E0C0F0D2D3D2AFA8FBA9FCC2D816
:10030000307102615053DACF207E0343DA10307E21
:100310000343DA20D271E580307E01F420E70261E8
:100320002788278928A17553DACF207E0343DA2056
:10033000307E0343DA10C2D8C271307402A16178F2
:1003400000E580307E01F430E702A161885CA149BC
:1003500053DACF207E0343DA20307E0343DA10C223
:1003600071206102812953DACF207E0343DA1030F5
:100370007E0343DA20C2D8D27188578958C3E895E2
:1003800055F8E99556F97B007E087A00C3E8948C0D
:10039000E994005005755B00811B882178A2E6A8CE
:1003A000216055C3E894C8E994005008E4D2E4FB06
:1003B0007A0A61F6C3E89468E994015008E4D2E34C
:1003C000FB7A0F61F6C3E894D0E994025008E4D2B6
:1003D000E2FB7A1E61F6C3E894A0E994055008E4B4
:1003E000D2E1FB7A3C61F6C3E89498E9940850089E
:1003F000E4D2E0FB7A787E00C3E89559FCE9955A8F
:10040000FD30E70AECF42401FCEDF43400FD755BEB
:1004100000C3EC9AED9E5003755B018859895A859B
:1004200057558558567802A149C3E89527F8E995AC
:1004300028F9C3E913F9E813F8C3E824B4FCE93454
:1004400000FD8163E9C313F9E813F8307902A126AE
:10045000E9C313F9E813F8307802A126E9C313FDC4
:10046000E813FC20612CC3EC9482ED9402400281DD
:0E0470007AED701EC3EC94C850180529E529DA
:10047E0070021529C3E529940A5002A161755C002A
:10048E00D270A161E529600215297888E6F9740019
:10049E00207F087896B90302789EE624FAFEE434AB
:1004AE0000FFC3EC9EFCED9FFD9208B90310A2085D
:1004BE005007207609D27681CC307602C276A20819
:1004CE005016B9030DECF42401FCEDF43400FD02DA
:1004DE0004E678007900A12DB90315EC33FCED3359
:1004EE00FDC3EC940AFCED9400FD50047C007D00ED
:1004FE00C3EC94FFED9400400678FF7900A12DEC3B
:10050E008572F0A4C5F0A2F733F879004003020516
:10051E004978FF7900020549E9C313F9E813F83069
:10052E007C0EE9600278FFC3E81338F8E43400F972
:10053E00C3E894FFE99400400278FF885CD27020F3
:10054E006102A161741FF4552F4BF52FC274EB702D
:10055E0002D274752A18307403752A0A306102A10A
:10056E007520740353DAFE207403752B06D0F0D079
:10057E00E0D0D0D2AD43E6103279010205A5790361
:10058E000205A5790A0205A5791E0205A579640260
:10059E0005A579C80205A57817E4D5E0FDD8FAD9E6
:1005AE00F6227A147B780205CC7A107B8C0205CC6D
:1005BE007A0D7BB40205CC7A0B7BC80205CCE573B1
:1005CE00D5E001227902E4C291D5E0FDD294D29118
:1005DE00D5E0FDC291D5E0FDC294D291D5E0FDE902
:1005EE0020E004D295D29230E004D293D290E573FB
:1005FE00D5E0FDE920E002C29230E002C29074968E
:10060E00D5E0FDD9C1EAF8D5E0FDD8FBDBB0C2914B
:10061E0022C37C007D0075F00005F0EA33FAEB335F
:10062E00FB50F6EB13FBEA13FAC3E9FFE8FEE89A78
:10063E00F8E99BF95004EFF9EEF8B3EC33FCED3327
:10064E00FDD5F0DFEDF9ECF822E889F08A20D2D45E
:10065E00F8A9F07B0030F70B7BFFF42401F8E9F4E6
:10066E003400F9E88520F0A4ADF0F8E98520F0A477
:10067E00AFF0FEED2EF974003FFA7C04C3EA13FAD4
:10068E00E913F9E813F8DCF48BF030F70AE8F424F8
:10069E0001F8E9F43400F9E889F0C2D4F8A9F0229F
:1006AE007882B60403020709C3E55C940140030295
:1006BE0006D3852224E4F544F545F546F547F5487D
:1006CE00C26E0207097882E6FCD26EE522F5237827
:1006DE003879C7AA40AB41C3EB13FBEA13FAEC140B
:1006EE006013C3EB13FBEA13FAEC14146007C3EBAD
:1006FE0013FBEA13FAD11F8844894522C3E54495BA
:10070E0023F8E5459400F9500CC3E89480E994FF72
:10071E00401602073AC3E8947FE99400500302079B
:10072E003A787F790002073A788079FF8849894ABA
:10073E0022E5492546F8E54A3547F9854A20E43051
:10074E000701F43548FA30E709C3EA94F040150280
:10075E000778C3EA940F500302077878FF79FF7A7F
:10076E000F020778780079007AF0C3E5249561507E
:10077E000AC374019524500B020796E54A20E70E32
:10078E00020796E54A30E706884689478A48227866
:10079E00A5E6FAC3E54933F8E54A33F9D157E9300E
:1007AE00E70BC3E89480E994FF4013E1D0C3E894CB
:1007BE007FE994005002E1D0787F7900E1D0788013
:1007CE0079FFE820E715C3E52398F84009C3E894BC
:1007DE000140030207F778010207F7E8F424012528
:1007EE0023F840030207F778FF884B2278A6E6FA33
:1007FE00A847A948120657E930E70CC3E89401E967
:10080E0094FF401602082CC3E894FFE994005003AD
:10081E0002082C78FF790002082C780179FFE92074
:10082E00E715C3E54B98F84009C3E894014003026D
:10083E0008537801020853E8F42401254BF84003CD
:10084E0002085378FF88242278FF20692879A1E7CF
:10085E006023E541601F74FF8541F0848539F030D7
:0F086E006A0375F005A4F8C5F0600278FFC3E8CF
:10087D0095645002A864886322C3E5409440E54125
:10088D009401E5635003140197046002F56322029D
:10089D00089F2275E890227883E6FF30EDF9A8BD18
:1008AD00A9BE0570C3E57094084052757000E9FA51
:1008BD0079A0E76044EA7007E571601B0208D8C3B0
:1008CD00E895716010E5715006600C140208E4049F
:1008DD0060F90208E4E571F571C39472401B75610E
:1008ED00C0C394044013756180C39404400B7561BB
:1008FD0040C39404400375610075BB0E22E561246D
:10090D0010500274FFF5617982B704022131C3A83A
:10091D0061E524985002A824C3E895634002A863BA
:10092D0088258826E570B4070375BB1022743279CB
:10093D00A787F0A4C5F0A2F733F8C3E8956140028C
:10094D00A86188228824882588268864227540001D
:10095D007541F022C2AF75C820A8CCA9CDAA3A30F6
:10096D00CF010A75C824D2AFAB3BAC3C883B893C68
:10097D00C3E89BF8E99C206908F9306602417021B3
:10098D00CAAD3D8A3DF9EA9DFA600478FF79FFAE64
:10099D003EAF3F8B3E8C3FA83BA93CC3E89EF8E998
:1009AD009FF9C3E54113FBE54013FAE82AF540E949
:1009BD003BF54150067540FF7541FF4117AA40AB0D
:1009CD0041AC40AD417E047F02C3EB9404400D1E4B
:1009DD001FC3EB94084005206A021E1FC3ED13FDD3
:1009ED00EC13FCDEF7C3EA9CFAEB9DFBEF6009C349
:1009FD00E913F9E813F8DFF7EA28FAEB39FB8A4037
:100A0D008B4150067BFF8B408B41C3EB9402500210
:100A1D00D2663069047F0341427892E6FFC3E53721
:100A2D00948240110FC3E53794A040010FC3EF949A
:100A3D000640027F057E02E541C4540FF9E541C42D
:100A4D0054F0F8E540C4540F28F8C3E89EFAE99431
:100A5D0000FB4009C3EA9402EB940050047A02E4CF
:100A6D00FB41BCAA40AB41EBC4FEEAC4540F4EFCA3
:100A7D00C3EA9CFAEB9400FBC3E813C313F8EA280E
:100A8D00FAEB3400FB8A408B41C3EB94024002C267
:100A9D00667802EBC4FE7B00EAC4540F4EFAC3EA3B
:100AAD0098FA4005C3940250027A027892E6FF301C
:100ABD00600241BC855192855293D26043E680C35A
:100ACD00E49AF8E49BF93066026148E8FAE9FBD351
:100ADD00E913FDE813FC88518952C3EF9403603884
:100AED00EF20E00DE82CF8E93DF9ECFAEDFB020BF7
:100AFD0011E828F8E939F9C3E82402F8E93400F9D6
:100B0D007AFE7BFFC3EF9403400E8A538B54884DBE
:100B1D00894E8C4F8D50617C885389548A4D8B4EF4
:100B2D008C4F8D503069127553F07554FF754FF021
:100B3D007550FF7551F07552FF617CE8FAD3E813DB
:100B4D00FC8851C3EF94036020EF20E007E82CF8F8
:100B5D00ECFA6168E8282402F87AFEC3EF940340AA
:100B6D00088A53884D8C4F617C88538A4D8C4FE594
:100B7D0068C3335002646BF568306002618675346A
:100B8D0002D26043E680E52D54066034A840A941A9
:100B9D00C3E913F9E813F8C3E913F9E813F8306959
:100BAD0004E92440F9C2AF53E67F759100C3E49880
:100BBD00F594E499F595759104D26043E680D2AF32
:100BCD0022D264754300752000306C0375204002FD
:100BDD000BEDD264754300752040306C0375200019
:100BED0078017901206620E52D54066002C26479F2
:100BFD0014E541C313700104F8C394144002781432
:100C0D00306904781B791B206010E543600C306956
:100C1D0003D53404D26D8197718E0543E59B544005
:100C2D00B52002818130690908C3E8994001188116
:100C3D001420640A08C3E899400261ED8114C2646E
:100C4D00C2AF53E67F7591003066127594007595AD
:100C5D00F8759104D26043E680D2AF61EDE5417E37
:0D0C6D00FFC3334005C3334001FEC3E49EC6
:100C7A00759400F595815EC3E5339401500261EDE8
:100C8A0030640261EDD80281958114C26DC2AF53FE
:100C9A00E67F759100855394855495759104854D29
:100CAA0092854E93D26043E680D2AFE52D5406601A
:100CBA0008206A020533020CD3306D0D206C0A201D
:100CCA0064071581158102165A2278003064027869
:100CDA0001E53775F007A4F9E5F028F5F0E9A2F087
:100CEA0013A2F113A2F213F537C3947850037537A0
:100CFA0078C3E53795384007D265E57BF4529030E2
:100D0A006002A109854F92855093D26043E6802202
:100D1A00207D1AC2AF754202C291C295D292306248
:100D2A0004D293D290D2AF759F11020F57C2AF75FA
:100D3A004202C291C293D290306204D295D292D228
:100D4A00AF759F11020F5730724B207D24C2AF75C9
:100D5A00420390013D757B02C290C290306206D276
:100D6A0094D291A173C294D291D2AF759F01020F0E
:100D7A0057C2AF75420390013D757B02C292C2927F
:100D8A00306206D294D291A197C294D291D2AF7511
:100D9A009F21020F57207D1CC2AF75420390011993
:100DAA00757B02C290306204D294D291D2AF759F01
:100DBA0001020F57C2AF754203900119757B02C237
:100DCA0092306204D294D291D2AF759F21020F570A
:100DDA00207D1AC2AF754204C292C293D290306289
:100DEA0004D294D291D2AF759F21020F57C2AF7528
:100DFA004204C290C295D292306204D294D291D265
:100E0A00AF759F01020F5730724B207D24C2AF7518
:100E1A004205900131757B04C291C291306206D2BB
:100E2A0095D292C133C295D292D2AF759F11020F59
:100E3A0057C2AF754205900149757B01C291C291B3
:100E4A00306206D293D290C157C293D290D2AF7574
:100E5A009F11020F57207D1CC2AF75420590010DEC
:100E6A00757B04C291306204D295D292D2AF759F3B
:100E7A0011020F57C2AF754205900125757B01C259
:100E8A00913062E8D293D290D2AF759F11020F5778
:100E9A00207D1AC2AF754206C290C294D2913062C6
:100EAA0004D295D292D2AF759F01020F57C2AF7585
:100EBA004206C292C294D291306204D293D290D2A4
:100ECA00AF759F21020F5730724B207D24C2AF7538
:100EDA004201900149757B01C292C292306206D2E8
:100EEA0093D290C1F3C293D290D2AF759F21020FD1
:100EFA0057C2AF754201900131757B04C290C2900E
:100F0A00306206D295D292E117C295D292D2AF75CB
:100F1A009F01020F57207D1CC2AF75420190012527
:100F2A00757B01C292306204D293D290D2AF759F80
:100F3A0021020F57C2AF75420190010D757B04C2A1
:100F4A0090306204D295D292D2AF759F01C26522C7
:100F5A0090010B757B00C292C291C290C292C2915B
:100F6A00C290C26222788076090876090876040857
:100F7A0076FF0876030876FF08760A08760308766D
:100F8A0001087601788C76010876FF0876FF0876E4
:100F9A00FF0876FF0876FF0876030876FF0876FFD3
:100FAA000876FF08760A0876F00876500876500820
:100FBA0076040876FF08760308760008767D0876B8
:100FCA00FF0876010876010876000876030876019C
:100FDA00227887E6FFC272BF0302D2727888E6C31C
:100FEA0094036008C27DE630E102D27DC27E788930
:100FFA00E630E102D27EC3EF94026008758E01D218
:10100A0073021013758E00C273227880E614900062
:10101A00809378A5F67881E6149000809378A6F6F6
:10102A007886E61490008D9378A7F67886E6F539E7
:10103A00C394025003753902789CE67538FFB402EE
:10104A00037538A0B4030375388278A3E6149000B8
:10105A009A93F566120F5A22227896E6FA7897E65C
:0F106A00FB7888E6B40305C3EB940EFB307F04DC
:101079007A007BFFC3EB9AFCC3948250027C827591
:1010890072000572EC8572F0A4C3E5F0947D40F21C
:1010990022D27F11631205961205967A007B007C95
:1010A9001012058CE55C2AFA74003BFBDCF37C0426
:1010B900C3EB13FBEA13FADCF7FEC27F1163227A52
:1010C900DEC295D292D293D290744BD5E0FDC290F4
:1010D900C29279027817E4D5E0FDD8FAD9F6796E8B
:1010E900741ED5E0FDD9F9DAD8227A84C295D29254
:1010F900D293D290744BD5E0FDC290C29279037815
:1011090017E4D5E0FDD8FAD9F6792B741ED5E0FDA0
:10111900D9F9DAD8227A84C295D292D293D290742C
:101129004BD5E0FDC290C29279027817E4D5E0FD73
:10113900D8FAD9F6791D741ED5E0FDD9F9DAD82285
:10114900757C00757D00E5EF20E60375200005201C
:10115900903FFFE520146006901FFF146000930480
:10116900600375EF1653D9BF75D9087581C043FF60
:101179008012058775EF0643B203E5B3240220E721
:101189000DF521E5E320E0068521B343E301120FC4
:101199005A7580FF75A40075F19175D47F7590001B
:1011A90075A53F75F23F75D50075A60175E2411227
:1011B9000F5AE4F8F6D8FD756801120F6F1216B1CF
:1011C90078988673753001C2AF1205A011C812054F
:1011D9009B11C812059B11C812059B11F3311E11F1
:1011E900C812059B11F3311E11C811C8C2AF757C15
:1011F90000757D0078FA79FA308707D9FBD8F702AC
:101209001C00120FDB111411621163789886731296
:101219000F5A75881075890275C82475910475D897
:101229004075A82275B80275E690759B80759D007A
:1012390075D10E75BC5875BB0E75BA1175E880125B
:101249000587D2AF12089C75360053DACF207E038A
:1012590043DA20307E0343DA1043DA01C2D8C2717F
:101269001205A0D2617B037A0CE55B70077A0CDB6F
:10127900030211F51205962070030211F5C270E5FB
:101289005CC3940240E1E52F541F855E5DF55EB5B0
:101299005DD5DAD5C26153DACF207E0343DA203037
:1012A9007E0343DA10C2D8C27178A2E67008D274FC
:1012B900E52F54E0F52FC27575290012059B30748E
:1012C90009C3E529940A4002D27512058C780230C7
:1012D90074027800C3E55C9840F0C2AF1205B01201
:1012E90005B0D2AF1205A0754C007888E6B40302A8
:1012F90061E612058C788CE6C3940150030213E66B
:10130900E530C3940150030213E6757CA5757DF1A0
:10131900207435C3E55C94FF50030213E6C2AF1293
:1013290005C5D2AF12059BC3E55C940150EFC2AF6E
:101339001205B01205911205B0D2AF12059BC3E593
:101349005C94FF40E902185D7F02D27F11631205A8
:101359009BC2AFC27F1163AE5CC3E55C947FD2AF21
:10136900500261F6120587C2AF1205C5D2AFDFDAA6
:10137900119AC3EE7897F61205A01217E07F0AD2E8
:101389007F116312059BC2AFC27F1163AE5CC3E5D7
:101399005C947FD2AF50E6120587C2AF1205B01236
:1013A90005911205B0D2AFDFD6119AEE24037896D3
:1013B900F6F87997E7C394824003985006E82482A7
:1013C9007897F61205A01216F312180F12059B1141
:1013D90063C3E55C94FF5002611302185D757C00DC
:1013E900757D00C3E55C954C4003855C4C12059BFB
:1013F90078017988E7B403027805C3E55C9840026F
:1014090041F3C2AF1205C51205C5D2AF1205A075C9
:101419003000E4F531F5320531E531F4703F05323C
:10142900789AE67819146012783214600D787D1470
:10143900600878FA146003753200C3E53298401DDC
:10144900120F5A120587153275310078998673C2C1
:10145900AF1205C5D2AF7898867312059B12059114
:0E146900E52A700530740221F5780120740226
:101477007806C3E55C9840A17888E6C394036003C7
:1014870012059BE52A70030211F5C2AF120F5AE449
:10149700F522F523F524F525F526F567D2AF7885EE
:1014A700E6C333F565E4F544F545F546F547F548F4
:1014B700F570F52CF52DF53775700875BB1012050D
:1014C700871208A030EDFDA8BDA9BEE97001F88814
:1014D700711208A475700875BB10120FDBC2AF75C7
:1014E70061FF12093A852261852262852263D2AFA4
:1014F70075220175240175250175260185606975B9
:101507006A017888E6B40307C27D307602D27DD2BD
:1015170068D269753300120E9A120ED112095A1247
:10152700096112095A12096112095A120BDF1206D0
:10153700AE120CD4120D1A120961120BCE306E03C3
:1015470012070A206603120856306603120886122D
:101557000CD4120D51120961120BDF306E03120702
:101567003F120CD4120DDA120961120BCE306E0342
:1015770012079D120CD4120E11120961120BDF30E3
:101587006E031207FA120CD4120E9A12096112088E
:10159700A0120BCE120CD4120ED11208A41209619C
:1015A700306932856461856462856069756A01792D
:1015B700187A0CC3E53399400FC269D26A8A358518
:1015C70064618564630215DCC3E55C940140030232
:1015D7001532021662306A1D206C1AE53514700642
:1015E700C26AD26BA132F535C3E55C9401400302B0
:1015F700153202166275360078FA79A4E760027828
:1016070003C3E55F985054307404E52A604D788829
:10161700E6B40317207D05207607C132307602C174
:1016270032206C07D26C856461A17178F0306C054B
:101637008564617820C3E541985002A132306C1B64
:10164700C26CC27D307602D27DD26A75351285644E
:1016570061A1320536E55C6002C165753600C2AF2F
:10166700120F5A7887E6FE7602120FDB7887EEF6BE
:10167700E4F522F523F524F525F526F565752C0007
:10168700752D00D2AF12059B120F5A78A4E6600C95
:10169700C295D292C294D291C293D290307409C3A8
:1016A700E5369404400221F5811B901A0D7820122B
:1016B7001735E520B4550CA3121735E520B4AA0356
:1016C7000216D3120F6F1216F30216F2901A03784E
:1016D700807B0A121735A308DBF9901A0F788C7BE9
:1016E70019121735A308DBF9901A2822C2AF12176F
:1016F70078121755901A00740E12173AA3744B12EA
:10170700173AA3741512173A901A0378807B0A12B6
:101717001739A308DBF9901A0F788C7B1912173940
:10172700A308DBF912178B121769901A2822E49382
:10173700F622E6438F01538FFDFFC3E583941C40D8
:101747000122EF857CB7857DB7F0538FFE22438F4B
:1017570002438F01857CB7857DB7901A0DF0538FB3
:10176700FC22901A0D7455F13A901A0E74AAF13AA8
:10177700227A3079D07820901A40F135E520F709A0
:10178700A3DAF7227A3079D0901A40E7F13A09A321
:10179700DAF922AB74A875BB01027980BB02027922
:1017A70081BB03027982BB04027984BB0502798677
:1017B700BB06027992BB07027987BB080279A3BBF4
:1017C7000902799CBB0A027988BB0B027989E8F781
:1017D700227C051205A0DCFB22C2AF1205B0120560
:1017E700B71205BE1205C51205911205B01205B74D
:1017F7001205BE1205C51205911205B01205B712E2
:1018070005BE1205C5D2AF22C2AF1205C51205BE6D
:101817001205B71205B01205911205C51205BE12C1
:1018270005B71205B01205911205C51205BE1205BE
:10183700B71205B0D2AF22AE74AF75C2AF1205B002
:101847001205B01205B0120591DEF21205C5120598
:1018570091DFF8D2AF221217E01217D81217D875F6
:0E1867007401757501757600113E7C05AD5C4F
:101875001205A0C3ED955C70F5C3E55C9401400AC3
:10188500C3E55C94FF40370218A012179A1216F3AD
:101895001217E0C2AF75EF161217D8DCD10576C363
:1018A500E5769403500280C21217D80575E57414C5
:1018B50090009F93F808C3E57598500280A9121708
:1018C500D81217D80574C3E574940C50028095128C
:0D18D5000F6F1216F3C2AF75EF161217D881
:0319FD000211498B
:101A00000E4B15090904FF03FF0A03010155AA0142
:101A1000FFFFFFFFFF03FFFFFF0AF0505004FF032B
:091A2000007DFF0101000301FF3C
:101A400023454D41585F4C746E675F32304123200F
:101A500023424C48454C492346333930232020202B
:101A60002020202020202020202020202020202076
:101C0000C2AFC2D353D9BF7581C043B20343FF8073
:101C1000752438752503B1DC7529A5752AF175E29F
:101C20004043F18053A47F75D4FFD2877DFA7803B7
:101C300079E67C10752200752300901DE97B0675FE
:101C400024987525013087028145208708D8FBD963
:101C5000F9DCF781B7308708D8FBD9F9DCF781B711
:101C6000B19CE493A3C39A6004DDC381B7DBDBB10D
:101C70008E6002812E7B08E493FAA3B16FDBF87AC1
:101C800030B16F752200752300B18EEAFCEBFDC305
:101C9000ED94FE400EB18E8A278B28ED30E0048A49
:101CA000828B83B18E7AC270D8C3ED94FE601950D6
:101CB000CEBD002BEC600F7520007521FF7529004B
:101CC000752A000200008100A827A9280809D80465
:101CD000D90281DCB192EA89AAF281CE0D81A3C337
:101CE000ED94035053EDA2E092007AC5C3E58294CF
:101CF00000E583941C508A200010438F02438F011B
:101D00008529B7852AB7F0300029A827A92808090E
:101D1000438F01538FFDD804D902A133C3E58394C7
:101D20001C4003A3A11689AAE28529B7852AB7F02A
:101D3000A3A116538FFC817F7AC1BD030CE493A34A
:101D4000FAB153DCF8B14B817F8181AA22AB23B178
:101D50006FEBFAEA6222752608C3E52313F523E543
:101D60002213F52250066323A0632201D526EAB18F
:101D7000DCB1DC75260AEAF4200102D287300102C8
:101D8000C287B1DCC3134002C201D526EB22B19257
:101D9000EAFB208702A192308702A197752608AE40
:101DA00024AF25C3EF13FFEE13FEB1E0B1DCC3EAAD
:101DB000133087024480FA30E703632201C3E5232E
:101DC00013F523E52213F52250066323A0632201B5
:101DD000D526D9E52265236523F52222AE24AF2539
:101DE0000E0FDEFEDFFCD20122424C48656C6934E6
:071DF000373164F390060196
:00000001FF
