:030000000219FDE5
:03000B000200AA46
:03002B0002015D72
:03005B000202E9B5
:030073000202D6B0
:1000800002030406080C10182030406080040608A3
:100090000C10182030406080A0C00003070F1F0D17
:1000A0000D0403060D0503030202C2AFC0D0C0E079
:1000B000206214E5256009E473E525F4F58AD2622F
:1000C000D0E0D0D0D2AF3285268AC262E526F46075
:1000D0003030682620720DD0E0D0D0C290C287C2E6
:1000E00091D2AF32C290C287C291206F0D20650AB3
:1000F0007401D5E0FDE57BF45290D0E0D0D0D2AFD2
:1001000032758A00C28DD26201FA01B930680520C9
:100110006502D29001B9306805206502D28701B925
:10012000306805206502D29101B9D29630680A2064
:1001300065077405D5E0FDD29001B9D29430680A04
:100140002065077405D5E0FDD28701B9D2953068E6
:100150000A2065077405D5E0FDD29101B9C2AFC28E
:10016000AD53E6EFC0D0C0E0D2D3D2AFC2CEE52AC5
:100170006007207449152A21BE7800790020742E6A
:10018000E580307E01F430E60278FF53DACF207E3E
:100190000343DA20307E0343DA10C2D8C271E5800F
:1001A000307E01F430E60279FFC3E89970CB30610C
:1001B00003752A40207403752A40885CD27020742D
:1001C0000DE52B6004152B21CE43DA01C2D8207037
:1001D0000221E1A85C206102C27020740221DF8844
:1001E000227882B6040385222420CF0AD0E0D0D022
:1001F00043E610D2AD32C2CF053A7802E52A600557
:10020000307402152AC3E55C94014005755F004116
:1002100022756000756900E55F2401F55F50037584
:100220005FFF7982B7020D306E1DC3E52294324024
:1002300016854C227982B7030E306E0BC3E52294EB
:10024000324004798E8722C3E5239522600840045A
:10025000152341560523D8CA0569E5697002156959
:10026000D56A69756A017808E56B60497805C3E568
:1002700069956B4057C3E569956C50087801756ABC
:1002800003020290C3E569956D50057801756A0116
:10029000C3E5629524401E7982B7040241C1206EF5
:1002A00014852462E569046003856B69756A0175CC
:1002B000233C0202CCE5622850057562FF41C1F57E
:1002C00062E5620470067560FF7569FFD0E0D0D00A
:1002D00043E610D2AD32C2AF53E67F7592FA759302
:1002E000FFC260759104D2AF32C2AF53E6EFC2AD28
:1002F000C0D0C0E0C0F0D2D3D2AFA8FBA9FCC2D816
:10030000307102615053DACF207E0343DA10307E21
:100310000343DA20D271E580307E01F420E60261E9
:100320002788278928A12D53DACF207E0343DA209E
:10033000307E0343DA10C2D8C271307402A119783A
:1003400000E580307E01F430E602A119885CA1014D
:1003500053DACF207E0343DA20307E0343DA10C223
:1003600071206102812953DACF207E0343DA1030F5
:100370007E0343DA20C2D8D27188578958C3E895E2
:1003800055F8E99556F97B007E087A00C3E8948C0D
:10039000E994005005755B00811B882178A2E6A8CE
:1003A000216055C3E894C8E994005008E4D2E4FB06
:1003B0007A0A61F6C3E89468E994015008E4D2E34C
:1003C000FB7A0F61F6C3E894D0E994025008E4D2B6
:1003D000E2FB7A1E61F6C3E894A0E994055008E4B4
:1003E000D2E1FB7A3C61F6C3E89498E9940850089E
:1003F000E4D2E0FB7A787E00C3E89559FCE9955A8F
:10040000FD30E70AECF42401FCEDF43400FD755BEB
:1004100000C3EC9AED9E5003755B018859895A859B
:1004200057558558567802A101C3E89527F8E995F4
:1004300028F9C3E913F9E813F8C3E824B4FCE93454
:1004400000FD8163E9C313F9E813F830790281DE16
:10045000E9C313F9E813F830780281DEE9C313FD2C
:10046000E813FC20612CC3EC9482ED9402400281DD
:0E0470007AED701EC3EC94C850180529E529DA
:10047E0070021529C3E529940A5002A119755C0072
:10048E00D270A119E529600215297400207F037826
:10049E0096E624FAFEE43400FFC3EC9EFCED9FFDCD
:1004AE0050067800790081E5C3EC94FFED9400408E
:1004BE000678FF790081E5EC8572F0A4C5F0A2F70D
:1004CE0033F87900400302050178FF790002050137
:1004DE00E9C313F9E813F8307C0EE9600278FFC324
:1004EE00E81338F8E43400F9C3E894FFE9940040C7
:1004FE000278FF885CD270206102A119741FF45536
:10050E002F4BF52FC274EB7002D274752A403074E3
:10051E0003752A0A306102A12D20740353DAFE20DE
:10052E007403752B20D0F0D0E0D0D0D2AD43E610BE
:10053E0032790102055D790302055D790A02055DD6
:10054E00791E02055D796402055D79C802055D7844
:10055E0017E4D5E0FDD8FAD9F6227A147B78020595
:10056E00847A107B8C0205847A0D7BB40205847A22
:10057E000B7BC8020584E573D5E001227902E4D233
:10058E0094D5E0FDD287D5E0FDC287D5E0FDC294BB
:10059E00D5E0FDE920E002D29030E002D291E57381
:1005AE00D5E0FDE920E002C29030E002C2917496DF
:1005BE00D5E0FDD9C9EAF8D5E0FDD8FBDBB8D29479
:1005CE0022C37C007D0075F00005F0EA33FAEB33B0
:1005DE00FB50F6EB13FBEA13FAC3E9FFE8FEE89AC9
:1005EE00F8E99BF95004EFF9EEF8B3EC33FCED3378
:1005FE00FDD5F0DFEDF9ECF822E889F08A20D2D4AF
:10060E00F8A9F07B0030F70B7BFFF42401F8E9F436
:10061E003400F9E88520F0A4ADF0F8E98520F0A4C7
:10062E00AFF0FEED2EF974003FFA7C04C3EA13FA24
:10063E00E913F9E813F8DCF48BF030F70AE8F42448
:10064E0001F8E9F43400F9E889F0C2D4F8A9F022EF
:10065E007882B604030206FDC3E55C9419401EE5DC
:10066E002D54067018206E3678057994E7146007BD
:10067E00780A1460027812C3E54198401F306E0963
:10068E008564627569FF756A01852224E4F544F577
:10069E0045F546F547F548C26E0206FDD26E7994D1
:1006AE00E7147013E523F43333F913F8E954010416
:1006BE00F9E854FE0206F1E714147014E523F4333E
:1006CE003333F913F8E9540304F9E854FC0206F93C
:1006DE00E523F433333333F913F8E954070404F9FB
:1006EE00E854F8C39440F8E99400F9884489452207
:1006FE00C3E54113F9E54013F8C3E54498F8E54521
:10070E0099F9500CC3E89480E994FF40160207351E
:10071E00C3E8947FE994005003020735787F79008F
:10072E00020735788079FF8849894A22E5492546AE
:10073E00F8E54A3547F9854A20E4300701F4354893
:10074E00FA30E709C3EA94F04015020773C3EA943E
:10075E000F500302077378FF79FF7A0F0207737841
:10076E000079007AF0C3E5249561500AC3740195AF
:10077E0024500B020791E54A20E70E020791E54A45
:10078E0030E706884689478A482278A5E6FAC3E507
:10079E004933F8E54A33F9D107E930E70BC3E8945A
:1007AE0080E994FF4013E1CBC3E8947FE9940050B5
:1007BE0002E1CB787F7900E1CB788079FFE820E702
:1007CE0015C3E52398F84009C3E8940140030207D6
:1007DE00F278010207F2E8F424012523F84003021F
:1007EE0007F278FF884B2278A6E6FAA847A948D1E7
:1007FE0007E930E70CC3E89401E994FF40160208BC
:10080E0026C3E894FFE99400500302082678FF7986
:10081E0000020826780179FFE920E715C3E54B9819
:10082E00F84009C3E89401400302084D780102081C
:10083E004DE8F42401254BF8400302084D78FF885B
:10084E00242278FF20692879A1E76023E541601F03
:10085E0074FF8541F0848539F0306A0375F005A484
:0F086E00F8C5F0600278FFC3E895645002A864F3
:10087D00886322C3E5409440E5419401E56350034C
:10088D00140191046002F563227883E6F520120FBE
:10089D001175E89012053F75E89030EDFDA8BDA9E2
:1008AD00BE120FB7756E80756F02C3740213FD749F
:1008BD0080606613FC74802CFC74023DFDECFAED37
:1008CD00FBC3E89AE99B4014E56E2480F56EE56F55
:1008DD003402F56FEA2CFAEB3DFB80E5AE6EAF6F9F
:1008ED00C3E56F13F9E56E13F8C3E913F9E813F8CF
:1008FD007A03C3E913F9E813F8DAF7AA201A700995
:10090D00756E00756F000209261AEA6008EE28FE62
:10091D00EF39FFDAF88E6E8F6F2275E890227883AB
:10092D00E6FF30EDF9A8BDA9BE0570C3E5709408CA
:10093D004052757000E9FA79A0E76044EA7007E566
:10094D0071601B02095FC3E895716010E571500677
:10095D00600C1402096B0460F902096BE571F57105
:10096D00C394ED401B7561C0C3940640137561803F
:10097D00C39406400B756140C39406400375610036
:10098D0075BB0A22EFC39401601F7480601BC3E81E
:10099D0094FFE994035012C3E8956EE9956F5009E1
:1009AD00E561600C15610209BDE561F46002056148
:1009BD00A861C3E524985002A824C3E89562400AB3
:1009CD00A862E562F4600385626188258826E5707A
:1009DD00B4070375BB1022743279A787F0A4C5F054
:1009ED00A2F733F8C3E895614002A86188228824F4
:1009FD00882588268864227540007541F022C2AF93
:100A0D0075C820A8CCA9CDAA3A30CF010A75C82443
:100A1D00D2AFAB3BAC3C883B893CC3E89BF8E99C2F
:100A2D00206908F9306602611A4174AD3D8A3DF9BD
:100A3D00EA9DFA600478FF79FFAE3EAF3F8B3E8CA6
:100A4D003FA83BA93CC3E89EF8E99FF9C3E54113D4
:100A5D00FBE54013FAE82AF540E93BF541500675F0
:100A6D0040FF7541FF41C1AA40AB41AC40AD417E55
:100A7D00047F02C3EB9404400D1E1FC3EB9408408A
:100A8D0005206A021E1FC3ED13FDEC13FCDEF7C338
:100A9D00EA9CFAEB9DFBEF6009C3E913F9E813F843
:100AAD00DFF7EA28FAEB39FB8A408B4150067BFFD2
:100ABD008B408B41C3EB94025002D2663069047FA8
:100ACD000341EC7892E6FFC3E537948240110FC3E2
:100ADD00E53794A040010FC3EF940640027F057ED9
:100AED0002E541C4540FF9E541C454F0F8E540C4A2
:100AFD00540F28F8C3E89EFAE99400FB4009C3EAB5
:100B0D009402EB940050047A02E4FB6166AA40ABB8
:100B1D0041EBC4FEEAC4540F4EFCC3EA9CFAEB94BD
:100B2D0000FBC3E813C313F8EA28FAEB3400FB8A81
:100B3D00408B41C3EB94024002C2667802EBC4FEC7
:100B4D007B00EAC4540F4EFAC3EA98FA4005C394E9
:100B5D000250027A027892E6FF306002616685519A
:100B6D0092855293D26043E680C3E49AF8E49BF9F0
:100B7D0030660261F2E8FAE9FBD3E913FDE813FCF4
:100B8D0088518952C3EF94036038EF20E00DE82CB3
:100B9D00F8E93DF9ECFAEDFB020BBBE828F8E93971
:100BAD00F9C3E82402F8E93400F97AFE7BFFC3EFBC
:100BBD009403400E8A538B54884D894E8C4F8D5023
:100BCD008126885389548A4D8B4E8C4F8D503069B8
:100BDD00127553F07554FF754FF07550FF7551F048
:100BED007552FF8126E8FAD3E813FC8851C3EF94C0
:100BFD00036020EF20E007E82CF8ECFA8112E828DA
:100C0D002402F87AFEC3EF940340088A53884D8C72
:100C1D004F812688538A4D8C4FE568C3335002644B
:100C2D006BF5683060028130753402D26043E68026
:100C3D00E52D54066034A840A941C3E913F9E81322
:100C4D00F8C3E913F9E813F8306904E92440F9C24F
:100C5D00AF53E67F759100C3E498F594E499F5954B
:0D0C6D00759104D26043E680D2AF22D264BC
:100C7A00754300752000306C03752040020C97D232
:100C8A0064754300752040306C0375200078017943
:100C9A0001206620E52D54066002C2647914E541FC
:100CAA00C313700104F8C394144002781430690421
:100CBA00781B791B206010E543600C306903D5343A
:100CCA0004D26DA14191380543E59B5440B52002F9
:100CDA00A12B30690908C3E89940011881BE206434
:100CEA000A08C3E8994002819781BEC264C2AF5321
:100CFA00E67F7591003066127594007595F87591C6
:100D0A0004D26043E680D2AF8197E5417EFFC333C8
:100D1A004005C3334001FEC3E49E759400F595A1D6
:100D2A0008C3E5339401500281973064028197D851
:100D3A0002A13F81BEC26DC2AF53E67F75910085A5
:100D4A005394855495759104854D92854E93D2603E
:100D5A0043E680D2AFE52D54066008206A020533C7
:100D6A00020D7D306D0D206C0A20640715811581F6
:100D7A000216A02278003064027801E53775F00780
:100D8A00A4F9E5F028F5F0E9A2F013A2F113A2F212
:100D9A0013F537C394785003753778C3E537953818
:100DAA004008D265C290C287C291306002A1B48560
:100DBA004F92855093D26043E68022207D16C2AFBF
:100DCA00754202D294C296306202D291D2AF759F16
:100DDA0034020FB4C2AF754202D294C29530620295
:100DEA00D290D2AF759F34020FB4307243207D2067
:100DFA00C2AF75420390013B757B10C291D2953008
:100E0A006204D287C112C294D2AF759F35020FB461
:100E1A00C2AF75420390013B757B10C290D29630E7
:100E2A006204D287C132C294D2AF759F32020FB424
:100E3A00207D17C2AF754203900116C2913062023B
:100E4A00D287D2AF759F35020FB4C2AF75420390F5
:100E5A000116C290306202D287D2AF759F32020F5A
:100E6A00B4207D16C2AF754204D296C29530620292
:100E7A00D287D2AF759F32020FB4C2AF754204D285
:100E8A0095C296306202D287D2AF759F35020FB4EF
:100E9A00307243207D20C2AF75420590012A757BCE
:100EAA0040C287D294306204D290C1B8C296D2AFFF
:100EBA00759F34020FB4C2AF75420590014C757B21
:100ECA0020C287D294306204D291C1D8C295D2AFDF
:100EDA00759F34020FB4207D17C2AF754205900189
:100EEA000CC287306202D290D2AF759F34020FB41F
:100EFA00C2AF754205900120C2873062EBD291D20F
:100F0A00AF759F34020FB4207D16C2AF754206D268
:100F1A0095C294306202D290D2AF759F35020FB457
:100F2A00C2AF754206D296C294306202D291D2AF53
:100F3A00759F32020FB4307243207D20C2AF7542D2
:100F4A000190014C757B20C290D296306204D291F6
:100F5A00E15EC295D2AF759F32020FB4C2AF75423D
:100F6A000190012A757B40C291D295306204D290D9
:100F7A00E17EC296D2AF759F35020FB4207D17C2AB
:100F8A00AF754201900120C290306202D291D2AF75
:100F9A00759F32020FB4C2AF75420190010CC29123
:100FAA00306202D290D2AF759F35C2652290010A93
:100FBA00757B00C290C287C291D296D294D295C252
:100FCA006222788076070876070876010876040890
:100FDA0076FF0876FF08760B08760208760108760F
:100FEA0001788C76010876000876B40876FF0876D0
:100FFA00FF0876FF0876030876FF0876010876FF71
:10100A0008760A0876F00876780876C8087604081A
:10101A0076FF08760108760008767D087607087656
:10102A00010876010876000876FF0876012278879B
:10103A00E6FFC272BF0302D2727888C27DE630E14F
:10104A0002D27DC27E7889E630E102D27EC3EF9475
:10105A00026008758E01D27302106A758E00C2731F
:0F106A00227880E6149000809378A5F67881E6CE
:10107900149000809378A6F67886E61490008D93F4
:1010890078A7F6789FE6F87005756B0001B1C3E89B
:10109900941140027811E82828F56B256B256B28F7
:1010A900F56C256B2828F56D7886E6F539C3940229
:1010B9005003753902789CE67538FFB40203753818
:1010C900A0B4030375388278A3E61490009A93F5C7
:1010D90066120FB722227896E6FA7897E6FB7888A7
:1010E900E6B40305C3EB940EFB307F047A007BFF63
:1010F900C3EB9AFCC3948250027C8275720005721C
:10110900EC8572F0A4C3E5F0947D40F222D27F1100
:10111900DF12054E12054E7A007B007C1012054441
:10112900E55C2AFA74003BFBDCF37C04C3EB13FB9C
:10113900EA13FADCF7FEC27F11DF227ADEC296D209
:1011490091744BD5E0FDC291D29679027817E4D516
:10115900E0FDD8FAD9F6796E741ED5E0FDD9F9DA31
:10116900DC227A84C296D291744BD5E0FDC291D229
:101179009679037817E4D5E0FDD8FAD9F6792B7476
:101189001ED5E0FDD9F9DADC227A84C296D29174AF
:101199004BD5E0FDC291D29679027817E4D5E0FDEE
:1011A900D8FAD9F6791D741ED5E0FDD9F9DADC2211
:1011B900757C00757D00E5EF20E6037520000520AC
:1011C900903FFFE520146006901FFF146000930410
:1011D900600375EF147597DE7597AD7581C043FF90
:1011E9008012053F75EF0475A900E5C7240220E7C1
:1011F9000DF521E5B120E0068521C743B101120FA4
:10120900B77580FF75A48075F1C275D4BF759074E8
:1012190075A57375F27B75D50475A60175E34075DF
:10122900E201120FB7E4F8F6D8FD756801120FCC88
:101239001216F778988673753001C2AF12055831C6
:101249004412055331441205533144120553316B8D
:1012590031923144120553316B3192314431441288
:10126900181E120558120558120553C2AF757C0095
:10127900757D0078FA79FA308607D9FBD8F7021C10
:10128900001138116B11DE11DF78988673120FB7D0
:1012990075881075890275C82475910475D84075CB
:1012A900A82275B80275E690759B80759D0075D169
:1012B9009C75BC5975BB0A75E88075B20112053F6A
:1012C900D2AF12089675360053DACF207E0343DA7F
:1012D90020307E0343DA1043DA01C2D8C271120505
:1012E90058D2617B037A0CE55B70077A0CDB030249
:1012F900127412054E207003021274C270E55CC3A9
:10130900940240E1E52F541F855E5DF55EB55DD51C
:10131900DAD5C26153DACF207E0343DA20307E0367
:1013290043DA10C2D8C27178A2E67008D274E52FE8
:1013390054E0F52FC275752900120553307409C39D
:10134900E529940A4002D2751205447802307402E4
:101359007800C3E55C9840F0C2AF120568120568D1
:10136900D2AF120558754C00120544788CE6C39427
:1013790001500302145EE530C39401500302145E68
:10138900757CA5757DF1207435C3E55C94FF500328
:1013990002145EC2AF12057DD2AF120553C3E55CDC
:1013A900940150EFC2AF120568120549120568D2BF
:1013B900AF120553C3E55C94FF40E90218A37F050A
:1013C900D27F11DF120553C2AFC27F11DFAE5CC3FA
:1013D900E55C947FD2AF5002816E12053FC2AF1215
:1013E900057DD2AFDFDA3116C3EE94057897F61290
:1013F90005581218267F0AD27F11DF120553C2AF92
:10140900C27F11DFAE5CC3E55C947FD2AF50E612B8
:10141900053FC2AF120568120549120568D2AFDF50
:10142900D63116EE24037896F6F87997E7C39482B5
:101439004003985006E824827897F6120558121747
:101449003912185512055311DFC3E55C94FF500298
:1014590061890218A3757C00757D00C3E55C954C14
:0D1469004003855C4C12055378017988E73B
:10147600B403027805C3E55C9840026171C2AF12FD
:10148600057D12057DD2AF120558753000E4F531A1
:10149600F5320531E531F4703F0532789AE6781970
:1014A600146012783214600D787D14600878FA148E
:1014B6006003753200C3E53298401D120FB712055E
:1014C6003F153275310078998673C2AF12057DD209
:1014D600AF78988673120553120549E52A700530D0
:1014E6007402417478012074027806C3E55C984062
:1014F600A1120553E52A7003021274C2AF120FB788
:10150600E4F522F523F524F525F526F567D2AF781F
:1015160085E6C333F565E4F544F545F546F547F547
:1015260048F570F52CF52DF53775700875BB10125A
:10153600053F12092730EDFDA8BDA9BEE97001F8E7
:10154600887112092B75700875BB101138C2AF75FA
:1015560061FF1209E4852261852262852263D2AF8A
:101566007522017524017525017526018560697549
:101576006A017888E6B40307C27D307602D27DD24E
:1015860068D269753300120F11120F40120A041245
:101596000A0B120A04120A0B120A04120C8912060A
:1015A6005E120D7E120DC5120A0B120C78306E03F8
:1015B6001206FE20660312085030660312088012D7
:1015C6000D7E120DF4120A0B120C89306E031207EF
:1015D6003A120D7E120E6B120A0B120C78306E0345
:1015E600120798120D7E120E9A120A0B120C8930EF
:1015F6006E031207F5120D7E120F11120A0B120955
:1016060027120C78120D7E120F4012092B120A0BAC
:1016160030692C856461856462856069756A0179C3
:10162600187A0CC3E533994009C269D26A8A350231
:101636001645C3E55C940140030215A10216A830C5
:101646006A1D206C1AE535147006C26AD26BA1A118
:10165600F535C3E55C940140030215A10216A87591
:101666003600C3E55F94014009856462856069754B
:101676006A0178FA79A4E760027803C3E55F9850B7
:1016860021307404E52A601A78F0306C05856461AF
:101696007820C3E541985002A1A10536E55C6002B9
:1016A600C1AB753600C2AF120FB77887E6FE760279
:1016B60011387887EEF6E4F522F523F524F525F5BD
:1016C60026F565752C00752D00D2AF120553120F45
:1016D600B778A4E66006D290D287D291307406E538
:1016E6002A70024174788DE6C394014002615181EB
:1016F60093901A0D782012177BE520B4A50CA3123F
:10170600177BE520B45A03021719120FCC121739AA
:10171600021738901A0378807B0A12177BA308DB1E
:10172600F9901A0F788C7B1912177BA308DBF990B6
:101736001A2822C2AF1217BE12179B901A00740EF7
:10174600121780A3744B121780A37415121780907A
:101756001A0378807B0A12177FA308DBF9901A0F09
:10176600788C7B1912177FA308DBF91217D1121791
:10177600AF901A2822E493F622E6438F01538FFD99
:10178600FFC3E583941C400122EF857CB7857DB7B6
:10179600F0538FFE22438F02438F01857CB7857DF0
:1017A600B7901A0DF0538FFC22901A0D74A5F18094
:1017B600901A0E745AF180227A3079D07820901AD5
:1017C60040F17BE520F709A3DAF7227A3079D09049
:1017D6001A40E7F18009A3DAF922AB74A875BB01B8
:1017E600027980BB02027981BB03027982BB0402C3
:1017F6007994BB05027983BB06027986BB07027919
:1018060092BB08027987BB0902799CBB0A027988D8
:10181600BB0B027989E8F7227C05120558DCFB220E
:10182600C2AF12056812056F12057612057D120504
:101836004912056812056F12057612057D120549D3
:1018460012056812056F12057612057DD2AF22C207
:10185600AF12057D12057612056F1205681205494D
:0F18660012057D12057612056F120568120549ED
:1018750012057D12057612056F120568D2AF22AEEC
:1018850074AF75C2AF1205681205681205681205B6
:1018950049DEF212057D120549DFF8D2AF22112685
:1018A500111E111E75740175750175760011847C04
:1018B50005AD5C120558C3ED955C70F5C3E55C9408
:1018C50001400AC3E55C94FF40340218E11217E0B9
:1018D5001217391126C2AF75EF14111EDCD3057628
:1018E500C3E5769403500280C4111E0575E5741492
:1018F50090009F93F808C3E57598500280AC111EBF
:10190500111E0574C3E574940C5002809A120FCC15
:0A191500121739C2AF75EF14111E4E
:0319FD000211B91B
:101A00000E4B1507070104FFFF0B020101A55A0148
:101A100000B4FFFFFF03FF01FF0AF078C804FF01D5
:091A200000FF07010100FF01FFB6
:101A4000234638355F3341232020202020202020CA
:101A500023424C48454C492346383530232020202A
:101A60002020202020202020202020202020202076
:101C0000C2AFC2D37597DE7597AD7581C075A90057
:101C100043FF80752438752503B1DB7529A5752A26
:101C2000F175E34043F14053A4BF75D4FFD2867DE4
:101C3000FA780379E67C10752200752300901DE880
:101C40007B06752498752501308602814820860818
:101C5000D8FBD9F9DCF781BA308608D8FBD9F9DC92
:101C6000F781BAB19BE493A3C39A6004DDC381BA40
:101C7000DBDBB18D600281317B08E493FAA3B16EA6
:101C8000DBF87A30B16E752200752300B18DEAFC65
:101C9000EBFDC3ED94FE400EB18D8A278B28ED300D
:101CA000E0048A828B83B18D7AC270D8C3ED94FE32
:101CB000601950CEBD0029EC600F7520007521FF22
:101CC000752900752A000200008100A827A92808AC
:101CD00009D804D90281DDB191EAF281D10D81A642
:101CE000C3ED94035051EDA2E092007AC5C3E582A2
:101CF0009400E583941C508C200010438F02438F86
:101D0000018529B7852AB7F0300027A827A9280818
:101D100009438F01538FFDD804D902A132C3E58353
:101D2000941C4003A3A117E28529B7852AB7F0A325
:101D3000A117538FFC81827AC1BD030CE493A3FAEF
:101D4000B152DCF8B14A81828184AA22AB23B16E00
:101D5000EBFAEA6222752608C3E52313F523E52290
:101D600013F52250066323A0632201D526EAB1DBD6
:101D7000B1DB75260AEAF4200102D286300102C2E4
:101D800086B1DBC3134002C201D526EB22B191EA32
:101D9000FB208602A191308602A196752608AE240A
:101DA000AF25C3EF13FFEE13FEB1DFB1DBC3EA13C0
:101DB0003086024480FA30E703632201C3E523132F
:101DC000F523E52213F52250066323A0632201D5F3
:101DD00026D9E52265236523F52222AE24AF250E00
:101DE0000FDEFEDFFCD20122424C48656C693437BD
:061DF0003164F850060109
:00000001FF
