:030000000219FDE5
:03000B000200AA46
:03002B0002015C73
:03005B000202F0AE
:030073000202DDA9
:1000800002030406080C10182030406080040608A3
:100090000C10182030406080A0C00003070F1F0D17
:1000A0000D04050D050305030302C2AFC0D0C0E077
:1000B000206214E5256009E473E525F4F58AD2622F
:1000C000D0E0D0D0D2AF3285268AC262E526F46075
:1000D0002F30682520720DD0E0D0D0C291C293C2DB
:1000E00095D2AF32C291C293C295206F0C206509A0
:1000F0007408D5E0FDE57B4290D0E0D0D0D2AF329D
:10010000758A00C28DD26201F901B9306805206597
:1001100002D29101B9306805206502D29301B9304D
:100120006805206502D29501B9C29030680A206541
:10013000077408D5E0FDD29101B9C29230680A2057
:1001400065077408D5E0FDD29301B9C29430680AFE
:100150002065077408D5E0FDD29501B9C2AFC2ADE4
:1001600053E6EFC0D0C0E0D2D3D2AFC2CEE52A6012
:1001700007207449152A21BD7800790020742EE5E6
:1001800080307E01F430E50278FF53DACF207E0321
:1001900043DA20307E0343DA10C2D8C271E58030E2
:1001A0007E01F430E50279FFC3E89970CB3061033A
:1001B000752A18207403752A18885CD27020740D73
:1001C000E52B6004152B21CD43DA01C2D820700243
:1001D000413CA85C206102C2702074367982B70469
:1001E00031C3E894F0400374F0F8E8C4540F28F8E1
:1001F0007984B703024112C313C313872120080275
:10020000C313200A06C3C898F8411228F850037493
:10021000FFF88822E52D54066022206B1FE536C3C7
:1002200033C333F8E564C313C313F9C39522400203
:100230008922E82522F52250037522FF7882B60430
:1002400059852224A824C3E52495614002A861C3EE
:10025000E895634002A8638825E5667002418DC376
:10026000E8AA669A5003E8FAE4F9EAC333FBE568C2
:10027000F45B29400D2567F8E56760021567400BC0
:10028000418D0AC3E5679A5002056778FF8826C248
:100290006FC3E52694F84002D26F20CF0AD0E0D099
:1002A000D043E610D2AD32C2CF053A7801E52A60DC
:1002B00005307402152AC3E55C94014005755F00A2
:1002C00041D3756000756900E55F2401F55F500357
:1002D000755FFFD0E0D0D043E610D2AD32C2AF534D
:1002E000E67F7592FA7593FFC260759104D2AF32C2
:1002F000C2AF53E6EFC2ADC0D0C0E0C0F0D2D3D29F
:10030000AFA8FBA9FCC2D8307102615753DACF20E5
:100310007E0343DA10307E0343DA20D271E5803069
:100320007E01F420E502612E88278928A17C53DA1A
:10033000CF207E0343DA20307E0343DA10C2D8C2D6
:1003400071307402A1687800E580307E01F430E5F8
:1003500002A168885CA15053DACF207E0343DA20E3
:10036000307E0343DA10C271206102813053DACF4C
:10037000207E0343DA10307E0343DA20C2D8D271E4
:1003800088578958C3E89555F8E99556F97B007E5A
:10039000087A00C3E8948CE994005005755B0081ED
:1003A00022882178A2E6A8216055C3E894C8E99480
:1003B000005008E4D2E4FB7A0A61FDC3E89468E9DE
:1003C00094015008E4D2E3FB7A0F61FDC3E894D0B6
:1003D000E994025008E4D2E2FB7A1E61FDC3E8947E
:1003E000A0E994055008E4D2E1FB7A3C61FDC3E842
:1003F0009498E994085008E4D2E0FB7A787E00C330
:10040000E89559FCE9955AFD30E70AECF42401FC23
:10041000EDF43400FD755B00C3EC9AED9E5003755E
:100420005B018859895A8557558558567802A150DD
:10043000C3E89527F8E99528F9C3E913F9E813F813
:10044000C3E824B4FCE93400FD816AE9C313F9E888
:1004500013F8307902A12DE9C313F9E813F83078C5
:1004600002A12DE9C313FDE813FC20612CC3EC9419
:0F04700082ED940240028181ED701EC3EC94C8AE
:10047F0050180529E52970021529C3E529940A505A
:10048F0002A168755C00D270A168E5296002152988
:10049F007888E6F97400207F087896B90302789E71
:1004AF00E624FAFEE43400FFC3EC9EFCED9FFD92C0
:1004BF0008B90310A2085007207609D27681D330ED
:1004CF007602C276A2085016B9030DECF42401FC93
:1004DF00EDF43400FD0204ED78007900A134B90386
:1004EF0015EC33FCED33FDC3EC940AFCED9400FDE9
:1004FF0050047C007D00C3EC94FFED94004006781F
:10050F00FF7900A134EC8572F0A4C5F0A2F733F89F
:10051F007900400302055078FF7900020550E9C3C6
:10052F0013F9E813F8307C0EE9600278FFC3E81383
:10053F0038F8E43400F9C3E894FFE99400400278F6
:10054F00FF885CD270206102A168741FF4552F4B95
:10055F00F52FC274EB7002D274752A1830740375BC
:10056F002A0A306102A17C20740353DAFE2074033F
:10057F00752B06D0F0D0E0D0D0D2AD43E610327953
:10058F00010205AC79030205AC790A0205AC791EAC
:10059F000205AC79640205AC79C80205AC7817E4A2
:1005AF00D5E0FDD8FAD9F6227A147B780205D37AF2
:1005BF00107B8C0205D37A0D7BB40205D37A0B7BAB
:1005CF00C80205D3E573D5E001227902E4C292D5C2
:1005DF00E0FDD293D5E0FDC293D5E0FDD292D5E0F8
:1005EF00FDE920E002D29130E002D295E573D5E02B
:1005FF00FDE920E002C29130E002C2957496D5E089
:10060F00FDD9C9EAF8D5E0FDD8FBDBB8C29222C309
:10061F007C007D0075F00005F0EA33FAEB33FB50F8
:10062F00F6EB13FBEA13FAC3E9FFE8FEE89AF8E9E1
:10063F009BF95004EFF9EEF8B3EC33FCED33FDD535
:10064F00F0DFEDF9ECF822E889F08A20D2D4F8A98E
:10065F00F07B0030F70B7BFFF42401F8E9F4340052
:10066F00F9E88520F0A4ADF0F8E98520F0A4AFF00B
:10067F00FEED2EF974003FFA7C04C3EA13FAE91376
:10068F00F9E813F8DCF48BF030F70AE8F42401F8FA
:10069F00E9F43400F9E889F0C2D4F8A9F02278829D
:1006AF00B60403020708C3E55C940140030206D2B7
:1006BF00852224E4F544F545F546F547F548C26E25
:1006CF000207087882E6FCD26EE522F523783879A6
:1006DF00C7AA40AB41C3EB13FBEA13FAEC14601348
:1006EF00C3EB13FBEA13FAEC14146007C3EB13FB11
:1006FF00EA13FAD11E8844894522C3E5449523F8AD
:10070F00E5459400F9500CC3E89480E994FF401636
:10071F00020739C3E8947FE9940050030207397840
:10072F007F7900020739788079FF8849894A22E565
:10073F00492546F8E54A3547F9854A20E43007014F
:10074F00F43548FA30E709C3EA94F0401502077709
:10075F00C3EA940F500302077778FF79FF7A0F02ED
:10076F000777780079007AF0C3E5249561500AC3C2
:10077F0074019524500B020795E54A20E70E0207F6
:10078F0095E54A30E706884689478A482278A5E6E4
:10079F00FAC3E54933F8E54A33F9D156E930E70BA7
:1007AF00C3E89480E994FF4013E1CFC3E8947FE955
:1007BF0094005002E1CF787F7900E1CF788079FF04
:1007CF00E820E715C3E52398F84009C3E8940140F2
:1007DF00030207F678010207F6E8F424012523F84F
:1007EF0040030207F678FF884B2278A6E6FAA8475F
:1007FF00A948120656E930E70CC3E89401E994FFC3
:10080F00401602082BC3E894FFE994005003020836
:10081F002B78FF790002082B780179FFE920E71583
:10082F00C3E54B98F84009C3E8940140030208520E
:10083F007801020852E8F42401254BF8400302081E
:10084F005278FF88242278FF20692879A1E7602356
:10085F00E541601F74FF8541F0848539F0306A03EC
:0F086F0075F005A4F8C5F0600278FFC3E8956442
:10087E005002A864886322C3E5409440E541940188
:10088E00E5635003140196046002F5632202089E8C
:10089E002275E890227883E6FF30EDF9A8BDA9BE57
:1008AE000570C3E57094084052757000E9FA79A09E
:1008BE00E76044EA7007E571601B0208D7C3E8954C
:1008CE00716010E5715006600C140208E30460F9C3
:1008DE000208E3E571F571C39467401B7561C0C3EF
:1008EE0094044013756180C39404400B756140C33A
:1008FE009404400375610075BB0622E56124105017
:10090E000274FFF5617982B704022130C3A861E554
:10091E0024985002A824C3E895634002A863882552
:10092E008826E570B4070375BB1022743279A78749
:10093E00F0A4C5F0A2F733F8C3E895614002A861B0
:10094E00882288248825882688642275400075416F
:10095E00F022C2AF75C820A8CCA9CDAA3A30CF01DB
:10096E000A75C824D2AFAB3BAC3C883B893CC3E88C
:10097E009BF8E99C206908F9306602416F21C9ADE8
:10098E003D8A3DF9EA9DFA600478FF79FFAE3EAFED
:10099E003F8B3E8C3FA83BA93CC3E89EF8E99FF9EC
:1009AE00C3E54113FBE54013FAE82AF540E93BF5B0
:1009BE004150067540FF7541FF4116AA40AB41AC50
:1009CE0040AD417E047F02C3EB9404400D1E1FC355
:1009DE00EB94084005206A021E1FC3ED13FDEC13B5
:1009EE00FCDEF7C3EA9CFAEB9DFBEF6009C3E9134B
:1009FE00F9E813F8DFF7EA28FAEB39FB8A408B4166
:100A0E0050067BFF8B408B41C3EB94025002D266A3
:100A1E003069047F0341417892E6FFC3E537948243
:100A2E0040110FC3E53794A040010FC3EF94064069
:100A3E00027F057E02E541C4540FF9E541C454F02E
:100A4E00F8E540C4540F28F8C3E89EFAE99400FB79
:100A5E004009C3EA9402EB940050047A02E4FB418D
:100A6E00BBAA40AB41EBC4FEEAC4540F4EFCC3EA32
:100A7E009CFAEB9400FBC3E813C313F8EA28FAEBD5
:100A8E003400FB8A408B41C3EB94024002C266786D
:100A9E0002EBC4FE7B00EAC4540F4EFAC3EA98FA86
:100AAE004005C3940250027A027892E6FF3060024B
:100ABE0041BB855192855293D26043E680C3E49A3E
:100ACE00F8E49BF93066026147E8FAE9FBD3E913D3
:100ADE00FDE813FC88518952C3EF94036038EF2070
:100AEE00E00DE82CF8E93DF9ECFAEDFB020B10E80D
:100AFE0028F8E939F9C3E82402F8E93400F97AFE56
:100B0E007BFFC3EF9403400E8A538B54884D894E5E
:100B1E008C4F8D50617B885389548A4D8B4E8C4FF0
:100B2E008D503069127553F07554FF754FF0755036
:100B3E00FF7551F07552FF617BE8FAD3E813FC881C
:100B4E0051C3EF94036020EF20E007E82CF8ECFA95
:100B5E006167E8282402F87AFEC3EF940340088AFE
:100B6E0053884D8C4F617B88538A4D8C4FE568C3FB
:100B7E00335002646BF5683060026185753402D2C1
:100B8E006043E680E52D54066034A840A941C3E9D0
:100B9E0013F9E813F8C3E913F9E813F8306904E917
:100BAE002440F9C2AF53E67F759100C3E498F594E3
:100BBE00E499F595759104D26043E680D2AF22D2C6
:100BCE0064754300752000306C03752040020BECF9
:100BDE00D264754300752040306C03752000780197
:100BEE007901206620E52D54066002C2647914E571
:100BFE0041C313700104F8C3941440027814306991
:100C0E0004781B791B206010E543600C306903D516
:100C1E003404D26D8196718D0543E59B5440B52009
:100C2E0002818030690908C3E899400118811320B8
:100C3E00640A08C3E899400261EC8113C264C2AF32
:100C4E0053E67F7591003066127594007595F875B0
:100C5E009104D26043E680D2AF61ECE5417EFFC3E2
:0E0C6E00334005C3334001FEC3E49E7594007D
:100C7C00F595815DC3E5339401500261EC3064025B
:100C8C0061ECD80281948113C26DC2AF53E67F75BB
:100C9C009100855394855495759104854D92854E9C
:100CAC0093D26043E680D2AFE52D54066008206AEB
:100CBC00020533020CD2306D0D206C0A206407152E
:100CCC008115810216042278003064027801E53720
:100CDC0075F007A4F9E5F028F5F0E9A2F013A2F1FC
:100CEC0013A2F213F537C394785003753778C3E524
:100CFC003795384008D265C291C293C295306002D4
:100D0C00A109854F92855093D26043E68022207DC5
:100D1C0016C2AF754202C292D290306202D295D204
:100D2C00AF759F02020F09C2AF754202C292D294F4
:100D3C00306202D291D2AF759F02020F093072431A
:100D4C00207D20C2AF75420390013A757B04C29599
:100D5C00C294306204D293A167D292D2AF759F0332
:100D6C00020F09C2AF75420390013A757B04C29120
:100D7C00C290306204D293A187D292D2AF759F01F8
:100D8C00020F09207D17C2AF754203900115C29561
:100D9C00306202D293D2AF759F03020F09C2AF75B6
:100DAC004203900115C291306202D293D2AF759F6B
:100DBC0001020F09207D16C2AF754204C290D29475
:100DCC00306202D293D2AF759F01020F09C2AF7588
:100DDC004204C294D290306202D293D2AF759F0378
:100DEC00020F09307243207D20C2AF75420590017D
:100DFC0029757B01C293C292306204D291C10DD28B
:100E0C0090D2AF759F02020F09C2AF7542059001D7
:100E1C004B757B10C293C292306204D295C12DD215
:100E2C0094D2AF759F02020F09207D17C2AF754295
:100E3C000590010BC293306202D291D2AF759F0222
:100E4C00020F09C2AF75420590011FC2933062EBCD
:100E5C00D295D2AF759F02020F09207D16C2AF75D5
:100E6C004206C294D292306202D291D2AF759F03E5
:100E7C00020F09C2AF754206C290D292306202D202
:100E8C0095D2AF759F01020F09307243207D20C2AD
:100E9C00AF75420190014B757B10C291C2903062CC
:100EAC0004D295C1B3D294D2AF759F01020F09C27F
:100EBC00AF754201900129757B01C295C2943062D5
:100ECC0004D291C1D3D290D2AF759F03020F0920E7
:100EDC007D17C2AF75420190011FC291306202D2E0
:100EEC0095D2AF759F01020F09C2AF7542019001F7
:100EFC000BC295306202D291D2AF759F03C26522AC
:100F0C00900109757B00C291C293C295C290C292A6
:100F1C00C294C262227880760908760908760408A1
:100F2C0076FF0876030876FF0876090876030876BC
:100F3C0001087601788C76010876FF0876FF087632
:100F4C00FF0876FF0876FF0876030876FF0876FF21
:100F5C000876FF08760A0876F0087650087650086E
:100F6C0076040876FF08760308760008767D087606
:100F7C00FF087601087601087600087603087601EA
:100F8C00227887E6FFC272BF0302D2727888E6C36A
:100F9C0094036008C27DE630E102D27DC27E78897E
:100FAC00E630E102D27EC3EF94026008758E01D266
:100FBC0073020FC5758E00C273227880E614900000
:100FCC00809378A5F67881E6149000809378A6F645
:100FDC007886E61490008D9378A7F67886E6F53936
:100FEC00C394025003753902789CE67538FFB4023D
:100FFC00037538A0B4030375388278A3E614900007
:10100C009A93F566120F0C22227896E6FA7897E6F8
:10101C00FB7888E6B40305C3EB940EFB307F047AAF
:10102C00007BFFC3EB9AFCC3948250027C827572E6
:10103C00000572EC8572F0A4C3E5F0947D40F222B9
:10104C00D27F111512059D12059D7A007B007C1034
:10105C00120593E55C2AFA74003BFBDCF37C04C3B9
:0E106C00EB13FBEA13FADCF7FEC27F1115222C
:10107A007ADED290D295744BD5E0FDC295C29079B2
:10108A00027817E4D5E0FDD8FAD9F6796E741ED540
:10109A00E0FDD9F9DADC227A84D290D295744BD564
:1010AA00E0FDC295C29079037817E4D5E0FDD8FA3D
:1010BA00D9F6792B741ED5E0FDD9F9DADC227A84C7
:1010CA00D290D295744BD5E0FDC295C29079027840
:1010DA0017E4D5E0FDD8FAD9F6791D741ED5E0FDDE
:1010EA00D9F9DADC22757C00757D00E5EF20E6038C
:1010FA007520000520903FFFE520146006901FFF31
:10110A001460009304600375EF167597DE7597AD4A
:10111A007581C043FF8012058E75EF0675A900E53B
:10112A00C7240220E70DF521E5B120E0068521C795
:10113A0043B101120F0C7580FF75A40075F1B075EB
:10114A00D4DF75900075A53F75F23F75D50075A679
:10115A000175E34075E201120F0CE4F8F6D8FD754B
:10116A006801120F2112165578988673753001C2DC
:10117A00AF1205A7117A1205A2117A1205A2117AE5
:10118A001205A211A111C8117A1205A211A111C842
:10119A00117A117AC2AF757C00757D0078FA79FAF6
:1011AA00308507D9FBD8F7021C00120F8D120FC623
:1011BA001114111578988673120F0C758810758999
:1011CA000275C82475910475D84075A82275B802AD
:1011DA0075E690759B80759D0075D10C75BC597527
:1011EA00BB0675E88075B20112058ED2AF12089B54
:1011FA0075360053DACF207E0343DA20307E03436C
:10120A00DA1043DA01C2D8C2711205A7D2617B0390
:10121A007A0CE55B70077A0CDB0302119E12059DBE
:10122A0020700302119EC270E55CC3940240E1E59E
:10123A002F541F855E5DF55EB55DD5DAD5C2615363
:10124A00DACF207E0343DA20307E0343DA10C2D895
:10125A00C27178A2E67008D274E52F54E0F52FC265
:10126A00757529001205A2307409C3E529940A404C
:10127A0002D27512059378023074027800C3E55CD5
:10128A009840F0C2AF1205B71205B7D2AF1205A740
:10129A00754C007888E6B403026190120593788C45
:1012AA00E6C394015003021390E530C3940150033E
:1012BA00021390757CA5757DF1207435C3E55C94A5
:1012CA00FF5003021390C2AF1205CCD2AF1205A28F
:1012DA00C3E55C940150EFC2AF1205B7120598122C
:1012EA0005B7D2AF1205A2C3E55C94FF40E9021824
:1012FA00017F02D27F11151205A2C2AFC27F11155A
:10130A00AE5CC3E55C947FD2AF500261A012058E39
:10131A00C2AF1205CCD2AFDFDA114CC3EE7897F622
:10132A001205A71217847F0AD27F11151205A2C2CD
:10133A00AFC27F1115AE5CC3E55C947FD2AF50E6B5
:10134A0012058EC2AF1205B71205981205B7D2AFB1
:10135A00DFD6114CEE24037896F6F87997E7C39412
:10136A00824003985006E824827897F61205A7125D
:10137A0016971217B31205A21115C3E55C94FF5014
:10138A000241BD021801757C00757D00C3E55C95BC
:10139A004C4003855C4C1205A278017988E7B403B6
:1013AA00027805C3E55C984002419DC2AF1205CCA4
:1013BA001205CCD2AF1205A7753000E4F531F5322B
:1013CA000531E531F4703F0532789AE678191460F0
:1013DA0012783214600D787D14600878FA1460036C
:1013EA00753200C3E53298401D120F0C12058E1596
:1013FA003275310078998673C2AF1205CCD2AF78B4
:10140A009886731205A2120598E52A7005307402AF
:10141A00219E78012074027806C3E55C9840A17881
:10142A0088E6C3940360031205A2E52A7003021139
:10143A009EC2AF120F0CE4F522F523F524F525F52B
:10144A0026F567D2AF7885E6C333F565E4F544F54A
:10145A0045F546F547F548F570F52CF52DF5377540
:0E146A00700875BB1012058E12089F30EDFD44
:10147800A8BDA9BEE97001F888711208A3757008A3
:1014880075BB10120F8DC2AF7561FF120939852225
:1014980061852262852263D2AF75220175240175A8
:1014A8002501752601856069756A017888E6B403A7
:1014B80007C27D307602D27DD268D26975330012B8
:1014C8000E66120E9512095912096012095912096D
:1014D80060120959120BDE1206AD120CD3120D1A46
:1014E800120960120BCD306E031207092066031231
:1014F8000855306603120885120CD3120D491209DB
:1015080060120BDE306E0312073E120CD3120DC0B0
:10151800120960120BCD306E0312079C120CD31205
:101528000DEF120960120BDE306E031207F9120C70
:10153800D3120E6612096012089F120BCD120CD33B
:10154800120E951208A3120960306932856461850C
:101558006462856069756A0179187A0CC3E5339904
:10156800400FC269D26A8A35856461856463021551
:1015780086C3E55C940140030214DC02160C306A51
:101588001D206C1AE535147006C26AD26B81DCF531
:1015980035C3E55C940140030214DC02160C753671
:1015A8000078FA79A4E760027803C3E55F9850549D
:1015B800307404E52A604D7888E6B40317207D0569
:1015C800207607A1DC307602A1DC206C07D26C857E
:1015D8006461A11B78F0306C058564617820C3E5EF
:1015E8004198500281DC306C1BC26CC27D3076029F
:1015F800D27DD26A75351285646181DC0536E55C79
:101608006002C10F753600C2AF120F0C7887E6FE74
:101618007602120F8D7887EEF6E4F522F523F5248D
:10162800F525F526F565752C00752D00D2AF120548
:10163800A2120F0C78A4E66006D291D293D295300C
:101648007409C3E53694044002219E61C5901A0DC1
:1016580078201216D9E520B4550CA31216D9E52026
:10166800B4AA03021677120F211216970216969043
:101678001A0378807B0A1216D9A308DBF9901A0F8F
:10168800788C7B191216D9A308DBF9901A2822C284
:10169800AF12171C1216F9901A00740E1216DEA358
:1016A800744B1216DEA374151216DE901A03788096
:1016B8007B0A1216DDA308DBF9901A0F788C7B19C8
:1016C8001216DDA308DBF912172F12170D901A282E
:1016D80022E493F622E6438F01538FFDFFC3E5838F
:1016E800941C400122EF857CB7857DB7F0538FFEAF
:1016F80022438F02438F01857CB7857DB7901A0DF1
:10170800F0538FFC22901A0D7455D1DE901A0E7486
:10171800AAD1DE227A3079D07820901A40D1D9E542
:1017280020F709A3DAF7227A3079D0901A40E7D166
:10173800DE09A3DAF922AB74A875BB01027980BB74
:1017480002027981BB03027982BB04027984BB055A
:10175800027986BB06027992BB07027987BB080229
:1017680079A3BB0902799CBB0A027988BB0B027971
:1017780089E8F7227C051205A7DCFB22C2AF120517
:10178800B71205BE1205C51205CC1205981205B789
:101798001205BE1205C51205CC1205981205B7121E
:1017A80005BE1205C51205CCD2AF22C2AF1205CCB8
:1017B8001205C51205BE1205B71205981205CC12FE
:1017C80005C51205BE1205B71205981205CC1205FB
:1017D800C51205BE1205B7D2AF22AE74AF75C2AF3F
:1017E8001205B71205B71205B7120598DEF21205F1
:1017F800CC120598DFF8D2AF2212178412177C1288
:10180800177C7574017575017576001217E27C05F1
:10181800AD5C1205A7C3ED955C70F5C3E55C94015A
:10182800400AC3E55C94FF403702184512173E1280
:101838001697121784C2AF75EF1612177CDCD10504
:1018480076C3E5769403500280C112177C0575E5CE
:10185800741490009F93F808C3E57598500280A807
:0F18680012177C12177C0574C3E574940C5002A0
:101877008094120F21121697C2AF75EF1612177CBC
:0319FD000210EFE6
:101A00000E4B15090904FF03FF0903010155AA0143
:101A1000FFFFFFFFFF03FFFFFF0AF0505004FF032B
:091A2000007DFF0101000301FF3C
:101A40002346435F466169727956325F33304123E2
:101A500023424C48454C492346383530232020202A
:101A60002020202020202020202020202020202076
:101C0000C2AFC2D37597DE7597AD7581C075A90057
:101C100043FF80752438752503B1DB7529A5752A26
:101C2000F175E34043F12053A4DF75D4FFD2857DE5
:101C3000FA780379E67C10752200752300901DE880
:101C40007B0675249875250130850281482085081A
:101C5000D8FBD9F9DCF781BA308508D8FBD9F9DC93
:101C6000F781BAB19BE493A3C39A6004DDC381BA40
:101C7000DBDBB18D600281317B08E493FAA3B16EA6
:101C8000DBF87A30B16E752200752300B18DEAFC65
:101C9000EBFDC3ED94FE400EB18D8A278B28ED300D
:101CA000E0048A828B83B18D7AC270D8C3ED94FE32
:101CB000601950CEBD0029EC600F7520007521FF22
:101CC000752900752A000200008100A827A92808AC
:101CD00009D804D90281DDB191EAF281D10D81A642
:101CE000C3ED94035051EDA2E092007AC5C3E582A2
:101CF0009400E583941C508C200010438F02438F86
:101D0000018529B7852AB7F0300027A827A9280818
:101D100009438F01538FFDD804D902A132C3E58353
:101D2000941C4003A3A117E28529B7852AB7F0A325
:101D3000A117538FFC81827AC1BD030CE493A3FAEF
:101D4000B152DCF8B14A81828184AA22AB23B16E00
:101D5000EBFAEA6222752608C3E52313F523E52290
:101D600013F52250066323A0632201D526EAB1DBD6
:101D7000B1DB75260AEAF4200102D285300102C2E5
:101D800085B1DBC3134002C201D526EB22B191EA33
:101D9000FB208502A191308502A196752608AE240C
:101DA000AF25C3EF13FFEE13FEB1DFB1DBC3EA13C0
:101DB0003085024480FA30E703632201C3E5231330
:101DC000F523E52213F52250066323A0632201D5F3
:101DD00026D9E52265236523F52222AE24AF250E00
:101DE0000FDEFEDFFCD20122424C48656C693437BD
:061DF0003164F850060109
:00000001FF
