:030000000219FDE5
:03000B000200AA46
:03002B0002015C73
:03005B000202E8B6
:030073000202D5B1
:1000800002030406080C10182030406080040608A3
:100090000C10182030406080A0C00003070F1F0D17
:1000A0000D0403060D0503030202C2AFC0D0C0E079
:1000B000206214E5256009E473E525F4F58AD2622F
:1000C000D0E0D0D0D2AF3285268AC262E526F46075
:1000D0002F30682520720DD0E0D0D0D292D291D2AC
:1000E00090D2AF32D292D291D290206F0C2065097B
:1000F000740AD5E0FDE57B4290D0E0D0D0D2AF329B
:10010000758A00C28DD26201F901B9306805206597
:1001100002C29201B9306805206502C29101B9306E
:100120006805206502C29001B9C29330680A206553
:10013000077408D5E0FDC29201B9C29430680A2064
:1001400065077408D5E0FDC29101B9C29530680A0F
:100150002065077408D5E0FDC29001B9C2AFC2ADF9
:1001600053E6EFC0D0C0E0D2D3D2AFC2CEE52A6012
:1001700007207449152A21BD7800790020742EE5E6
:1001800080307E01F430E40278FF53DACF207E0322
:1001900043DA20307E0343DA10C2D8C271E58030E2
:1001A0007E01F430E40279FFC3E89970CB3061033B
:1001B000752A40207403752A40885CD27020740D23
:1001C000E52B6004152B21CD43DA01C2D820700243
:1001D00021E0A85C206102C27020740221DE882226
:1001E0007882B6040385222420CF0AD0E0D0D04301
:1001F000E610D2AD32C2CF053A7802E52A6005306A
:100200007402152AC3E55C94014005755F00412125
:10021000756000756900E55F2401F55F5003755F47
:10022000FF7982B7020D306E1DC3E522943240166D
:10023000854C227982B7030E306E0BC3E5229432CF
:100240004004798E8722C3E5239522600840041577
:100250002341550523D8CA0569E56970021569D59A
:100260006A69756A017808E56B60497805C3E569D4
:10027000956B4057C3E569956C50087801756A0322
:1002800002028FC3E569956D50057801756A01C357
:10029000E5629524401E7982B7040241C0206E14A5
:1002A000852462E569046003856B69756A017523BD
:1002B0003C0202CBE5622850057562FF41C0F56241
:1002C000E5620470067560FF7569FFD0E0D0D04329
:1002D000E610D2AD32C2AF53E67F7592FA7593FF46
:1002E000C260759104D2AF32C2AF53E6EFC2ADC067
:1002F000D0C0E0C0F0D2D3D2AFA8FBA9FCC2D830A6
:100300007102614F53DACF207E0343DA10307E034F
:1003100043DA20D271E580307E01F420E4026126C8
:1003200088278928A12C53DACF207E0343DA203096
:100330007E0343DA10C2D8C271307402A11878006B
:10034000E580307E01F430E402A118885CA10053FE
:10035000DACF207E0343DA20307E0343DA10C27105
:10036000206102812853DACF207E0343DA10307EE9
:100370000343DA20C2D8D27188578958C3E895550B
:10038000F8E99556F97B007E087A00C3E8948CE979
:1003900094005005755B00811A882178A2E6A82197
:1003A0006055C3E894C8E994005008E4D2E4FB7AAD
:1003B0000A61F5C3E89468E994015008E4D2E3FBCC
:1003C0007A0F61F5C3E894D0E994025008E4D2E2D0
:1003D000FB7A1E61F5C3E894A0E994055008E4D2C5
:1003E000E1FB7A3C61F5C3E89498E994085008E48D
:1003F000D2E0FB7A787E00C3E89559FCE9955AFD76
:1004000030E70AECF42401FCEDF43400FD755B00E8
:10041000C3EC9AED9E5003755B018859895A855744
:10042000558558567802A100C3E89527F8E9952824
:10043000F9C3E913F9E813F8C3E824B4FCE934007C
:10044000FD8162E9C313F9E813F830790281DDE92F
:10045000C313F9E813F830780281DDE9C313FDE82E
:1004600013FC20612CC3EC9482ED9402400281794C
:0F047000ED701EC3EC94C850180529E5297002E1
:10047F001529C3E529940A5002A118755C00D270A2
:10048F00A118E529600215297400207F037896E6EC
:10049F0024FAFEE43400FFC3EC9EFCED9FFD5006F2
:1004AF007800790081E4C3EC94FFED940040067866
:1004BF00FF790081E4EC8572F0A4C5F0A2F733F860
:1004CF007900400302050078FF7900020500E9C3B7
:1004DF0013F9E813F8307C0EE9600278FFC3E813D4
:1004EF0038F8E43400F9C3E894FFE9940040027847
:1004FF00FF885CD270206102A118741FF4552F4B36
:10050F00F52FC274EB7002D274752A4030740375E4
:10051F002A0A306102A12C20740353DAFE207403DF
:10052F00752B20D0F0D0E0D0D0D2AD43E610327989
:10053F000102055C790302055C790A02055C791EEC
:10054F0002055C796402055C79C802055C7817E4E2
:10055F00D5E0FDD8FAD9F6227A147B780205837A92
:10056F00107B8C0205837A0D7BB40205837A0B7B9B
:10057F00C8020583E573D5E001227902E4C294D560
:10058F00E0FDC291D5E0FDD291D5E0FDD294D5E04A
:10059F00FDE920E002C29230E002C290E573D5E09F
:1005AF00FDE920E002D29230E002D2907496D5E0BD
:1005BF00FDD9C9EAF8D5E0FDD8FBDBB8C29422C358
:1005CF007C007D0075F00005F0EA33FAEB33FB5049
:1005DF00F6EB13FBEA13FAC3E9FFE8FEE89AF8E932
:1005EF009BF95004EFF9EEF8B3EC33FCED33FDD586
:1005FF00F0DFEDF9ECF822E889F08A20D2D4F8A9DF
:10060F00F07B0030F70B7BFFF42401F8E9F43400A2
:10061F00F9E88520F0A4ADF0F8E98520F0A4AFF05B
:10062F00FEED2EF974003FFA7C04C3EA13FAE913C6
:10063F00F9E813F8DCF48BF030F70AE8F42401F84A
:10064F00E9F43400F9E889F0C2D4F8A9F0227882ED
:10065F00B604030206FCC3E55C9419401EE52D5455
:10066F00067018206E3678057994E7146007780ABB
:10067F001460027812C3E54198401F306E098564FB
:10068F00627569FF756A01852224E4F544F545F525
:10069F0046F547F548C26E0206FCD26E7994E71410
:1006AF007013E523F43333F913F8E9540104F9E82F
:1006BF0054FE0206F0E714147014E523F4333333B9
:1006CF00F913F8E9540304F9E854FC0206F8E5239A
:1006DF00F433333333F913F8E954070404F9E854C6
:1006EF00F8C39440F8E99400F98844894522C3E59A
:1006FF004113F9E54013F8C3E54498F8E54599F936
:10070F00500CC3E89480E994FF4016020734C3E805
:10071F00947FE994005003020734787F7900020731
:10072F0034788079FF8849894A22E5492546F8E5DA
:10073F004A3547F9854A20E4300701F43548FA3045
:10074F00E709C3EA94F04015020772C3EA940F5009
:10075F000302077278FF79FF7A0F02077278007928
:10076F00007AF0C3E5249561500AC37401952450B3
:10077F000B020790E54A20E70E020790E54A30E7A3
:10078F0006884689478A482278A5E6FAC3E54933A1
:10079F00F8E54A33F9D106E930E70BC3E89480E96D
:1007AF0094FF4013E1CAC3E8947FE994005002E13B
:1007BF00CA787F7900E1CA788079FFE820E715C30E
:1007CF00E52398F84009C3E8940140030207F17844
:1007DF00010207F1E8F424012523F840030207F191
:1007EF0078FF884B2278A6E6FAA847A948D106E9F0
:1007FF0030E70CC3E89401E994FF4016020825C3C3
:10080F00E894FFE99400500302082578FF7900026D
:10081F000825780179FFE920E715C3E54B98F840E3
:10082F0009C3E89401400302084C780102084CE820
:10083F00F42401254BF8400302084C78FF8824224A
:10084F0078FF20692879A1E76023E541601F74FFD5
:10085F008541F0848539F0306A0375F005A4F8C539
:0F086F00F0600278FFC3E895645002A8648863C4
:10087E0022C3E5409440E5419401E5635003140121
:10088E0090046002F563227883E6F520120F197545
:10089E00E89012053E75E89030EDFDA8BDA9BE1298
:1008AE000FC3756EAF756F00C3740013FD74AF6028
:1008BE006613FC74AF2CFC74003DFDECFAEDFBC32B
:1008CE00E89AE99B4014E56E24AFF56EE56F3400AF
:1008DE00F56FEA2CFAEB3DFB80E5AE6EAF6FC3E52C
:1008EE006F13F9E56E13F8C3E913F9E813F87A03F9
:1008FE00C3E913F9E813F8DAF7AA201A7009756E2E
:10090E0000756F000209251AEA6008EE28FEEF391D
:10091E00FFDAF88E6E8F6F2275E890227883E6FFED
:10092E0030EDF9A8BDA9BE0570C3E570940840521C
:10093E00757000E9FA79A0E76044EA7007E5716026
:10094E001B02095EC3E895716010E5715006600CDC
:10095E001402096A0460F902096AE571F571C3941B
:10096E0058401B7561C0C394044013756180C394D5
:10097E0004400B756140C39404400375610075BB60
:10098E000322EFC39401601F74AF601BC3E894FF92
:10099E00E994035012C3E8956EE9956F5009E5612D
:1009AE00600C15610209BCE561F460020561A86185
:1009BE00C3E524985002A824C3E89562400AA862B1
:1009CE00E562F4600385626188258826E570B407C8
:1009DE000375BB1022743279A787F0A4C5F0A2F775
:1009EE0033F8C3E895614002A861882288248825DF
:1009FE0088268864227540007541F022C2AF75C802
:100A0E0020A8CCA9CDAA3A30CF010A75C824D2AFFE
:100A1E00AB3BAC3C883B893CC3E89BF8E99C206926
:100A2E0008F930660261194173AD3D8A3DF9EA9DC0
:100A3E00FA600478FF79FFAE3EAF3F8B3E8C3FA845
:100A4E003BA93CC3E89EF8E99FF9C3E54113FBE5DA
:100A5E004013FAE82AF540E93BF54150067540FF90
:100A6E007541FF41C0AA40AB41AC40AD417E047F11
:100A7E0002C3EB9404400D1E1FC3EB9408400520E7
:100A8E006A021E1FC3ED13FDEC13FCDEF7C3EA9CD6
:100A9E00FAEB9DFBEF6009C3E913F9E813F8DFF7F2
:100AAE00EA28FAEB39FB8A408B4150067BFF8B40DC
:100ABE008B41C3EB94025002D2663069047F03412E
:100ACE00EB7892E6FFC3E537948240110FC3E5370A
:100ADE0094A040010FC3EF940640027F057E02E50D
:100AEE0041C4540FF9E541C454F0F8E540C4540F25
:100AFE0028F8C3E89EFAE99400FB4009C3EA940281
:100B0E00EB940050047A02E4FB6165AA40AB41EB22
:100B1E00C4FEEAC4540F4EFCC3EA9CFAEB9400FBED
:100B2E00C3E813C313F8EA28FAEB3400FB8A408BB0
:100B3E0041C3EB94024002C2667802EBC4FE7B0016
:100B4E00EAC4540F4EFAC3EA98FA4005C394025011
:100B5E00027A027892E6FF306002616585519285D5
:100B6E005293D26043E680C3E49AF8E49BF9306670
:100B7E000261F1E8FAE9FBD3E913FDE813FC8851B1
:100B8E008952C3EF94036038EF20E00DE82CF8E9AA
:100B9E003DF9ECFAEDFB020BBAE828F8E939F9C396
:100BAE00E82402F8E93400F97AFE7BFFC3EF9403E0
:100BBE00400E8A538B54884D894E8C4F8D50812513
:100BCE00885389548A4D8B4E8C4F8D5030691275D7
:100BDE0053F07554FF754FF07550FF7551F0755207
:100BEE00FF8125E8FAD3E813FC8851C3EF94036024
:100BFE0020EF20E007E82CF8ECFA8111E828240217
:100C0E00F87AFEC3EF940340088A53884D8C4F81C7
:100C1E002588538A4D8C4FE568C3335002646BF5BB
:100C2E0068306002812F753402D26043E680E52D74
:100C3E0054066034A840A941C3E913F9E813F8C378
:100C4E00E913F9E813F8306904E92440F9C2AF5307
:100C5E00E67F759100C3E498F594E499F595759146
:0E0C6E0004D26043E680D2AF22D26475430008
:100C7C00752000306C03752040020C96D2647543CD
:100C8C0000752040306C03752000780179012066D6
:100C9C0020E52D54066002C2647914E541C313703B
:100CAC000104F8C3941440027814306904781B7959
:100CBC001B206010E543600C306903D53404D26D01
:100CCC00A14191370543E59BF45440B52002A12B7B
:100CDC0030690908C3E89940011881BD20640A08ED
:100CEC00C3E8994002819681BDC264C2AF53E67FCE
:100CFC007591003066127594007595F8759104D253
:100D0C006043E680D2AF8196E5417EFFC333400558
:100D1C00C3334001FEC3E49E759400F595A108C34E
:100D2C00E5339401500281963064028196D802A179
:100D3C003F81BDC26DC2AF53E67F75910085539460
:100D4C00855495759104854D92854E93D26043E6FA
:100D5C0080D2AFE52D54066008206A020533020DDF
:100D6C007D306D0D206C0A206407158115810216EB
:100D7C00AF2278003064027801E53775F007A4F9EA
:100D8C00E5F028F5F0E9A2F013A2F113A2F213F5A5
:100D9C0037C394785003753778C3E53795384008D6
:100DAC00D265D292D291D290306002A1B4854F928A
:100DBC00855093D26043E68022D2A0207D16C2AF2C
:100DCC00754202C294D293306202C290D2AF759F28
:100DDC0010020FC0C2AF754202C294D295306202AB
:100DEC00C292D2AF759F10020FC0C2A030724320C6
:100DFC007D20C2AF75420390013A757B10D290C230
:100E0C0095306204C291C116D294D2AF759F200264
:100E1C000FC0C2AF75420390013A757B10D292C2DB
:100E2C0093306204C291C136D294D2AF759F000246
:100E3C000FC0207D17C2AF754203900115D29030C0
:100E4C006202C291D2AF759F20020FC0C2AF754231
:100E5C0003900115D292306202C291D2AF759F00FD
:100E6C00020FC0D2A0207D16C2AF754204C293D22D
:100E7C0095306202C291D2AF759F00020FC0C2AF13
:100E8C00754204C295D293306202C291D2AF759F63
:100E9C0020020FC0C2A0307243207D20C2AF754229
:100EAC0005900129757B08D291C294306204C292DC
:100EBC00C1C0D293D2AF759F10020FC0C2AF7542A2
:100ECC000590014B757B20D291C294306204C29084
:100EDC00C1E0D295D2AF759F10020FC0207D17C212
:100EEC00AF75420590010BD291306202C292D2AF23
:100EFC00759F10020FC0C2AF75420590011FD291B1
:100F0C003062EBC290D2AF759F10020FC0D2A020FE
:100F1C007D16C2AF754206C295D294306202C2925F
:100F2C00D2AF759F20020FC0C2AF754206C293D2DA
:100F3C0094306202C290D2AF759F00020FC0C2A063
:100F4C00307243207D20C2AF75420190014B757BFE
:100F5C0020D292C293306204C290E16AD295D2AF91
:100F6C00759F00020FC0C2AF754201900129757BBD
:100F7C0008D290C295306204C292E18AD293D2AF69
:100F8C00759F20020FC0207D17C2AF7542019001E2
:100F9C001FD292306202C290D2AF759F00020FC076
:100FAC00C2AF75420190010BD290306202C292D254
:100FBC00AF759F20C26522900109757B00D292D239
:100FCC0091D290C293C294C295C262227880760765
:100FDC000876070876010876040876FF0876FF087D
:100FEC00760A087602087601087601788C76010874
:100FFC0076000876B40876FF0876FF0876FF087648
:10100C00030876FF0876010876FF08760A0876F062
:10101C000876780876C80876040876FF0876010802
:10102C00760008767D08760A08760108760108763F
:10103C00000876FF087601227887E6FFC272BF03AC
:10104C0002D2727888C27DE630E102D27DC27E780F
:10105C0089E630E102D27EC3EF94026008758E01FE
:0F106C00D273021076758E00C273227880E6145C
:10107B009000809378A5F67881E6149000809378A1
:10108B00A6F67886E61490008D9378A7F6789FE6FF
:10109B00F87005756B0001BDC3E89411400278111F
:1010AB00E82828F56B256B256B28F56C256B282814
:1010BB00F56D7886E6F539C39402500375390278DD
:1010CB009CE67538FFB402037538A0B4030375387A
:1010DB008278A3E61490009A93F566120FC322222E
:1010EB007896E6FA7897E6FB7888E6B40305C3EBC7
:1010FB00940EFB307F047A007BFFC3EB9AFCC39406
:10110B008250027C827572000572EC8572F0A4C36A
:10111B00E5F0947D40F222D27F11EB12054D1205C2
:10112B004D7A007B007C10120543E55C2AFA7400B3
:10113B003BFBDCF37C04C3EB13FBEA13FADCF7FE9B
:10114B00C27F11EB227ADED293C290744BD5E0FDB5
:10115B00D290C29379027817E4D5E0FDD8FAD9F68C
:10116B00796E741ED5E0FDD9F9DADC227A84D2933C
:10117B00C290744BD5E0FDD290C29379037817E4FB
:10118B00D5E0FDD8FAD9F6792B741ED5E0FDD9F947
:10119B00DADC227A84D293C290744BD5E0FDD290E4
:1011AB00C29379027817E4D5E0FDD8FAD9F6791D08
:1011BB00741ED5E0FDD9F9DADC22757C00757D0053
:1011CB00E5EF20E6037520000520903FFFE5201496
:1011DB006006901DFF1460009304600375EF1653B7
:1011EB00D9BF75D9087581C043FF8012053E75EFD5
:1011FB000643B203E5B3240220E70DF521E5E32016
:10120B00E0068521B343E301120FC37580FF75A47C
:10121B000075F1D475D4EF75908775A54075F2FF05
:10122B0075D5BF75A60175E24275DB4675EA0212EC
:10123B000FC3E4F8F6D8FD756801120FD812170624
:10124B0078988673753001C2AF120557315012056D
:10125B0052315012055231501205523177319E31B5
:10126B00501205523177319E3150315012182D12D8
:10127B000557120557120552C2AF757C00757D00DC
:10128B0078FA79FA308407D9FBD8F7021C0011449D
:10129B00117711EA11EB78988673120FC3758810CA
:1012AB0075890275C82475910475D84075A8227587
:1012BB00B80275E690759B80759D0075D10E75BC57
:1012CB005875BB0375BA1175E88012053ED2AF1283
:1012DB00089575360053DACF207E0343DA20307E33
:1012EB000343DA1043DA01C2D8C271120557D26137
:1012FB007B037A0CE55B70077A0CDB03021283121B
:10130B00054D207003021283C270E55CC39402404A
:10131B00E1E52F541F855E5DF55EB55DD5DAD5C26F
:10132B006153DACF207E0343DA20307E0343DA1099
:10133B00C2D8C27178A2E67008D274E52F54E0F5DA
:10134B002FC275752900120552307409C3E5299413
:10135B000A4002D27512054378023074027800C33A
:10136B00E55C9840F0C2AF120567120567D2AF1269
:10137B000557754C00120543788CE6C39401500356
:10138B0002146DE530C39401500302146D757CA5F6
:10139B00757DF1207435C3E55C94FF500302146D29
:1013AB00C2AF12057CD2AF120552C3E55C9401505B
:1013BB00EFC2AF120567120548120567D2AF1205CF
:1013CB0052C3E55C94FF40E90218B27F05D27F114E
:1013DB00EB120552C2AFC27F11EBAE5CC3E55C945E
:1013EB007FD2AF5002817D12053EC2AF12057CD277
:1013FB00AFDFDA3122C3EE94057897F61205571258
:10140B0018357F0AD27F11EB120552C2AFC27F1182
:10141B00EBAE5CC3E55C947FD2AF50E612053EC2E7
:10142B00AF120567120548120567D2AFDFD631221E
:10143B00EE24037896F6F87997E7C39482400398E5
:10144B005006E824827897F612055712174812189F
:10145B006412055211EBC3E55C94FF5002619802D4
:0F146B0018B2757C00757D00C3E55C954C40039D
:10147A00855C4C12055278017988E7B40302780535
:10148A00C3E55C9840026180C2AF12057C12057CFC
:10149A00D2AF120557753000E4F531F5320531E562
:1014AA0031F4703F0532789AE6781914601278326E
:1014BA0014600D787D14600878FA146003753200A0
:1014CA00C3E53298401D120FC312053E153275311D
:1014DA000078998673C2AF12057CD2AF789886736A
:1014EA00120552120548E52A7005307402418378C4
:1014FA00012074027806C3E55C9840A1120552E502
:10150A002A7003021283C2AF120FC3E4F522F52335
:10151A00F524F525F526F567D2AF7885E6C333F5C8
:10152A0065E4F544F545F546F547F548F570F52CBB
:10153A00F52DF53775700875BB1012053E12092690
:10154A0030EDFDA8BDA9BEE97001F8887112092A1B
:10155A0075700875BB101144C2AF7561FF1209E3BB
:10156A00852261852262852263D2AF7522017524A4
:10157A0001752501752601856069756A017888E615
:10158A00B40307C27D307602D27DD268D269753340
:10159A0000120F19120F4A120A03120A0A120A0338
:1015AA00120A0A120A03120C8812065D120D7E1222
:1015BA000DC5120A0A120C77306E031206FD206658
:1015CA000312084F30660312087F120D7E120DF6C1
:1015DA00120A0A120C88306E03120739120D7E1293
:1015EA000E6F120A0A120C77306E03120797120D49
:1015FA007E120EA0120A0A120C88306E031207F429
:10160A00120D7E120F19120A0A120926120C7712EB
:10161A000D7E120F4A12092A120A0A30692C8564B1
:10162A0061856462856069756A0179187A0CC3E517
:10163A0033994009C269D26A8A35021654C3E55CF5
:10164A00940140030215B00216B7306A1D206C1AC5
:10165A00E535147006C26AD26BA1B0F535C3E55CF4
:10166A00940140030215B00216B7753600C3E55F50
:10167A0094014009856462856069756A0178FA791E
:10168A00A4E760027803C3E55F985021307404E54B
:10169A002A601A78F0306C058564617820C3E541C8
:1016AA00985002A1B00536E55C6002C1BA753600F1
:1016BA00C2AF120FC37887E6FE760211447887EE2E
:1016CA00F6E4F522F523F524F525F526F565752CBE
:1016DA0000752D00D2AF120552120FC378A4E6602E
:1016EA0006C292C291C290307406E52A7002418302
:1016FA00788DE6C394014002616081A2901A0D7848
:10170A002012178AE520B4A50CA312178AE520B483
:10171A005A03021728120FD8121748021747901AAD
:10172A000378807B0A12178AA308DBF9901A0F78CC
:10173A008C7B1912178AA308DBF9901A2822C2AFE8
:10174A001217CD1217AA901A00740E12178FA374CB
:10175A004B12178FA3741512178F901A0378807B78
:10176A000A12178EA308DBF9901A0F788C7B1912CC
:10177A00178EA308DBF91217E01217BE901A282257
:10178A00E493F622E6438F01538FFDFFC3E583946A
:10179A001C400122EF857CB7857DB7F0538FFE226E
:1017AA00438F02438F01857CB7857DB7901A0DF070
:1017BA00538FFC22901A0D74A5F18F901A0E745A49
:1017CA00F18F227A3079D07820901A40F18AE52078
:1017DA00F709A3DAF7227A3079D0901A40E7F18F25
:1017EA0009A3DAF922AB74A875BB01027980BB029E
:1017FA00027981BB03027982BB04027994BB050298
:10180A007983BB06027986BB07027992BB08027903
:10181A0087BB0902799CBB0A027988BB0B027989CA
:10182A00E8F7227C05120557DCFB22C2AF120567D6
:10183A0012056E12057512057C120548120567120B
:10184A00056E12057512057C120548120567120508
:10185A006E12057512057CD2AF22C2AF12057C1238
:0E186A00057512056E12056712054812057C01
:1018780012057512056E12056712054812057C12CD
:10188800057512056E120567D2AF22AE74AF75C228
:10189800AF120567120567120567120548DEF212D6
:1018A800057C120548DFF8D2AF221135112D112D14
:1018B80075740175750175760011937C05AD5C1220
:1018C8000557C3ED955C70F5C3E55C9401400AC308
:1018D800E55C94FF40340218F01217EF1217481114
:1018E80035C2AF75EF16112DDCD30576C3E57694B6
:1018F80003500280C4112D0575E5741490009F9360
:10190800F808C3E57598500280AC112D112D0574A7
:10191800C3E574940C5002809A120FD8121748C26B
:06192800AF75EF16112D52
:0319FD000211C50F
:101A00000E4B1507070104FFFF0A020101A55A0149
:101A100000B4FFFFFF03FF01FF0AF078C804FF01D5
:091A200000FF0A010100FF01FFB3
:101A400023484B696E67323041232020202020201C
:101A500023424C48454C4923463333302320202031
:101A60002020202020202020202020202020202076
:101C0000C2AFC2D353D9BF7581C043B20343FF8073
:101C1000752438752503B1DC7529A5752AF175E29F
:101C20004043F11053A4EF75D4FFD2847DFA7803BA
:101C300079E67C10752200752300901DE97B0675FE
:101C400024987525013084028145208408D8FBD969
:101C5000F9DCF781B7308408D8FBD9F9DCF781B714
:101C6000B19CE493A3C39A6004DDC381B7DBDBB10D
:101C70008E6002812E7B08E493FAA3B16FDBF87AC1
:101C800030B16F752200752300B18EEAFCEBFDC305
:101C9000ED94FE400EB18E8A278B28ED30E0048A49
:101CA000828B83B18E7AC270D8C3ED94FE601950D6
:101CB000CEBD002BEC600F7520007521FF7529004B
:101CC000752A000200008100A827A9280809D80465
:101CD000D90281DCB192EA89AAF281CE0D81A3C337
:101CE000ED94035053EDA2E092007AC5C3E58294CF
:101CF00000E583941C508A200010438F02438F011B
:101D00008529B7852AB7F0300029A827A92808090E
:101D1000438F01538FFDD804D902A133C3E58394C7
:101D20001C4003A3A11689AAE28529B7852AB7F02A
:101D3000A3A116538FFC817F7AC1BD030CE493A34A
:101D4000FAB153DCF8B14B817F8181AA22AB23B178
:101D50006FEBFAEA6222752608C3E52313F523E543
:101D60002213F52250066323A0632201D526EAB18F
:101D7000DCB1DC75260AEAF4200102D284300102CB
:101D8000C284B1DCC3134002C201D526EB22B1925A
:101D9000EAFB208402A192308402A197752608AE46
:101DA00024AF25C3EF13FFEE13FEB1E0B1DCC3EAAD
:101DB000133084024480FA30E703632201C3E52331
:101DC00013F523E52213F52250066323A0632201B5
:101DD000D526D9E52265236523F52222AE24AF2539
:101DE0000E0FDEFEDFFCD20122424C48656C6934E6
:071DF000373164F3300601F6
:00000001FF
