:030000000219FDE5
:03000B000200A848
:03002B0002015A75
:03005B000202E5B9
:030073000202D2B4
:1000800002030406080C10182030406080040608A3
:100090000C10182030406080A0C00003070F1F051F
:1000A000050D050305030302C2AFC0D0C0E0206206
:1000B00014E5256009E473E525F4F58AD262D0E001
:1000C000D0D0D2AF3285268AC262E526F4602F30C6
:1000D000682520720DD0E0D0D0C292C291C290D2D9
:1000E000AF32C292C291C290206F0C206509740A8F
:1000F000D5E0FDE57B4290D0E0D0D0D2AF32758A1A
:1001000000C28DD26201F701B7306805206502D2C6
:100110009201B7306805206502D29101B7306805B9
:10012000206502D29001B7C29330680A2065077437
:1001300008D5E0FDD29201B7C29430680A20650765
:100140007408D5E0FDD29101B7C29530680A2065E8
:10015000077408D5E0FDD29001B7C2AFC2AD53E637
:10016000EFC0D0C0E0D2D3D2AFC2CEE52A60072024
:100170007449152A21BB7800790020742EE580305F
:100180007E01F430E40278FF53DACF207E0343DAB5
:1001900020307E0343DA10C2D8C271E580307E0180
:1001A000F430E40279FFC3E89970CB306103752A1B
:1001B00018207403752A18885CD27020740DE52B02
:1001C0006004152B21CB43DA01C2D8207002413ED6
:1001D000A85C206102C270207431C3E894F040032F
:1001E00074F0F8E8C4540F28F87984B70302410B7F
:1001F000C313C3138721200802C313200A06C3C8F0
:1002000098F8410B28F8500374FFF8C3E89565503F
:1002100003E565F88822E52D54066022206B1FE572
:1002200036C333C333F8E564C313C313F9C395224C
:1002300040028922E82522F52250037522FF8522FB
:1002400024A824C3E52495614002A8618825E566B9
:1002500070024182C3E8AA669A5003E8FAE4F9EA18
:10026000C333FBE568F45B29400D2567F8E567605B
:10027000021567400B41820AC3E5679A5002056781
:1002800078FF8826C26FC3E52694F84002D26F201B
:10029000CF0AD0E0D0D043E610D2AD32C2CF053A7B
:1002A0007801E52A6005307402152AC3E55C9401E3
:1002B0004005755F0041C8756000756900E55F2401
:1002C00001F55F5003755FFFD0E0D0D043E610D258
:1002D000AD32C2AF53E67F7592FA7593FFC2607577
:1002E0009104D2AF32C2AF53E6EFC2ADC0D0C0E08E
:1002F000C0F0D2D3D2AFA8FBA9FCC2D83071026142
:100300004C53DACF207E0343DA10307E0343DA20E9
:10031000D271E580307E01F420E4026123882789D0
:1003200028A17153DACF207E0343DA20307E0343C5
:10033000DA10C2D8C271307402A15D7800E5803055
:100340007E01F430E402A15D885CA14553DACF2040
:100350007E0343DA20307E0343DA10C2712061024B
:10036000812553DACF207E0343DA10307E0343DA4F
:1003700020C2D8D27188578958C3E89555F8E995B5
:1003800056F97B007E087A00C3E8948CE99400500B
:1003900005755B008117882178A2E6A8216055C306
:1003A000E894C8E994005008E4D2E4FB7A0A61F2C8
:1003B000C3E89468E994015008E4D2E3FB7A0F6142
:1003C000F2C3E894D0E994025008E4D2E2FB7A1E2A
:1003D00061F2C3E894A0E994055008E4D2E1FB7A05
:1003E0003C61F2C3E89498E994085008E4D2E0FB39
:1003F0007A787E00C3E89559FCE9955AFD30E70A02
:10040000ECF42401FCEDF43400FD755B00C3EC9AC0
:10041000ED9E5003755B018859895A85575585585B
:10042000567802A145C3E89527F8E99528F9C3E96C
:1004300013F9E813F8C3E824B4FCE93400FD815F44
:10044000E9C313F9E813F8307902A122E9C313F9DB
:10045000E813F8307802A122E9C313FDE813FC2069
:10046000612CC3EC9482ED940240028176ED701E03
:0F047000C3EC94C850180529E52970021529C35B
:10047F00E529940A5002A15D755C00D270A15DE57B
:10048F0029600215297888E6F97400207F0878968C
:10049F00B90302789EE624FAFEE43400FFC3EC9E13
:1004AF00FCED9FFD9208B90310A2085007207609B2
:1004BF00D27681C8307602C276A2085016B9030DE3
:1004CF00ECF42401FCEDF43400FD0204E278007931
:1004DF0000A129B90315EC33FCED33FDC3EC940AED
:1004EF00FCED9400FD50047C007D00C3EC94FFED07
:1004FF009400400678FF7900A129EC8572F0A4C51D
:10050F00F0A2F733F87900400302054578FF790030
:10051F00020545E9C313F9E813F8307C0EE96002D0
:10052F0078FFC3E81338F8E43400F9C3E894FFE91F
:10053F009400400278FF885CD270206102A15D7444
:10054F001FF4552F4BF52FC274EB7002D274752A1E
:10055F0018307403752A0A306102A1712074035395
:10056F00DAFE207403752B06D0F0D0E0D0D0D2ADD8
:10057F0043E6103279010205A179030205A1790A38
:10058F000205A1791E0205A179640205A179C802AD
:10059F0005A17817E4D5E0FDD8FAD9F6227A147BB5
:1005AF00780205C87A107B8C0205C87A0D7BB402DD
:1005BF0005C87A0B7BC80205C8E573D5E00122791F
:1005CF0002E4C294D5E0FDD291D5E0FDC291D5E011
:1005DF00FDD294D5E0FDE920E002D29230E002D2C4
:1005EF0090E573D5E0FDE920E002C29230E002C24F
:1005FF00907496D5E0FDD9C9EAF8D5E0FDD8FBDBBC
:10060F00B8C29422C37C007D0075F00005F0EA3378
:10061F00FAEB33FB50F6EB13FBEA13FAC3E9FFE8EF
:10062F00FEE89AF8E99BF95004EFF9EEF8B3EC33D2
:10063F00FCED33FDD5F0DFEDF9ECF822E889F08A17
:10064F0020D2D4F8A9F07B0030F70B7BFFF4240104
:10065F00F8E9F43400F9E88520F0A4ADF0F8E98565
:10066F0020F0A4AFF0FEED2EF974003FFA7C04C326
:10067F00EA13FAE913F9E813F8DCF48BF030F70A10
:10068F00E8F42401F8E9F43400F9E889F0C2D4F869
:10069F00A9F02222C3E54113F9E54013F8C3E5445D
:1006AF0098F8E54599F9500CC3E89480E994FF4018
:1006BF00160206DAC3E8947FE9940050030206DAC3
:1006CF00787F79000206DA788079FF8849894A2293
:1006DF00E5492546F8E54A3547F9854A20E43007CC
:1006EF0001F43548FA30E709C3EA94F040150207E0
:1006FF0018C3EA940F500302071878FF79FF7A0F97
:10070F00020718780079007AF0C3E5249561500A42
:10071F00C374019524500B020736E54A20E70E02F9
:10072F000736E54A30E706884689478A482278A582
:10073F00E6FAC3E54933F8E54A33F9D14BE930E737
:10074F000BC3E89480E994FF4013E170C3E8947FF2
:10075F00E994005002E170787F7900E17078807938
:10076F00FFE820E715C3E52398F84009C3E8940193
:10077F0040030207977801020797E8F42401252325
:10078F00F8400302079778FF884B2278A6E6FAA86D
:10079F0047A948D14BE930E70CC3E89401E994FF2E
:1007AF0040160207CBC3E894FFE9940050030207F9
:1007BF00CB78FF79000207CB780179FFE920E715A5
:1007CF00C3E54B98F84009C3E8940140030207F2D0
:1007DF0078010207F2E8F42401254BF840030207E1
:1007EF00F278FF88242278FF20692879A1E7602317
:1007FF00E541601F74FF8541F0848539F0306A034D
:10080F0075F005A4F8C5F0600278FFC3E895645051
:10081F0002A864886322C3E5409440E5419401E552
:10082F00635003140136046002F5632202083E226E
:10083F0075E890227883E6FF30EDF9A8BDA9BE05D3
:10084F0070C3E57094084052757000E9FA79A0E71B
:10085F006044EA7007E571601B020877C3E8957181
:0F086F006010E5715006600C140208830460F9F4
:10087E00020883E571F571C39458401B7561C0C3BE
:10088E0094044013756180C39404400B756140C39A
:10089E009404400375610075BB0322E561F46002A8
:1008AE000561E570B4070375BB1022743279A78712
:1008BE00F0A4C5F0A2F733F8C3E895614002A86131
:1008CE0088228824882588268864227540007541F0
:1008DE00F022C2AF75C820A8CCA9CDAA3A30CF015C
:1008EE000A75C824D2AFAB3BAC3C883B893CC3E80D
:1008FE009BF8E99C206908F930660221EF2149AD89
:10090E003D8A3DF9EA9DFA600478FF79FFAE3EAF6D
:10091E003F8B3E8C3FA83BA93CC3E89EF8E99FF96C
:10092E00C3E54113FBE54013FAE82AF540E93BF530
:10093E004150067540FF7541FF2196AA40AB41AC70
:10094E0040AD417E047F02C3EB9404400D1E1FC3D5
:10095E00EB94084005206A021E1FC3ED13FDEC1335
:10096E00FCDEF7C3EA9CFAEB9DFBEF6009C3E913CB
:10097E00F9E813F8DFF7EA28FAEB39FB8A408B41E6
:10098E0050067BFF8B408B41C3EB94025002D26624
:10099E003069047F0321C17892E6FFC3E537948264
:1009AE0040110FC3E53794A040010FC3EF940640EA
:1009BE00027F057E02E541C4540FF9E541C454F0AF
:1009CE00F8E540C4540F28F8C3E89EFAE99400FBFA
:1009DE004009C3EA9402EB940050047A02E4FB410E
:1009EE003BAA40AB41EBC4FEEAC4540F4EFCC3EA33
:1009FE009CFAEB9400FBC3E813C313F8EA28FAEB56
:100A0E003400FB8A408B41C3EB94024002C26678ED
:100A1E0002EBC4FE7B00EAC4540F4EFAC3EA98FA06
:100A2E004005C3940250027A027892E6FF306002CB
:100A3E00413B855192855293D26043E680C3E49A3E
:100A4E00F8E49BF930660241C7E8FAE9FBD3E913F3
:100A5E00FDE813FC88518952C3EF94036038EF20F0
:100A6E00E00DE82CF8E93DF9ECFAEDFB020A90E80E
:100A7E0028F8E939F9C3E82402F8E93400F97AFED6
:100A8E007BFFC3EF9403400E8A538B54884D894EDF
:100A9E008C4F8D5041FB885389548A4D8B4E8C4F11
:100AAE008D503069127553F07554FF754FF07550B7
:100ABE00FF7551F07552FF41FBE8FAD3E813FC883D
:100ACE0051C3EF94036020EF20E007E82CF8ECFA16
:100ADE0041E7E8282402F87AFEC3EF940340088A1F
:100AEE0053884D8C4F41FB88538A4D8C4FE568C31C
:100AFE00335002646BF5683060026105753402D2C2
:100B0E006043E680E52D54066034A840A941C3E950
:100B1E0013F9E813F8C3E913F9E813F8306904E997
:100B2E002440F9C2AF53E67F759100C3E498F59463
:100B3E00E499F595759104D26043E680D2AF22D246
:100B4E0064754300752000306C03752040020B6CF9
:100B5E00D264754300752040306C03752000780117
:100B6E007901206620E52D54066002C2647914E5F1
:100B7E0041C313700104F8C3941440027814306911
:100B8E0004781B791B206010E543600C306903D597
:100B9E003404D26D8117710D0543E59BF45440B5B5
:100BAE002002810130690908C3E899400118619358
:100BBE0020640A08C3E8994002616C6193C264C262
:100BCE00AF53E67F7591003066127594007595F8F7
:100BDE00759104D26043E680D2AF616CE5417EFF31
:100BEE00C3334005C3334001FEC3E49E759400F544
:100BFE009561DEC3E53394015002616C306402618D
:100C0E006CD80281156193C26DC2AF53E67F7591A8
:100C1E0000855394855495759104854D92854E9318
:100C2E00D26043E680D2AFE52D54066008206A02FA
:100C3E000533020C53306D0D206C0A2064071581AC
:100C4E00158102159B2278003064027801E5377514
:100C5E00F007A4F9E5F028F5F0E9A2F013A2F113DC
:0E0C6E00A2F213F537C394785003753778C39C
:100C7C00E53795384008D265C292C291C290306077
:100C8C0002818A854F92855093D26043E680222060
:100C9C007D16C2AF754202C294D293306202D290DA
:100CAC00D2AF759F10020E8AC2AF754202C294D2A7
:100CBC0095306202D292D2AF759F10020E8A3072BA
:100CCC0043207D20C2AF754203900138757B10C262
:100CDC0090C295306204D29181E8D294D2AF759FC4
:100CEC0020020E8AC2AF754203900138757B10C288
:100CFC0092C293306204D291A108D294D2AF759F64
:100D0C0000020E8A207D17C2AF754203900113C2F8
:100D1C0090306202D291D2AF759F20020E8AC2AF80
:100D2C00754203900113C292306202D291D2AF7518
:100D3C009F00020E8A207D16C2AF754204C293D268
:100D4C0095306202D291D2AF759F00020E8AC2AF6B
:100D5C00754204C295D293306202D291D2AF759F84
:100D6C0020020E8A307243207D20C2AF754205905E
:100D7C000127757B08C291C294306204D292A18E75
:100D8C00D293D2AF759F10020E8AC2AF75420590F6
:100D9C000149757B20C291C294306204D290A1AEFD
:100DAC00D295D2AF759F10020E8A207D17C2AF75F7
:100DBC004205900109C291306202D292D2AF759F66
:100DCC0010020E8AC2AF75420590011DC2913062AD
:100DDC00EBD290D2AF759F10020E8A207D16C2AF57
:100DEC00754206C295D294306202D292D2AF759FF0
:100DFC0020020E8AC2AF754206C293D294306202B0
:100E0C00D290D2AF759F00020E8A307243207D20A3
:100E1C00C2AF754201900149757B20C292C29330DA
:100E2C006204D290C134D295D2AF759F00020E8A63
:100E3C00C2AF754201900127757B08C290C29530F4
:100E4C006204D292C154D293D2AF759F20020E8A03
:100E5C00207D17C2AF75420190011DC29230620213
:100E6C00D290D2AF759F00020E8AC2AF754201902C
:100E7C000109C290306202D292D2AF759F20C26536
:100E8C0022900107757B00C292C291C290C293C29C
:100E9C0094C295C26222788076FF0876FF0876FFAE
:100EAC000876FF08760308760408760B08760308A4
:100EBC007601087601788C76010876FF0876FF08B3
:100ECC0076FF0876FF0876FF0876030876FF08762B
:100EDC00FF0876FF08760A0876F00876FA0876FAA4
:100EEC000876040876FF08760108760008767D08F7
:100EFC0076FF0876010876010876000876030876F6
:100F0C0001227887E6FFC272BF0302D2727888E6AC
:100F1C00C394036008C27DE630E102D27DC27E78C4
:100F2C0089E630E102D27EC3EF94026008758E012F
:100F3C00D273020F46758E00C273227880E614902D
:100F4C0000809378A5F67881E6149000809378A6BB
:100F5C00F67886E61490008D9378A7F67886E6F5F9
:100F6C0039C394025003753902789CE67538FFB486
:100F7C0002037538A0B4030375388278A3E6149085
:100F8C00009A93F566D18D22227896E6FA7897E648
:100F9C00FB7888E6B40305C3EB940EFB307F047A30
:100FAC00007BFFC3EB9AFCC3948250027C82757267
:100FBC00000572EC8572F0A4C3E5F0947D40F2223A
:100FCC00D27FF1951205921205927A007B007C106B
:100FDC00120588E55C2AFA74003BFBDCF37C04C345
:100FEC00EB13FBEA13FADCF7FEC27FF195227ADEF3
:100FFC00D293D290744BD5E0FDC290C29379027813
:10100C0017E4D5E0FDD8FAD9F6796E741ED5E0FD5B
:10101C00D9F9DADC227A84D293D290744BD5E0FDE4
:10102C00C290C29379037817E4D5E0FDD8FAD9F6CB
:10103C00792B741ED5E0FDD9F9DADC227A84D293AF
:10104C00D290744BD5E0FDC290C29379027817E42C
:10105C00D5E0FDD8FAD9F6791D741ED5E0FDD9F985
:0E106C00DADC22757C00757D00E5EF20E603DE
:10107A007520000520903FFFE520146006901DFFB3
:10108A001460009304600375EF1653D9BF75D9082D
:10109A007581C043FF8012058375EF0643B203E5ED
:1010AA00B3240220E70DF521E5E320E0068521B30C
:1010BA0043E301120E8D7580FF75A40075F1D47596
:1010CA00D4EF7590C075A53F75F2FF75D50075A66A
:1010DA000175E241120E8DE4F8F6D8FD7568011229
:1010EA000EA21215EC78988673753001C2AF1205FC
:1010FA009C120FFA120597120FFA120597120FFA9D
:10110A0012059711211148120FFA12059711211190
:10111A0048120FFA120FFA12170912059C12059CAF
:10112A00120597C2AF757C00757D0078FA79FA309E
:10113A008407D9FBD8F7021C00120F0E120F4712B0
:10114A000F94120F9578988673120E8D7588107504
:10115A00890275C82475910475D84075A82275B896
:10116A000275E690759B80759D0075D10E75BC5809
:10117A0075BB0375BA1175E880120583D2AF1208E0
:10118A003B75360053DACF207E0343DA20307E03E4
:10119A0043DA1043DA01C2D8C27112059CD2617BCC
:1011AA00037A0CE55B70077A0CDB0302112D12053A
:1011BA009220700302112DC270E55CC3940240E1D3
:1011CA00E52F541F855E5DF55EB55DD5DAD5C26142
:1011DA0053DACF207E0343DA20307E0343DA10C28B
:1011EA00D8C27178A2E67008D274E52F54E0F52FC0
:1011FA00C275752900120597307409C3E529940A46
:10120A004002D27512058878023074027800C3E56C
:10121A005C9840F0C2AF1205AC1205ACD2AF120511
:10122A009C754C007888E6B40302612A1205887816
:10123A008CE6C39401500302132AE530C39401508B
:10124A000302132A757CA5757DF1207435C3E55C0C
:10125A0094FF500302132AC2AF1205C1D2AF12057E
:10126A0097C3E55C940150EFC2AF1205AC12058D2D
:10127A001205ACD2AF120597C3E55C94FF40E902B0
:10128A00178E7F05D27F120F95120597C2AFC27FC4
:10129A00120F95AE5CC3E55C947FD2AF5002613AFF
:1012AA00120583C2AF1205C1D2AFDFD8120FCCC369
:1012BA00EE94057897F612059C1217117F0AD27FD1
:1012CA00120F95120597C2AFC27F120F95AE5CC37B
:1012DA00E55C947FD2AF50E4120583C2AF1205AC2D
:1012EA0012058D1205ACD2AFDFD4120FCCEE240357
:1012FA007896F6F87997E7C394824003985006E8FF
:10130A0024827897F612059C12162E12174012059F
:10131A0097120F95C3E55C94FF5002414E02178E57
:10132A00757C00757D00C3E55C954C4003855C4C7B
:10133A0012059778017988E7B403027805C3E55C5A
:10134A00984002412EC2AF1205C11205C1D2AF1296
:10135A00059C753000E4F531F5320531E531F4705C
:10136A003F0532789AE67819146012783214600DC3
:10137A00787D14600878FA146003753200C3E53288
:10138A0098401D120E8D1205831532753100789919
:10139A008673C2AF1205C1D2AF78988673120597C9
:1013AA0012058DE52A7005307402212D780120740A
:1013BA00027806C3E55C9840A17888E6C394036086
:1013CA0003120597E52A700302112DC2AF120E8D82
:1013DA00E4F522F523F524F525F526F567D2AF784D
:1013EA0085E6C333F565E4F544F545F546F547F575
:1013FA0048F570F52CF52DF53775700875BB101288
:10140A00058312083F30EDFDA8BDA9BEE97001F8B9
:10141A00887112084375700875BB10120F0EC2AF9F
:10142A007561FF1208B9852261852262852263D21D
:10143A00AF7522017524017525017526018560693C
:10144A00756A017888E6B40307C27D307602D27DD8
:10145A00D268D269753300120DE7120E161208D936
:0F146A001208E01208D91208E01208D9120B5E1E
:101479001206A2120C54120C9B1208E0120B4D30EA
:101489006E031206A32066031207F53066031208DD
:1014990025120C54120CCA1208E0120B5E306E03AE
:1014A9001206DF120C54120D411208E0120B4D30D6
:1014B9006E0312073D120C54120D701208E0120B44
:1014C9005E306E0312079A120C54120DE71208E0EF
:1014D90012083F120B4D120C54120E161208431229
:1014E90008E030692F856461856462856069756A81
:1014F9000179187A0CC3E53399400CC269D26A8A1A
:10150900357561FF02151DC3E55C940140030214A2
:10151900760215A3306A1D206C1AE535147006C2CF
:101529006AD26B8176F535C3E55C940140030214F8
:10153900760215A3753600788279A4E760027803EC
:10154900C3E55F985054307404E52A604D7888E605
:10155900B40317207D05207607A173307602A173A5
:10156900206C07D26C85646181B578F0306C058593
:1015790064617820C3E5419850028176306C1BC2C2
:101589006CC27D307602D27DD26A7535128564616E
:1015990081760536E55C6002A1A6753600C2AF12F8
:1015A9000E8D7887E6FE7602120F0E7887EEF6E446
:1015B900F522F523F524F525F526F565752C007535
:1015C9002D00D2AF120597120E8D78A4E66006D2CF
:1015D90092D291D290307409C3E536940440022125
:1015E9002D615F901A0D7820121670E520B45A0CFF
:1015F900A3121670E520B4A50302160E120EA2124C
:10160900162E02162D901A0378807B0A121670A3E3
:1016190008DBF9901A0F788C7B19121670A308DB76
:10162900F9901A2822C2AF1216B3121690901A0016
:10163900740E121675A3744B121675A3741512162F
:1016490075901A0378807B0A121674A308DBF99047
:101659001A0F788C7B19121674A308DBF91216C6B7
:101669001216A4901A2822E493F622E6438F015316
:101679008FFDFFC3E583941C400122EF857CB7856C
:101689007DB7F0538FFE22438F02438F01857CB7CC
:10169900857DB7901A0DF0538FFC22901A0D745A5C
:1016A900D175901A0E74A5D175227A3079D0782027
:1016B900901A40D170E520F709A3DAF7227A307938
:1016C900D0901A40E7D17509A3DAF922AB74A8754D
:1016D900BB01027984BB02027985BB03027986BB0F
:1016E90004027992BB05027987BB060279A3BB077D
:1016F90002799CBB08027988BB09027989E8F7223B
:101709007C0512059CDCFB22C2AF1205AC1205B3A5
:101719001205BA1205C112058D1205AC1205B312D4
:1017290005BA1205C112058D1205AC1205B31205D1
:10173900BA1205C1D2AF22C2AF1205C11205BA123F
:1017490005B31205AC12058D1205C11205BA1205B1
:10175900B31205AC12058D1205C11205BA1205B3F3
:101769001205ACD2AF22AE74AF75C2AF1205AC127E
:1017790005AC1205AC12058DDEF21205C112058DFC
:10178900DFF8D2AF22F111F109F10975740175750C
:1017990001757600F16F7C05AD5C12059CC3ED9572
:1017A9005C70F5C3E55C9401400AC3E55C94FF40B5
:1017B900320217CAD1D5D12EF111C2AF75EF16F188
:1017C90009DCD50576C3E5769403500280C6F10994
:1017D9000575E5741490009F93F808C3E575985052
:1017E9000280AEF109F1090574C3E574940A500247
:1017F900809C120EA212162EC2AF75EF161217098F
:0319FD0002106F66
:101A00000E4B15FFFFFFFF03040B0301015AA50155
:101A1000FFFFFFFFFF03FFFFFF0AF0FAFA04FF01D9
:091A2000007DFF0101000301FF3C
:101A400023484B696E67313041232020202020201D
:101A500023424C48454C4923463333302320202031
:101A60002020202020202020202020202020202076
:101C0000C2AFC2D353D9BF7581C043B20343FF8073
:101C1000752438752503B1DC7529A5752AF175E29F
:101C20004043F11053A4EF75D4FFD2847DFA7803BA
:101C300079E67C10752200752300901DE97B0675FE
:101C400024987525013084028145208408D8FBD969
:101C5000F9DCF781B7308408D8FBD9F9DCF781B714
:101C6000B19CE493A3C39A6004DDC381B7DBDBB10D
:101C70008E6002812E7B08E493FAA3B16FDBF87AC1
:101C800030B16F752200752300B18EEAFCEBFDC305
:101C9000ED94FE400EB18E8A278B28ED30E0048A49
:101CA000828B83B18E7AC270D8C3ED94FE601950D6
:101CB000CEBD002BEC600F7520007521FF7529004B
:101CC000752A000200008100A827A9280809D80465
:101CD000D90281DCB192EA89AAF281CE0D81A3C337
:101CE000ED94035053EDA2E092007AC5C3E58294CF
:101CF00000E583941C508A200010438F02438F011B
:101D00008529B7852AB7F0300029A827A92808090E
:101D1000438F01538FFDD804D902A133C3E58394C7
:101D20001C4003A3A11689AAE28529B7852AB7F02A
:101D3000A3A116538FFC817F7AC1BD030CE493A34A
:101D4000FAB153DCF8B14B817F8181AA22AB23B178
:101D50006FEBFAEA6222752608C3E52313F523E543
:101D60002213F52250066323A0632201D526EAB18F
:101D7000DCB1DC75260AEAF4200102D284300102CB
:101D8000C284B1DCC3134002C201D526EB22B1925A
:101D9000EAFB208402A192308402A197752608AE46
:101DA00024AF25C3EF13FFEE13FEB1E0B1DCC3EAAD
:101DB000133084024480FA30E703632201C3E52331
:101DC00013F523E52213F52250066323A0632201B5
:101DD000D526D9E52265236523F52222AE24AF2539
:101DE0000E0FDEFEDFFCD20122424C48656C6934E6
:071DF000373164F3300601F6
:00000001FF
