:030000000219FDE5
:03000B000200AA46
:03002B0002015F70
:03005B000202EBB3
:030073000202D8AE
:1000800002030406080C10182030406080040608A3
:100090000C10182030406080A0C00003070F1F0D17
:1000A0000D0403060D0503030202C2AFC0D0C0E079
:1000B000206214E5256009E473E525F4F58AD2622F
:1000C000D0E0D0D0D2AF3285268AC262E526F46075
:1000D0003030682620720DD0E0D0D0C295C294C2D4
:1000E00093D2AF32C295C294C293206F0D20650A9D
:1000F000740AD5E0FDE57BF45290D0E0D0D0D2AFC9
:1001000032758A00C28DD26201FA01B930680520C9
:100110006502D29501B9306805206502D29401B913
:10012000306805206502D29301B9D29230680A2066
:1001300065077408D5E0FDD29501B9D29130680AFF
:100140002065077408D5E0FDD29401B9D290D2920F
:1001500030680A2065077408D5E0FDD29301B9C262
:10016000AFC2AD53E6EFC0D0C0E0D2D3D2AFC2CE63
:10017000E52A6007207449152A21C07800790020FB
:10018000742EE580307E01F430E70278FF53DACF39
:10019000207E0343DA20307E0343DA10C2D8C271D6
:1001A000E580307E01F430E70279FFC3E89970CB37
:1001B000306103752A40207403752A40885CD27030
:1001C00020740DE52B6004152B21D043DA01C2D831
:1001D00020700221E3A85C206102C2702074022119
:1001E000E188227882B6040385222420CF0AD0E059
:1001F000D0D043E610D2AD32C2CF053A7802E52A1C
:100200006005307402152AC3E55C94014005755FF2
:10021000004124756000756900E55F2401F55F50B9
:1002200003755FFF7982B7020D306E1DC3E522941E
:10023000324016854C227982B7030E306E0BC3E52F
:100240002294324004798E8722C3E52395226008E8
:100250004004152341580523D8CA0569E569700291
:100260001569D56A69756A017808E56B6049780592
:10027000C3E569956B4057C3E569956C50087801F3
:10028000756A03020292C3E569956D5005780175A0
:100290006A01C3E5629524401E7982B7040241C316
:1002A000206E14852462E569046003856B69756AB4
:1002B0000175233C0202CEE5622850057562FF41BC
:1002C000C3F562E5620470067560FF7569FFD0E0F2
:1002D000D0D043E610D2AD32C2AF53E67F7592FA6A
:1002E0007593FFC260759104D2AF32C2AF53E6EF8F
:1002F000C2ADC0D0C0E0C0F0D2D3D2AFA8FBA9FC41
:10030000C2D8307102615253DACF207E0343DA1033
:10031000307E0343DA20D271E580307E01F420E79D
:1003200002612988278928A12F53DACF207E034331
:10033000DA20307E0343DA10C2D8C271307402A1D1
:100340001B7800E580307E01F430E702A11B885C59
:10035000A10353DACF207E0343DA20307E0343DA51
:1003600010C271206102812B53DACF207E0343DA61
:1003700010307E0343DA20C2D8D27188578958C31F
:10038000E89555F8E99556F97B007E087A00C3E8B0
:10039000948CE994005005755B00811D882178A23A
:1003A000E6A8216055C3E894C8E994005008E4D257
:1003B000E4FB7A0A61F8C3E89468E994015008E420
:1003C000D2E3FB7A0F61F8C3E894D0E994025008B5
:1003D000E4D2E2FB7A1E61F8C3E894A0E9940550E8
:1003E00008E4D2E1FB7A3C61F8C3E89498E9940808
:1003F0005008E4D2E0FB7A787E00C3E89559FCE926
:10040000955AFD30E70AECF42401FCEDF43400FDCC
:10041000755B00C3EC9AED9E5003755B01885989AA
:100420005A8557558558567802A103C3E89527F891
:10043000E99528F9C3E913F9E813F8C3E824B4FCF3
:10044000E93400FD8165E9C313F9E813F830790256
:1004500081E0E9C313F9E813F830780281E0E9C3D9
:1004600013FDE813FC20612CC3EC9482ED94024050
:0E04700002817CED701EC3EC94C85018052963
:10047E00E52970021529C3E529940A5002A11B75BE
:10048E005C00D270A11BE529600215297400207F43
:10049E00037896E624FAFEE43400FFC3EC9EFCEDEE
:1004AE009FFD50067800790081E7C3EC94FFED9430
:1004BE0000400678FF790081E7EC8572F0A4C5F064
:1004CE00A2F733F87900400302050378FF790002A2
:1004DE000503E9C313F9E813F8307C0EE9600278DE
:1004EE00FFC3E81338F8E43400F9C3E894FFE99445
:1004FE0000400278FF885CD270206102A11B741F3D
:10050E00F4552F4BF52FC274EB7002D274752A403E
:10051E00307403752A0A306102A12F20740353DA56
:10052E00FE207403752B20D0F0D0E0D0D0D2AD4396
:10053E00E61032790102055F790302055F790A023E
:10054E00055F791E02055F796402055F79C80205B1
:10055E005F7817E4D5E0FDD8FAD9F6227A147B78C5
:10056E000205867A107B8C0205867A0D7BB4020515
:10057E00867A0B7BC8020586E573D5E001227902E7
:10058E00E4D291D5E0FDD294D5E0FDC294D5E0FD44
:10059E00C291D5E0FDE920E002D29530E002D2937F
:1005AE00E573D5E0FDE920E002C29530E002C2938A
:1005BE007496D5E0FDD9C9EAF8D5E0FDD8FBDBB8D5
:1005CE00D29122C37C007D0075F00005F0EA33FA6B
:1005DE00EB33FB50F6EB13FBEA13FAC3E9FFE8FE2D
:1005EE00E89AF8E99BF95004EFF9EEF8B3EC33FC16
:1005FE00ED33FDD5F0DFEDF9ECF822E889F08A2035
:10060E00D2D4F8A9F07B0030F70B7BFFF42401F86D
:10061E00E9F43400F9E88520F0A4ADF0F8E985207E
:10062E00F0A4AFF0FEED2EF974003FFA7C04C3EA9D
:10063E0013FAE913F9E813F8DCF48BF030F70AE853
:10064E00F42401F8E9F43400F9E889F0C2D4F8A9E9
:10065E00F0227882B604030206FFC3E55C941940CB
:10066E001EE52D54067018206E3678057994E71421
:10067E006007780A1460027812C3E54198401F3073
:10068E006E098564627569FF756A01852224E4F539
:10069E0044F545F546F547F548C26E0206FFD26EA3
:1006AE007994E7147013E523F43333F913F8E9540E
:1006BE000104F9E854FE0206F3E714147014E5235E
:1006CE00F4333333F913F8E9540304F9E854FC0214
:1006DE0006FBE523F433333333F913F8E9540704F7
:1006EE0004F9E854F8C39440F8E99400F988448971
:1006FE004522C3E54113F9E54013F8C3E54498F8E4
:10070E00E54599F9500CC3E89480E994FF40160230
:10071E000737C3E8947FE994005003020737787FC8
:10072E007900020737788079FF8849894A22E5499E
:10073E002546F8E54A3547F9854A20E4300701F4A5
:10074E003548FA30E709C3EA94F04015020775C33D
:10075E00EA940F500302077578FF79FF7A0F0207AC
:10076E0075780079007AF0C3E5249561500AC37458
:10077E00019524500B020793E54A20E70E020793DA
:10078E00E54A30E706884689478A482278A5E6FA80
:10079E00C3E54933F8E54A33F9D109E930E70BC32C
:1007AE00E89480E994FF4013E1CDC3E8947FE99487
:1007BE00005002E1CD787F7900E1CD788079FFE8B5
:1007CE0020E715C3E52398F84009C3E894014003D8
:1007DE000207F478010207F4E8F424012523F84017
:1007EE00030207F478FF884B2278A6E6FAA847A9F9
:1007FE0048120609E930E70CC3E89401E994FF407A
:10080E0016020829C3E894FFE99400500302082950
:10081E0078FF7900020829780179FFE920E715C3EE
:10082E00E54B98F84009C3E894014003020850785C
:10083E0001020850E8F42401254BF8400302085049
:10084E0078FF88242278FF20692879A1E76023E5C4
:10085E0041601F74FF8541F0848539F0306A03755D
:0E086E00F005A4F8C5F0600278FFC3E89564B9
:10087C005002A864886322C3E5409440E54194018A
:10088C00E5635003140194046002F563227883E657
:10089C00F520120F1875E89012054175E89030EDAF
:1008AC00FDA8BDA9BE120FC2756E00756F00C37492
:1008BC000013FD7400606613FC74002CFC74003D86
:1008CC00FDECFAEDFBC3E89AE99B4014E56E2400BD
:1008DC00F56EE56F3400F56FEA2CFAEB3DFB80E525
:1008EC00AE6EAF6FC3E56F13F9E56E13F8C3E91382
:1008FC00F9E813F87A03C3E913F9E813F8DAF7AA5D
:10090C00201A7009756E00756F000209291AEA60C9
:10091C0008EE28FEEF39FFDAF88E6E8F6F2275E83D
:10092C0090227883E6FF30EDF9A8BDA9BE0570C30F
:10093C00E57094084052757000E9FA79A0E76044BC
:10094C00EA7007E571601B020962C3E895716010DB
:10095C00E5715006600C1402096E0460F902096E10
:10096C00E571F571C3946D401B7561C0C39404406F
:10097C0013756180C39404400B756140C3940440AB
:10098C000375610075BB0622EFC39401601F7400F0
:10099C00601BC3E894FFE994035012C3E8956EE919
:1009AC00956F5009E561600C15610209C0E561F4B1
:1009BC0060020561A861C3E524985002A824C3E82D
:1009CC009562400AA862E562F4600385626188253D
:1009DC008826E570B4070375BB1022743279A7879B
:1009EC00F0A4C5F0A2F733F8C3E895614002A86102
:1009FC0088228824882588268864227540007541C1
:100A0C00F022C2AF75C820A8CCA9CDAA3A30CF012C
:100A1C000A75C824D2AFAB3BAC3C883B893CC3E8DD
:100A2C009BF8E99C206908F9306602611D4177AD9D
:100A3C003D8A3DF9EA9DFA600478FF79FFAE3EAF3E
:100A4C003F8B3E8C3FA83BA93CC3E89EF8E99FF93D
:100A5C00C3E54113FBE54013FAE82AF540E93BF501
:100A6C004150067540FF7541FF41C4AA40AB41ACF3
:100A7C0040AD417E047F02C3EB9404400D1E1FC3A6
:100A8C00EB94084005206A021E1FC3ED13FDEC1306
:100A9C00FCDEF7C3EA9CFAEB9DFBEF6009C3E9139C
:100AAC00F9E813F8DFF7EA28FAEB39FB8A408B41B7
:100ABC0050067BFF8B408B41C3EB94025002D266F5
:100ACC003069047F0341EF7892E6FFC3E5379482E7
:100ADC0040110FC3E53794A040010FC3EF940640BB
:100AEC00027F057E02E541C4540FF9E541C454F080
:100AFC00F8E540C4540F28F8C3E89EFAE99400FBCB
:100B0C004009C3EA9402EB940050047A02E4FB61BE
:100B1C0069AA40AB41EBC4FEEAC4540F4EFCC3EAD5
:100B2C009CFAEB9400FBC3E813C313F8EA28FAEB26
:100B3C003400FB8A408B41C3EB94024002C26678BE
:100B4C0002EBC4FE7B00EAC4540F4EFAC3EA98FAD7
:100B5C004005C3940250027A027892E6FF3060029C
:100B6C006169855192855293D26043E680C3E49AC1
:100B7C00F8E49BF930660261F5E8FAE9FBD3E91376
:100B8C00FDE813FC88518952C3EF94036038EF20C1
:100B9C00E00DE82CF8E93DF9ECFAEDFB020BBEE8B0
:100BAC0028F8E939F9C3E82402F8E93400F97AFEA7
:100BBC007BFFC3EF9403400E8A538B54884D894EB0
:100BCC008C4F8D508129885389548A4D8B4E8C4F74
:100BDC008D503069127553F07554FF754FF0755088
:100BEC00FF7551F07552FF8129E8FAD3E813FC88A0
:100BFC0051C3EF94036020EF20E007E82CF8ECFAE7
:100C0C008115E8282402F87AFEC3EF940340088A81
:100C1C0053884D8C4F812988538A4D8C4FE568C37E
:100C2C00335002646BF5683060028133753402D244
:100C3C006043E680E52D54066034A840A941C3E921
:100C4C0013F9E813F8C3E913F9E813F8306904E968
:100C5C002440F9C2AF53E67F759100C3E498F59434
:0F0C6C00E499F595759104D26043E680D2AF22EA
:100C7B00D264754300752000306C03752040020C64
:100C8B009AD264754300752040306C037520007850
:100C9B00017901206620E52D54066002C2647914A7
:100CAB00E541C313700104F8C39414400278143067
:100CBB006904781B791B206010E543600C306903D5
:100CCB00D53404D26DA144913B0543E59B5440B50B
:100CDB002002A12E30690908C3E89940011881C18F
:100CEB0020640A08C3E8994002819A81C1C264C298
:100CFB00AF53E67F7591003066127594007595F8C9
:100D0B00759104D26043E680D2AF819AE5417EFFB4
:100D1B00C3334005C3334001FEC3E49E759400F515
:100D2B0095A10BC3E53394015002819A3064028183
:100D3B009AD802A14281C1C26DC2AF53E67F7591B1
:100D4B0000855394855495759104854D92854E93EA
:100D5B00D26043E680D2AFE52D54066008206A02CC
:100D6B000533020D80306D0D206C0A206407158150
:100D7B0015810216A82278003064027801E53775D8
:100D8B00F007A4F9E5F028F5F0E9A2F013A2F113AE
:100D9B00A2F213F537C394785003753778C3E53750
:100DAB0095384008D265C295C294C293306002A1B7
:100DBB00B7854F92855093D26043E68022207D16F3
:100DCB00C2AF754202D291C292306202D293D2AFBD
:100DDB00759F11020FBFC2AF754202D291C2903004
:100DEB006202D295D2AF759F11020FBF30724520B0
:100DFB007D22C2AF75420390013B757B02C293D239
:100E0B0090D292306204D294C117C291D2AF759F27
:100E1B0001020FBFC2AF75420390013B757B02C24B
:100E2B0095D292306204D294C137C291D2AF759FE2
:100E3B0021020FBF207D17C2AF754203900116C26E
:100E4B0093306202D294D2AF759F01020FBFC2AF33
:100E5B00754203900116C295306202D294D2AF75DF
:100E6B009F21020FBF207D16C2AF754204D292C2E2
:100E7B0090306202D294D2AF759F21020FBFC2AFE6
:100E8B00754204D290D292C292306202D294D2AF07
:100E9B00759F01020FBF307243207D20C2AF754298
:100EAB000590012A757B04C294D291306204D295CD
:100EBB00C1BFC292D2AF759F11020FBFC2AF7542B5
:100ECB000590014C757B01C294D291306204D29390
:100EDB00C1DFC290D2AF759F11020FBF207D17C229
:100EEB00AF75420590010CC294306202D295D2AF1D
:100EFB00759F11020FBFC2AF754205900120C294BE
:100F0B003062EBD293D2AF759F11020FBF207D18C9
:100F1B00C2AF754206D290D292C291306202D29584
:100F2B00D2AF759F01020FBFC2AF754206D292C2FC
:100F3B0091306202D293D2AF759F21020FBF3072F4
:100F4B0045207D20C2AF75420190014C757B01C2DB
:100F5B0095D292306204D293E167C290D2AF759F63
:100F6B0021020FBFC2AF75420190012A757B04C2EB
:100F7B0093D290D292306204D295E189C292D2AFD1
:100F8B00759F01020FBF207D17C2AF754201900103
:100F9B0020C295306202D293D2AF759F21020FBF50
:100FAB00C2AF75420190010CC293306202D295D24E
:100FBB00AF759F01C2652290010A757B00C295C275
:100FCB0094C293D292D291D290C262227880760749
:100FDB000876070876010876040876FF0876FF087E
:100FEB00760A087602087601087601788C76010875
:100FFB0076000876B40876FF0876FF0876FF087649
:10100B00030876FF0876010876FF08760A0876F063
:10101B000876780876C80876040876FF0876010803
:10102B00760008767D08760A087601087601087640
:10103B00000876FF087601227887E6FFC272BF03AD
:10104B0002D2727888C27DE630E102D27DC27E7810
:10105B0089E630E102D27EC3EF94026008758E01FF
:0F106B00D273021075758E00C273227880E6145E
:10107A009000809378A5F67881E6149000809378A2
:10108A00A6F67886E61490008D9378A7F6789FE600
:10109A00F87005756B0001BCC3E894114002781121
:1010AA00E82828F56B256B256B28F56C256B282815
:1010BA00F56D7886E6F539C39402500375390278DE
:1010CA009CE67538FFB402037538A0B4030375387B
:1010DA008278A3E61490009A93F566120FC2222230
:1010EA007896E6FA7897E6FB7888E6B40305C3EBC8
:1010FA00940EFB307F047A007BFFC3EB9AFCC39407
:10110A008250027C827572000572EC8572F0A4C36B
:10111A00E5F0947D40F222D27F11EA1205501205C1
:10112A00507A007B007C10120546E55C2AFA7400AE
:10113A003BFBDCF37C04C3EB13FBEA13FADCF7FE9C
:10114A00C27F11EA227ADEC292D293744BD5E0FDB5
:10115A00C293D29279027817E4D5E0FDD8FAD9F68B
:10116A00796E741ED5E0FDD9F9DADC227A84C2924E
:10117A00D293744BD5E0FDC293D29279037817E4E7
:10118A00D5E0FDD8FAD9F6792B741ED5E0FDD9F948
:10119A00DADC227A84C292D293744BD5E0FDC293F0
:1011AA00D29279027817E4D5E0FDD8FAD9F6791DFA
:1011BA00741ED5E0FDD9F9DADC22757C00757D0054
:1011CA00E5EF20E6037520000520903FFFE5201497
:1011DA006006901DFF1460009304600375EF1653B8
:1011EA00D9BF75D9087581C043FF8012054175EFD3
:1011FA000643B203E5B3240220E70DF521E5E32017
:10120A00E0068521B343E301120FC27580FF75A47E
:10121A000075F19075D47F75908775A5BF75F2BF7B
:10122A0075D50075A60175E241120FC2E4F8F6D829
:10123A00FD756801120FD71216FF789886737530FC
:10124A0001C2AF12055A314F120555314F120555D9
:10125A00314F1205553176319D314F120555317690
:10126A00319D314F314F12182612055A12055A1262
:10127A000555C2AF757C00757D0078FA79FA30871A
:10128A0007D9FBD8F7021C001143117611E911EABC
:10129A0078988673120FC275881075890275C824EA
:1012AA0075910475D84075A82275B80275E69075CF
:1012BA009B80759D0075D10E75BC5875BB0675BAB5
:1012CA001175E880120541D2AF120899753600539C
:1012DA00DACF207E0343DA20307E0343DA1043DA82
:1012EA0001C2D8C27112055AD2617B037A0CE55B3E
:1012FA0070077A0CDB0302127C120550207003027D
:10130A00127CC270E55CC3940240E1E52F541F854C
:10131A005E5DF55EB55DD5DAD5C26153DACF207E62
:10132A000343DA20307E0343DA10C2D8C27178A2AE
:10133A00E67008D274E52F54E0F52FC275752900BE
:10134A00120555307409C3E529940A4002D2751270
:10135A00054678023074027800C3E55C9840F0C212
:10136A00AF12056A12056AD2AF12055A754C0012FD
:10137A000546788CE6C394015003021466E530C32F
:10138A0094015003021466757CA5757DF1207435AD
:10139A00C3E55C94FF5003021466C2AF12057FD204
:1013AA00AF120555C3E55C940150EFC2AF12056A4E
:1013BA0012054B12056AD2AF120555C3E55C94FFBC
:1013CA0040E90218AB7F05D27F11EA120555C2AF78
:1013DA00C27F11EAAE5CC3E55C947FD2AF50028152
:1013EA0076120541C2AF12057FD2AFDFDA3121C3CF
:1013FA00EE94057897F612055A12182E7F0AD27FB4
:10140A0011EA120555C2AFC27F11EAAE5CC3E55CB0
:10141A00947FD2AF50E6120541C2AF12056A120597
:10142A004B12056AD2AFDFD63121EE24037896F645
:10143A00F87997E7C394824003985006E8248278A3
:10144A0097F612055A12174112185D12055511EA3C
:10145A00C3E55C94FF500261910218AB757C00757C
:0F146A007D00C3E55C954C4003855C4C12055535
:1014790078017988E7B403027805C3E55C984002EE
:101489006179C2AF12057F12057FD2AF12055A7575
:101499003000E4F531F5320531E531F4703F0532BC
:1014A900789AE67819146012783214600D787D14F0
:1014B900600878FA146003753200C3E53298401D5C
:1014C900120FC2120541153275310078998673C21F
:1014D900AF12057FD2AF7898867312055512054B66
:1014E900E52A7005307402417C780120740278067F
:1014F900C3E55C9840A1120555E52A700302127CE8
:10150900C2AF120FC2E4F522F523F524F525F5261D
:10151900F567D2AF7885E6C333F565E4F544F5455B
:10152900F546F547F548F570F52CF52DF537757045
:101539000875BB1012054112092A30EDFDA8BDA995
:10154900BEE97001F8887112092E75700875BB1013
:101559001143C2AF7561FF1209E7852261852262D5
:10156900852263D2AF75220175240175250175267F
:1015790001856069756A017888E6B40307C27D3020
:101589007602D27DD268D269753300120F18120F14
:1015990049120A07120A0E120A07120A0E120A073C
:1015A900120C8C120660120D81120DC8120A0E124D
:1015B9000C7B306E03120700206603120853306655
:1015C90003120883120D81120DF7120A0E120C8CE8
:1015D900306E0312073C120D81120E70120A0E12A0
:1015E9000C7B306E0312079A120D81120EA1120A9A
:1015F9000E120C8C306E031207F7120D81120F18A0
:10160900120A0E12092A120C7B120D81120F4912AD
:10161900092E120A0E30692C856461856462856021
:1016290069756A0179187A0CC3E533994009C26969
:10163900D26A8A3502164DC3E55C9401400302154E
:10164900A90216B0306A1D206C1AE535147006C25D
:101659006AD26BA1A9F535C3E55C94014003021573
:10166900A90216B0753600C3E55F94014009856487
:1016790062856069756A0178FA79A4E7600278037E
:10168900C3E55F985021307404E52A601A78F03078
:101699006C058564617820C3E541985002A1A905CC
:1016A90036E55C6002C1B3753600C2AF120FC2786D
:1016B90087E6FE760211437887EEF6E4F522F523F4
:1016C900F524F525F526F565752C00752D00D2AFA5
:1016D900120555120FC278A4E66006C292C291C2E1
:1016E90090307406E52A7002417C788DE6C3940136
:1016F90040026159819B901A0D7820121783E520C9
:10170900B4A50CA3121783E520B45A0302172112BA
:101719000FD7121741021740901A0378807B0A12DB
:101729001783A308DBF9901A0F788C7B191217839A
:10173900A308DBF9901A2822C2AF1217C61217A301
:10174900901A00740E121788A3744B121788A37489
:1017590015121788901A0378807B0A121787A30835
:10176900DBF9901A0F788C7B19121787A308DBF91C
:101779001217D91217B7901A2822E493F622E643D2
:101789008F01538FFDFFC3E583941C400122EF8530
:101799007CB7857DB7F0538FFE22438F02438F01BB
:1017A900857CB7857DB7901A0DF0538FFC22901A6E
:1017B9000D74A5F188901A0E745AF188227A30793D
:1017C900D07820901A40F183E520F709A3DAF722AF
:1017D9007A3079D0901A40E7F18809A3DAF922AB77
:1017E90074A875BB01027980BB02027981BB03022F
:1017F9007982BB04027994BB05027983BB0602791D
:1018090086BB07027992BB08027987BB0902799CDA
:10181900BB0A027988BB0B027989E8F7227C051299
:10182900055ADCFB22C2AF12056A1205711205784E
:1018390012057F12054B12056A12057112057812FD
:10184900057F12054B12056A1205711205781205FA
:101859007FD2AF22C2AF12057F120578120571122D
:0E186900056A12054B12057F120578120571F3
:1018770012056A12054B12057F12057812057112BF
:10188700056AD2AF22AE74AF75C2AF12056A1205F0
:101897006A12056A12054BDEF212057F12054BDF4D
:1018A700F8D2AF22112E1126112675740175750114
:1018B700757600118C7C05AD5C12055AC3ED955CFD
:1018C70070F5C3E55C9401400AC3E55C94FF4034BE
:1018D7000218E91217E8121741112EC2AF75EF1659
:1018E7001126DCD30576C3E5769403500280C41134
:1018F700260575E5741490009F93F808C3E575985D
:10190700500280AC112611260574C3E574940C505F
:1019170002809A120FD7121741C2AF75EF16112620
:0319FD000211C410
:101A00000E4B1507070104FFFF0A020101A55A0149
:101A100000B4FFFFFF03FF01FF0AF078C804FF01D5
:091A200000FF0A010100FF01FFB3
:101A4000234F76736B794D52323041232020202072
:101A500023424C48454C4923463333302320202031
:101A60002020202020202020202020202020202076
:101C0000C2AFC2D353D9BF7581C043B20343FF8073
:101C1000752438752503B1DC7529A5752AF175E29F
:101C20004043F18053A47F75D4FFD2877DFA7803B7
:101C300079E67C10752200752300901DE97B0675FE
:101C400024987525013087028145208708D8FBD963
:101C5000F9DCF781B7308708D8FBD9F9DCF781B711
:101C6000B19CE493A3C39A6004DDC381B7DBDBB10D
:101C70008E6002812E7B08E493FAA3B16FDBF87AC1
:101C800030B16F752200752300B18EEAFCEBFDC305
:101C9000ED94FE400EB18E8A278B28ED30E0048A49
:101CA000828B83B18E7AC270D8C3ED94FE601950D6
:101CB000CEBD002BEC600F7520007521FF7529004B
:101CC000752A000200008100A827A9280809D80465
:101CD000D90281DCB192EA89AAF281CE0D81A3C337
:101CE000ED94035053EDA2E092007AC5C3E58294CF
:101CF00000E583941C508A200010438F02438F011B
:101D00008529B7852AB7F0300029A827A92808090E
:101D1000438F01538FFDD804D902A133C3E58394C7
:101D20001C4003A3A11689AAE28529B7852AB7F02A
:101D3000A3A116538FFC817F7AC1BD030CE493A34A
:101D4000FAB153DCF8B14B817F8181AA22AB23B178
:101D50006FEBFAEA6222752608C3E52313F523E543
:101D60002213F52250066323A0632201D526EAB18F
:101D7000DCB1DC75260AEAF4200102D287300102C8
:101D8000C287B1DCC3134002C201D526EB22B19257
:101D9000EAFB208702A192308702A197752608AE40
:101DA00024AF25C3EF13FFEE13FEB1E0B1DCC3EAAD
:101DB000133087024480FA30E703632201C3E5232E
:101DC00013F523E52213F52250066323A0632201B5
:101DD000D526D9E52265236523F52222AE24AF2539
:101DE0000E0FDEFEDFFCD20122424C48656C6934E6
:071DF000373164F3300601F6
:00000001FF
