:030000000219FDE5
:03000B000200AA46
:03002B0002015D72
:03005B000202F1AD
:030073000202DEA8
:1000800002030406080C10182030406080040608A3
:100090000C10182030406080A0C00003070F1F0D17
:1000A0000D04050D050305030302C2AFC0D0C0E077
:1000B000206214E5256009E473E525F4F58AD2622F
:1000C000D0E0D0D0D2AF3285268AC262E526F46075
:1000D0003030682620720DD0E0D0D0C290C287C2E6
:1000E00091D2AF32C290C287C291206F0D20650AB3
:1000F0007401D5E0FDE57BF45290D0E0D0D0D2AFD2
:1001000032758A00C28DD26201FA01B930680520C9
:100110006502D29001B9306805206502D28701B925
:10012000306805206502D29101B9D29630680A2064
:1001300065077405D5E0FDD29001B9D29430680A04
:100140002065077405D5E0FDD28701B9D2953068E6
:100150000A2065077405D5E0FDD29101B9C2AFC28E
:10016000AD53E6EFC0D0C0E0D2D3D2AFC2CEE52AC5
:100170006007207449152A21BE7800790020742E6A
:10018000E580307E01F430E60278FF53DACF207E3E
:100190000343DA20307E0343DA10C2D8C271E5800F
:1001A000307E01F430E60279FFC3E89970CB30610C
:1001B00003752A18207403752A18885CD27020747D
:1001C0000DE52B6004152B21CE43DA01C2D8207037
:1001D00002413DA85C206102C2702074367982B76A
:1001E0000431C3E894F0400374F0F8E8C4540F28D5
:1001F000F87984B703024113C313C313872120087E
:1002000002C313200A06C3C898F8411328F8500304
:1002100074FFF88822E52D54066022206B1FE53616
:10022000C333C333F8E564C313C313F9C395224042
:10023000028922E82522F52250037522FF7882B632
:100240000459852224A824C3E52495614002A861AD
:10025000C3E895634002A8638825E5667002418E75
:10026000C3E8AA669A5003E8FAE4F9EAC333FBE567
:1002700068F45B29400D2567F8E567600215674063
:100280000B418E0AC3E5679A5002056778FF8826FE
:10029000C26FC3E52694F84002D26F20CF0AD0E0A7
:1002A000D0D043E610D2AD32C2CF053A7801E52A6C
:1002B0006005307402152AC3E55C94014005755F42
:1002C0000041D4756000756900E55F2401F55F5059
:1002D00003755FFFD0E0D0D043E610D2AD32C2AF9D
:1002E00053E67F7592FA7593FFC260759104D2AFA1
:1002F00032C2AF53E6EFC2ADC0D0C0E0C0F0D2D33F
:10030000D2AFA8FBA9FCC2D8307102615853DACF32
:10031000207E0343DA10307E0343DA20D271E58079
:10032000307E01F420E602612F88278928A17D53C1
:10033000DACF207E0343DA20307E0343DA10C2D8BE
:10034000C271307402A1697800E580307E01F4301A
:10035000E602A169885CA15153DACF207E0343DA1B
:1003600020307E0343DA10C271206102813153DAFA
:10037000CF207E0343DA10307E0343DA20C2D8D286
:100380007188578958C3E89555F8E99556F97B0067
:100390007E087A00C3E8948CE994005005755B00F0
:1003A0008123882178A2E6A8216055C3E894C8E992
:1003B00094005008E4D2E4FB7A0A61FEC3E8946832
:1003C000E994015008E4D2E3FB7A0F61FEC3E8949C
:1003D000D0E994025008E4D2E2FB7A1E61FEC3E841
:1003E00094A0E994055008E4D2E1FB7A3C61FEC395
:1003F000E89498E994085008E4D2E0FB7A787E000B
:10040000C3E89559FCE9955AFD30E70AECF424015C
:10041000FCEDF43400FD755B00C3EC9AED9E5003D7
:10042000755B018859895A8557558558567802A1B8
:1004300051C3E89527F8E99528F9C3E913F9E813BA
:10044000F8C3E824B4FCE93400FD816BE9C313F977
:10045000E813F8307902A12EE9C313F9E813F83054
:100460007802A12EE9C313FDE813FC20612CC3EC34
:0E0470009482ED940240028182ED701EC3EC76
:10047E0094C850180529E52970021529C3E5299459
:10048E000A5002A169755C00D270A169E52960026B
:10049E0015297888E6F97400207F087896B903024A
:1004AE00789EE624FAFEE43400FFC3EC9EFCED9F3A
:1004BE00FD9208B90310A2085007207609D2768162
:1004CE00D4307602C276A2085016B9030DECF4248D
:1004DE0001FCEDF43400FD0204EE78007900A13544
:1004EE00B90315EC33FCED33FDC3EC940AFCED942B
:1004FE0000FD50047C007D00C3EC94FFED940040A1
:10050E000678FF7900A135EC8572F0A4C5F0A2F74C
:10051E0033F87900400302055178FF790002055146
:10052E00E9C313F9E813F8307C0EE9600278FFC3D3
:10053E00E81338F8E43400F9C3E894FFE994004076
:10054E000278FF885CD270206102A169741FF45595
:10055E002F4BF52FC274EB7002D274752A183074BB
:10056E0003752A0A306102A17D20740353DAFE203E
:10057E007403752B06D0F0D0E0D0D0D2AD43E61088
:10058E003279010205AD79030205AD790A0205AD96
:10059E00791E0205AD79640205AD79C80205AD7804
:1005AE0017E4D5E0FDD8FAD9F6227A507C787B0490
:1005BE000205DC7A3C7C3C7B030205DC7A3C7C3217
:1005CE007B0A0205DC7A047C5A7B500205DCE5735B
:1005DE00D5E00122EBF81CECC0E0E8C0E0C296D2F8
:1005EE0091E573D5E0FDC291D296D0E0F8D0F0AC93
:1005FE00F0A9F07E0A74B4D5E0FDDEF97466D5E09C
:10060E00FDD9F9D8D2DAC722C37C007D0075F0007F
:10061E0005F0EA33FAEB33FB50F6EB13FBEA13FA71
:10062E00C3E9FFE8FEE89AF8E99BF95004EFF9EE0A
:10063E00F8B3EC33FCED33FDD5F0DFEDF9ECF82239
:10064E00E889F08A20D2D4F8A9F07B0030F70B7B32
:10065E00FFF42401F8E9F43400F9E88520F0A4ADA4
:10066E00F0F8E98520F0A4AFF0FEED2EF974003F0E
:10067E00FA7C04C3EA13FAE913F9E813F8DCF48BF5
:10068E00F030F70AE8F42401F8E9F43400F9E889C7
:10069E00F0C2D4F8A9F0227882B60403020700C390
:1006AE00E55C940140030206CA852224E4F544F574
:1006BE0045F546F547F548C26E0207007882E6FC1E
:1006CE00D26EE522F523783879C7AA40AB41C3EB49
:1006DE0013FBEA13FAEC146013C3EB13FBEA13FAE1
:1006EE00EC14146007C3EB13FBEA13FAD11688441B
:1006FE00894522C3E5449523F8E5459400F9500C4D
:10070E00C3E89480E994FF4016020731C3E8947F52
:10071E00E994005003020731787F7900020731789F
:10072E008079FF8849894A22E5492546F8E54A3508
:10073E0047F9854A20E4300701F43548FA30E709D5
:10074E00C3EA94F0401502076FC3EA940F500302F8
:10075E00076F78FF79FF7A0F02076F780079007ABA
:10076E00F0C3E5249561500AC374019524500B0221
:10077E00078DE54A20E70E02078DE54A30E7068829
:10078E004689478A482278A5E6FAC3E54933F8E553
:10079E004A33F9D14EE930E70CC3E89480E994FF6F
:1007AE0040140207C8C3E8947FE994005002E1C8E0
:1007BE00787F7900E1C8788079FFE820E715C3E5F6
:1007CE002398F84009C3E8940140030207EF78012B
:1007DE000207EFE8F424012523F840030207EF781F
:1007EE00FF884B2278A6E6FAA847A948D14EE930F1
:1007FE00E70CC3E89401E994FF4016020823C3E80E
:10080E0094FFE99400500302082378FF7900020850
:10081E0023780179FFE920E715C3E54B98F84009E5
:10082E00C3E89401400302084A780102084AE8F43A
:10083E002401254BF8400302084A78FF88242278C9
:10084E00FF20692879A1E76023E541601F74FF85C9
:10085E0041F0848539F0306A0375F005A4F8C5F0CF
:0F086E00600278FFC3E895645002A86488632293
:10087D00C3E5409440E5419401E563500314018EB6
:10088D00046002F563220208962275E890227883AF
:10089D00E6FF30EDF9A8BDA9BE0570C3E57094085B
:1008AD004052757000E9FA79A0E76044EA7007E5F7
:1008BD0071601B0208CFC3E895716010E571500699
:1008CD00600C140208DB0460F90208DBE571F571B8
:1008DD00C394ED401B7561C0C394064013756180D0
:1008ED00C39406400B756140C394064003756100C7
:1008FD0075BB0A22E5612410500274FFF5617982FF
:10090D00B704022128C3A861E524985002A824C386
:10091D00E895634002A86388258826E570B407032F
:10092D0075BB1022743279A787F0A4C5F0A2F733F6
:10093D00F8C3E895614002A861882288248825883B
:10094D00268864227540007541F022C2AF75C8201B
:10095D00A8CCA9CDAA3A30CF010A75C824D2AFAB25
:10096D003BAC3C883B893CC3E89BF8E99C2069087B
:10097D00F9306602416721C1AD3D8A3DF9EA9DFA24
:10098D00600478FF79FFAE3EAF3F8B3E8C3FA83BB6
:10099D00A93CC3E89EF8E99FF9C3E54113FBE54087
:1009AD0013FAE82AF540E93BF54150067540FF750D
:1009BD0041FF410EAA40AB41AC40AD417E047F02E8
:1009CD00C3EB9404400D1E1FC3EB94084005206A31
:1009DD00021E1FC3ED13FDEC13FCDEF7C3EA9CFAF8
:1009ED00EB9DFBEF6009C3E913F9E813F8DFF7EAB4
:1009FD0028FAEB39FB8A408B4150067BFF8B408BED
:100A0D0041C3EB94025002D2663069047F03413931
:100A1D007892E6FFC3E537948240110FC3E5379412
:100A2D00A040010FC3EF940640027F057E02E54111
:100A3D00C4540FF9E541C454F0F8E540C4540F28EF
:100A4D00F8C3E89EFAE99400FB4009C3EA9402EB6F
:100A5D00940050047A02E4FB41B3AA40AB41EBC4CD
:100A6D00FEEAC4540F4EFCC3EA9CFAEB9400FBC3A0
:100A7D00E813C313F8EA28FAEB3400FB8A408B41E4
:100A8D00C3EB94024002C2667802EBC4FE7B00EA1F
:100A9D00C4540F4EFAC3EA98FA4005C394025002AB
:100AAD007A027892E6FF30600241B3855192855209
:100ABD0093D26043E680C3E49AF8E49BF930660272
:100ACD00613FE8FAE9FBD3E913FDE813FC8851898E
:100ADD0052C3EF94036038EF20E00DE82CF8E93DA8
:100AED00F9ECFAEDFB020B08E828F8E939F9C3E84F
:100AFD002402F8E93400F97AFE7BFFC3EF9403403A
:100B0D000E8A538B54884D894E8C4F8D506173884E
:100B1D005389548A4D8B4E8C4F8D503069127553BD
:100B2D00F07554FF754FF07550FF7551F07552FF0C
:100B3D006173E8FAD3E813FC8851C3EF9403602086
:100B4D00EF20E007E82CF8ECFA615FE8282402F8C2
:100B5D007AFEC3EF940340088A53884D8C4F61731E
:100B6D0088538A4D8C4FE568C3335002646BF5682A
:100B7D00306002617D753402D26043E680E52D540C
:100B8D00066034A840A941C3E913F9E813F8C3E995
:100B9D0013F9E813F8306904E92440F9C2AF53E6BC
:100BAD007F759100C3E498F594E499F595759104DA
:100BBD00D26043E680D2AF22D26475430075200027
:100BCD00306C03752040020BE4D264754300752030
:100BDD0040306C0375200078017901206620E52DE9
:100BED0054066002C2647914E541C313700104F820
:100BFD00C3941440027814306904781B791B20606B
:100C0D0010E543600C306903D53404D26D818E71CB
:100C1D00850543E59B5440B520028178306909086C
:100C2D00C3E899400118810B20640A08C3E8994074
:100C3D000261E4810BC264C2AF53E67F759100304F
:100C4D0066127594007595F8759104D26043E6802F
:100C5D00D2AF61E4E5417EFFC3334005C3334001AC
:0E0C6D00FEC3E49E759400F5958155C3E533F2
:100C7B009401500261E430640261E4D802818C81FA
:100C8B000BC26DC2AF53E67F7591008553948554AB
:100C9B0095759104854D92854E93D26043E680D233
:100CAB00AFE52D54066008206A020533020CCA30EA
:100CBB006D0D206C0A2064071581158102156422C5
:100CCB0078003064027801E53775F007A4F9E5F098
:100CDB0028F5F0E9A2F013A2F113A2F213F537C332
:100CEB0094785003753778C3E53795384008D2654B
:100CFB00C290C287C291306002A101854F9285508C
:100D0B0093D26043E68022207D16C2AF754202D299
:100D1B0094C296306202D291D2AF759F34020F010A
:100D2B00C2AF754202D294C295306202D290D2AF5A
:100D3B00759F34020F01307243207D20C2AF754284
:100D4B000390013B757B10C291D295306204D28720
:100D5B00A15FC294D2AF759F35020F01C2AF75422E
:100D6B000390013B757B10C290D296306204D28700
:100D7B00A17FC294D2AF759F32020F01207D17C2A3
:100D8B00AF754203900116C291306202D287D2AF87
:100D9B00759F35020F01C2AF754203900116C290C9
:100DAB00306202D287D2AF759F32020F01207D16BF
:100DBB00C2AF754204D296C295306202D287D2AFCF
:100DCB00759F32020F01C2AF754204D295C29630A5
:100DDB006202D287D2AF759F35020F01307243206A
:100DEB007D20C2AF75420590012A757B40C287D228
:100DFB0094306204D290C105C296D2AF759F340273
:100E0B000F01C2AF75420590014C757B20C287D292
:100E1B0094306204D291C125C295D2AF759F340232
:100E2B000F01207D17C2AF75420590010CC28730B0
:100E3B006202D290D2AF759F34020F01C2AF7542DE
:100E4B0005900120C2873062EBD291D2AF759F34EF
:100E5B00020F01207D16C2AF754206D295C29430A7
:100E6B006202D290D2AF759F35020F01C2AF7542AD
:100E7B0006D296C294306202D291D2AF759F3202E3
:100E8B000F01307243207D20C2AF75420190014C9F
:100E9B00757B20C290D296306204D291C1ABC295C1
:100EAB00D2AF759F32020F01C2AF75420190012A7A
:100EBB00757B40C291D295306204D290C1CBC29661
:100ECB00D2AF759F35020F01207D17C2AF7542015E
:100EDB00900120C290306202D291D2AF759F320244
:100EEB000F01C2AF75420190010CC291306202D268
:100EFB0090D2AF759F35C2652290010A757B00C2F7
:100F0B0090C287C291D296D294D295C26222788037
:100F1B0076090876090876040876FF0876030876C2
:100F2B00FF08760B087603087601087601788C7635
:100F3B00010876FF0876FF0876FF0876FF0876FF34
:100F4B000876030876FF0876FF0876FF08760A080E
:100F5B0076F50876500876500876040876FF087602
:100F6B000308760008767D0876FF0876010876017F
:100F7B00087600087603087601227887E6FFC272AE
:100F8B00BF0302D2727888E6C394036008C27DE681
:100F9B0030E102D27DC27E7889E630E102D27EC397
:100FAB00EF94026008758E01D273020FBD758E002F
:100FBB00C273227880E6149000809378A5F678812E
:100FCB00E6149000809378A6F67886E61490008D50
:100FDB009378A7F67886E6F539C3940250037539F2
:100FEB0002789CE67538FFB402037538A0B403038E
:100FFB0075388278A3E61490009A93F566120F0465
:10100B0022227896E6FA7897E6FB7888E6B4030511
:10101B00C3EB940EFB307F047A007BFFC3EB9AFC8F
:10102B00C3948250027C827572000572EC8572F05B
:10103B00A4C3E5F0947D40F222D27F110D12059EE0
:10104B0012059E7A007B007C10120594E55C2AFA4F
:10105B0074003BFBDCF37C04C3EB13FBEA13FADCFD
:0F106B00F7FEC27F110D22757C00757D00E5EF49
:10107A0020E6037520000520903FFFE52014600656
:10108A00901FFF1460009304600375EF147597DED8
:10109A007597AD7581C043FF8012058F75EF047592
:1010AA00A900E5C7240220E70DF521E5B120E006F5
:1010BA008521C743B101120F047580FF75A480759D
:1010CA00F1C275D4BF75907475A57375F27B75D529
:1010DA000475A60175E34075E201120F04E4F8F6FF
:1010EA00D8FD756801120F191215B57898867375AF
:1010FA003001C2AF12059E1205CAC2AF757C0075D7
:10110A007D0078FA79FA308607D9FBD8F7021C00F5
:10111A00120F85120FBE110C110D78988673120FDB
:10112A000475881075890275C82475910475D840AC
:10113A0075A82275B80275E690759B80759D007535
:10114A00D19C75BC5975BB0A75E88075B201120548
:10115A008FD2AF12089375360053DACF207E03433D
:10116A00DA20307E0343DA1043DA01C2D8C27112A0
:10117A0005A8D2617B037A0CE55B70077A0CDB0366
:10118A0002110412059E207003021104C270E55C6C
:10119A00C3940240E1E52F541F855E5DF55EB55D9F
:1011AA00D5DAD5C26153DACF207E0343DA20307E06
:1011BA000343DA10C2D8C27178A2E67008D274E585
:1011CA002F54E0F52FC2757529001205A330740952
:1011DA00C3E529940A4002D2751205947802307444
:1011EA00027800C3E55C9840F0C2AF1205D3D2AFD3
:1011FA001205A8754C007888E6B4030241F312057B
:10120A0094788CE6C3940150030212F3E530C39438
:10121A000150030212F3757CA5757DF1207435C364
:10122A00E55C94FF50030212F3C2AF1205D3D2AFAA
:10123A001205A3C3E55C940150EFC2AF1205B812C0
:10124A0005991205B8D2AF1205A3C3E55C94FF4015
:10125A00E902176D7F02D27F110D1205A3C2AFC238
:10126A007F110DAE5CC3E55C947FD2AF500261037F
:10127A0012058FC2AF1205D3D2AFDFDA1144C3EE23
:10128A007897F61205A81216F07F0AD27F110D126E
:10129A0005A3C2AFC27F110DAE5CC3E55C947FD2D9
:1012AA00AF50E612058FC2AF1205B81205991205A2
:1012BA00B8D2AFDFD61144EE24037896F6F87997C0
:1012CA00E7C394824003985006E824827897F6127E
:1012DA0005A812160312171F1205A3110DC3E55C08
:1012EA0094FF5002412002176D757C00757D00C382
:1012FA00E55C954C4003855C4C1205A3780179881E
:10130A00E7B403027805C3E55C9840024100C2AF26
:10131A001205D3D2AF1205A8753000E4F531F532C3
:10132A000531E531F4703F0532789AE67819146090
:10133A0012783214600D787D14600878FA1460030C
:10134A00753200C3E53298401D120F0412058F153D
:10135A003275310078998673C2AF1205D3D2AF784D
:10136A009886731205A3120599E52A70053074024E
:10137A00210478012074027806C3E55C9840A178BC
:10138A0088E6C3940360031205A3E52A70030211D9
:10139A0004C2AF120F04E4F522F523F524F525F56E
:1013AA0026F567D2AF7885E6C333F565E4F544F5EB
:1013BA0045F546F547F548F570F52CF52DF53775E1
:1013CA00700875BB1012058F12089730EDFDA8BD85
:1013DA00A9BEE97001F8887112089B75700875BB7F
:1013EA0010120F85C2AF7561FF120931852261851E
:1013FA002262852263D2AF75220175240175250107
:10140A00752601856069756A017888E6B40307C2A2
:10141A007D307602D27DD268D269753300120E5EB3
:10142A00120E8D1209511209581209511209581235
:10143A000951120BD61206A5120CCB120D12120963
:10144A0058120BC5306E0312070120660312084DAD
:10145A0030660312087D120CCB120D411209581284
:0E146A000BD6306E03120736120CCB120DB8E3
:10147800120958120BC5306E03120794120CCB12C6
:101488000DE7120958120BD6306E031207F2120C30
:10149800CB120E5E120958120897120BC5120CCB0C
:1014A800120E8D12089B12095830693285646185C5
:1014B8006462856069756A0179187A0CC3E53399A5
:1014C800400FC269D26A8A358564618564630214F3
:1014D800E6C3E55C9401400302143C02156C306AD3
:1014E8001D206C1AE535147006C26AD26B813CF572
:1014F80035C3E55C9401400302143C02156C753653
:101508000078FA79A4E760027803C3E55F9850543D
:10151800307404E52A604D7888E6B40317207D0509
:10152800207607A13C307602A13C206C07D26C855E
:101538006461817B78F0306C058564617820C3E54F
:1015480041985002813C306C1BC26CC27D307602DF
:10155800D27DD26A753512856461813C0536E55CB9
:101568006002A16F753600C2AF120F047887E6FEDD
:101578007602120F857887EEF6E4F522F523F52436
:10158800F525F526F565752C00752D00D2AF1205E9
:10159800A3120F0478A4E66006D290D287D29130C5
:1015A8007409C3E5369404400221046125901A0D9C
:1015B8007820121645E520B4550CA3121645E520EF
:1015C800B4AA030215E3757CA5757DF1120F1912F3
:1015D8001603757C00757D00021602901A03788048
:1015E8007B0A121645A308DBF9901A0F788C7B1931
:1015F800121645A308DBF9901A2822C2AF121688E2
:10160800121665901A00740E12164AA37455121613
:101618004AA3741512164A901A0378807B0A121688
:1016280049A308DBF9901A0F788C7B19121649A385
:1016380008DBF912169B121679901A2822E493F601
:1016480022E6438F01538FFDFFC3E583941C4001BD
:1016580022EF857CB7857DB7F0538FFE22438F023A
:10166800438F01857CB7857DB7901A0DF0538FFCA9
:1016780022901A0D7455D14A901A0E74AAD14A2292
:101688007A3079D07820901A40D145E520F709A31F
:10169800DAF7227A3079D0901A40E7D14A09A3DAEA
:1016A800F922AB74A875BB01027980BB020279816B
:1016B800BB03027982BB04027984BB05027986BB2D
:1016C80006027992BB07027987BB080279A3BB0996
:1016D80002799CBB0A027988BB0B027989E8F72258
:1016E8007C051205A8DCFB22C2AF1205B81205C1A1
:1016F8001205CA1205D31205991205B81205C112AE
:1017080005CA1205D31205991205B81205C11205AA
:10171800CA1205D3D2AF22C2AF1205D31205CA121C
:1017280005C11205B81205991205D31205CA12058A
:10173800C11205B81205991205D31205CA1205C1BE
:101748001205B8D2AF22AE74AF75C2AF1205B81287
:1017580005B81205B8120599DEF21205D3120599DB
:10176800DFF8D2AF22D1F0D1E8D1E87574017575F0
:1017780001757600F14E7C05AD5C1205A8C3ED95A8
:101788005C70F5C3E55C9401400AC3E55C94FF40D6
:10179800320217A9D1AAD103D1F0C2AF75EF14D183
:1017A800E8DCD50576C3E5769403500280C6D1E817
:1017B8000575E5741490009F93F808C3E575985073
:1017C8000280AED1E8D1E80574C3E574940C5002E8
:0E17D800809C120F19D103C2AF75EF14D1E837
:0319FD0002107263
:101A00000E5515090904FF03FF0B03010155AA0137
:101A1000FFFFFFFFFF03FFFFFF0AF5505004FF0326
:091A2000007DFF0101000301FF3C
:101A4000234638355F3341232020202020202020CA
:101A500023424C48454C492346383530232020202A
:101A60002020202020202020202020202020202076
:101C0000C2AFC2D37597DE7597AD7581C075A90057
:101C100043FF80752438752503B1DB7529A5752A26
:101C2000F175E34043F14053A4BF75D4FFD2867DE4
:101C3000FA780379E67C10752200752300901DE880
:101C40007B06752498752501308602814820860818
:101C5000D8FBD9F9DCF781BA308608D8FBD9F9DC92
:101C6000F781BAB19BE493A3C39A6004DDC381BA40
:101C7000DBDBB18D600281317B08E493FAA3B16EA6
:101C8000DBF87A30B16E752200752300B18DEAFC65
:101C9000EBFDC3ED94FE400EB18D8A278B28ED300D
:101CA000E0048A828B83B18D7AC270D8C3ED94FE32
:101CB000601950CEBD0029EC600F7520007521FF22
:101CC000752900752A000200008100A827A92808AC
:101CD00009D804D90281DDB191EAF281D10D81A642
:101CE000C3ED94035051EDA2E092007AC5C3E582A2
:101CF0009400E583941C508C200010438F02438F86
:101D0000018529B7852AB7F0300027A827A9280818
:101D100009438F01538FFDD804D902A132C3E58353
:101D2000941C4003A3A117E28529B7852AB7F0A325
:101D3000A117538FFC81827AC1BD030CE493A3FAEF
:101D4000B152DCF8B14A81828184AA22AB23B16E00
:101D5000EBFAEA6222752608C3E52313F523E52290
:101D600013F52250066323A0632201D526EAB1DBD6
:101D7000B1DB75260AEAF4200102D286300102C2E4
:101D800086B1DBC3134002C201D526EB22B191EA32
:101D9000FB208602A191308602A196752608AE240A
:101DA000AF25C3EF13FFEE13FEB1DFB1DBC3EA13C0
:101DB0003086024480FA30E703632201C3E523132F
:101DC000F523E52213F52250066323A0632201D5F3
:101DD00026D9E52265236523F52222AE24AF250E00
:101DE0000FDEFEDFFCD20122424C48656C693437BD
:061DF0003164F850060109
:00000001FF
