:030000000219FDE5
:03000B000200AA46
:03002B0002015C73
:03005B000202F0AE
:030073000202DDA9
:1000800002030406080C10182030406080040608A3
:100090000C10182030406080A0C00003070F1F0D17
:1000A0000D04050D050305030302C2AFC0D0C0E077
:1000B000206214E5256009E473E525F4F58AD2622F
:1000C000D0E0D0D0D2AF3285268AC262E526F46075
:1000D0002F30682520720DD0E0D0D0C2B1C287C2C7
:1000E00081D2AF32C2B1C287C281206F0C206509B4
:1000F000740AD5E0FDE57B4280D0E0D0D0D2AF32AB
:10010000758A00C28DD26201F901B9306805206597
:1001100002D2B101B9306805206502D28701B93039
:100120006805206502D28101B9C28230680A206563
:10013000077408D5E0FDD2B101B9C28630680A2043
:1001400065077408D5E0FDD28701B9C28030680A1E
:100150002065077408D5E0FDD28101B9C2AFC2ADF8
:1001600053E6EFC0D0C0E0D2D3D2AFC2CEE52A6012
:1001700007207449152A21BD7800790020742EE5E6
:1001800080307E01F430E50278FF53DACF207E0321
:1001900043DA20307E0343DA10C2D8C271E58030E2
:1001A0007E01F430E50279FFC3E89970CB3061033A
:1001B000752A18207403752A18885CD27020740D73
:1001C000E52B6004152B21CD43DA01C2D820700243
:1001D000413CA85C206102C2702074367982B70469
:1001E00031C3E894F0400374F0F8E8C4540F28F8E1
:1001F0007984B703024112C313C313872120080275
:10020000C313200A06C3C898F8411228F850037493
:10021000FFF88822E52D54066022206B1FE536C3C7
:1002200033C333F8E564C313C313F9C39522400203
:100230008922E82522F52250037522FF7882B60430
:1002400059852224A824C3E52495614002A861C3EE
:10025000E895634002A8638825E5667002418DC376
:10026000E8AA669A5003E8FAE4F9EAC333FBE568C2
:10027000F45B29400D2567F8E56760021567400BC0
:10028000418D0AC3E5679A5002056778FF8826C248
:100290006FC3E52694F84002D26F20CF0AD0E0D099
:1002A000D043E610D2AD32C2CF053A7801E52A60DC
:1002B00005307402152AC3E55C94014005755F00A2
:1002C00041D3756000756900E55F2401F55F500357
:1002D000755FFFD0E0D0D043E610D2AD32C2AF534D
:1002E000E67F7592FA7593FFC260759104D2AF32C2
:1002F000C2AF53E6EFC2ADC0D0C0E0C0F0D2D3D29F
:10030000AFA8FBA9FCC2D8307102615753DACF20E5
:100310007E0343DA10307E0343DA20D271E5803069
:100320007E01F420E502612E88278928A17C53DA1A
:10033000CF207E0343DA20307E0343DA10C2D8C2D6
:1003400071307402A1687800E580307E01F430E5F8
:1003500002A168885CA15053DACF207E0343DA20E3
:10036000307E0343DA10C271206102813053DACF4C
:10037000207E0343DA10307E0343DA20C2D8D271E4
:1003800088578958C3E89555F8E99556F97B007E5A
:10039000087A00C3E8948CE994005005755B0081ED
:1003A00022882178A2E6A8216055C3E894C8E99480
:1003B000005008E4D2E4FB7A0A61FDC3E89468E9DE
:1003C00094015008E4D2E3FB7A0F61FDC3E894D0B6
:1003D000E994025008E4D2E2FB7A1E61FDC3E8947E
:1003E000A0E994055008E4D2E1FB7A3C61FDC3E842
:1003F0009498E994085008E4D2E0FB7A787E00C330
:10040000E89559FCE9955AFD30E70AECF42401FC23
:10041000EDF43400FD755B00C3EC9AED9E5003755E
:100420005B018859895A8557558558567802A150DD
:10043000C3E89527F8E99528F9C3E913F9E813F813
:10044000C3E824B4FCE93400FD816AE9C313F9E888
:1004500013F8307902A12DE9C313F9E813F83078C5
:1004600002A12DE9C313FDE813FC20612CC3EC9419
:0F04700082ED940240028181ED701EC3EC94C8AE
:10047F0050180529E52970021529C3E529940A505A
:10048F0002A168755C00D270A168E5296002152988
:10049F007888E6F97400207F087896B90302789E71
:1004AF00E624FAFEE43400FFC3EC9EFCED9FFD92C0
:1004BF0008B90310A2085007207609D27681D330ED
:1004CF007602C276A2085016B9030DECF42401FC93
:1004DF00EDF43400FD0204ED78007900A134B90386
:1004EF0015EC33FCED33FDC3EC940AFCED9400FDE9
:1004FF0050047C007D00C3EC94FFED94004006781F
:10050F00FF7900A134EC8572F0A4C5F0A2F733F89F
:10051F007900400302055078FF7900020550E9C3C6
:10052F0013F9E813F8307C0EE9600278FFC3E81383
:10053F0038F8E43400F9C3E894FFE99400400278F6
:10054F00FF885CD270206102A168741FF4552F4B95
:10055F00F52FC274EB7002D274752A1830740375BC
:10056F002A0A306102A17C20740353DAFE2074033F
:10057F00752B06D0F0D0E0D0D0D2AD43E610327953
:10058F00010205AC79030205AC790A0205AC791EAC
:10059F000205AC79640205AC79C80205AC7817E4A2
:1005AF00D5E0FDD8FAD9F6227A507C787B04020583
:1005BF00DB7A3C7C3C7B030205DB7A3C7C327B0A9A
:1005CF000205DB7A047C5A7B500205DBE573D5E02C
:1005DF000122EBF81CECC0E0E8C0E0D282D281E54A
:1005EF0073D5E0FDC281C282D0E0F8D0F0ACF0A9A3
:1005FF00F07E0A74B4D5E0FDDEF97466D5E0FDD95E
:10060F00F9D8D2DAC722C37C007D0075F00005F05F
:10061F00EA33FAEB33FB50F6EB13FBEA13FAC3E9B9
:10062F00FFE8FEE89AF8E99BF95004EFF9EEF8B30A
:10063F00EC33FCED33FDD5F0DFEDF9ECF822E88972
:10064F00F08A20D2D4F8A9F07B0030F70B7BFFF4AF
:10065F002401F8E9F43400F9E88520F0A4ADF0F8AE
:10066F00E98520F0A4AFF0FEED2EF974003FFA7C7F
:10067F0004C3EA13FAE913F9E813F8DCF48BF0304A
:10068F00F70AE8F42401F8E9F43400F9E889F0C234
:10069F00D4F8A9F0227882B604030206FFC3E55C02
:1006AF00940140030206C9852224E4F544F545F57B
:1006BF0046F547F548C26E0206FF7882E6FCD26E19
:1006CF00E522F523783879C7AA40AB41C3EB13FB7A
:1006DF00EA13FAEC146013C3EB13FBEA13FAEC14EE
:1006EF00146007C3EB13FBEA13FAD115884489454D
:1006FF0022C3E5449523F8E5459400F9500CC3E86F
:10070F009480E994FF4016020730C3E8947FE99480
:10071F00005003020730787F790002073078807924
:10072F00FF8849894A22E5492546F8E54A3547F9C0
:10073F00854A20E4300701F43548FA30E709C3EA67
:10074F0094F0401502076EC3EA940F500302076E30
:10075F0078FF79FF7A0F02076E780079007AF0C37D
:10076F00E5249561500AC374019524500B02078C40
:10077F00E54A20E70E02078CE54A30E706884689EE
:10078F00478A482278A5E6FAC3E54933F8E54A33A4
:10079F00F9D14DE930E70CC3E89480E994FF401498
:1007AF000207C7C3E8947FE994005002E1C7787F3E
:1007BF007900E1C7788079FFE820E715C3E5239832
:1007CF00F84009C3E8940140030207EE78010207DD
:1007DF00EEE8F424012523F840030207EE78FF88A2
:1007EF004B2278A6E6FAA847A948D14DE930E70C85
:1007FF00C3E89401E994FF4016020822C3E894FF6E
:10080F00E99400500302082278FF79000208227849
:10081F000179FFE920E715C3E54B98F84009C3E8D4
:10082F00940140030208497801020849E8F42401C1
:10083F00254BF8400302084978FF88242278FF20CF
:10084F00692879A1E76023E541601F74FF8541F0B6
:10085F00848539F0306A0375F005A4F8C5F060029D
:0E086F0078FFC3E895645002A864886322C332
:10087D00E5409440E5419401E563500314018D0476
:10088D006002F563220208952275E890227883E6CE
:10089D00FF30EDF9A8BDA9BE0570C3E57094084001
:1008AD0052757000E9FA79A0E76044EA7007E571C6
:1008BD00601B0208CEC3E895716010E571500660AB
:1008CD000C140208DA0460F90208DAE571F571C357
:1008DD0094A8401B7561C0C394054013756180C316
:1008ED009405400B756140C3940540037561007517
:1008FD00BB0622E5612410500274FFF5617982B7C1
:10090D0004022127C3A861E524985002A824C3E856
:10091D0095634002A86388258826E570B4070375A2
:10092D00BB1E22743279A787F0A4C5F0A2F733F865
:10093D00C3E895614002A86188228824882588260D
:10094D008864227540007541F022C2AF75C820A899
:10095D00CCA9CDAA3A30CF010A75C824D2AFAB3B92
:10096D00AC3C883B893CC3E89BF8E99C206908F9BD
:10097D00306602416621C0AD3D8A3DF9EA9DFA60BF
:10098D000478FF79FFAE3EAF3F8B3E8C3FA83BA96D
:10099D003CC3E89EF8E99FF9C3E54113FBE540131D
:1009AD00FAE82AF540E93BF54150067540FF7541DF
:1009BD00FF410DAA40AB41AC40AD417E047F02C367
:1009CD00EB9404400D1E1FC3EB94084005206A02F2
:1009DD001E1FC3ED13FDEC13FCDEF7C3EA9CFAEB0F
:1009ED009DFBEF6009C3E913F9E813F8DFF7EA2877
:1009FD00FAEB39FB8A408B4150067BFF8B408B41D4
:100A0D00C3EB94025002D2663069047F03413878FB
:100A1D0092E6FFC3E537948240110FC3E53794A0EA
:100A2D0040010FC3EF940640027F057E02E541C4ED
:100A3D00540FF9E541C454F0F8E540C4540F28F8BB
:100A4D00C3E89EFAE99400FB4009C3EA9402EB94D3
:100A5D000050047A02E4FB41B2AA40AB41EBC4FE64
:100A6D00EAC4540F4EFCC3EA9CFAEB9400FBC3E8B6
:100A7D0013C313F8EA28FAEB3400FB8A408B41C309
:100A8D00EB94024002C2667802EBC4FE7B00EAC41E
:100A9D00540F4EFAC3EA98FA4005C3940250027AF5
:100AAD00027892E6FF30600241B2855192855293F1
:100ABD00D26043E680C3E49AF8E49BF930660261A4
:100ACD003EE8FAE9FBD3E913FDE813FC885189529E
:100ADD00C3EF94036038EF20E00DE82CF8E93DF901
:100AED00ECFAEDFB020B07E828F8E939F9C3E82425
:100AFD0002F8E93400F97AFE7BFFC3EF9403400E50
:100B0D008A538B54884D894E8C4F8D50617288530A
:100B1D0089548A4D8B4E8C4F8D503069127553F020
:100B2D007554FF754FF07550FF7551F07552FF619B
:100B3D0072E8FAD3E813FC8851C3EF94036020EFF9
:100B4D0020E007E82CF8ECFA615EE8282402F87A38
:100B5D00FEC3EF940340088A53884D8C4F61728811
:100B6D00538A4D8C4FE568C3335002646BF5683082
:100B7D006002617C753402D26043E680E52D540637
:100B8D006034A840A941C3E913F9E813F8C3E91388
:100B9D00F9E813F8306904E92440F9C2AF53E67F50
:100BAD00759100C3E498F594E499F595759104D287
:100BBD006043E680D2AF22D26475430075200030C9
:100BCD006C03752040020BE3D26475430075204021
:100BDD00306C0375200078017901206620E52D54D5
:100BED00066002C2647914E541C313700104F8C3B1
:100BFD00941440027814306904781B791B2060101E
:100C0D00E543600C306903D53404D26D818D718458
:100C1D000543E59B5440B52002817730690908C32F
:100C2D00E899400118810A20640A08C3E899400236
:100C3D0061E3810AC264C2AF53E67F7591003066ED
:100C4D00127594007595F8759104D26043E680D2C3
:100C5D00AF61E3E5417EFFC3334005C3334001FE81
:0F0C6D00C3E49E759400F5958154C3E53394015B
:100C7C00500261E330640261E3D802818B810AC2C5
:100C8C006DC2AF53E67F759100855394855495756D
:100C9C009104854D92854E93D26043E680D2AFE5A8
:100CAC002D54066008206A020533020CC9306D0D04
:100CBC00206C0A2064071581158102157B227800AF
:100CCC003064027801E53775F007A4F9E5F028F5F2
:100CDC00F0E9A2F013A2F113A2F213F537C3947842
:100CEC005003753778C3E53795384008D265C2B1E3
:100CFC00C287C281306002A100854F92855093D289
:100D0C006043E68022207D16C2AF754202C286D2B5
:100D1C0082306202D281D2AF759F02020F00C2AF45
:100D2C00754202C286D280306202D2B1D2AF759FB8
:100D3C0002020F00307243207D20C2AF7542039037
:100D4C00013A757B40C281C280306204D287A15EB9
:100D5C00D286D2AF759F03020F00C2AF75420390CB
:100D6C00013A757B40C2B1C282306204D287A17E47
:100D7C00D286D2AF759F01020F00207D17C2AF75CE
:100D8C004203900115C281306202D287D2AF759FA7
:100D9C0003020F00C2AF754203900115C2B130625D
:100DAC0002D287D2AF759F01020F00207D16C2AF11
:100DBC00754204C282D280306202D287D2AF759F54
:100DCC0001020F00C2AF754204C280D282306202AF
:100DDC00D287D2AF759F03020F00307243207D2063
:100DEC00C2AF754205900129757B04C287C286305B
:100DFC006204D2B1C104D282D2AF759F02020F003D
:100E0C00C2AF75420590014B757B01C287C286301B
:100E1C006204D281C124D280D2AF759F02020F002E
:100E2C00207D17C2AF75420590010BC2873062025C
:100E3C00D2B1D2AF759F02020F00C2AF75420590BE
:100E4C00011FC2873062EBD281D2AF759F02020FB5
:100E5C0000207D16C2AF754206C280D28630620277
:100E6C00D2B1D2AF759F03020F00C2AF754206C25A
:100E7C0082D286306202D281D2AF759F01020F00FE
:100E8C00307243207D20C2AF75420190014B757BBF
:100E9C0001C2B1C282306204D281C1AAD280D2AF67
:100EAC00759F01020F00C2AF754201900129757B3D
:100EBC0004C281C280306204D2B1C1CAD282D2AF24
:100ECC00759F03020F00207D17C2AF754201900180
:100EDC001FC2B1306202D281D2AF759F01020F00E6
:100EEC00C2AF75420190010BC281306202D2B1D205
:100EFC00AF759F03C26522900109757B00C2B1C218
:100F0C0087C281C282C286C280C262227880760980
:100F1C000876090876040876FF0876030876FF0839
:100F2C007609087603087601087601788C76010834
:100F3C0076FF0876FF0876FF0876FF0876FF0876BE
:100F4C00030876FF0876FF0876FF08760A0876F520
:100F5C000876500876500876040876FF0876030861
:100F6C00760008767D0876FF08760108760108760B
:100F7C0000087603087601227887E6FFC272BF0369
:100F8C0002D2727888E6C394036008C27DE630E131
:100F9C0002D27DC27E7889E630E102D27EC3EF9424
:100FAC00026008758E01D273020FBC758E00C2737D
:100FBC00227880E6149000809378A5F67881E61468
:100FCC009000809378A6F67886E61490008D93783E
:100FDC00A7F67886E6F539C3940250037539027882
:100FEC009CE67538FFB402037538A0B4030375385A
:100FFC008278A3E61490009A93F566120F0322C22E
:10100C00B3789DE66002D2B3227896E6FA7897E63A
:10101C00FB7888E6B40305C3EB940EFB307F047AAF
:10102C00007BFFC3EB9AFCC3948250027C827572E6
:10103C00000572EC8572F0A4C3E5F0947D40F222B9
:10104C00D27F111512059D12059D7A007B007C1034
:10105C00120593E55C2AFA74003BFBDCF37C04C3B9
:0E106C00EB13FBEA13FADCF7FEC27F1115222C
:10107A00757C00757D00E5EF20E6037520000520EC
:10108A00903DFFE520146006901FFF146000930452
:10109A00600375EF1653D9BF75D9087581C043FF30
:1010AA008012058E75EF0643B203E5B3240220E7EA
:1010BA000DF521E5B120E0068521B343B101120FF8
:1010CA000375803875A4C775F1FF75D4DF7590FF75
:1010DA0075A50075F20075D50075A0FF75A6007597
:1010EA00F30075D60075B0E475A71B75F4FF75E2B9
:1010FA0041120F03E4F8F6D8FD756801120F1812B1
:10110A0015CC78988673753001C2AF12059D120509
:10111A00C9C2AF757C00757D0078FA79FA30850707
:10112A00D9FBD8F7021C00120F84120FBD110B1144
:10113A001578988673120F0375881075890275C819
:10114A002475910475D84075A82275B80275E69081
:10115A00759B80759D0075D10E75BC5875BB06755B
:10116A00BA1F75E88012058ED2AF12089275360042
:10117A0053DACF207E0343DA20307E0343DA10436A
:10118A00DA01C2D8C2711205A7D2617B037A0CE5D3
:10119A005B70077A0CDB0302111B12059D2070039A
:1011AA0002111BC270E55CC3940240E1E52F541F93
:1011BA00855E5DF55EB55DD5DAD5C26153DACF20BD
:1011CA007E0343DA20307E0343DA10C2D8C2717834
:1011DA00A2E67008D274E52F54E0F52FC27575297E
:1011EA00001205A2307409C3E529940A4002D27597
:1011FA0012059378023074027800C3E55C9840F0D7
:10120A00C2AF1205D2D2AF1205A7754C007888E694
:10121A00B40302610A120593788CE6C39401500361
:10122A0002130AE530C39401500302130A757CA520
:10123A00757DF1207435C3E55C94FF500302130AEF
:10124A00C2AF1205D2D2AF1205A2C3E55C94015017
:10125A00EFC2AF1205B71205981205B7D2AF120541
:10126A00A2C3E55C94FF40E90217847F02D27F1192
:10127A00151205A2C2AFC27F1115AE5CC3E55C941C
:10128A007FD2AF5002611A12058EC2AF1205D2D2B6
:10129A00AFDFDA114CC3EE7897F61205A7121707DB
:1012AA007F0AD27F11151205A2C2AFC27F1115AEF5
:1012BA005CC3E55C947FD2AF50E612058EC2AF12D2
:1012CA0005B71205981205B7D2AFDFD6114CEE2436
:1012DA00037896F6F87997E7C39482400398500604
:1012EA00E824827897F61205A712161A12173612F0
:1012FA0005A21115C3E55C94FF5002413702178419
:10130A00757C00757D00C3E55C954C4003855C4C9B
:10131A001205A278017988E7B403027805C3E55C6F
:10132A009840024117C2AF1205D2D2AF1205A77573
:10133A003000E4F531F5320531E531F4703F05321C
:10134A00789AE67819146012783214600D787D1450
:10135A00600878FA146003753200C3E53298401DBC
:10136A00120F0312058E153275310078998673C2F1
:10137A00AF1205D2D2AF789886731205A2120598D9
:10138A00E52A7005307402211B7801207402780660
:10139A00C3E55C9840A17888E6C39403600312050C
:1013AA00A2E52A700302111BC2AF120F03E4F52251
:1013BA00F523F524F525F526F567D2AF7885E6C33A
:1013CA0033F565E4F544F545F546F547F548F57016
:1013DA00F52CF52DF53775700875BB1E12058E12A2
:1013EA00089630EDFDA8BDA9BEE97001F888711212
:1013FA00089A75700875BB1E120F84C2AF7561FF1B
:10140A00120930852261852262852263D2AF752254
:10141A0001752401752501752601856069756A01C2
:10142A007888E6B40307C27D307602D27DD268D2CC
:10143A0069753300120E5D120E8C1209501209578B
:10144A00120950120957120950120BD51206A4128A
:10145A000CCA120D11120957120BC4306E0312076F
:0D146A000020660312084C30660312087C57
:10147700120CCA120D40120957120BD5306E031207
:101487000735120CCA120DB7120957120BC4306E6A
:1014970003120793120CCA120DE6120957120BD545
:1014A700306E031207F1120CCA120E5D12095712A1
:1014B7000896120BC4120CCA120E8C12089A120943
:1014C70057306932856461856462856069756A0130
:1014D70079187A0CC3E53399400FC269D26A8A3505
:1014E7008564618564630214FDC3E55C9401400370
:1014F700021453021583306A1D206C1AE5351470E7
:1015070006C26AD26B8153F535C3E55C940140038B
:1015170002145302158375360078FA79A4E760023E
:101527007803C3E55F985054307404E52A604D781A
:1015370088E6B40317207D05207607A1533076028D
:10154700A153206C07D26C856461819278F0306C6E
:10155700058564617820C3E5419850028153306C5A
:101567001BC26CC27D307602D27DD26A7535128578
:10157700646181530536E55C6002A186753600C259
:10158700AF120F037887E6FE7602120F847887EE94
:10159700F6E4F522F523F524F525F526F565752CF2
:1015A70000752D00D2AF1205A2120F0378A4E660D2
:1015B70006D2B1D287D281307409C3E5369404408C
:1015C70002211B613C901A0D782012165CE520B4AD
:1015D700550CA312165CE520B4AA030215FA757C14
:1015E700A5757DF1120F1812161A757C00757D000E
:1015F700021619901A0378807B0A12165CA308DB7F
:10160700F9901A0F788C7B1912165CA308DBF990F6
:101617001A2822C2AF12169F12167C901A00740E57
:10162700121661A37455121661A3741512166190F0
:101637001A0378807B0A121660A308DBF9901A0F49
:10164700788C7B19121660A308DBF91216B21216F2
:1016570090901A2822E493F622E6438F01538FFDD8
:10166700FFC3E583941C400122EF857CB7857DB7D6
:10167700F0538FFE22438F02438F01857CB7857D10
:10168700B7901A0DF0538FFC22901A0D7455D16143
:10169700901A0E74AAD161227A3079D07820901AE4
:1016A70040D15CE520F709A3DAF7227A3079D090A8
:1016B7001A40E7D16109A3DAF922AB74A875BB0117
:1016C700027980BB02027981BB03027982BB0402E3
:1016D7007984BB05027986BB06027992BB0702793A
:1016E70087BB080279A3BB0902799CBB0A027988E8
:1016F700BB0B027989E8F7227C051205A7DCFB22E0
:10170700C2AF1205B71205C01205C91205D21205DC
:10171700981205B71205C01205C91205D21205980D
:101727001205B71205C01205C91205D2D2AF22C2DF
:10173700AF1205D21205C91205C01205B7120598D6
:101747001205D21205C91205C01205B71205981263
:1017570005D21205C91205C01205B7D2AF22AE7461
:10176700AF75C2AF1205B71205B71205B7120598C4
:10177700DEF21205D2120598DFF8D2AF22F107D1B7
:10178700FFD1FF757401757501757600F1657C05EC
:10179700AD5C1205A7C3ED955C70F5C3E55C9401DC
:1017A700400AC3E55C94FF40320217C0D1C1D11A89
:1017B700F107C2AF75EF16D1FFDCD50576C3E57625
:1017C7009403500280C6D1FF0575E5741490009FFD
:1017D70093F808C3E57598500280AED1FFD1FF0595
:1017E70074C3E574940C5002809C120F18D11AC26E
:0617F700AF75EF16D1FFF3
:0319FD0002107A5B
:101A00000E5515090904FF03FF0903010155AA0139
:101A1000FFFFFFFFFF03FFFFFF0AF5505004FF0326
:091A2000007DFF0101000301FF3C
:101A4000235467794B463430412320202020202026
:101A500023424C48454C4923463331302320202033
:101A60002020202020202020202020202020202076
:101C0000C2AFC2D353D9BF7581C043B20343FF8073
:101C1000752438752503B1DC7529A5752AF175E29F
:101C20004043F12053A4DF75D4FFD2857DFA7803B9
:101C300079E67C10752200752300901DE97B0675FE
:101C400024987525013085028145208508D8FBD967
:101C5000F9DCF781B7308508D8FBD9F9DCF781B713
:101C6000B19CE493A3C39A6004DDC381B7DBDBB10D
:101C70008E6002812E7B08E493FAA3B16FDBF87AC1
:101C800030B16F752200752300B18EEAFCEBFDC305
:101C9000ED94FE400EB18E8A278B28ED30E0048A49
:101CA000828B83B18E7AC270D8C3ED94FE601950D6
:101CB000CEBD002BEC600F7520007521FF7529004B
:101CC000752A000200008100A827A9280809D80465
:101CD000D90281DCB192EA89AAF281CE0D81A3C337
:101CE000ED94035053EDA2E092007AC5C3E58294CF
:101CF00000E583941C508A200010438F02438F011B
:101D00008529B7852AB7F0300029A827A92808090E
:101D1000438F01538FFDD804D902A133C3E58394C7
:101D20001C4003A3A11689AAE28529B7852AB7F02A
:101D3000A3A116538FFC817F7AC1BD030CE493A34A
:101D4000FAB153DCF8B14B817F8181AA22AB23B178
:101D50006FEBFAEA6222752608C3E52313F523E543
:101D60002213F52250066323A0632201D526EAB18F
:101D7000DCB1DC75260AEAF4200102D285300102CA
:101D8000C285B1DCC3134002C201D526EB22B19259
:101D9000EAFB208502A192308502A197752608AE44
:101DA00024AF25C3EF13FFEE13FEB1E0B1DCC3EAAD
:101DB000133085024480FA30E703632201C3E52330
:101DC00013F523E52213F52250066323A0632201B5
:101DD000D526D9E52265236523F52222AE24AF2539
:101DE0000E0FDEFEDFFCD20122424C48656C6934E6
:071DF000373164F310060116
:00000001FF
