:030000000219FDE5
:03000B000200AA46
:03002B000201804F
:03005B0002033469
:0300730002032164
:1000800002030406080C10182030406080040608A3
:100090000C10182030406080A0C00003070F1F0D17
:1000A0000D04050D050305030302C2AF306308C24A
:1000B0006385798AD2AF32C0D0C0E0206221E525C5
:1000C0006016E473E525F4C3334009758A00D263F2
:1000D000F57901D6F58AD262D0E0D0D0D2AF32C362
:1000E000E526334009758A00D263F57901F0F58A77
:1000F000C262E526F4603130682720720CE57BF49B
:100100005290D0E0D0D0D2AF32E57BF45290206F45
:100110001020650DE57BF4D33333335290E57B42F9
:1001200090D0E0D0D0D2AF32758A00D2637579001A
:10013000C28DD262212101C4306807206504D295A6
:10014000D29201C4306807206504D294D29101C4D0
:10015000306807206504D293D29001C4306807202C
:100160006504D295D29201C4306807206504D29408
:10017000D29101C4306807206504D293D29001C4A3
:10018000C2AFC2AD53E6EFC0D0C0E0D2D3D2AFE52C
:100190007A6009E577600575770041CE757701C211
:1001A000CEE52A6007207449152A21F178007900EC
:1001B00020742EE580307E01F430E70278FF53DAB8
:1001C000CF207E0343DA20307E0343DA10C2D8C248
:1001D00071E580307E01F430E70279FFC3E8997061
:1001E000CB306103752A18207403752A18885CD2F5
:1001F0007020740DE52B6004152B410143DA01C218
:10020000D82070024170A85C206102C27020743650
:100210007982B70431C3E894F0400374F0F8E8C47D
:10022000540F28F87984B703024146C313C31387D8
:1002300021200802C313200A06C3C898F8414628A3
:10024000F8500374FFF88822E52D54066022206BD5
:100250001FE536C333C333F8E564C313C313F9C3CF
:10026000952240028922E82522F52250037522FFBB
:100270007882B60459852224A824C3E524956140D8
:1002800002A861C3E895634002A8638825E566700B
:100290000241C1C3E8AA669A5003E8FAE4F9EAC346
:1002A00033FBE568F45B29400D2567F8E5676002DC
:1002B0001567400B41C10AC3E5679A50020567788C
:1002C000FF8826C26FC3E52694F84002D26F20CF84
:1002D0000AD0E0D0D043E610D2AD32C2CF053AE525
:1002E0007A6009E57860057578006117757801789E
:1002F00001E52A6005307402152AC3E55C940140CB
:1003000005755F006117756000756900E55F240180
:10031000F55F5003755FFFD0E0D0D043E610D2AD5B
:1003200032C2AF53E67F7592FA7593FFC260759142
:1003300004D2AF32C2AF53E6EFC2ADC0D0C0E0C00E
:10034000F0D2D3D2AFA8FBA9FCC2D8307102619B16
:1003500053DACF207E0343DA10307E0343DA20D213
:1003600071E580307E01F420E702617288278928D8
:10037000A1C053DACF207E0343DA20307E0343DA74
:1003800010C2D8C271307402A1AC7800E580307E12
:1003900001F430E702A1AC885CA19453DACF207E4F
:1003A0000343DA20307E0343DA10C27120610281F8
:1003B0007453DACF207E0343DA10307E0343DA2011
:1003C000C2D8D27188578958C3E89555F8E995562F
:1003D000F97B007E087A00C3E8948CE9940050050C
:1003E000755B008166882178A2E6A8216055C3E884
:1003F00094C8E994005008E4D2E4FB7A0A8141C32E
:10040000E89468E994015008E4D2E3FB7A0F814153
:10041000C3E894D0E994025008E4D2E2FB7A1E814A
:1004200041C3E894A0E994055008E4D2E1FB7A3C8A
:100430008141C3E89498E994085008E4D2E0FB7A3B
:10044000787E00C3E89559FCE9955AFD30E70AEC3F
:10045000F42401FCEDF43400FD755B00C3EC9AED6F
:100460009E5003755B018859895A855755855856A2
:0F0470007802A194C3E89527F8E99528F9C3E924
:10047F0013F9E813F8C3E824B4FCE93400FD81AEA6
:10048F00E9C313F9E813F8307902A171E9C313F93D
:10049F00E813F8307802A171E9C313FDE813FC20CB
:1004AF00612CC3EC9482ED9402400281C5ED701E65
:1004BF00C3EC94C850180529E52970021529C3E526
:1004CF0029940A5002A1AC755C00D270A1ACE52949
:1004DF00600215297888E6F97400207F087896B9AC
:1004EF000302789EE624FAFEE43400FFC3EC9EFC80
:1004FF00ED9FFD9208B90310A2085007207609D28C
:10050F0076A117307602C276A2085016B9030DEC09
:10051F00F42401FCEDF43400FD020531780079007C
:10052F00A178B90315EC33FCED33FDC3EC940AFC51
:10053F00ED9400FD50047C007D00C3EC94FFED941E
:10054F0000400678FF7900A178EC8572F0A4C5F021
:10055F00A2F733F87900400302059478FF7900027F
:10056F000594E9C313F9E813F8307C0EE9600278BB
:10057F00FFC3E81338F8E43400F9C3E894FFE994B3
:10058F0000400278FF885CD270206102A1AC741F1A
:10059F00F4552F4BF52FC274EB7002D274752A18D5
:1005AF00307403752A0A306102A1C020740353DA34
:1005BF00FE207403752B06D0F0D0E0D0D0D2AD431F
:1005CF00E6103279010205F079030205F0790A028B
:1005DF0005F0791E0205F079640205F079C802056D
:1005EF00F07817E4D5E0FDD8FAD9F6227A147B78A3
:1005FF000206177A107B8C0206177A0D7BB402065F
:10060F00177A0B7BC8020617E573D5E00122790232
:10061F00E4C291D5E0FDD294D291D5E0FDC291D53F
:10062F00E0FDC294D291D5E0FDE920E004D295D24D
:10063F009230E004D293D290E573D5E0FDE920E04B
:10064F0002C29230E002C2907496D5E0FDD9C1EAA1
:10065F00F8D5E0FDD8FBDBB0C29122C37C007D0052
:10066F0075F00005F0EA33FAEB33FB50F6EB13FBB2
:10067F00EA13FAC3E9FFE8FEE89AF8E99BF9500498
:10068F00EFF9EEF8B3EC33FCED33FDD5F0DFEDF918
:10069F00ECF822E889F08A20D2D4F8A9F07B003058
:1006AF00F70B7BFFF42401F8E9F43400F9E8852017
:1006BF00F0A4ADF0F8E98520F0A4AFF0FEED2EF92F
:1006CF0074003FFA7C04C3EA13FAE913F9E813F84C
:1006DF00DCF48BF030F70AE8F42401F8E9F4340085
:1006EF00F9E889F0C2D4F8A9F0227882B60403029F
:1006FF000754C3E55C9401400302071E852224E4DE
:10070F00F544F545F546F547F548C26E02075478AE
:10071F0082E6FCD26EE522F523783879C7AA40AB82
:10072F0041C3EB13FBEA13FAEC146013C3EB13FB97
:10073F00EA13FAEC14146007C3EB13FBEA13FAD1B4
:10074F006A8844894522C3E5449523F8E54594001A
:10075F00F9500CC3E89480E994FF4016020785C353
:10076F00E8947FE994005003020785787F790002AF
:10077F000785788079FF8849894A22E5492546F817
:10078F00E54A3547F9854A20E4300701F43548FA40
:10079F0030E709C3EA94F040150207C3C3EA940F88
:1007AF0050030207C378FF79FF7A0F0207C378005F
:1007BF0079007AF0C3E5249561500AC3740195243A
:1007CF00500B0207E1E54A20E70E0207E1E54A3048
:1007DF00E706884689478A482278A5E6FAC3E5499D
:1007EF0033F8E54A33F9D1A2E930E70BC3E8948037
:1007FF00E994FF4013011BC3E8947FE99400500272
:10080F00011B787F7900011B788079FFE820E715BD
:10081F00C3E52398F84009C3E89401400302084256
:10082F007801020842E8F424012523F84003020866
:10083F004278FF884B2278A6E6FAA847A948120605
:10084F00A2E930E70CC3E89401E994FF40160208CF
:10085F0077C3E894FFE99400500302087778FF7993
:0F086F0000020877780179FFE920E715C3E54B10
:10087E0098F84009C3E89401400302089E780102EB
:10088E00089EE8F42401254BF8400302089E78FFE9
:10089E0088242278FF20692879A1E76023E541604A
:1008AE001F74FF8541F0848539F0306A0375F005B9
:1008BE00A4F8C5F0600278FFC3E895645002A864FE
:1008CE00886322C3E54094C8E5419400E563500374
:1008DE001401E2046002F563220208EA2275E89030
:1008EE00227883E6FF30EDF9A8BDA9BE0570C3E5F9
:1008FE007094084052757000E9FA79A0E76044EAF6
:10090E007007E571601B020923C3E895716010E55D
:10091E00715006600C1402092F0460F902092FE5CC
:10092E0071F571C39472401B7561C0C3940440137A
:10093E00756180C39404400B756140C394044003F9
:10094E0075610075BB0E22E5612410500274FFF52F
:10095E00617982B70402217CC3A861E52498500214
:10096E00A824C3E895634002A86388258826E5700D
:10097E00B4070375BB1022743279A787F0A4C5F0B3
:10098E00A2F733F8C3E895614002A8618822882453
:10099E00882588268864227540007541F022C2AFF2
:1009AE0075C820A8CCA9CDAA3A30CF010A75C824A3
:1009BE00D2AFC3EA13FAE913F9E813F8AB3BAC3C38
:1009CE00883B893CC3E89BF8E99C20690A547FF96F
:1009DE0030660241C94123AD3D8A3DF9EA9D547FFF
:1009EE00FA600478FF79FFAE3EAF3F8B3E8C3FA896
:1009FE003BA93CC3E89EF8E99FF9C3E54113FBE52B
:100A0E004013FAE82AF540E93BF54150067540FFE0
:100A1E007541FF4170AA40AB41AC40AD417E047FB1
:100A2E0002C3EB9404400D1E1FC3EB940840052037
:100A3E006A021E1FC3ED13FDEC13FCDEF7C3EA9C26
:100A4E00FAEB9DFBEF6009C3E913F9E813F8DFF742
:100A5E00EA28FAEB39FB8A408B4150067BFF8B402C
:100A6E008B41C3EB94025002D2663069047F03417E
:100A7E009B7892E6FFC3E537948240110FC3E537AA
:100A8E0094A040010FC3EF940640027F057E02E55D
:100A9E0041C4540FF9E541C454F0F8E540C4540F75
:100AAE0028F8C3E89EFAE99400FB4009C3EA9402D1
:100ABE00EB940050047A02E4FB6115AA40AB41EBC3
:100ACE00C4FEEAC4540F4EFCC3EA9CFAEB9400FB3E
:100ADE00C3E813C313F8EA28FAEB3400FB8A408B01
:100AEE0041C3EB94024002C2667802EBC4FE7B0067
:100AFE00EAC4540F4EFAC3EA98FA4005C394025062
:100B0E00027A027892E6FF30600261158551928575
:100B1E005293D26043E680C3E49AF8E49BF9C3E8AB
:100B2E0033F8E933F930660261A8E8FAE9FBD3E954
:100B3E0013FDE813FC88518952C3EF94036038EF1C
:100B4E0020E00DE82CF8E93DF9ECFAEDFB020B7113
:100B5E00E828F8E939F9C3E82402F8E93400F97A0B
:100B6E00FE7BFFC3EF9403400E8A538B54884D894E
:100B7E004E8C4F8D5061DC885389548A4D8B4E8C30
:100B8E004F8D503069127553F07554FF754FF075D7
:100B9E0050FF7551F07552FF61DCE8FAD3E813FC93
:100BAE008851C3EF94036020EF20E007E82CF8ECA7
:100BBE00FA61C8E8282402F87AFEC3EF94034008CD
:100BCE008A53884D8C4F61DC88538A4D8C4FE56873
:100BDE00C3335002646BF56830600261E67534020F
:100BEE00D26043E680E52D5406602DA840A941C38E
:100BFE00E913F9E813F8306904E92440F9C2AF5358
:100C0E00E67F759100C3E498F594E499F595759196
:100C1E0004D26043E680D2AF22D2647543007520C1
:100C2E0000306C03752040020C46D264754300758B
:100C3E002040306C0375200078017901206620E594
:100C4E002D54066002C2647914E541C31370010489
:100C5E00F8C3941440027814306904781B791BC3CE
:0E0C6E00E833F8C3E933F9206010E543600C69
:100C7C00306903D53404D26D81FC71EE0543E59BDC
:100C8C005440B5200281E630690908C3E899400157
:100C9C0018817520640A08C3E89940028146817561
:100CAC00C264C2AF53E67F75910030661275940032
:100CBC007595F0759104D26043E680D2AF8146E51C
:100CCC00417EFFC3334009C3334005C3334001FEAB
:100CDC00C3E49E759400F59581BFC3E53394015030
:100CEC000281463064028146D80281FA8175C26D58
:100CFC00C2AF53E67F7591008553948554957591D9
:100D0C0004854D92854E93D26043E680D2AFE52D9B
:100D1C0054066008206A020533020D38306D0D2030
:100D2C006C0A206407158115810216BD22780030EB
:100D3C0064027801E53775F007A4F9E5F028F5F0C1
:100D4C00E9A2F013A2F113A2F213F537C394785071
:100D5C0003753778C3E53795384007D265E57BF4E2
:100D6C005290306002A16E854F92855093D26043B1
:100D7C00E68022207D1AC2AF754202C291C295D282
:100D8C0092306204D293D290D2AF759F11020FBCF5
:100D9C00C2AF754202C291C293D290306204D29516
:100DAC00D292D2AF759F11020FBC30724B207D24B2
:100DBC00C2AF754203900168757B02C290C290303D
:100DCC006206D294D291A1D8C294D291D2AF759F1F
:100DDC0001020FBCC2AF754203900168757B02C261
:100DEC0092C292306206D294D291A1FCC294D2915A
:100DFC00D2AF759F21020FBC207D1CC2AF75420380
:100E0C00900144757B02C290306204D294D291D28C
:100E1C00AF759F01020FBCC2AF75420390014475C0
:100E2C007B02C292306204D294D291D2AF759F21D0
:100E3C00020FBC207D1AC2AF754204C292C293D27B
:100E4C0090306204D294D291D2AF759F21020FBC24
:100E5C00C2AF754204C290C295D292306204D29451
:100E6C00D291D2AF759F01020FBC30724B207D2402
:100E7C00C2AF75420590015C757B04C291C2913082
:100E8C006206D295D292C198C295D292D2AF759F7A
:100E9C0011020FBCC2AF754205900174757B01C283
:100EAC0091C291306206D293D290C1BCC293D290BF
:100EBC00D2AF759F11020FBC207D1CC2AF754205CD
:100ECC00900138757B04C291306204D295D292D2D3
:100EDC00AF759F11020FBCC2AF75420590015075E2
:100EEC007B01C2913062E8D293D290D2AF759F1140
:100EFC00020FBC207D1AC2AF754206C290C294D2BA
:100F0C0091306204D295D292D2AF759F01020FBC80
:100F1C00C2AF754206C292C294D291306204D2938F
:100F2C00D290D2AF759F21020FBC30724B207D2422
:100F3C00C2AF754201900174757B01C292C29230AE
:100F4C006206D293D290E158C293D290D2AF759FE1
:100F5C0021020FBCC2AF75420190015C757B04C2CB
:100F6C0090C290306206D295D292E17CC295D29218
:100F7C00D2AF759F01020FBC207D1CC2AF75420120
:100F8C00900150757B01C292306204D293D290D200
:100F9C00AF759F21020FBCC2AF754201900138752D
:100FAC007B04C290306204D295D292D2AF759F016D
:100FBC00C26522900136757B00C292C291C290C26A
:100FCC0092C291C290C26222788076090876090892
:100FDC0076040876FF0876030876FF08760A08760A
:100FEC0003087601087601788C76010876FF08767E
:100FFC00FF0876FF0876FF0876FF0876030876FF71
:10100C000876FF0876FF08760A0876F0087650080E
:10101C0076500876040876FF087603087600087682
:10102C007D0876FF087601087601087600087603BD
:10103C00087601227887E6FFC272BF0302D272786B
:10104C0088E6C394036008C27DE630E102D27DC21B
:10105C007E7889E630E102D27EC3EF940260087597
:0F106C008E01D273021078758E00C273227880C5
:10107B00E6149000809378A5F67881E614900080B2
:10108B009378A6F67886E61490008D9378A7F67879
:10109B0086E6F539C394025003753902789CE675E0
:1010AB0038FFB402037538A0B4030375388278A3F4
:1010BB00E61490009A93F566120FBF22227896E6FB
:1010CB00FA7897E6FB7888E6B40305C3EB940EFB3E
:1010DB00307F047A007BFFC3EB9AFCC394825002EF
:1010EB007C827572000572EC8572F0A4C3E5F094F6
:1010FB007D40F222D27F11C81205E11205E17A0080
:10110B007B007C101205D7E55C2AFA74003BFBDCF4
:10111B00F37C04C3EB13FBEA13FADCF7FEC27F117B
:10112B00C8227ADEC295D292D293D290744BD5E07C
:10113B00FDC290C29279027817E4D5E0FDD8FAD9B6
:10114B00F6796E741ED5E0FDD9F9DAD8227A84C20D
:10115B0095D292D293D290744BD5E0FDC290C292AD
:10116B0079037817E4D5E0FDD8FAD9F6792B741EFC
:10117B00D5E0FDD9F9DAD8227A84C295D292D293EE
:10118B00D290744BD5E0FDC290C29279027817E4ED
:10119B00D5E0FDD8FAD9F6791D741ED5E0FDD9F945
:1011AB00DAD822757C00757D00E5EF20E60375200B
:1011BB00000520903FFFE520146006901FFF146090
:1011CB00009304600375EF1653D9BF75D908758169
:1011DB00C043FF801205D275EF0643B203E5B3247B
:1011EB000220E70DF521E5E320E0068521B343E37B
:1011FB0001120FBF7580FF75A40075F19175D47F37
:10120B0075900075A53F75F23F75D50075A60175F4
:10121B00E241120FBFE4F8F6D8FD756801120FD446
:10122B0012171378988673753001C2AF1205EB3124
:10123B002D1205E6312D1205E6312D1205E631583A
:10124B003183312D1205E631583183312D312DC2C9
:10125B00AF757C00757D0078FA79FA308707D9FB7A
:10126B00D8F7021C001140117911C711C878988664
:10127B0073120FBF75881075890275C82475910498
:10128B0075D84075A82275B80275E690759B807568
:10129B009D0075D10E75BCC075BB0E75BA1175E886
:1012AB00801205D2D2AF1208E775360053DACF2081
:1012BB007E0343DA20307E0343DA1043DA01C2D8CF
:1012CB00C2711205EBD2617B037A0CE55B70077A76
:1012DB000CDB0302125A1205E120700302125AC2F0
:1012EB0070E55CC3940240E1E52F541F855E5DF50C
:1012FB005EB55DD5DAD5C26153DACF207E0343DA12
:10130B0020307E0343DA10C2D8C27178A2E670088F
:10131B00D274E52F54E0F52FC2757529001205E63E
:10132B00307409C3E529940A4002D2751205D778A7
:10133B00023074027800C3E55C9840F0C2AF12052E
:10134B00FB1205FBD2AF1205EB754C007888E6B4A7
:10135B000302814A1205D7788CE6C394015003022D
:10136B00144AE530C39401500302144A757CA575E9
:10137B007DF1207435C3E55C94FF500302144AC21F
:10138B00AF120610D2AF1205E6C3E55C940150EF25
:10139B00C2AF1205FB1205DC1205FBD2AF1205E63C
:1013AB00C3E55C94FF40E90218CC7F02D27F11C8E1
:1013BB001205E6C2AFC27F11C8AE5CC3E55C947F79
:1013CB00D2AF5002815A1205D2C2AF120610D2AF61
:1013DB00DFDA11FFC3EE7897F61205EB12184F7F89
:1013EB000AD27F11C81205E6C2AFC27F11C8AE5C2C
:1013FB00C3E55C947FD2AF50E61205D2C2AF1205A3
:10140B00FB1205DC1205FBD2AFDFD611FFEE240376
:10141B007896F6F87997E7C394824003985006E8DC
:10142B0024827897F61205EB12176112187E1205BB
:10143B00E611C8C3E55C94FF500261770218CC75C6
:10144B007C00757D00C3E55C954C4003855C4C12BC
:10145B0005E678017988E7B403027805C3E55C9863
:0E146B0040026157C2AF120610120610D2AF37
:101479001205EB753000E4F531F5320531E531F44B
:10148900703F0532789AE678191460127832146040
:101499000D787D14600878FA146003753200C3E58D
:1014A9003298401D120FBF1205D2153275310078DE
:1014B900998673C2AF120610D2AF78988673120557
:1014C900E61205DCE52A7005307402415A780120DC
:1014D90074027806C3E55C9840A17888E6C3940352
:1014E90060031205E6E52A700302125AC2AF120F11
:1014F900BFE4F522F523F524F525F526F567D2AFE6
:101509007885E6C333F565E4F544F545F546F547D1
:10151900F548F570F52CF52DF53775700875BB1084
:101529001205D21208EB30EDFDA8BDA9BEE9700184
:10153900F888711208EF75700875BB101140C2AFB9
:101549007561FF120985852261852262852263D230
:10155900AF7522017524017525017526018560691C
:10156900756A017888E6B40307C27D307602D27DB8
:10157900D268D269753300120EFF120F361209A50F
:101589001209AC1209A51209AC1209A5120C3812DC
:1015990006F9120D39120D7F1209AC120C27306EA3
:1015A900031207552066031208A13066031208D1F9
:1015B900120D39120DB61209AC120C38306E031225
:1015C900078A120D39120E3F1209AC120C27306E20
:1015D900031207E8120D39120E761209AC120C38F3
:1015E900306E03120845120D39120EFF1209AC12A2
:1015F90008EB120C27120D39120F361208EF1209D7
:10160900AC306932856461856462856069756A0197
:1016190079187A0CC3E53399400FC269D26A8A35C1
:1016290085646185646302163FC3E55C94014003E8
:101639000215950216C5306A1D206C1AE53514701D
:1016490006C26AD26BA195F535C3E55C94014003E6
:101659000215950216C575360078FA79A4E7600275
:101669007803C3E55F985054307404E52A604D78D7
:1016790088E6B40317207D05207607C195307602E8
:10168900C195206C07D26C856461A1D478F0306C67
:10169900058564617820C3E541985002A195306CB5
:1016A9001BC26CC27D307602D27DD26A7535128535
:1016B9006461A1950536E55C6002C1C8753600C252
:1016C900AF120FBF7887E6FE760211407887EEF6F3
:1016D900E4F522F523F524F525F526F565752C00A5
:1016E900752D00D2AF1205E6120FBF78A4E6600C83
:1016F900C295D292C294D291C293D290307409C346
:10170900E53694044002415A817F901A0D782012DF
:1017190017A3E520B4550CA31217A3E520B4AA0317
:10172900021741757CA5757DF1120FD412176175E9
:101739007C00757D00021760901A0378807B0A127D
:1017490017A3A308DBF9901A0F788C7B191217A33A
:10175900A308DBF9901A2822C2AF1217E61217C3A1
:10176900901A00740E1217A8A374551217A8A3741F
:10177900151217A8901A0378807B0A1217A7A308D5
:10178900DBF9901A0F788C7B191217A7A308DBF9DC
:101799001217F91217D7901A2822E493F622E64372
:1017A9008F01538FFDFFC3E583941C400122EF8510
:1017B9007CB7857DB7F0538FFE22438F02438F019B
:1017C900857CB7857DB7901A0DF0538FFC22901A4E
:1017D9000D7455F1A8901A0E74AAF1A8227A3079DD
:1017E900D07820901A40F1A3E520F709A3DAF7226F
:1017F9007A3079D0901A40E71217A809A3DAF822AB
:10180900AB74A875BB01027980BB02027981BB0365
:10181900027982BB04027984BB05027986BB060280
:101829007992BB07027987BB080279A3BB090279C0
:101839009CBB0A027988BB0B027989E8F7227C05EF
:101849001205EBDCFB22C2AF1205FB1206021206DF
:10185900091206101205DC1205FB1206021206090E
:0F1869001206101205DC1205FB12060212060908
:10187800120610D2AF22C2AF1206101206091206C3
:10188800021205FB1205DC120610120609120602E6
:101898001205FB1205DC12061012060912060212C6
:1018A80005FBD2AF22AE74AF75C2AF1205FB1205AD
:1018B800FB1205FB1205DCDEF21206101205DCDF56
:1018C800F8D2AF22114F1147114775740175750190
:1018D80075760011AD7C05AD5C1205EBC3ED955C2A
:1018E80070F5C3E55C9401400AC3E55C94FF40339E
:1018F8000219091109121761114FC2AF75EF1611BC
:1019080047DCD40576C3E5769403500280C51147B9
:101918000575E5741490009F93F808C3E575985011
:101928000280AD114711470574C3E574940C500249
:0F193800809B120FD4121761C2AF75EF161147C3
:0319FD000211AE26
:101A00000E5515090904FF03FF0A03010155AA0138
:101A1000FFFFFFFFFF03FFFFFF0AF0505004FF032B
:091A2000007DFF0101000301FF3C
:101A400023454D41585F4C746E675F32304123200F
:101A500023424C48454C492346333930232020202B
:101A60002020202020202020202020202020202076
:101C0000C2AFC2D353D9BF7581C043B20343FF8073
:101C1000752438752503B1DC7529A5752AF175E29F
:101C20004043F18053A47F75D4FFD2877DFA7803B7
:101C300079E67C10752200752300901DE97B0675FE
:101C400024987525013087028145208708D8FBD963
:101C5000F9DCF781B7308708D8FBD9F9DCF781B711
:101C6000B19CE493A3C39A6004DDC381B7DBDBB10D
:101C70008E6002812E7B08E493FAA3B16FDBF87AC1
:101C800030B16F752200752300B18EEAFCEBFDC305
:101C9000ED94FE400EB18E8A278B28ED30E0048A49
:101CA000828B83B18E7AC270D8C3ED94FE601950D6
:101CB000CEBD002BEC600F7520007521FF7529004B
:101CC000752A000200008100A827A9280809D80465
:101CD000D90281DCB192EA89AAF281CE0D81A3C337
:101CE000ED94035053EDA2E092007AC5C3E58294CF
:101CF00000E583941C508A200010438F02438F011B
:101D00008529B7852AB7F0300029A827A92808090E
:101D1000438F01538FFDD804D902A133C3E58394C7
:101D20001C4003A3A11689AAE28529B7852AB7F02A
:101D3000A3A116538FFC817F7AC1BD030CE493A34A
:101D4000FAB153DCF8B14B817F8181AA22AB23B178
:101D50006FEBFAEA6222752608C3E52313F523E543
:101D60002213F52250066323A0632201D526EAB18F
:101D7000DCB1DC75260AEAF4200102D287300102C8
:101D8000C287B1DCC3134002C201D526EB22B19257
:101D9000EAFB208702A192308702A197752608AE40
:101DA00024AF25C3EF13FFEE13FEB1E0B1DCC3EAAD
:101DB000133087024480FA30E703632201C3E5232E
:101DC00013F523E52213F52250066323A0632201B5
:101DD000D526D9E52265236523F52222AE24AF2539
:101DE0000E0FDEFEDFFCD20122424C48656C6934E6
:071DF000373164F390060196
:00000001FF
