:020000040000FA
:060000000219FD0202E0FE
:030013000204CB19
:03001B0002008D53
:03002B000202BA14
:03005B000204DAC2
:030073000202CDB9
:100080000406080C10182030406080A0C0C2AFC227
:10009000A853E6EFC28E85698BC0D0D2D3C0E0C032
:1000A000F0C2CAA8CCA9CDD2CAD2AF758A00C3E823
:1000B000956AF8E9956BF9C3E913F9E813F8E56473
:1000C0006007C3E913F9E813F8E97025E8956C4077
:1000D00020956C501CE582B410177C007B007A00E0
:1000E0007908900000A868E5647004C3E813F8017B
:1000F000FA900000D2A8D2AA618AE0FDC39CC398FE
:1001000040EF98EB33FB0582E0FCC39DC39840E1D0
:1001100098EB33FB0582E0FDC39CC39840D398EB7A
:1001200033FB0582E0FCC39DC39840C598EB33FBCD
:100130000582E0FDC39CC39840B798EB33FB058272
:10014000E0FCC39DC39840A998EB33FB0582E0FD1A
:10015000C39CC398409B98EB33FB0582E0FCC39D96
:10016000C398408D98EB33FB05822175900000D237
:10017000A8D2AA618AE0FDC39CC39840EF98EA33F5
:10018000FA0582E0FCC39DC39840E198EA33FA0582
:1001900082E0FDC39CC39840D398EA33FA0582E01D
:1001A000FCC39DC39840C598EA33FA0582E0FDC3BD
:1001B0009CC39840B798EA33FA0582E0FCC39DC31C
:1001C0009840A998EA33FA0582E0FDC39CC39840A1
:1001D0009B98EA33FA0582E0FCC39DC398408D9852
:1001E000EA33FA0582EBC46B6A54F0F9EAC454F0BE
:1001F000C3996009900000D2A8D2AA618AEBF4C426
:1002000054F0F9EAF4C4540E49FAEBF4C4540FFB69
:10021000C3EA9460FAEB9400FB50067B007A007905
:1002200000303A27C3EA94D0F8EB9407F9400BE882
:10023000FAE9FB203509D235413F303502C235207D
:100240003902B235C3EA33FAEB33FBEB2B3B3BF914
:10025000C3EB13FBEA13FAEA29FAEB3400FB30E3B1
:10026000047AFF7BFFE5255403601B202A18E55B19
:1002700033F9EB7007C3E99A4002E9FAE53CC4336D
:100280002AFAEB3400FBC3EA33C4540FF8EB33C44F
:1002900054F048F87005EA60027801C3EB13FBEAFA
:1002A00013FA900000D2A8D2AAE52260021522819A
:1002B0006E900000D2A8D2AA618AC0D0C0E0C2CF9E
:1002C0000541E52360021523D0E0D0D032C2AF5300
:1002D000E67F7592FA7593FFC22053917FD2AF32B9
:1002E000C0E0E58A30340885698BF0A3D0E032D0D5
:1002F000E0C2AF53E6EFC0D0C0E0C0F0D2D3D2AF7F
:100300005388EFA88AA98C758A00758C00438810E1
:1003100030331FE8C4540FFAE9C454F04AFAC31347
:100320002AFAC3E833F8E933F9E82AFAE93403FB97
:10033000617B30320FC3E833E933FAE82AFAE93453
:1003400000FB617B303115E875F056A4AAF0E97521
:10035000F056A42AFAC5F03400FB617BE875F02B57
:10036000A4AAF0E975F02BA42AFAC5F03400C3134F
:10037000FBEA13FAC3EB13FBEA13FAC3EB9409503D
:1003800009C3EA949AEB940350160522E522700201
:100390001522C3E5229432500281BE75520081C1FC
:1003A000E522600215223036067C007D0461BAAC7D
:1003B00031AD32303A04AC33AD34C3EA9CFAEB9D34
:1003C000FB9208AE5EAF5F303A425007203509D24B
:1003D0003561D8303502C235303504AE60AF6120AA
:1003E0003902B235C3EA33FAEB33FBA208500AEA0A
:1003F000F42401FAEBF43400FBC3EA9428FAEB94FA
:1004000000FB501478007A007B008118A208500885
:1004100078007A007B00816EE52554036019202A5C
:1004200016E55BF9EB7007C3E99A4002E9FAE53C8F
:10043000C42AFAEB3400FBEA8EF0A4F9AAF0EB8EA2
:10044000F0A42AFAC5F03400FBC3EB13FDEA13F85D
:100450000FEF146004C3E833F8C3E933EA33FAEB6F
:1004600033FBDFEDEB30E20678FF7AFF7B03885247
:10047000D230C3E559FC955A4002AC5AC3EC9552B0
:100480005008EC75F004A4FAABF0EAF4F8EBF4547D
:1004900003F98854895575230AE55830E110D0F0E6
:1004A000D0E0D0D053F7DF43F74043E61032D0F02E
:1004B000D0E0D0D053D8FE43DA0143E610327523A2
:1004C0000AD0F0D0E0D0D043E61032C2AAD28EC219
:1004D000CA85CC6A85CD6BD2CA32C2AFC0D0C0E06B
:1004E000D2D38554FB8555FC85555853F7BF53DA55
:1004F000FED2A8303402D2AA53E6EFC3E5529401EB
:100500004005755300A112E5532401F553500375BE
:1005100053FF53F7DF53D8FED0E0D0D0D2AF3279BB
:1005200001801479038010790A800C791E80087983
:1005300064800479C880007817E4D5E0FDD8FAD942
:10054000F62278FF20282879A1E76023E548601F7C
:1005500074FF8548F084853FF030290375F005A4C9
:10056000F8C5F0600278FFC3E8955B5002A85B888D
:100570005A22C3E54794E4E5489400E55A50031431
:10058000A183046002F55A2275E89022055CC3E558
:100590005C9408405330EDF4A8BDA9BE755C00E939
:1005A000FA79A0E76041EA7006E55D6018800CC347
:1005B000E8955D600EE55D5005600A1480070460F3
:1005C000FA8002E55DF55DC39567401B7559C0C3B0
:1005D00094044013755980C39404400B755940C36B
:1005E0009404400375590022E5592410500274FF09
:1005F000F55922743279A687F0A4C5F0A2F733F832
:10060000C3E895594002A859885B22754700754890
:10061000F022C2AFC2CAA8CCA9CDAA4130CF010AEC
:10062000D2CAD2AFAB42AC4388428943C3E89BF8FD
:10063000E99C202808F9302C02E122C17BAD448AD4
:1006400044F9EA9DFA600678FF79FFC160AE45AFD4
:10065000468B458C46A842A943C3E89EF8E99FF91A
:10066000C3E54813FBE54713FAE82AF547E93BF5EC
:100670004850067547FF7548FFC1C8AA47AB48AC4C
:1006800047AD487E047F02C3EB9404400D1E1FC398
:10069000EB940840052029021E1FC3ED13FDEC1347
:1006A000FCDEF7C3EA9CFAEB9DFBEF6009C3E9139C
:1006B000F9E813F8DFF7EA28FAEB39FB8A478B48A9
:1006C00050067BFF8B478B48C3EB94025002D22C21
:1006D0003028047F03C1F37892E6FFC3E53D94829E
:1006E00040110FC3E53D94A040010FC3EF940640B5
:1006F000027F057E02E548C4540FF9E548C454F072
:10070000F8E547C4540F28F8C3E89EFAE99400FBC3
:100710004009C3EA9401EB940050047A01E4FB021F
:10072000076EAA47AB48EBC4FEEAC4540F4EFCC3A5
:10073000EA9CFAEB9400FBC3E813C313F8EA28FA27
:10074000EB3400FB8A478B48C3EB94024002C22C77
:100750007802EBC4FE7B00EAC4540F4EFAC3EA9859
:10076000FA4005C3940150027A017892E6FF3020E6
:1007700002E16E854E92854F93D22043E680C3E41A
:100780009AF8E49BF9302C030207FCE8FAE9FBD362
:10079000E913FDE813FC884E894FC3EF94036038DA
:1007A000EF20E00CE82CF8E93DF9ECFAEDFB8013C2
:1007B000E828F8E939F9C3E82401F8E93400F97ABE
:1007C000FF7BFFC3EF9403400F8A508B51884A8907
:1007D0004B8C4C8D4D020831885089518A4A8B4B85
:1007E0008C4C8D4D3028127550F07551FF754CF0C2
:1007F000754DFF754EF0754FFF020831E8FAD3E8EA
:1008000013FC884EC3EF94036021EF20E007E82C2F
:10081000F8ECFA011CE8282401F87AFFC3EF9403EE
:1008200040098A50884A8C4C02083188508A4A8C88
:100830004C3020020131753A02D22043E680E52592
:1008400054036034A847A948C3E913F9E813F8C36F
:10085000E913F9E813F8302804E92440F9C2AF534A
:10086000E67F759100C3E498F594E499F595759148
:1008700004D22043E680D2AF22D2217549007520F0
:1008800000302B037520400197D221754900752057
:1008900040302B0375200078017901202C20E525BC
:1008A00054036002C2217914E548C313700104F8AF
:1008B000C3941440027814302804781B791B20203C
:1008C00010E549600C302803D53A04D223213E11AB
:1008D000390549E59B5440B52002212830280908F4
:1008E000C3E89940011801BE20210A08C3E89940D5
:1008F00002019701BEC22153E67F759100302C1191
:100900007594007595F8759104D22043E68002082D
:1009100097E5487EFFC3334005C3334001FEC3E47F
:100920009E759400F5952106C3E5399401500201A6
:10093000973021020197D802213C01BEC223C2AFE9
:1009400053E67F7591008550948551957591048586
:100950004A92854B93D22043E680D2AFE5255403DB
:1009600060072029020539801030230D202B0A2032
:1009700021071581158102156B227800302102783C
:1009800001E53D75F007A4F9E5F028F5F0E9A2F0DE
:1009900013A2F113A2F213F53DC394785003753DF1
:1009A00078C3E53D953E400BD222C291C293C295D9
:1009B00075D53F30200221B3854C92854D93D220CE
:1009C00043E68022203814C2AFC293C290D291D2A3
:1009D0009575D52FD2AF759F0341C4C2AFC293C2E4
:1009E00094D295D29175D53ED2AF759F0341C42064
:1009F0003814C2AFC295D29375D53BC290D291D272
:100A0000AF759F1341C4C2AFC291D29375D53BC29B
:100A100094D295D2AF759F2341C4203814C2AFC27F
:100A200091C294D295D29375D53BD2AF759F234195
:100A3000C4C2AFC295C290D291D29375D53BD2AF0A
:100A4000759F1341C4203814C2AFC293D29175D59B
:100A50003EC294D295D2AF759F038068C2AFC29355
:100A6000D29575D52FC290D291D2AF759F03805485
:100A7000203814C2AFC295C292D293D29175D53E9E
:100A8000D2AF759F13803DC2AFC291C292D293D2B2
:100A90009575D52FD2AF759F238029203814C2AF0A
:100AA000C291D29575D52FC292D293D2AF759F23A2
:100AB0008012C2AFC295D29175D53EC292D293D266
:100AC000AF759F13C22222203E707A147BC8801912
:100AD000203E717A107B8C8010203E727A0D7BB4A0
:100AE0008007203E737A0B7BC8303F01227902E4F5
:100AF000C293D5E0FDD292D293D5E0FDC293D5E06A
:100B0000FDC292D293D5E0FDE920E004D290D291CB
:100B100030E004D294D295E562D5E0FDE920E00210
:100B2000C29130E002C2957496D5E0FDD9C1EAF8D1
:100B3000D5E0FDD8FBDBB6C293227A507C507B0512
:100B40007D1480407A327C287B147D2880367A3C64
:100B50007CB47B047D0A802C7A967C327B027D1EDD
:100B600080227A647C287B057D0F80187888E614C3
:100B7000D23C7AC87C327B037D3C80087AC87C50AA
:100B80007B057D46303F0122EBF8303C15203D09C6
:100B90001CECB40112B23D800E0CECB43209B23D33
:100BA00080051CEC70010CECC0E0E8C0E0EDC0E09A
:100BB000303B13C292D293D290D291E562D5E0FD40
:100BC000C291C2938011C292D293D294D295E5621F
:100BD000D5E0FDC295C293B23BD0E0FDFED0E0F877
:100BE000D0E0FCF97464D5E0FDDEF9744BD5E0FD8E
:100BF000D9F9203BB2D8B0DA0122DA8C22C291C2F4
:100C000093C295C291C293C29575D53F22788076E2
:100C1000FF0876FF0876FF0876FF0876FF0876FF64
:100C20000876050876FF087601788C76010876FF4D
:100C30000876FF0876FF0876FF0876FF0876030837
:100C400076FF0876FF0876FF08760A0876F00876C1
:100C50005B0876500876030876FF0876030876FF6F
:100C600008767D0876FF0876060876010876FF0884
:100C700076FF08760108760122FA75F00CA4ABF035
:100C8000EAC333F8740133F9E8C333F8E933F9E818
:100C9000C32BF8E93400F9227888E6C39403D23AEA
:100CA0005002C23AC238E630E102D238A238923954
:100CB0007886E6149000809378A6F67886E6F53F6D
:100CC000C394025003753F02789CE6753EFFB40260
:100CD00003753EA0B40303753E8278A0E6F8600673
:100CE00074282409D8FCF5677896E69179883189CB
:100CF00032789EE69179883389347897E6917988BD
:100D000035893671FD223036117A007B007CFF7DFB
:100D1000007E00B16C8B5F8A5E22303A227896E6C4
:100D2000FA7B00789EE6FC7D00C3EA33FAEB33FBE6
:100D3000C3EC33FCED33FD7E0AB16C8B618A6078C5
:100D400096303A02789EE6FA7B007897E6FC7D00C2
:100D50007E00303A10C3EA33FAEB33FBC3EC33FCCA
:100D6000ED33FD7E0AB16C8B5F8A5E22C3EC9EFC84
:100D7000ED9400FDC3EC9AFCED9BFDC3EC9423EDD8
:100D8000940050047C237D00C3EC94FFED9401405B
:100D9000047CFF7D017BFF0B7A000AEA7009C3EC3B
:100DA00033FCED33FDA197EC8AF0A4AEF0ED8AF0B0
:100DB000A42E947C40E4EAF460DD22D236B106121F
:100DC000052B12052B7A007B007C10120523E552BF
:100DD0002AFA74003BFBDCF37C04C3EB13FBEA133D
:100DE000FADCF7FFEB60027FFFC236B1062278A57E
:100DF000E6F954037000E9540C7000E954307000B7
:100E0000E954C07000227ADC7B367C02C18C7A3ACD
:100E10007B1D7C02C18C7A3E7B047C02806E7AA4AE
:100E20007B067C0380667ADE7B6E7C02805E7A8441
:100E30007B2B7C0380567A847B1D7C02804E7A5803
:100E40007BAC7C0280467A627B6E7C02803E7A417B
:100E50007BB67C0180367A497B8C7C01802E7A922D
:100E60007B8C7C0180267A4E7B797C01801E7A52B5
:100E70007B677C0180167AA47B677C01800E7A57A1
:100E80007B567C0180067AC47B377C01ECC0E0C2D3
:100E900092D293D290D291E562D5E0FDC291C293F5
:100EA000D0E0FCF9EBFD7817E4D5E0FDD8FAD9F6EF
:100EB000741ED5E0FDDDF9DAD32212052B74022071
:100EC000310E0420320A0420330604203402740157
:100ED000C0E051C712052FD0E0D5E0F42230341E17
:100EE000E56CC3941E400C941E4002801151D951F0
:100EF000D9800B51D051D012052F51D951D912059B
:100F00002F51E251E2227565007566007597DE7516
:100F100097AD7581C043FF8075EF0675A90071FD1F
:100F20007580FF75F1F075A4007580FF75D4FF75AD
:100F3000900075F23F75A53F75900075D53F75A679
:100F40000175E34075E20271FDE4F8F6D8FD910DFC
:100F50001215A578988662753001C2AF120533B1BB
:100F6000EE120533120533E562147005D23F02110B
:100F700080C23F945914601A14600C14603A1460D3
:100F800003021171021085D23E716C716C716C029A
:100F90001180120533D12612052FD12612052FD12B
:100FA0002612052FD12ED136D12612052FD12ED1C2
:100FB00036D126D126021180120533D1861205279B
:100FC000D14ED14E120527D166120527D17E1205CA
:100FD00027D186120527D14ED14E120527D1661290
:100FE0000527D17E120527D186120527D14ED14E75
:100FF000120527D166120527D17E120527D1861248
:101000000527120E4E120E4E120527120E661205FD
:1010100027120E7E120527120E5E120527120E46AB
:10102000120527120E0E120527120E4E1205271258
:101030000E5E120527120E46120527120E0E12051D
:1010400027120E4E120527120E5E120527120E46AB
:10105000120527120E0E120527120E4E1205271228
:101060000E5E120527120E46120527120E0E1205ED
:1010700027120E4E120527120E7E120E7E12052723
:10108000120E3E2180120E06120527120E061205C0
:1010900027120527120E6E120523120E6E1205235B
:1010A000120E6E120523120E6E120527120527125C
:1010B0000E46120E46120527120E46120E46120555
:1010C00027120527120E56120523120E561205235B
:1010D000120E56120523120E56120527120527125C
:1010E0000E3E120E3E120527120E3E120E3E120545
:1010F00027120527120E4E120523120E4E1205233B
:10110000120E4E120523120E4E120527120527123B
:101110000E1E120527120E1E120527120527120E8B
:1011200016120523120E16120523120E161205238F
:10113000120E16120527120527120E06120E06129F
:101140000527120527120E46120E46120E46120EE3
:1011500046120527120527120E3E120E3E120E3EB3
:10116000120E3E120527120527120E1E120E1E80A9
:101170000F120AC712052B120AD012052B120AD918
:1011800012052BC2AF75650075660078FA79FA30E2
:101190008507D9FBD8F7021C00120C98120D0678AF
:1011A000988662120BFD75E405758811758E0475BD
:1011B000890975C80475910475D84075D90875F703
:1011C00082759E0075960275DA4A75DB0075A82156
:1011D00075E69075B801759B80759D0075D10C758D
:1011E000BC5975BB1075E88075B20112051FD2AFEE
:1011F000753C00C230120533C231C232C233C23430
:1012000075220012052FC3E522940A500241C5D26F
:101210003175220012052FC3E522940A500241C500
:10122000C231D23275220012052FC3E522940A5032
:101230000241C575E4D5758851758E017589AA7509
:101240008C00758D00C2A9D2ABD2AA7569C0756831
:1012500014756C50C232D23475220A12052F75688B
:1012600010C3E522940A405D758E0C75698075681F
:1012700028756C2875220A12052F756820C3E5228F
:10128000940A4041758E0C7569C0756814756C14AC
:1012900075220A12052F756810C3E522940A4025AD
:1012A00075E405758811758E04758909D2A9C2ABDC
:1012B000C2AAC234D23375220012052FC3E522948C
:1012C0000A40022183120523203003021183C2AF9A
:1012D000120EBAD2AF120533203403303A03021390
:1012E00087120523788CE6C3940150026187E530AC
:1012F000C39401500261877565A57566F17F02D2BE
:1013000036120D0612052FC2AFC236120D06C3E506
:1013100052947FD2AF407012051FC2AF120AE2D2C0
:10132000AFDFDC120DBBC3EF7897F6120533D19215
:101330007F0AD236120D0612052FC2AFC236120D29
:1013400006C3E552947FD2AF50E612051FC2AF121A
:101350000AC7120527120AC7D2AFDFD6120DBBEF9C
:1013600024037896F6F87997E7C3942340039850BE
:1013700006E824237897F6120533B1ECD1C11205A3
:101380002F120D0602118375650075660012052F78
:10139000C3E5529401400241D8C2AF12052F120E8C
:1013A000DDD2AF120533753000E4F537F538053777
:1013B000E537F4703F0538789AE6781914601278AA
:1013C0003214600D787D14600878FA146003753863
:1013D00000C3E53898401D120BFD12051F15387526
:1013E000370078998662C2AF120B62D2AF789886C6
:1013F0006212052F120527E52370022183C3E552EF
:10140000940140AA12052FE5237003021183C2AF95
:10141000120BFDE4D2AFE4F55CF524F525F53D753E
:101420005C0812051F12058830EDFDA8BDA9BEE9B4
:101430007001F8885D12058C755C08C2AF7559FFA4
:101440001205F3855B59855B5AD2AF303A07C23833
:10145000303502D238D228753900120A70120A9B30
:1014600012060B12061212060B12061212060B12AD
:10147000088912097A1209C4120612120879202C5E
:1014800003120542302C0312057212097A1209EF79
:1014900012061212088912097A120A1A1206121278
:1014A000087912097A120A451206121208891209DD
:1014B0007A120A7012061212058812087912097A35
:1014C000120A9B12058C120612302827855B597967
:1014D000187A0CC3E53999400EC228D2298A3B8577
:1014E0005B59855B5A800CC3E5529401400302149A
:1014F0006FA17330291C202B19E53B147006C229FB
:10150000D22A816FF53BC3E5529401400302146F68
:101510008061753C0078FA79A4E760027803C3E53E
:101520005398504FE523604B303A1720380520354B
:1015300007800F303502800A202B07D22B855B599C
:10154000819F78F0302B05855B597820C3E548985A
:10155000500302146F302B1BC22BC238303502D21D
:1015600038D229753B12855B59816F053CE5526085
:1015700002A176753C00C2AF120BFD7524007525E3
:1015800000D2AF12052F120BFD78A4E6600CC290BA
:10159000D291C292D293C294D295C3E53C940440B6
:1015A00002218361A9901A0D7820D125E520B45538
:1015B0000AA3D125E520B4AA0280137565A5756636
:1015C000F1120C0DB1EC756500756600801D901A66
:1015D0000378807B0AD125A308DBFA901A0F788C58
:1015E0007B1AD125A308DBFA901A2922C2AFD16851
:1015F000D145901A007410D12AA37433D12AA37450
:1016000021D12A901A0378807B0AD129A308DBFA1A
:10161000901A0F788C7B1AD129A308DBFAD17BD1E1
:1016200059901A2922E493F622E6438F01538FFD45
:10163000FFC3E583941C400122EF8565B78566B73B
:10164000F0538FFE22438F02438F018565B7856675
:10165000B7901A0DF0538FFC22901A0D7455D12AB1
:10166000901A0E74AAD12A227A3079D07820901A52
:1016700040D125E520F709A3DAF7227A3079D09016
:101680001A40E7D12A09A3DAF9227C05120533DCD6
:10169000FB22C2AF120AC7120AD0120AD9120AE2FA
:1016A000120527120AC7120AD0120AD9120AE21228
:1016B0000527120AC7120AD0120AD9120AE2D2AFBB
:1016C00022C2AF120AE2120AD9120AD0120AC712B3
:1016D0000527120AE2120AD9120AD0120AC7120505
:1016E00027120AE2120AD9120AD0120AC7D2AF226E
:1019FD00020F06103321FFFFFFFFFFFF05FF01FF61
:101A0D0055AA01FFFFFFFFFF03FFFFFF0AF05B5029
:0D1A1D0003FF03FF7DFF0601FFFF0101FF36
:101A400023475F4C5F30302320202020202020209F
:101A500023424C48454C492445464D3842313023B9
:101A600031362E35315F5374617274546F6E657305
:101C0000C2AFC2D37597DE7597AD7581C075A90057
:101C100043FF80752438752503B1DB7529A5752A26
:101C2000F143F12053A4DFD28575D4FF75E3407DE5
:101C3000FA780379E67C10752200752300901DE880
:101C40007B0675249875250130850281482085081A
:101C5000D8FBD9F9DCF781BA308508D8FBD9F9DC93
:101C6000F781BAB19BE493A3C39A6004DDC381BA40
:101C7000DBDBB18D600281317B08E493FAA3B16EA6
:101C8000DBF87A30B16E752200752300B18DEAFC65
:101C9000EBFDC3ED94FE400EB18D8A278B28ED300D
:101CA000E0048A828B83B18D7AC270D8C3ED94FE32
:101CB000601950CEBD0029EC600F7520007521FF22
:101CC000752900752A000200008100A827A92808AC
:101CD00009D804D90281DDB191EAF281D10D81A642
:101CE000C3ED94035051EDA2E092007AC5C3E582A2
:101CF0009400E583941C508C200010438F02438F86
:101D0000018529B7852AB7F0300027A827A9280818
:101D100009438F01538FFDD804D902A132C3E58353
:101D2000941C4003A3A117E28529B7852AB7F0A325
:101D3000A117538FFC81827AC1BD030CE493A3FAEF
:101D4000B152DCF8B14A81828184AA22AB23B16E00
:101D5000EBFAEA6222752608C3E52313F523E52290
:101D600013F52250066323A0632201D526EAB1DBD6
:101D7000B1DB75260AEAF4200102D285300102C2E5
:101D800085B1DBC3134002C201D526EB22B191EA33
:101D9000FB208502A191308502A196752608AE240C
:101DA000AF25C3EF13FFEE13FEB1DFB1DBC3EA13C0
:101DB0003085024480FA30E703632201C3E5231330
:101DC000F523E52213F52250066323A0632201D5F3
:101DD00026D9E52265236523F52222AE24AF250E00
:101DE0000FDEFEDFFCD20122424C48656C693437BD
:061DF0003164E8B10601B8
:00000001FF
