:020000040000FA
:060000000219FD0202F5E9
:030013000204E400
:03001B0002008D53
:03002B000202BA14
:03005B000204F3A9
:030073000202E2A4
:100080000406080C10182030406080A0C0C2AFC227
:10009000A853E6EFC28E85698BC0D0D2D3C0E0C032
:1000A000F0C2CAA8CCA9CDD2CAD2AF758A00C3E823
:1000B000956AF8E9956BF9C3E913F9E813F8E56473
:1000C0006007C3E913F9E813F8E97025E8956C4077
:1000D00020956C501CE582B410177C007B007A00E0
:1000E0007908900000A868E5647004C3E813F8017B
:1000F000FA900000D2A8D2AA619FE0FDC39CC398E9
:1001000040EF98EB33FB0582E0FCC39DC39840E1D0
:1001100098EB33FB0582E0FDC39CC39840D398EB7A
:1001200033FB0582E0FCC39DC39840C598EB33FBCD
:100130000582E0FDC39CC39840B798EB33FB058272
:10014000E0FCC39DC39840A998EB33FB0582E0FD1A
:10015000C39CC398409B98EB33FB0582E0FCC39D96
:10016000C398408D98EB33FB05822175900000D237
:10017000A8D2AA619FE0FDC39CC39840EF98EA33E0
:10018000FA0582E0FCC39DC39840E198EA33FA0582
:1001900082E0FDC39CC39840D398EA33FA0582E01D
:1001A000FCC39DC39840C598EA33FA0582E0FDC3BD
:1001B0009CC39840B798EA33FA0582E0FCC39DC31C
:1001C0009840A998EA33FA0582E0FDC39CC39840A1
:1001D0009B98EA33FA0582E0FCC39DC398408D9852
:1001E000EA33FA0582EBC46B6A54F0F9EAC454F0BE
:1001F000C3996009900000D2A8D2AA619FEBF4C411
:1002000054F0F9EAF4C4540E49FAEBF4C4540FFB69
:10021000C3EA9460FAEB9400FB50067B007A007905
:1002200000303A27C3EA94D0F8EB9407F9400BE882
:10023000FAE9FB203509D235413F303502C235207D
:100240003902B235C3EA33FAEB33FBEB2B3B3BF914
:10025000C3EB13FBEA13FAEA29FAEB3400FB30E3B1
:10026000047AFF7BFFE5255403601B202A18E55B19
:1002700033F9EB7007C3E99A4002E9FAE53CC4336D
:100280002AFAEB3400FBC3EA33C4540FF8EB33C44F
:1002900054F048F87005EA60027801C3EB13FBEAFA
:1002A00013FA900000D2A8D2AAE52260021522819A
:1002B00083900000D2A8D2AA619FC0D0C0E0C2CF74
:1002C0000541E52360021523C3E55260057553001F
:1002D00041DDE5532401F55350037553FFD0E0D0C1
:1002E000D032C2AF53E67F7592FA7593FFC22053A6
:1002F000917FD2AF32C0E0E58A30340885698BF057
:10030000A3D0E032D0E0C2AF53E6EFC0D0C0E0C02F
:10031000F0D2D3D2AF5388EFA88AA98C758A007522
:100320008C0043881030331FE8C4540FFAE9C454DA
:10033000F04AFAC3132AFAC3E833F8E933F9E82A92
:10034000FAE93403FB619030320FC3E833E933FA42
:10035000E82AFAE93400FB6190303115E875F0566F
:10036000A4AAF0E975F056A42AFAC5F03400FB619E
:1003700090E875F02BA4AAF0E975F02BA42AFAC531
:10038000F03400C313FBEA13FAC3EB13FBEA13FACE
:10039000C3EB94095009C3EA949AEB9403501605F1
:1003A00022E52270021522C3E5229432500281D741
:1003B00075520081DAE522600215223036067C0093
:1003C0007D0461CFAC31AD32303A04AC33AD34C3CF
:1003D000EA9CFAEB9DFB9208AE5EAF5F303A42506A
:1003E00007203509D23561ED303502C2353035048C
:1003F000AE60AF61203902B235C3EA33FAEB33FBAA
:10040000A208500AEAF42401FAEBF43400FBC3EA30
:100410009428FAEB9400FB501478007A007B00815A
:100420002DA208500878007A007B008183E52554CE
:10043000036019202A16E55BF9EB7007C3E99A40BF
:1004400002E9FAE53CC42AFAEB3400FBEA8EF0A498
:10045000F9AAF0EB8EF0A42AFAC5F03400FBC3EB46
:1004600013FDEA13F80FEF146004C3E833F8C3E98F
:1004700033EA33FAEB33FBDFEDEB30E20678FF7A59
:10048000FF7B038852D230E86003755300C3E559FF
:10049000FC955A4002AC5AC3EC95525008EC75F0EA
:1004A00004A4FAABF0EAF4F8EBF45403F9C3E894CB
:1004B00028FAE99400FB50047A007B00885489559F
:1004C0008A568B5775230AD0F0D0E0D0D053F7DF8F
:1004D00043F74043E6103275230AD0F0D0E0D0D085
:1004E00043E61032C2AAD28EC2CA85CC6A85CD6BD1
:1004F000D2CA32C2AFC0D0C0E0D2D3A8F9E55830DA
:10050000E10AE5FA20E13520E032A114E5FA30E114
:100510002B20E028C3E55513F8E55413F5FB88FCC0
:10052000C3E55713F8E55613F5E988EA855558539E
:10053000F7BFD2A8303402D2AA53E6EF53F7DFD088
:10054000E0D0D0D2AF327901801479038010790ADB
:10055000800C791E80087964800479C8800078173F
:10056000E4D5E0FDD8FAD9F62278FF20282879A131
:10057000E76023E548601F74FF8548F084853FF0FD
:1005800030290375F005A4F8C5F0600278FFC3E8D0
:10059000955B5002A85B885A22C3E54794E4E5487E
:1005A0009400E55A500314A1AA046002F55A22757A
:1005B000E89022055CC3E55C9408405330EDF4A854
:1005C000BDA9BE755C00E9FA79A0E76041EA700652
:1005D000E55D6018800CC3E8955D600EE55D500533
:1005E000600A1480070460FA8002E55DF55DC3953A
:1005F00067401B7559C0C394044013755980C39458
:1006000004400B755940C39404400375590022E51A
:10061000592410500274FFF55922743279A687F0DC
:10062000A4C5F0A2F733F8C3E895594002A8598849
:100630005B227547007548F022C2AFC2CAA8CCA998
:10064000CDAA4130CF010AD2CAD2AFAB42AC438867
:10065000428943C3E89BF8E99C202808F9302C0222
:10066000E149C1A2AD448A44F9EA9DFA600678FFE7
:1006700079FFC187AE45AF468B458C46A842A9435A
:10068000C3E89EF8E99FF9C3E54813FBE54713FA71
:10069000E82AF547E93BF54850067547FF7548FFDE
:1006A000C1EFAA47AB48AC47AD487E047F02C3EB1D
:1006B0009404400D1E1FC3EB940840052029021E20
:1006C0001FC3ED13FDEC13FCDEF7C3EA9CFAEB9DB0
:1006D000FBEF6009C3E913F9E813F8DFF7EA28FA3A
:1006E000EB39FB8A478B4850067BFF8B478B48C30F
:1006F000EB94025002D22C3028047F03E11A789246
:10070000E6FFC3E53D948240110FC3E53D94A04050
:10071000010FC3EF940640027F057E02E548C454F2
:100720000FF9E548C454F0F8E547C4540F28F8C35E
:10073000E89EFAE99400FB4009C3EA9401EB9400B7
:1007400050047A01E4FB020795AA47AB48EBC4FECC
:10075000EAC4540F4EFCC3EA9CFAEB9400FBC3E8D6
:1007600013C313F8EA28FAEB3400FB8A478B48C31B
:10077000EB94024002C22C7802EBC4FE7B00EAC478
:10078000540F4EFAC3EA98FA4005C3940150027A16
:10079000017892E6FF302002E195854E92854F93D5
:1007A000D22043E680C3E49AF8E49BF9302C03029C
:1007B0000823E8FAE9FBD3E913FDE813FC884E8926
:1007C0004FC3EF94036038EF20E00CE82CF8E93DCC
:1007D000F9ECFAEDFB8013E828F8E939F9C3E824CD
:1007E00001F8E93400F97AFF7BFFC3EF9403400F6F
:1007F0008A508B51884A894B8C4C8D4D0208588801
:100800005089518A4A8B4B8C4C8D4D302812755033
:10081000F07551FF754CF0754DFF754EF0754FFF3B
:10082000020858E8FAD3E813FC884EC3EF9403603B
:1008300021EF20E007E82CF8ECFA0143E828240136
:10084000F87AFFC3EF940340098A50884A8C4C021F
:10085000085888508A4A8C4C3020020158753A0258
:10086000D22043E680E52554036034A847A948C355
:10087000E913F9E813F8C3E913F9E813F830280489
:10088000E92440F9C2AF53E67F759100C3E498F5BF
:1008900094E499F595759104D22043E680D2AF2275
:1008A000D221754900752000302B0375204001BE10
:1008B000D221754900752040302B03752000780146
:1008C0007901202C20E52554036002C2217914E52A
:1008D00048C313700104F8C39414400278143028FC
:1008E00004781B791B202010E549600C302803D5C3
:1008F0003A04D223216511600549E59B5440B52097
:1009000002214F30280908C3E89940011801E52069
:10091000210A08C3E899400201BE01E5C22153E65D
:100920007F759100302C117594007595F8759104C0
:10093000D22043E6800208BEE5487EFFC33340056F
:10094000C3334001FEC3E49E759400F595212DC389
:10095000E5399401500201BE30210201BED80221C6
:100960006301E5C223C2AF53E67F759100855094C1
:10097000855195759104854A92854B93D22043E623
:1009800080D2AFE525540360072029020539801085
:1009900030230D202B0A202107158115810218070D
:1009A0002278003021027801E53D75F007A4F9E5D1
:1009B000F028F5F0E9A2F013A2F113A2F213F53D2D
:1009C000C394785003753D78C3E53D953E400BD206
:1009D00022C290C291C29275D57F30200221DA8561
:1009E0004C92854D93D22043E68022203810C2AF2E
:1009F000C294D29375D51BD2AF759F2341BBC2AFB2
:100A0000C294D29575D536D2AF759F2341BB20389D
:100A100010C2AFC29275D52DD293D2AF759F13413C
:100A2000BBC2AFC29075D52DD295D2AF759F034191
:100A3000BB203810C2AFC293D29575D52DD2AF75F9
:100A40009F038077C2AFC295D29375D52DD2AF7573
:100A50009F138067203810C2AFC29175D536D295EA
:100A6000D2AF759F238054C2AFC29175D51BD2936C
:100A7000D2AF759F238044203810C2AFC295D29464
:100A800075D536D2AF759F138031C2AFC293D29461
:100A900075D51BD2AF759F038021203810C2AFC21D
:100AA0009075D51BD294D2AF759F03800EC2AFC292
:100AB0009275D536D294D2AF759F13C22222203EB2
:100AC000687A147BC88019203E697A107B8C80106C
:100AD000203E6A7A0D7BB48007203E6B7A0B7BC880
:100AE000303F01227902E4C294D5E0FDD291D5E0F5
:100AF000FDC291D5E0FDD294D5E0FDE920E002D21F
:100B00009030E002D292E562D5E0FDE920E002C239
:100B10009030E002C2927496D5E0FDD9C9EAF8D5CA
:100B2000E0FDD8FBDBBEC294227A507C507B057D71
:100B30001480407A327C287B147D2880367A3C7C75
:100B4000B47B047D0A802C7A967C327B027D1E80E9
:100B5000227A647C287B057D0F80187888E614D281
:100B60003C7AC87C327B037D3C80087AC87C507B11
:100B7000057D46303F0122EBF8303C15203D091C35
:100B8000ECB40112B23D800E0CECB43209B23D80DF
:100B9000051CEC70010CECC0E0E8C0E0EDC0E030FA
:100BA0003B0FD294D290E562D5E0FDC290C2948012
:100BB0000DD294D292E562D5E0FDC292C294B23BCE
:100BC000D0E0FDFED0E0F8D0E0FCF97464D5E0FDA3
:100BD000DEF9744BD5E0FDD9F9203BBAD8B8DA017B
:100BE00022DA9422C290C291C292C293C294C29558
:100BF00075D57F22788076FF0876FF0876FF087625
:100C0000FF0876FF0876FF0876050876FF0876016C
:100C1000788C76010876FF0876FF0876FF0876FF65
:100C20000876FF0876030876FF0876FF0876FF0847
:100C3000760A0876F008765B087650087603087620
:100C4000FF0876030876FF08767D0876FF087606AB
:100C50000876010876FF0876FF08760108760122FB
:100C6000FA75F00CA4ABF0EAC333F8740133F9E879
:100C7000C333F8E933F9E8C32BF8E93400F92278F3
:100C800088E6C39403D23A5002C23AC238E630E151
:100C900002D238A23892397886E614900080937890
:100CA000A6F67886E6F53FC394025003753F0278B6
:100CB0009CE6753EFFB40203753EA0B40303753E87
:100CC0008278A0E6F8600674282409D8FCF56778D5
:100CD00096E6916088318932789EE6916088338902
:100CE000347897E691608835893671E42230361180
:100CF0007A007B007CFF7D007E00B1538B5F8A5EB3
:100D000022303A227896E6FA7B00789EE6FC7D0057
:100D1000C3EA33FAEB33FBC3EC33FCED33FD7E0A5D
:100D2000B1538B618A607896303A02789EE6FA7BFE
:100D3000007897E6FC7D007E00303A10C3EA33FA73
:100D4000EB33FBC3EC33FCED33FD7E0AB1538B5F19
:100D50008A5E22C3EC9EFCED9400FDC3EC9AFCED90
:100D60009BFDC3EC9423ED940050047C237D00C3D1
:100D7000EC94FFED940140047CFF7D017BFF0B7A36
:100D8000000AEA7009C3EC33FCED33FDA17EEC8A66
:100D9000F0A4AEF0ED8AF0A42E947C40E4EAF46076
:100DA000DD22D23691ED1205521205527A007B00F7
:100DB0007C1012054AE5522AFA74003BFBDCF37CF6
:100DC00004C3EB13FBEA13FADCF7FFEB60027FFFCF
:100DD000C23691ED2278A5E6F95403C2857002D29D
:100DE00085E9540CC2867002D286E95430C28770FD
:100DF00002D287E954C07000227ADC7B367C02C1C3
:100E00008F7A647B367C02C18F7A3A7B1D7C02C16B
:100E10008F7A5F7B1D7C02C18F7A3E7B047C0280CF
:100E20006E7AA47B067C0380667ADE7B6E7C028011
:100E30005E7A847B2B7C0380567A847B1D7C0280C7
:100E40004E7A587BAC7C0280467A627B6E7C028054
:100E50003E7A417BB67C0180367A497B8C7C01806E
:100E60002E7A927B8C7C0180267A4E7B797C018065
:100E70001E7A527B677C0180167AA47B677C018096
:100E80000E7A577B567C0180067AC47B377C01EC56
:100E9000C0E0D294D290E562D5E0FDC290C294D079
:100EA000E0FCF9EBFD7817E4D5E0FDD8FAD9F6744B
:100EB0001ED5E0FDDDF9DAD722D285120552C286B1
:100EC000740220310E0420320A0420330604203438
:100ED000027401C0E051BE120556D0E0D5E0F42204
:100EE00030341EE56CC3941E400C941E40028011E9
:100EF00051D051D0800B51C751C712055651D05116
:100F0000D012055651D951D9227565007566007504
:100F100097DE7597AD7581C043FF8075EF0675A9A3
:100F20000071E47580FF75F1F075A4E07580FF75C0
:100F3000D4FF75900075F23F75A53F75900075D58B
:100F40003F75A60175E34075E20271E4E4F8F6D856
:100F5000FD71F412183D78988662753001C2AF12A7
:100F6000055AB1D512055A12055AE562147005D218
:100F70003F021410C285C23F945914602C14601EA5
:100F800014604C14600C14600C14600C14600C029F
:100F900014010210A202118E021274021345D23EF5
:100FA000715B715B715B02141012055AD129120535
:100FB00056D129120556D129120556D131D139D130
:100FC00029120556D131D139D129D1290214101253
:100FD000055AD18912054ED151D15112054ED16910
:100FE00012054ED18112054ED18912054ED151D133
:100FF0005112054ED16912054ED18112054E120EC5
:101000008912054E120E51120E5112054E120E6922
:1010100012054E120E8112054E120E8912054E1245
:101020000E51120E5112054E120E6912054E120E7D
:101030008112054E120E6112054E120E4912054E16
:10104000120E0912054E120E5112054E120E6112A9
:10105000054E120E4912054E120E0912054E120EC1
:101060005112054E120E6112054E120E4912054E16
:10107000120E0912054E120E5112054E120E611279
:10108000054E120E4912054E120E0912054E120E91
:101090005112054E120E81120E8112054E120E4192
:1010A0008110120DF912054E120DF912054E12059E
:1010B0004E120E7112054A120E7112054A120E716D
:1010C00012054A120E7112054E12054E120E4912E9
:1010D0000E4912054E120E49120E4912054E120506
:1010E0004E120E5912054A120E5912054A120E5985
:1010F00012054A120E5912054E12054E120E4112D9
:101100000E4112054E120E41120E4112054E1205ED
:101110004E120E5112054A120E5112054A120E516C
:1011200012054A120E5112054E12054E120E2112D0
:10113000054E120E2112054E12054E120E19120501
:101140004A120E1912054A120E1912054A120E19E8
:1011500012054E12054E120DF9120DF912054E121E
:10116000054E120E49120E49120E49120E49120571
:101170004E12054E120E41120E41120E41120E4138
:1011800012054E12054E120E21120E218110120E62
:1011900071120E7112054E120E59120E5912054E91
:1011A000120E51120E5112054E120E59120E5912F4
:1011B000054E120E71120E7112054E120E71120EA4
:1011C0007112054E120E71120E7112055A120E593D
:1011D000120E5912054E120E59120E5912054E12C8
:1011E0000E59120E5912055A120E71120E71120575
:1011F0004E120E89120552120E8912055A120E71E4
:10120000120E7112054E120E59120E5912054E127F
:101210000E51120E5112054E120E59120E59120590
:101220004E120E71120E7112054E120E71120E71C7
:1012300012054E120E71120E7112054E120E71121F
:101240000E7112054E120E59120E5912054E120E43
:1012500059120E5912054E120E71120E7112054ED0
:10126000120E59120E5912054E120E51120E511233
:10127000054E8110120E1112054E120E1112054E5E
:10128000120E1112054E120E1112054E120E1112EF
:10129000054E120DF9120DF9120DF9120E1112056B
:1012A0004E120E1112054E120E1112054E120E1193
:1012B00012054E120E1112054E120E0112054E129B
:1012C0000E4912054E120E4112054E120E4912051C
:1012D0004E120E0112054E120E49120E49120E1137
:1012E00012054E120E1112054E120E1112054E125B
:1012F0000E1112054E120E1112054E120E51120E43
:1013000051120E51120E51120E51120E511205525F
:10131000120E51120E5112054E120E51120E511292
:10132000054E120DF912054E120E4912054E120EFF
:101330004912054E120E4112054E120E41120E4177
:1013400012054E8110120E51120E51120E5112053D
:101350004E120E89120E8912054E120E89120E8936
:1013600012054E120E8112054E120E71120E7112DE
:10137000054E120E8112054E120E71120E711205DB
:101380004E120E59120E59120E5912054E120E59C6
:10139000120E59120E5912054E120E5112054E120E
:1013A0000E59120E5912054E120E71120E71120EB6
:1013B0007112054E120E5912054E120E71120E7157
:1013C00012054E120E81120E81120E8112054E125E
:1013D0000E7112054E120E51120E51120E511205BF
:1013E0004E120E71120E71120E7112054E120E591E
:1013F000120E59120E59120E59120E5912054E8024
:101400000F120ABE120552120AC7120552120AD052
:10141000120552C2AF75650075660078FA79FA3028
:101420008407D9FBD8F7021C00120C7F120CED7850
:10143000988662120BE475E404758811758E047544
:10144000890975C80475910475D84075D90875F770
:1014500081759E0375960275DA4275DB4275A82187
:1014600075E69075B801759B80759D0075D10C75FA
:10147000BC5975BB1075E88075B201120546D2AF34
:10148000753C00C23012055AC231C232C233C23476
:10149000752200120556C3E522940A5002A155D2C6
:1014A00031752200120556C3E522940A5002A15557
:1014B000C231D232752200120556C3E522940A5079
:1014C00002A15575E4C4758851758E017589AA7598
:1014D0008C00758D00C2A9D2ABD2AA7569C075689F
:1014E00014756C50C232D23475220A1205567568D2
:1014F00010C3E522940A405D758E0C75698075688D
:1015000028756C2875220A120556756820C3E522D5
:10151000940A4041758E0C7569C0756814756C1419
:1015200075220A120556756810C3E522940A4025F3
:1015300075E404758811758E04758909D2A9C2AB4A
:10154000C2AAC234D233752200120556C3E52294D2
:101550000A4002811312054A203003021413C2AF5D
:10156000120EB9D2AF12055A203403303A030216D4
:101570001A12054A788CE6C394015002C11AE5306C
:10158000C394015002C11A7565A57566F17F02D238
:1015900036120CED120556C2AFC236120CEDC3E581
:1015A00052947FD2AF4073120546C2AF120AD9D20D
:1015B000AFDFDC120DA2C3EF7897F612055A1219AD
:1015C0002A7F0AD236120CED120556C2AFC236126D
:1015D0000CEDC3E552947FD2AF50E6120546C2AF80
:1015E000120ABE12054E120ABED2AFDFD6120DA2EB
:1015F000EF24037896F6F87997E7C394234003988D
:101600005006E824237897F612055A121884121906
:1016100059120556120CED0214137565007566001B
:10162000120556C3E55294014002A168C2AFD286AA
:10163000120556120EE0C287D2AF12055A7530005D
:10164000E4F537F5380537E537F4703F0538789A13
:10165000E67819146012783214600D787D146008F1
:1016600078FA146003753800C3E53898401D120BF2
:10167000E4120546153875370078998662C2AF12B4
:101680000B51D2AF7898866212055612054EE523AB
:1016900070028113C3E552940140AA120556E52356
:1016A0007003021413C2AF120BE4E4D2AFE4F55C92
:1016B000F524F525F53D755C081205461205AF3099
:1016C000EDFDA8BDA9BEE97001F8885D1205B375EE
:1016D0005C08C2AF7559FF12061A855B59855B5AC3
:1016E000D2AF303A07C238303502D238D2287539F5
:1016F00000120A77120A9A120632120639120632BC
:101700001206391206321208B01209A11209EB12A0
:1017100006391208A0202C03120569302C0312058B
:10172000991209A1120A0E1206391208B01209A163
:10173000120A311206391208A01209A1120A541213
:1017400006391208B01209A1120A771206391205D9
:10175000AF1208A01209A1120A9A1205B312063993
:10176000302828855B5979187A0CC3E53999400EE1
:10177000C228D2298A3B855B59855B5A800DC3E517
:10178000529401400302170602180F30291F202B24
:101790001CE53B147006C229D22AE106F53BC3E5DD
:1017A0005294014003021706203A028062753C0001
:1017B00078FA79A4E760027803C3E553985050E5BE
:1017C00023604C303A17203805203507800F30351C
:1017D00002800A202B07D22B855B59E13678F03046
:1017E0002B05855B597820C3E548985003021706FE
:1017F000302B1CC22BC238303502D238D229753B6F
:1018000012855B59021706053CE55260020112750C
:101810003C00C2AF120BE4752400752500D2AF1254
:101820000556120BE478A4E66006D293D294D295C2
:10183000C3E53C94044003021413021640901A0DB1
:10184000782011BDE520B4550AA311BDE520B4AA46
:101850000280137565A57566F1120BF41184756528
:1018600000756600801D901A0378807B0A11BDA365
:1018700008DBFA901A0F788C7B1A11BDA308DBFAEB
:10188000901A2922C2AF310011DD901A0074101194
:10189000C2A3744111C2A3742111C2901A037880AB
:1018A0007B0A11C1A308DBFA901A0F788C7B1A11FE
:1018B000C1A308DBFA311311F1901A2922E493F63F
:1018C00022E6438F01538FFDFFC3E583941C400143
:1018D00022EF8565B78566B7F0538FFE22438F02EE
:1018E000438F018565B78566B7901A0DF0538FFC5D
:1018F00022901A0D745511C2901A0E74AA11C222A8
:101900007A3079D07820901A4011BDE520F709A3EC
:10191000DAF7227A3079D0901A40E711C209A3DAB7
:10192000F9227C0512055ADCFB22C2AF120ABE1254
:101930000AC7120AD0120AD912054E120ABE120A9A
:10194000C7120AD0120AD912054E120ABE120AC7CD
:10195000120AD0120AD9D2AF22C2AF120AD9120A81
:10196000D0120AC7120ABE12054E120AD9120AD0A4
:10197000120AC7120ABE12054E120AD9120AD01252
:081980000AC7120ABED2AF2211
:1019FD00020F09104121FFFFFFFFFFFF05FF01FF50
:101A0D0055AA01FFFFFFFFFF03FFFFFF0AF05B5029
:0D1A1D0003FF03FF7DFF0601FFFF0101FF36
:101A4000234A5F4C5F343023202020202020202098
:101A500023424C48454C492445464D3842313023B9
:101A600031362E36355F546F6E657320202020206E
:101C0000C2AFC2D37597DE7597AD7581C075A90057
:101C100043FF80752438752503B1DB7529A5752A26
:101C2000F143F11053A4EFD28475D4FF75E3407DE6
:101C3000FA780379E67C10752200752300901DE880
:101C40007B0675249875250130840281482084081C
:101C5000D8FBD9F9DCF781BA308408D8FBD9F9DC94
:101C6000F781BAB19BE493A3C39A6004DDC381BA40
:101C7000DBDBB18D600281317B08E493FAA3B16EA6
:101C8000DBF87A30B16E752200752300B18DEAFC65
:101C9000EBFDC3ED94FE400EB18D8A278B28ED300D
:101CA000E0048A828B83B18D7AC270D8C3ED94FE32
:101CB000601950CEBD0029EC600F7520007521FF22
:101CC000752900752A000200008100A827A92808AC
:101CD00009D804D90281DDB191EAF281D10D81A642
:101CE000C3ED94035051EDA2E092007AC5C3E582A2
:101CF0009400E583941C508C200010438F02438F86
:101D0000018529B7852AB7F0300027A827A9280818
:101D100009438F01538FFDD804D902A132C3E58353
:101D2000941C4003A3A117E28529B7852AB7F0A325
:101D3000A117538FFC81827AC1BD030CE493A3FAEF
:101D4000B152DCF8B14A81828184AA22AB23B16E00
:101D5000EBFAEA6222752608C3E52313F523E52290
:101D600013F52250066323A0632201D526EAB1DBD6
:101D7000B1DB75260AEAF4200102D284300102C2E6
:101D800084B1DBC3134002C201D526EB22B191EA34
:101D9000FB208402A191308402A196752608AE240E
:101DA000AF25C3EF13FFEE13FEB1DFB1DBC3EA13C0
:101DB0003084024480FA30E703632201C3E5231331
:101DC000F523E52213F52250066323A0632201D5F3
:101DD00026D9E52265236523F52222AE24AF250E00
:101DE0000FDEFEDFFCD20122424C48656C693437BD
:061DF0003164E8B10601B8
:00000001FF
