:020000040000FA
:060000000219FD0202F5E9
:030013000204E6FE
:03001B0002008D53
:03002B000202BA14
:03005B000204F5A7
:030073000202E2A4
:100080000406080C10182030406080A0C0C2AFC227
:10009000A853E6EFC28E85698BC0D0D2D3C0E0C032
:1000A000F0C2CAA8CCA9CDD2CAD2AF758A00C3E823
:1000B000956AF8E9956BF9C3E913F9E813F8E56473
:1000C0006007C3E913F9E813F8E97025E8956C4077
:1000D00020956C501CE582B410177C007B007A00E0
:1000E0007908900000A868E5647004C3E813F8017B
:1000F000FA900000D2A8D2AA619FE0FDC39CC398E9
:1001000040EF98EB33FB0582E0FCC39DC39840E1D0
:1001100098EB33FB0582E0FDC39CC39840D398EB7A
:1001200033FB0582E0FCC39DC39840C598EB33FBCD
:100130000582E0FDC39CC39840B798EB33FB058272
:10014000E0FCC39DC39840A998EB33FB0582E0FD1A
:10015000C39CC398409B98EB33FB0582E0FCC39D96
:10016000C398408D98EB33FB05822175900000D237
:10017000A8D2AA619FE0FDC39CC39840EF98EA33E0
:10018000FA0582E0FCC39DC39840E198EA33FA0582
:1001900082E0FDC39CC39840D398EA33FA0582E01D
:1001A000FCC39DC39840C598EA33FA0582E0FDC3BD
:1001B0009CC39840B798EA33FA0582E0FCC39DC31C
:1001C0009840A998EA33FA0582E0FDC39CC39840A1
:1001D0009B98EA33FA0582E0FCC39DC398408D9852
:1001E000EA33FA0582EBC46B6A54F0F9EAC454F0BE
:1001F000C3996009900000D2A8D2AA619FEBF4C411
:1002000054F0F9EAF4C4540E49FAEBF4C4540FFB69
:10021000C3EA9460FAEB9400FB50067B007A007905
:1002200000303A27C3EA94D0F8EB9407F9400BE882
:10023000FAE9FB203509D235413F303502C235207D
:100240003902B235C3EA33FAEB33FBEB2B3B3BF914
:10025000C3EB13FBEA13FAEA29FAEB3400FB30E3B1
:10026000047AFF7BFFE5255403601B202A18E55B19
:1002700033F9EB7007C3E99A4002E9FAE53CC4336D
:100280002AFAEB3400FBC3EA33C4540FF8EB33C44F
:1002900054F048F87005EA60027801C3EB13FBEAFA
:1002A00013FA900000D2A8D2AAE52260021522819A
:1002B00083900000D2A8D2AA619FC0D0C0E0C2CF74
:1002C0000541E52360021523C3E55260057553001F
:1002D00041DDE5532401F55350037553FFD0E0D0C1
:1002E000D032C2AF53E67F7592FA7593FFC22053A6
:1002F000917FD2AF32C0E0E58A30340885698BF057
:10030000A3D0E032D0E0C2AF53E6EFC0D0C0E0C02F
:10031000F0D2D3D2AF5388EFA88AA98C758A007522
:100320008C0043881030331FE8C4540FFAE9C454DA
:10033000F04AFAC3132AFAC3E833F8E933F9E82A92
:10034000FAE93403FB619030320FC3E833E933FA42
:10035000E82AFAE93400FB6190303115E875F0566F
:10036000A4AAF0E975F056A42AFAC5F03400FB619E
:1003700090E875F02BA4AAF0E975F02BA42AFAC531
:10038000F03400C313FBEA13FAC3EB13FBEA13FACE
:10039000C3EB94095009C3EA949AEB9403501605F1
:1003A00022E52270021522C3E5229432500281D93F
:1003B00075520081DCE522600215223036067C0091
:1003C0007D0461CFAC31AD32303A04AC33AD34C3CF
:1003D000EA9CFAEB9DFB9208AE5EAF5F303A42506A
:1003E00007203509D23561ED303502C2353035048C
:1003F000AE60AF61203902B235C3EA33FAEB33FBAA
:10040000A208500AEAF42401FAEBF43400FBC3EA30
:100410009428FAEB9400FB501478007A007B00815A
:100420002DA208500878007A007B008183E52554CE
:10043000036019202A16E55BF9EB7007C3E99A40BF
:1004400002E9FAE53CC42AFAEB3400FBEA8EF0A498
:10045000F9AAF0EB8EF0A42AFAC5F03400FBC3EB46
:1004600013FDEA13F80FEF146004C3E833F8C3E98F
:1004700033EA33FAEB33FBDFEDEB30E20678FF7A59
:10048000FF7B038852D230E86003755300C3E559FF
:10049000FC955A4002AC5AC3EC95525008EC75F0EA
:1004A00004A4FAABF0EAF4F8EBF45403F9885489A5
:1004B0005575230AE55830E110D0F0D0E0D0D05384
:1004C000F7DF43F74043E61032D0F0D0E0D0D0530E
:1004D000D8FE43DA0143E6103275230AD0F0D0E0AB
:1004E000D0D043E61032C2AAD28EC2CA85CC6A8569
:1004F000CD6BD2CA32C2AFC0D0C0E0D2D38554FBDC
:100500008555FC85555853F7BF53DAFED2A83034D1
:1005100002D2AA53E6EF53F7DF53D8FED0E0D0D093
:10052000D2AF327901801479038010790A800C7976
:100530001E80087964800479C880007817E4D5E0CB
:10054000FDD8FAD9F62278FF20282879A1E7602380
:10055000E548601F74FF8548F084853FF03029032B
:1005600075F005A4F8C5F0600278FFC3E8955B500C
:1005700002A85B885A22C3E54794E4E5489400E565
:100580005A500314A187046002F55A2275E890229C
:10059000055CC3E55C9408405330EDF4A8BDA9BEEA
:1005A000755C00E9FA79A0E76041EA7006E55D60F4
:1005B00018800CC3E8955D600EE55D5005600A1477
:1005C00080070460FA8002E55DF55DC39567401B16
:1005D0007559C0C394044013755980C39404400BEB
:1005E000755940C39404400375590022E5592410FD
:1005F000500274FFF55922743279A687F0A4C5F031
:10060000A2F733F8C3E895594002A859885B2275D0
:1006100047007548F022C2AFC2CAA8CCA9CDAA41F2
:1006200030CF010AD2CAD2AFAB42AC438842894331
:10063000C3E89BF8E99C202808F9302C02E126C188
:100640007FAD448A44F9EA9DFA600678FF79FFC1DC
:1006500064AE45AF468B458C46A842A943C3E89E8D
:10066000F8E99FF9C3E54813FBE54713FAE82AF5D3
:1006700047E93BF54850067547FF7548FFC1CCAACE
:1006800047AB48AC47AD487E047F02C3EB940440BF
:100690000D1E1FC3EB940840052029021E1FC3ED49
:1006A00013FDEC13FCDEF7C3EA9CFAEB9DFBEF6055
:1006B00009C3E913F9E813F8DFF7EA28FAEB39FB85
:1006C0008A478B4850067BFF8B478B48C3EB9402CD
:1006D0005002D22C3028047F03C1F77892E6FFC382
:1006E000E53D948240110FC3E53D94A040010FC346
:1006F000EF940640027F057E02E548C4540FF9E5F9
:1007000048C454F0F8E547C4540F28F8C3E89EFAEB
:10071000E99400FB4009C3EA9401EB940050047A89
:1007200001E4FB020772AA47AB48EBC4FEEAC454DB
:100730000F4EFCC3EA9CFAEB9400FBC3E813C3130F
:10074000F8EA28FAEB3400FB8A478B48C3EB9402A3
:100750004002C22C7802EBC4FE7B00EAC4540F4E68
:10076000FAC3EA98FA4005C3940150027A017892DC
:10077000E6FF302002E172854E92854F93D22043EE
:10078000E680C3E49AF8E49BF9302C03020800E801
:10079000FAE9FBD3E913FDE813FC884E894FC3EF58
:1007A00094036038EF20E00CE82CF8E93DF9ECFA0E
:1007B000EDFB8013E828F8E939F9C3E82401F8E9EA
:1007C0003400F97AFF7BFFC3EF9403400F8A508B0C
:1007D00051884A894B8C4C8D4D020835885089517F
:1007E0008A4A8B4B8C4C8D4D3028127550F07551C8
:1007F000FF754CF0754DFF754EF0754FFF020835D3
:10080000E8FAD3E813FC884EC3EF94036021EF208D
:10081000E007E82CF8ECFA0120E8282401F87AFF38
:10082000C3EF940340098A50884A8C4C02083588EB
:10083000508A4A8C4C3020020135753A02D220434E
:10084000E680E52554036034A847A948C3E913F9B5
:10085000E813F8C3E913F9E813F8302804E9244051
:10086000F9C2AF53E67F759100C3E498F594E4991B
:10087000F595759104D22043E680D2AF22D221753E
:100880004900752000302B03752040019BD2217553
:100890004900752040302B03752000780179012034
:1008A0002C20E52554036002C2217914E548C313C6
:1008B000700104F8C3941440027814302804781BA3
:1008C000791B202010E549600C302803D53A04D26A
:1008D000232142113D0549E59B5440B52002212CBE
:1008E00030280908C3E89940011801C220210A08EC
:1008F000C3E8994002019B01C2C22153E67F759172
:1009000000302C117594007595F8759104D2204330
:10091000E68002089BE5487EFFC3334005C33340B1
:1009200001FEC3E49E759400F595210AC3E5399450
:10093000015002019B302102019BD802214001C2DB
:10094000C223C2AF53E67F759100855094855195BF
:10095000759104854A92854B93D22043E680D2AFAD
:10096000E525540360072029020539801030230D46
:10097000202B0A2021071581158102181F227800DB
:100980003021027801E53D75F007A4F9E5F028F57E
:10099000F0E9A2F013A2F113A2F213F53DC394788B
:1009A0005003753D78C3E53D953E400BD222C2947D
:1009B000C295C29675D57F30200221B7854C9285AD
:1009C0004D93D22043E68022203814C2AFC295C294
:1009D00091D294D29675D577D2AF759F4541C8C252
:1009E000AFC295C293D296D29475D57DD2AF759F82
:1009F0004541C8203814C2AFC296D29575D57BC286
:100A000091D294D2AF759F6541C8C2AFC294D295BE
:100A100075D57BC293D296D2AF759F7541C82038E9
:100A200014C2AFC294C293D296D29575D57BD2AF81
:100A3000759F7541C8C2AFC296C291D294D29575C6
:100A4000D57BD2AF759F6541C8203814C2AFC2951F
:100A5000D29475D57DC293D296D2AF759F458068EA
:100A6000C2AFC295D29675D577C291D294D2AF75E6
:100A70009F458054203814C2AFC296C292D295D2FC
:100A80009475D57DD2AF759F65803DC2AFC294C2CB
:100A900092D295D29675D577D2AF759F7580292061
:100AA0003814C2AFC294D29675D577C292D295D27D
:100AB000AF759F758012C2AFC296D29475D57DC2B4
:100AC00092D295D2AF759F65C22222203E707A14D1
:100AD0007BC88019203E717A107B8C8010203E727A
:100AE0007A0D7BB48007203E737A0B7BC8303F01C0
:100AF000227902E4C295D5E0FDD292D295D5E0FDEF
:100B0000C295D5E0FDC292D295D5E0FDE920E00482
:100B1000D291D29430E004D293D296E562D5E0FD32
:100B2000E920E002C29430E002C2967496D5E0FD5E
:100B3000D9C1EAF8D5E0FDD8FBDBB6C295227A50E0
:100B40007C507B057D1480407A327C287B147D2884
:100B500080367A3C7CB47B047D0A802C7A967C3289
:100B60007B027D1E80227A647C287B057D0F8018A5
:100B70007888E614D23C7AC87C327B037D3C8008BE
:100B80007AC87C507B057D46303F0122EBF8303C33
:100B900015203D091CECB40112B23D800E0CECB4E2
:100BA0003209B23D80051CEC70010CECC0E0E8C0DD
:100BB000E0EDC0E0303B13C292D295D291D294E5E1
:100BC00062D5E0FDC294C2958011C292D295D293B3
:100BD000D296E562D5E0FDC296C295B23BD0E0FD6B
:100BE000FED0E0F8D0E0FCF97464D5E0FDDEF974E5
:100BF0004BD5E0FDD9F9203BB2D8B0DA0122DA8C2E
:100C000022C294C295C296C294C295C29675D57FEF
:100C100022788076FF0876FF0876FF0876FF087650
:100C2000FF0876FF0876050876FF087601788C764F
:100C3000010876FF0876FF0876FF0876FF0876FF42
:100C40000876030876FF0876FF0876FF08760A081C
:100C500076F008765B0876500876030876FF08760B
:100C6000030876FF08767D0876FF08760608760189
:100C70000876FF0876FF08760108760122FA75F0FB
:100C80000CA4ABF0EAC333F8740133F9E8C333F8CA
:100C9000E933F9E8C32BF8E93400F9227888E6C390
:100CA0009403D23A5002C23AC238E630E102D23856
:100CB000A23892397886E6149000809378A6F67868
:100CC00086E6F53FC394025003753F02789CE675B3
:100CD0003EFFB40203753EA0B40303753E8278A0C4
:100CE000E6F8600674282409D8FCF5677896E69142
:100CF0007D88318932789EE6917D88338934789772
:100D0000E6917D883589369101223036117A007B53
:100D1000007CFF7D007E00B1708B5F8A5E22303ADE
:100D2000227896E6FA7B00789EE6FC7D00C3EA33E3
:100D3000FAEB33FBC3EC33FCED33FD7E0AB1708B71
:100D4000618A607896303A02789EE6FA7B0078975E
:100D5000E6FC7D007E00303A10C3EA33FAEB33FB49
:100D6000C3EC33FCED33FD7E0AB1708B5F8A5E22EB
:100D7000C3EC9EFCED9400FDC3EC9AFCED9BFDC31F
:100D8000EC9423ED940050047C237D00C3EC94FF8D
:100D9000ED940140047CFF7D017BFF0B7A000AEAA1
:100DA0007009C3EC33FCED33FDA19BEC8AF0A4AEDB
:100DB000F0ED8AF0A42E947C40E4EAF460DD22D2C7
:100DC00036B10A12052F12052F7A007B007C101213
:100DD0000527E5522AFA74003BFBDCF37C04C3EBE5
:100DE00013FBEA13FADCF7FFEB60027FFFC236B1B8
:100DF0000A2278A5E6F95403D2827002C282E9542D
:100E00000C7000E954307000E954C07000227ADCA4
:100E10007B367C02C1A47A647B367C02C1A47A3A18
:100E20007B1D7C02C1A47A5F7B1D7C02C1A47A3E3B
:100E30007B047C02806E7AA47B067C0380667ADE6B
:100E40007B6E7C02805E7A847B2B7C0380567A8466
:100E50007B1D7C02804E7A587BAC7C0280467A6295
:100E60007B6E7C02803E7A417BB67C0180367A497B
:100E70007B8C7C01802E7A927B8C7C0180267A4E42
:100E80007B797C01801E7A527B677C0180167AA474
:100E90007B677C01800E7A577B567C0180067AC482
:100EA0007B377C01ECC0E0C292D295D291D294E51E
:100EB00062D5E0FDC294C295D0E0FCF9EBFD781755
:100EC000E4D5E0FDD8FAD9F6741ED5E0FDDDF9DAF7
:100ED000D322C28212052F740220310E0420320A5E
:100EE00004203306042034027401C0E051CB120503
:100EF00033D0E0D5E0F42230341EE56CC3941E40BC
:100F00000C941E4002801151DD51DD800B51D451F3
:100F1000D412053351DD51DD12053351E651E6227D
:100F20007565007566007597DE7597AD7581C04370
:100F3000FF8075EF0675A90091017580FB75F10FB3
:100F400075A4047580FB75D4FF75900075F27E75ED
:100F5000A57E75900075D57F75A60175E34075E295
:100F6000029101E4F8F6D8FD911112185B78988689
:100F700062753001C2AF120537B1F21205371205A2
:100F800037E562147005D23F02142CD282C23F941E
:100F90005914602C14601E14604C14600C14600C06
:100FA00014600C14600C02141D0210BE0211AA027F
:100FB0001290021361D23E71707170717002142C24
:100FC000120537D13E120533D13E120533D13E1200
:100FD0000533D146D14ED13E120533D146D14ED143
:100FE0003ED13E02142C120537D19E12052BD1663C
:100FF000D16612052BD17E12052BD19612052B122C
:101000000E9E12052B120E66120E6612052B120E84
:101010007E12052B120E9612052B120E9E12052B18
:10102000120E66120E6612052B120E7E12052B1280
:101030000E9612052B120E9E12052B120E66120E24
:101040006612052B120E7E12052B120E9612052B20
:10105000120E7612052B120E5E12052B120E1E12A8
:10106000052B120E6612052B120E7612052B120E90
:101070005E12052B120E1E12052B120E6612052B88
:10108000120E7612052B120E5E12052B120E1E1278
:10109000052B120E6612052B120E7612052B120E60
:1010A0005E12052B120E1E12052B120E6612052B58
:1010B000120E96120E9612052B120E56812C120E3F
:1010C0000E12052B120E0E12052B12052B120E8678
:1010D000120527120E86120527120E8612052712F8
:1010E0000E8612052B12052B120E5E120E5E1205D5
:1010F0002B120E5E120E5E12052B12052B120E6EB7
:10110000120527120E6E120527120E6E12052712F7
:101110000E6E12052B12052B120E56120E561205CC
:101120002B120E56120E5612052B12052B120E669E
:10113000120527120E66120527120E6612052712D7
:101140000E6612052B12052B120E3612052B120EEF
:101150003612052B12052B120E2E120527120E2EFB
:10116000120527120E2E120527120E2E12052B1213
:10117000052B120E0E120E0E12052B12052B120E3F
:101180005E120E5E120E5E120E5E12052B12052B03
:10119000120E56120E56120E56120E5612052B1223
:1011A000052B120E36120E36812C120E86120E866A
:1011B00012052B120E6E120E6E12052B120E6612F7
:1011C0000E6612052B120E6E120E6E12052B120EEB
:1011D00086120E8612052B120E86120E8612052B13
:1011E000120E86120E86120537120E6E120E6E1237
:1011F000052B120E6E120E6E12052B120E6E120EB3
:101200006E120537120E86120E8612052B120E9ED6
:1012100012052F120E9E120537120E86120E86121E
:10122000052B120E6E120E6E12052B120E66120E8A
:101230006612052B120E6E120E6E12052B120E8602
:10124000120E8612052B120E86120E8612052B1216
:101250000E86120E8612052B120E86120E861205AF
:101260002B120E6E120E6E12052B120E6E120E6ED9
:1012700012052B120E86120E8612052B120E6E12FE
:101280000E6E12052B120E66120E6612052B812CA5
:10129000120E2612052B120E2612052B120E2612E6
:1012A000052B120E2612052B120E2612052B120EDE
:1012B0000E120E0E120E0E120E2612052B120E26F6
:1012C00012052B120E2612052B120E2612052B12BA
:1012D0000E2612052B120E1612052B120E5E12058B
:1012E0002B120E5612052B120E5E12052B120E1625
:1012F00012052B120E5E120E5E120E2612052B1216
:101300000E2612052B120E2612052B120E26120582
:101310002B120E2612052B120E66120E66120E6688
:10132000120E66120E66120E6612052F120E66124D
:101330000E6612052B120E66120E6612052B120E89
:101340000E12052B120E5E12052B120E5E12052BCD
:10135000120E5612052B120E56120E5612052B8126
:101360002C120E66120E66120E6612052B120E9EBF
:10137000120E9E12052B120E9E120E9E12052B129D
:101380000E9612052B120E86120E8612052B120EC9
:101390009612052B120E86120E8612052B120E6E59
:1013A000120E6E120E6E12052B120E6E120E6E12B1
:1013B0000E6E12052B120E6612052B120E6E120EF9
:1013C0006E12052B120E86120E86120E8612052B39
:1013D000120E6E12052B120E86120E8612052B129D
:1013E0000E96120E96120E9612052B120E861205EE
:1013F0002B120E66120E66120E6612052B120E8648
:10140000120E86120E8612052B120E6E120E6E1220
:101410000E6E120E6E120E6E12052B800F120ACB7C
:1014200012052F120AD412052F120ADD12052FC23F
:10143000AF75650075660078FA79FA308307D9FBD5
:10144000D8F7021C00120C9C120D0A7898866212C2
:101450000C0175E403758811758E0475890975C8CA
:101460000475910475D84075D90875F782759E008A
:1014700075960275DA4A75DB0075A82175E69075D8
:10148000B801759B80759D0075D10C75BC5975BBF5
:101490001075E88075B201120523D2AF753C00C209
:1014A00030120537C231C232C233C2347522001243
:1014B0000533C3E522940A5002A171D2317522008E
:1014C000120533C3E522940A5002A171C231D2320F
:1014D000752200120533C3E522940A5002A17175EA
:1014E000E4B3758851758E017589AA758C00758D68
:1014F00000C2A9D2ABD2AA7569C0756814756C50C8
:10150000C232D23475220A120533756810C3E5223F
:10151000940A405D758E0C756980756828756C2815
:1015200075220A120533756820C3E522940A4041EA
:10153000758E0C7569C0756814756C1475220A1265
:101540000533756810C3E522940A402575E40375D8
:101550008811758E04758909D2A9C2ABC2AAC2349A
:10156000D233752200120533C3E522940A4002816A
:101570002F12052720300302142FC2AF120ED2D231
:10158000AF120537203403303A030216361205270E
:10159000788CE6C394015002C136E530C394015003
:1015A00002C1367565A57566F17F02D236120D0A45
:1015B000120533C2AFC236120D0AC3E552947FD270
:1015C000AF4073120523C2AF120AE6D2AFDFDC12BE
:1015D0000DBFC3EF7897F61205371219487F0AD26C
:1015E00036120D0A120533C2AFC236120D0AC3E518
:1015F00052947FD2AF50E6120523C2AF120ACB122B
:10160000052B120ACBD2AFDFD6120DBFEF24037821
:1016100096F6F87997E7C394234003985006E82498
:10162000237897F61205371218A21219771205338C
:10163000120D0A02142F756500756600120533C37A
:10164000E55294014002A184C2AF120533120EF795
:10165000D2AF120537753000E4F537F5380537E5B8
:1016600037F4703F0538789AE678191460127832AA
:1016700014600D787D14600878FA146003753800E2
:10168000C3E53898401D120C011205231538753733
:101690000078998662C2AF120B66D2AF78988662E4
:1016A00012053312052BE5237002812FC3E55294F6
:1016B0000140AA120533E523700302142FC2AF12B2
:1016C0000C01E4D2AFE4F55CF524F525F53D755C3D
:1016D0000812052312058C30EDFDA8BDA9BEE970E6
:1016E00001F8885D120590755C08C2AF7559FF124C
:1016F00005F7855B59855B5AD2AF303A07C238305F
:101700003502D238D228753900120A74120A9F1293
:10171000060F12061612060F12061612060F1208F0
:101720008D12097E1209C812061612087D202C039C
:10173000120546302C0312057612097E1209F312A7
:10174000061612088D12097E120A1E1206161208BB
:101750007D12097E120A4912061612088D12097EA0
:10176000120A7412061612058C12087D12097E12D6
:101770000A9F120590120616302828855B597918A1
:101780007A0CC3E53999400EC228D2298A3B855B81
:1017900059855B5A800DC3E5529401400302171E20
:1017A00002182730291F202B1CE53B147006C22984
:1017B000D22AE11EF53BC3E5529401400302171EF5
:1017C000203A028062753C0078FA79A4E7600278DA
:1017D00003C3E553985050E523604C303A17203846
:1017E00005203507800F303502800A202B07D22BC9
:1017F000855B59E14E78F0302B05855B597820C325
:10180000E54898500302171E302B1CC22BC23830FB
:101810003502D238D229753B12855B5902171E0555
:101820003CE5526002012A753C00C2AF120C017502
:101830002400752500D2AF120533120C0178A4E6FE
:10184000600CC291D294C292D295C293D296C3E553
:101850003C9404400302142F021658901A0D78206D
:1018600011DBE520B4550AA311DBE520B4AA028000
:10187000137565A57566F1120C1111A275650075D9
:101880006600801D901A0378807B0A11DBA308DBB9
:10189000FA901A0F788C7B1A11DBA308DBFA901AE6
:1018A0002922C2AF311E11FB901A00741011E0A35F
:1018B000744111E0A3742111E0901A0378807B0A2F
:1018C00011DFA308DBFA901A0F788C7B1A11DFA3C3
:1018D00008DBFA3131310F901A2922E493F622E61F
:1018E000438F01538FFDFFC3E583941C400122EF1A
:1018F0008565B78566B7F0538FFE22438F02438F0D
:10190000018565B78566B7901A0DF0538FFC22905C
:101910001A0D745511E0901A0E74AA11E0227A3053
:1019200079D07820901A4011DBE520F709A3DAF787
:10193000227A3079D0901A40E711E009A3DAF9222F
:101940007C05120537DCFB22C2AF120ACB120AD487
:10195000120ADD120AE612052B120ACB120AD41261
:101960000ADD120AE612052B120ACB120AD4120A59
:10197000DD120AE6D2AF22C2AF120AE6120ADD1267
:101980000AD4120ACB12052B120AE6120ADD120A39
:10199000D4120ACB12052B120AE6120ADD120AD45F
:0619A000120ACBD2AF22B7
:1019FD00020F20104121FFFFFFFFFFFF05FF01FF39
:101A0D0055AA01FFFFFFFFFF03FFFFFF0AF05B5029
:0D1A1D0003FF03FF7DFF0601FFFF0101FF36
:101A4000234D5F4C5F303023202020202020202099
:101A500023424C48454C492445464D3842313023B9
:101A600031362E36355F546F6E657320202020206E
:101C0000C2AFC2D37597DE7597AD7581C075A90057
:101C100043FF80752438752503B1DB7529A5752A26
:101C2000F143F10853A4F7D28375D4FF75E3407DE7
:101C3000FA780379E67C10752200752300901DE880
:101C40007B0675249875250130830281482083081E
:101C5000D8FBD9F9DCF781BA308308D8FBD9F9DC95
:101C6000F781BAB19BE493A3C39A6004DDC381BA40
:101C7000DBDBB18D600281317B08E493FAA3B16EA6
:101C8000DBF87A30B16E752200752300B18DEAFC65
:101C9000EBFDC3ED94FE400EB18D8A278B28ED300D
:101CA000E0048A828B83B18D7AC270D8C3ED94FE32
:101CB000601950CEBD0029EC600F7520007521FF22
:101CC000752900752A000200008100A827A92808AC
:101CD00009D804D90281DDB191EAF281D10D81A642
:101CE000C3ED94035051EDA2E092007AC5C3E582A2
:101CF0009400E583941C508C200010438F02438F86
:101D0000018529B7852AB7F0300027A827A9280818
:101D100009438F01538FFDD804D902A132C3E58353
:101D2000941C4003A3A117E28529B7852AB7F0A325
:101D3000A117538FFC81827AC1BD030CE493A3FAEF
:101D4000B152DCF8B14A81828184AA22AB23B16E00
:101D5000EBFAEA6222752608C3E52313F523E52290
:101D600013F52250066323A0632201D526EAB1DBD6
:101D7000B1DB75260AEAF4200102D283300102C2E7
:101D800083B1DBC3134002C201D526EB22B191EA35
:101D9000FB208302A191308302A196752608AE2410
:101DA000AF25C3EF13FFEE13FEB1DFB1DBC3EA13C0
:101DB0003083024480FA30E703632201C3E5231332
:101DC000F523E52213F52250066323A0632201D5F3
:101DD00026D9E52265236523F52222AE24AF250E00
:101DE0000FDEFEDFFCD20122424C48656C693437BD
:061DF0003164E8B10601B8
:00000001FF
