:020000040000FA
:060000000219FD0202ECF2
:03000B0002008D63
:03001300020501E2
:03001B0002009050
:03002B000202B618
:03005B000205108B
:030073000202D9AD
:100080000406080C10182030406080A0C0054032E3
:10009000C2AFC2A853E6EFC28E85698BC0D0D2D35F
:1000A000C0E0C0F0C2CAA8CCA9CDD2CAD2AF758A6E
:1000B00000C3E8956AF8E9956BF9C3E913F9E81309
:1000C000F8E5646007C3E913F9E813F8E97025E877
:1000D000956C4020956C501CE582B410177C007B19
:1000E000007A007908900000A868E5647004C3E80D
:1000F00013F801FD900000D2A8D2AA61B7E0FDC3B9
:100100009CC39840EF98EB33FB0582E0FCC39DC392
:100110009840E198EB33FB0582E0FDC39CC3984017
:10012000D398EB33FB0582E0FCC39DC39840C59890
:10013000EB33FB0582E0FDC39CC39840B798EB33DB
:10014000FB0582E0FCC39DC39840A998EB33FB05F7
:1001500082E0FDC39CC398409B98EB33FB0582E093
:10016000FCC39DC398408D98EB33FB0582217890AA
:100170000000D2A8D2AA61B7E0FDC39CC39840EFAB
:1001800098EA33FA0582E0FCC39DC39840E198EAFF
:1001900033FA0582E0FDC39CC39840D398EA33FA52
:1001A0000582E0FCC39DC39840C598EA33FA0582F6
:1001B000E0FDC39CC39840B798EA33FA0582E0FC9F
:1001C000C39DC39840A998EA33FA0582E0FDC39C19
:1001D000C398409B98EA33FA0582E0FCC39DC3981C
:1001E000408D98EA33FA0582EBC46B6A54F0F9EA61
:1001F000C454F0C3996009900000D2A8D2AA61B794
:10020000EBF4C454F0F9EAF4C4540E49FAEBF4C424
:10021000540FFBC3EA9460FAEB9400FB50067B009A
:100220007A007900303A27C3EA94D0F8EB9407F9C2
:10023000400BE8FAE9FB203509D23541423035025E
:10024000C235203902B235C3EA33FAEB33FBEB2B6C
:100250003B3BF9C3EB13FBEA13FAEA29FAEB340050
:10026000FB30E3047AFF7BFFE5255403601B202A63
:1002700018E55B33F9EB7007C3E99A4002E9FAE548
:100280003CC4332AFAEB3400FBC3EA33C4540FF8FE
:10029000EB33C454F048F87005EA6002780190002E
:1002A00000D2A8D2AAE5226002152281A490000003
:1002B000D2A8D2AA61B7C0D0C0E0C2CF0541E564E0
:1002C0006009E563600575630041D4756301E5234A
:1002D00060021523D0E0D0D032C2AF53E67F7592D2
:1002E000FA7593FFC22053917FD2AF32C0E0E58A06
:1002F00030340885698BF0A3D0E032D0E0C2AF5330
:10030000E6EFC0D0C0E0C0F0D2D3D2AF5388EFA8A0
:100310008AA98CAA40308D010A758A00758C0075F7
:100320004000438810E564700AC3E833F8E933F904
:10033000EA33FA30331FE8C4540FFAE9C454F04AE0
:10034000FAC3132AFAC3E833F8E933F9E82AFAE9D9
:100350003406FB61A830320FC3E833E933FAE82AE8
:10036000FAE93400FB61A8303115E875F056A4AA0B
:10037000F0E975F056A42AFAC5F03400FB61A8C371
:10038000EA13FAE913F9E813F8E875F056A4AAF0AD
:10039000E975F056A42AFAC5F03400C313FBEA133A
:1003A000FAC3EB13FBEA13FAC3EB94125009C3EA46
:1003B0009434EB940750160522E52270021522C3EF
:1003C000E5229432500281F475520081F7E52260F3
:1003D0000215223036067C007D0861E7AC31AD3273
:1003E000303A04AC33AD34C3EA9CFAEB9DFB92087F
:1003F000AE5EAF5F303A425007203509D2358105F5
:10040000303502C235303504AE60AF61203902B2FA
:1004100035C3EA33FAEB33FBA208500AEAF42401AD
:10042000FAEBF43400FBC3EA9450FAEB9400FB506F
:100430001478007A007B008145A208500878007A81
:10044000007B0081A4E5255403601B202A18E55B8E
:1004500033F9EB7007C3E99A4002E9FAE53CC4338B
:100460002AFAEB3400FBEA8EF0A4F9AAF0EB8EF046
:10047000A42AFAC5F03400FBC3EB13FDEA13F8C35A
:10048000ED13FDE813F80FEF146004C3E833F8C36D
:10049000E933EA33FAEB33FBDFEDEB30E30678FFC9
:1004A0007AFF7B078852D230C3E559FC955A400247
:1004B000AC5AC3EC95525008EC75F008A4FAABF0B6
:1004C000EAF4F8EBF45407F98854895575230AE5E2
:1004D0005830E210D0F0D0E0D0D053F7DF43F740EF
:1004E00043E61032D0F0D0E0D0D053D8FE43DA014A
:1004F00043E6103275230AD0F0D0E0D0D043E610A6
:1005000032C2AAD28EC2CA85CC6A85CD6BD2CA321B
:10051000C2AFC0D0C0E0D2D38554FB8555FC855511
:100520005853F7BF53DAFED2A8303402D2AA53E6AA
:10053000EFC3E55294014005755300A148E55324EB
:1005400001F55350037553FF53F7DF53D8FED0E046
:10055000D0D0D2AF327901801479038010790A802B
:100560000C791E80087964800479C880007817E4CB
:10057000D5E0FDD8FAD9F62278FF20282879A1E71E
:100580006023E548601F74FF8548F084853FF030A4
:10059000290375F005A4F8C5F0600278FFC3E8955B
:1005A0005B5002A85B885A22C3E54794A0E54894B3
:1005B00000E55A500314A1B9046002F55A2275E807
:1005C0009022055CC3E55C9408405330EDF4A8BD6F
:1005D000A9BE755C00E9FA79A0E76041EA7006E51A
:1005E0005D6018800CC3E8955D600EE55D500560A8
:1005F0000A1480070460FA8002E55DF55DC3956723
:10060000401B7559C0C394044013755980C39404AA
:10061000400B755940C39404400375590022E559B5
:100620002410500274FFF55922743279A687F0A481
:10063000C5F0A2F733F8C3E895594002A859885B82
:10064000227547007548F022C2AFC2CAA8CCA9CD16
:10065000AA4130CF010AD2CAD2AFC3EA13FAE913D2
:10066000F9E813F8AB42AC4388428943C3E89BF8EE
:10067000E99C20280A547FF9302C02E166C1BFAD05
:10068000448A44F9EA9D547FFA600678FF79FFC1F5
:10069000A4AE45AF468B458C46A842A943C3E89E0D
:1006A000F8E99FF9C3E54813FBE54713FAE82AF593
:1006B00047E93BF54850067547FF7548FFE10CAA2E
:1006C00047AB48AC47AD487E047F02C3EB9404407F
:1006D0000D1E1FC3EB940840052029021E1FC3ED09
:1006E00013FDEC13FCDEF7C3EA9CFAEB9DFBEF6015
:1006F00009C3E913F9E813F8DFF7EA28FAEB39FB45
:100700008A478B4850067BFF8B478B48C3EB94028C
:100710005002D22C3028047F03E1377892E6FFC3E1
:10072000E53D948240110FC3E53D94A040010FC305
:10073000EF940640027F057E02E548C4540FF9E5B8
:1007400048C454F0F8E547C4540F28F8C3E89EFAAB
:10075000E99400FB4009C3EA9401EB940050047A49
:1007600001E4FB0207B2AA47AB48EBC4FEEAC4545B
:100770000F4EFCC3EA9CFAEB9400FBC3E813C313CF
:10078000F8EA28FAEB3400FB8A478B48C3EB940263
:100790004002C22C7802EBC4FE7B00EAC4540F4E28
:1007A000FAC3EA98FA4005C3940150027A0178929C
:1007B000E6FF302002E1B2854E92854F93D220436E
:1007C000E680C3E49AF8E49BF9C3E833F8E933F927
:1007D000302C03020847E8FAE9FBD3E913FDE813DC
:1007E000FC884E894FC3EF94036038EF20E00CE89B
:1007F0002CF8E93DF9ECFAEDFB8013E828F8E9392B
:10080000F9C3E82401F8E93400F97AFF7BFFC3EF6C
:100810009403400F8A508B51884A894B8C4C8D4DE4
:1008200002087C885089518A4A8B4B8C4C8D4D3004
:1008300028127550F07551FF754CF0754DFF754ECF
:10084000F0754FFF02087CE8FAD3E813FC884EC32A
:10085000EF94036021EF20E007E82CF8ECFA016741
:10086000E8282401F87AFFC3EF940340098A5088EE
:100870004A8C4C02087C88508A4A8C4C30200201F9
:100880007C753A02D22043E680E5255403602DA80A
:1008900047A948C3E913F9E813F8302804E92440CC
:1008A000F9C2AF53E67F759100C3E498F594E499DB
:1008B000F595759104D22043E680D2AF22D22175FE
:1008C0004900752000302B0375204001DBD22175D3
:1008D0004900752040302B037520007801790120F4
:1008E0002C20E52554036002C2217914E548C31386
:1008F000700104F8C3941440027814302804781B63
:10090000791BC3E833F8C3E933F9202010E54960C7
:100910000C302803D53A04D223218F11840549E5F0
:100920009BF45440B52002217930280908C3E89986
:10093000400118210A20210A08C3E899400201DB7E
:10094000210AC22153E67F759100302C1175940065
:100950007595F0759104D22043E6800208DBE548E6
:100960007EFFC3334009C3334005C3334001FEC398
:10097000E49E759400F5952153C3E5399401500226
:1009800001DB30210201DBD802218D210AC223C202
:10099000AF53E67F7591008550948551957591040C
:1009A000854A92854B93D22043E680D2AFE5255409
:1009B0000360072029020539801030230D202B0AFF
:1009C000202107158115810215F6227800302102B9
:1009D0007801E53D75F007A4F9E5F028F5F0E9A206
:1009E000F013A2F113A2F213F53DC39478500375EE
:1009F0003D78C3E53D953E400BD222D291D293D2B1
:100A00009575D53F3020024104854C92854D93D297
:100A10002043E68022203814C2AFD293C290C29104
:100A2000C29575D52FD2AF759F036115C2AFD29312
:100A3000C294C295C29175D53ED2AF759F03611520
:100A4000203814C2AFD295C29375D53BC290C291E3
:100A5000D2AF759F136115C2AFD291C29375D53BCA
:100A6000C294C295D2AF759F236115203814C2AFCE
:100A7000D291C294C295C29375D53BD2AF759F23D4
:100A80006115C2AFD295C290C291C29375D53BD2C7
:100A9000AF759F136115203814C2AFD293C2917500
:100AA000D53EC294C295D2AF759F038068C2AFD2C3
:100AB00093C29575D52FC290C291D2AF759F038016
:100AC00054203814C2AFD295C292C293C29175D548
:100AD0003ED2AF759F13803DC2AFD291C292C293F6
:100AE000C29575D52FD2AF759F238029203814C2A7
:100AF000AFD291C29575D52FC292C293D2AF759FD6
:100B0000238012C2AFD295C29175D53EC292C293D4
:100B1000D2AF759F13C22222203E707A147BC88008
:100B200019203E717A107B8C8010203E727A0D7BEA
:100B3000B48007203E737A0B7BC8303F01227902D4
:100B4000E4D293D5E0FDD292C293D5E0FDD293D505
:100B5000E0FDC292C293D5E0FDE920E004D290C24C
:100B60009130E004D294C295E562D5E0FDE920E041
:100B700002D29130E002D2957496D5E0FDD9C1EA57
:100B8000F8D5E0FDD8FBDBB6D293227A507C507BBF
:100B9000057D1480407A327C287B147D2880367A4B
:100BA0003C7CB47B047D0A802C7A967C327B027D6F
:100BB0001E80227A647C287B057D0F80187888E669
:100BC00014D23C7AC87C327B037D3C80087AC87C96
:100BD000507B057D46303F0122EBF8303C15203D2F
:100BE000091CECB40112B23D800E0CECB43209B217
:100BF0003D80051CEC70010CECC0E0E8C0E0EDC0ED
:100C0000E0303B13C292C293D290C291E562D5E02C
:100C1000FDD291D2938011C292C293D294C295E533
:100C200062D5E0FDD295D293B23BD0E0FDFED0E09C
:100C3000F8D0E0FCF97464D5E0FDDEF9744BD5E042
:100C4000FDD9F9203BB2D8B0DA0122DA8C22D29158
:100C5000D293D295D291D293D29575D53F227880F6
:100C600076FF0876FF0876FF0876FF0876FF08769D
:100C7000FF0876050876FF087601788C76010876FD
:100C8000FF0876FF0876FF0876FF0876FF087603F0
:100C90000876FF0876FF0876FF08760A0876F008DF
:100CA000765B0876500876030876FF0876030876A8
:100CB000FF08767D0876FF0876060876010876FF3D
:100CC0000876FF08760108760122FA75F00CA4ABCD
:100CD000F0EAC333F8740133F9E8C333F8E933F9C0
:100CE000E8C32BF8E93400F9E8C333F8E933F92213
:100CF0007888E6C39403D23A5002C23AC238E6304A
:100D0000E102D238A23892397886E61490008093B6
:100D100078A6F67886E6F53FC394025003753F0245
:100D2000789CE6753EFFB40203753EA0B4030375DC
:100D30003E8278A0E6F8600674282409D8FCF5679E
:100D40007896E691CA88318932789EE691CA8833CE
:100D500089347897E691CA88358936914E223036A3
:100D6000117A007B007CFF7D007E00B1C48B5F8A1E
:100D70005E22303A227896E6FA7B00789EE6FC7D89
:100D800000C3EA33FAEB33FBC3EC33FCED33FD7EF7
:100D90000AB1C48B618A607896303A02789EE6FA8E
:100DA0007B007897E6FC7D007E00303A10C3EA3382
:100DB000FAEB33FBC3EC33FCED33FD7E0AB1C48B9D
:100DC0005F8A5E22C3EC9EFCED9400FDC3EC9AFCAE
:100DD000ED9BFDC3EC9423ED940050047C237D0037
:100DE000C3EC94FFED940140047CFF7D017BFF0B7D
:100DF0007A000AEA7009C3EC33FCED33FDA1EFEC95
:100E00008AF0A4AEF0ED8AF0A42E947C40E4EAF4DB
:100E100060DD22D236B15E1205611205617A007B77
:100E2000007C10120559E5522AFA74003BFBDCF3F2
:100E30007C04C3EB13FBEA13FADCF7FFEB60027FE1
:100E4000FFC236B15E2278A5E6F954037000E9547A
:100E50000C7000E954307000E954C07000227ADC54
:100E60007B367C02C1E47A3A7B1D7C02C1E47A3E87
:100E70007B047C02806E7AA47B067C0380667ADE2B
:100E80007B6E7C02805E7A847B2B7C0380567A8426
:100E90007B1D7C02804E7A587BAC7C0280467A6255
:100EA0007B6E7C02803E7A417BB67C0180367A493B
:100EB0007B8C7C01802E7A927B8C7C0180267A4E02
:100EC0007B797C01801E7A527B677C0180167AA434
:100ED0007B677C01800E7A577B567C0180067AC442
:100EE0007B377C01ECC0E0C292C293D290C291E504
:100EF00062D5E0FDD291D293D0E0FCF9EBFD7817FA
:100F0000E4D5E0FDD8FAD9F6741ED5E0FDDDF9DAB6
:100F1000D322120561740220310E0420320A04200B
:100F20003306042034027401C0E07118120565D044
:100F3000E0D5E0F42230341EE56CC3941E400C94DE
:100F40001E40028011712A712A800B7121712112B9
:100F50000565712A712A1205657133713322756531
:100F6000007566007597DE7597AD7581C043FF808B
:100F700075EF0475A900914E7580FF75F1F075A4A9
:100F8000007580FF75D4FF75902A75F23F75A53FF7
:100F900075902A75D53F75A60175E34075E20291FB
:100FA0004EE4F8F6D8FD915E12163F789886627589
:100FB0003001C2AF120569D146120569120569E513
:100FC00062147005D23F0211EDC23F945914601AA9
:100FD00014600C14603F1460030211DE0210F2D2A0
:100FE0003E71BD71BD71BD0211ED120569D17E1258
:100FF0000565D17E120565D17E120565D186120E7A
:101000008E120E7E120565120E86120E8E120E7E46
:10101000120E7E21ED120569120EDE12055D120E12
:10102000A6120EA612055D120EBE12055D120ED698
:1010300012055D120EDE12055D120EA6120EA6122C
:10104000055D120EBE12055D120ED612055D120E62
:10105000DE12055D120EA6120EA612055D120EBE60
:1010600012055D120ED612055D120EDE12055D121E
:101070000EA6120EA612055D120EBE12055D120E10
:10108000D612055D120EB612055D120E9E12055D9A
:10109000120E6612055D120EA612055D120EB61234
:1010A000055D120E9E12055D120E6612055D120E92
:1010B000A612055D120EB612055D120E9E12055D9A
:1010C000120E6612055D120EA612055D120EB61204
:1010D000055D120E9E12055D120E6612055D120E62
:1010E000A612055D120ED6120ED612055D120E96D0
:1010F00021ED120E5E12055D120E5E12055D1205E7
:101100005D120EC6120559120EC6120559120EC6F0
:10111000120559120EC612055D12055D120E9E12C1
:101120000E9E12055D120E9E120E9E12055D120598
:101130005D120EAE120559120EAE120559120EAE08
:10114000120559120EAE12055D12055D120E9612B1
:101150000E9612055D120E96120E9612055D120580
:101160005D120EA6120559120EA6120559120EA6F0
:10117000120559120EA612055D12055D120E7612A9
:10118000055D120E7612055D12055D120E6E1205DA
:1011900059120E6E120559120E6E120559120E6E6C
:1011A00012055D12055D120E5E120E5E12055D12D5
:1011B000055D120E9E120E9E120E9E120E9E1205BE
:1011C0005D12055D120E96120E96120E96120E9676
:1011D00012055D12055D120E76120E76800F120B4F
:1011E00018120561120B21120561120B2A120561FA
:1011F000C2AF75650075660078FA79FA308507D94F
:10120000FBD8F7021C00120CF0120D5E7898866273
:10121000120C4E75A91375A71075C10075A700753E
:10122000640075E405758811758E0475890975C8A3
:101230000475910475D84075D90875F783759E00BB
:1012400075960075DA4A75DB0075A82375E690750A
:10125000B801759B80759D0075D10C75BCB975BBC7
:101260001075E88075B201120555D2AF753C00C209
:1012700030120569C231C232C233C2347522001243
:101280000565C3E522940A50026141D231752200FE
:10129000120565C3E522940A50026141C231D2327F
:1012A000752200120565C3E522940A50026141755A
:1012B000E4D5758851758E017589AA758C00758D78
:1012C00000C2A9D2ABD2AA756980756814756C503A
:1012D000C232D23475220A120565756810C3E52240
:1012E000940A405D758E0C756900756828756C28C8
:1012F00075220A120565756820C3E522940A4041EB
:10130000758E0C756980756814756C1475220A12D7
:101310000565756810C3E522940A402575E40575D6
:101320008811758E04758909D2A9C2ABC2AAC234CC
:10133000D233752200120565C3E522940A400221CA
:10134000F01205592030030211F0C2AF120F12D271
:10135000AF120569203403303A0302140312055911
:10136000788CE6C3940150028103E530C3940150A8
:101370000281037565A57566F17F02D236120D5E96
:10138000120565C2AFC236120D5EC3E552947FD21C
:10139000AF4070120555C2AF120B33D2AFDFDC1273
:1013A0000E13C3EF7897F6120569F12C7F0AD23637
:1013B000120D5E120565C2AFC236120D5EC3E55254
:1013C000947FD2AF50E6120555C2AF120B1812052A
:1013D0005D120B18D2AFDFD6120E13EF24037896EE
:1013E000F6F87997E7C394234003985006E824233E
:1013F0007897F6120569D186F15B120565120D5ECC
:101400000211F0756500756600120565C3E552941A
:101410000140026154C2AF120565120F35D2AF12FE
:101420000569753000E4F537F5380537E537F470B0
:101430003F0538789AE67819146012783214600DF6
:10144000787D14600878FA146003753800C3E538B5
:1014500098401D120C4E12055515387537007899B5
:101460008662C2AF120BB3D2AF789886621205655E
:1014700012055DE523700221F0C3E552940140AAF4
:10148000120565E52370030211F0C2AF120C4EE4A1
:10149000D2AFE4F55CF524F525F53D755C08120541
:1014A000551205BE30EDFDA8BDA9BEE97001F88852
:1014B0005D1205C2755C08C2AF7559FF1206298519
:1014C0005B59855B5AD2AF75A71075C13075A700FF
:1014D00075A903756401303A07C238303502D23835
:1014E000D228753900120AC1120AEC1206411206FE
:1014F000481206411206481206411208CD1209CBC5
:10150000120A151206481208BD202C031205783065
:101510002C031205A81209CB120A40120648120821
:10152000CD1209CB120A6B1206481208BD1209CB64
:10153000120A961206481208CD1209CB120AC112DD
:1015400006481205BE1208BD1209CB120AEC12059C
:10155000C2120648302827855B5979187A0CC3E5F2
:101560003999400EC228D2298A3B855B59855B5A3E
:10157000800CC3E552940140030214FAA1FE302905
:101580001C202B19E53B147006C229D22A81FAF5DA
:101590003BC3E552940140030214FA8061753C009C
:1015A00078FA79A4E760027803C3E55398504FE5D1
:1015B00023604B303A17203805203507800F30352F
:1015C00002800A202B07D22B855B59A12A78F030A4
:1015D0002B05855B597820C3E5489850030214FA1F
:1015E000302B1BC22BC238303502D238D229753B82
:1015F00012855B5981FA053CE5526002C101753CD8
:1016000000C2AF120C4E75240075250075A9137524
:10161000A71075C10075A700756400D2AF120565EB
:10162000120C4E78A4E6600CC290C291C292C29392
:10163000C294C295C3E53C9404400221F0812590F8
:101640001A0D7820D1BFE520B4550AA3D1BFE520FB
:10165000B4AA0280137565A57566F1120C5ED18679
:10166000756500756600801D901A0378807B0AD12D
:10167000BFA308DBFA901A0F788C7B1AD1BFA3089E
:10168000DBFA901A2922C2AFF102D1DF901A00745E
:1016900010D1C4A37433D1C4A37421D1C4901A034C
:1016A00078807B0AD1C3A308DBFA901A0F788C7B71
:1016B0001AD1C3A308DBFAF115D1F3901A2922E459
:1016C00093F622E6438F01538FFDFFC3E583941CFD
:1016D000400122EF8565B78566B7F0538FFE224340
:1016E0008F02438F018565B78566B7901A0DF05359
:1016F0008FFC22901A0D7455D1C4901A0E74AAD181
:10170000C4227A3079D07820901A40D1BFE520F7F2
:1017100009A3DAF7227A3079D0901A40E7D1C409C8
:10172000A3DAF9227C05120569DCFB22C2AF120B99
:1017300018120B21120B2A120B3312055D120B1813
:10174000120B21120B2A120B3312055D120B181209
:101750000B21120B2A120B33D2AF22C2AF120B3362
:10176000120B2A120B21120B1812055D120B3312E9
:101770000B2A120B21120B1812055D120B33120BE0
:0A1780002A120B21120B18D2AF221F
:1019FD00020F5E103321FFFFFFFFFFFF05FF01FF09
:101A0D0055AA01FFFFFFFFFF03FFFFFF0AF05B5029
:0D1A1D0003FF03FF7DFF0601FFFF0101FF36
:101A4000234F5F485F30302320202020202020209B
:101A500023424C48454C492445464D3842323123B7
:101A600031362E35315F5374617274546F6E657305
:101C0000C2AFC2D37597DE7597AD7581C075A90057
:101C100043FF80752438752503B1DB7529A5752A26
:101C2000F143F12053A4DFD28575D4FF75E3407DE5
:101C3000FA780379E67C10752200752300901DE880
:101C40007B0675249875250130850281482085081A
:101C5000D8FBD9F9DCF781BA308508D8FBD9F9DC93
:101C6000F781BAB19BE493A3C39A6004DDC381BA40
:101C7000DBDBB18D600281317B08E493FAA3B16EA6
:101C8000DBF87A30B16E752200752300B18DEAFC65
:101C9000EBFDC3ED94FE400EB18D8A278B28ED300D
:101CA000E0048A828B83B18D7AC270D8C3ED94FE32
:101CB000601950CEBD0029EC600F7520007521FF22
:101CC000752900752A000200008100A827A92808AC
:101CD00009D804D90281DDB191EAF281D10D81A642
:101CE000C3ED94035051EDA2E092007AC5C3E582A2
:101CF0009400E583941C508C200010438F02438F86
:101D0000018529B7852AB7F0300027A827A9280818
:101D100009438F01538FFDD804D902A132C3E58353
:101D2000941C4003A3A117E28529B7852AB7F0A325
:101D3000A117538FFC81827AC1BD030CE493A3FAEF
:101D4000B152DCF8B14A81828184AA22AB23B16E00
:101D5000EBFAEA6222752608C3E52313F523E52290
:101D600013F52250066323A0632201D526EAB1DBD6
:101D7000B1DB75260AEAF4200102D285300102C2E5
:101D800085B1DBC3134002C201D526EB22B191EA33
:101D9000FB208502A191308502A196752608AE240C
:101DA000AF25C3EF13FFEE13FEB1DFB1DBC3EA13C0
:101DB0003085024480FA30E703632201C3E5231330
:101DC000F523E52213F52250066323A0632201D5F3
:101DD00026D9E52265236523F52222AE24AF250E00
:101DE0000FDEFEDFFCD20122424C48656C693437BD
:061DF0003164E8B20601B7
:00000001FF
